{
  "fileName": "BounceERC721V2.sol",
  "contractName": "BounceERC721V2",
  "source": "// SPDX-License-Identifier: MIT\n\npragma solidity ^0.6.0;\n\nimport \"@openzeppelin/contracts/token/ERC721/ERC721.sol\";\nimport \"./Access.sol\";\n\ncontract BounceERC721V2 is ERC721, Access {\n    constructor (string memory name_, string memory symbol_, Mode mode_) public ERC721(name_, symbol_) Access(mode_) {}\n\n    // tokenid => creator address\n    mapping(uint256 => address) public creator;\n\n    function setBaseURI(string memory baseURI_) external onlyOwner {\n        super._setBaseURI(baseURI_);\n    }\n\n    function mint(address to, uint256 tokenId) external checkRole {\n        super._safeMint(to, tokenId);\n        creator[tokenId] = to;\n    }\n\n    function burn(uint256 tokenId) external checkRole {\n        super._burn(tokenId);\n        creator[tokenId] = address(0);\n    }\n\n    function batchMint(address to, uint256 fromTokenId, uint256 toTokenId) external checkRole {\n        for (uint256 tokenId = fromTokenId; tokenId <= toTokenId; tokenId++) {\n            super._safeMint(to, tokenId);\n            creator[tokenId] = to;\n        }\n    }\n}\n",
  "sourcePath": "contracts/BounceERC721V2.sol",
  "abi": [
    {
      "inputs": [
        {
          "internalType": "string",
          "name": "name_",
          "type": "string"
        },
        {
          "internalType": "string",
          "name": "symbol_",
          "type": "string"
        },
        {
          "internalType": "enum Access.Mode",
          "name": "mode_",
          "type": "uint8"
        }
      ],
      "stateMutability": "nonpayable",
      "type": "constructor"
    },
    {
      "anonymous": false,
      "inputs": [
        {
          "indexed": true,
          "internalType": "address",
          "name": "owner",
          "type": "address"
        },
        {
          "indexed": true,
          "internalType": "address",
          "name": "approved",
          "type": "address"
        },
        {
          "indexed": true,
          "internalType": "uint256",
          "name": "tokenId",
          "type": "uint256"
        }
      ],
      "name": "Approval",
      "type": "event"
    },
    {
      "anonymous": false,
      "inputs": [
        {
          "indexed": true,
          "internalType": "address",
          "name": "owner",
          "type": "address"
        },
        {
          "indexed": true,
          "internalType": "address",
          "name": "operator",
          "type": "address"
        },
        {
          "indexed": false,
          "internalType": "bool",
          "name": "approved",
          "type": "bool"
        }
      ],
      "name": "ApprovalForAll",
      "type": "event"
    },
    {
      "anonymous": false,
      "inputs": [
        {
          "indexed": true,
          "internalType": "bytes32",
          "name": "role",
          "type": "bytes32"
        },
        {
          "indexed": true,
          "internalType": "bytes32",
          "name": "previousAdminRole",
          "type": "bytes32"
        },
        {
          "indexed": true,
          "internalType": "bytes32",
          "name": "newAdminRole",
          "type": "bytes32"
        }
      ],
      "name": "RoleAdminChanged",
      "type": "event"
    },
    {
      "anonymous": false,
      "inputs": [
        {
          "indexed": true,
          "internalType": "bytes32",
          "name": "role",
          "type": "bytes32"
        },
        {
          "indexed": true,
          "internalType": "address",
          "name": "account",
          "type": "address"
        },
        {
          "indexed": true,
          "internalType": "address",
          "name": "sender",
          "type": "address"
        }
      ],
      "name": "RoleGranted",
      "type": "event"
    },
    {
      "anonymous": false,
      "inputs": [
        {
          "indexed": true,
          "internalType": "bytes32",
          "name": "role",
          "type": "bytes32"
        },
        {
          "indexed": true,
          "internalType": "address",
          "name": "account",
          "type": "address"
        },
        {
          "indexed": true,
          "internalType": "address",
          "name": "sender",
          "type": "address"
        }
      ],
      "name": "RoleRevoked",
      "type": "event"
    },
    {
      "anonymous": false,
      "inputs": [
        {
          "indexed": true,
          "internalType": "address",
          "name": "from",
          "type": "address"
        },
        {
          "indexed": true,
          "internalType": "address",
          "name": "to",
          "type": "address"
        },
        {
          "indexed": true,
          "internalType": "uint256",
          "name": "tokenId",
          "type": "uint256"
        }
      ],
      "name": "Transfer",
      "type": "event"
    },
    {
      "inputs": [],
      "name": "DEFAULT_ADMIN_ROLE",
      "outputs": [
        {
          "internalType": "bytes32",
          "name": "",
          "type": "bytes32"
        }
      ],
      "stateMutability": "view",
      "type": "function"
    },
    {
      "inputs": [
        {
          "internalType": "address",
          "name": "to",
          "type": "address"
        },
        {
          "internalType": "uint256",
          "name": "tokenId",
          "type": "uint256"
        }
      ],
      "name": "approve",
      "outputs": [],
      "stateMutability": "nonpayable",
      "type": "function"
    },
    {
      "inputs": [
        {
          "internalType": "address",
          "name": "owner",
          "type": "address"
        }
      ],
      "name": "balanceOf",
      "outputs": [
        {
          "internalType": "uint256",
          "name": "",
          "type": "uint256"
        }
      ],
      "stateMutability": "view",
      "type": "function"
    },
    {
      "inputs": [],
      "name": "baseURI",
      "outputs": [
        {
          "internalType": "string",
          "name": "",
          "type": "string"
        }
      ],
      "stateMutability": "view",
      "type": "function"
    },
    {
      "inputs": [
        {
          "internalType": "address",
          "name": "to",
          "type": "address"
        },
        {
          "internalType": "uint256",
          "name": "fromTokenId",
          "type": "uint256"
        },
        {
          "internalType": "uint256",
          "name": "toTokenId",
          "type": "uint256"
        }
      ],
      "name": "batchMint",
      "outputs": [],
      "stateMutability": "nonpayable",
      "type": "function"
    },
    {
      "inputs": [
        {
          "internalType": "uint256",
          "name": "tokenId",
          "type": "uint256"
        }
      ],
      "name": "burn",
      "outputs": [],
      "stateMutability": "nonpayable",
      "type": "function"
    },
    {
      "inputs": [
        {
          "internalType": "enum Access.Mode",
          "name": "mode_",
          "type": "uint8"
        }
      ],
      "name": "changeMode",
      "outputs": [],
      "stateMutability": "nonpayable",
      "type": "function"
    },
    {
      "inputs": [
        {
          "internalType": "uint256",
          "name": "",
          "type": "uint256"
        }
      ],
      "name": "creator",
      "outputs": [
        {
          "internalType": "address",
          "name": "",
          "type": "address"
        }
      ],
      "stateMutability": "view",
      "type": "function"
    },
    {
      "inputs": [
        {
          "internalType": "uint256",
          "name": "tokenId",
          "type": "uint256"
        }
      ],
      "name": "getApproved",
      "outputs": [
        {
          "internalType": "address",
          "name": "",
          "type": "address"
        }
      ],
      "stateMutability": "view",
      "type": "function"
    },
    {
      "inputs": [
        {
          "internalType": "bytes32",
          "name": "role",
          "type": "bytes32"
        }
      ],
      "name": "getRoleAdmin",
      "outputs": [
        {
          "internalType": "bytes32",
          "name": "",
          "type": "bytes32"
        }
      ],
      "stateMutability": "view",
      "type": "function"
    },
    {
      "inputs": [
        {
          "internalType": "bytes32",
          "name": "role",
          "type": "bytes32"
        },
        {
          "internalType": "uint256",
          "name": "index",
          "type": "uint256"
        }
      ],
      "name": "getRoleMember",
      "outputs": [
        {
          "internalType": "address",
          "name": "",
          "type": "address"
        }
      ],
      "stateMutability": "view",
      "type": "function"
    },
    {
      "inputs": [
        {
          "internalType": "bytes32",
          "name": "role",
          "type": "bytes32"
        }
      ],
      "name": "getRoleMemberCount",
      "outputs": [
        {
          "internalType": "uint256",
          "name": "",
          "type": "uint256"
        }
      ],
      "stateMutability": "view",
      "type": "function"
    },
    {
      "inputs": [
        {
          "internalType": "bytes32",
          "name": "role",
          "type": "bytes32"
        },
        {
          "internalType": "address",
          "name": "account",
          "type": "address"
        }
      ],
      "name": "grantRole",
      "outputs": [],
      "stateMutability": "nonpayable",
      "type": "function"
    },
    {
      "inputs": [
        {
          "internalType": "address",
          "name": "target",
          "type": "address"
        }
      ],
      "name": "grantRoleWhitelist",
      "outputs": [],
      "stateMutability": "nonpayable",
      "type": "function"
    },
    {
      "inputs": [
        {
          "internalType": "bytes32",
          "name": "role",
          "type": "bytes32"
        },
        {
          "internalType": "address",
          "name": "account",
          "type": "address"
        }
      ],
      "name": "hasRole",
      "outputs": [
        {
          "internalType": "bool",
          "name": "",
          "type": "bool"
        }
      ],
      "stateMutability": "view",
      "type": "function"
    },
    {
      "inputs": [
        {
          "internalType": "address",
          "name": "owner",
          "type": "address"
        },
        {
          "internalType": "address",
          "name": "operator",
          "type": "address"
        }
      ],
      "name": "isApprovedForAll",
      "outputs": [
        {
          "internalType": "bool",
          "name": "",
          "type": "bool"
        }
      ],
      "stateMutability": "view",
      "type": "function"
    },
    {
      "inputs": [
        {
          "internalType": "address",
          "name": "to",
          "type": "address"
        },
        {
          "internalType": "uint256",
          "name": "tokenId",
          "type": "uint256"
        }
      ],
      "name": "mint",
      "outputs": [],
      "stateMutability": "nonpayable",
      "type": "function"
    },
    {
      "inputs": [],
      "name": "mode",
      "outputs": [
        {
          "internalType": "enum Access.Mode",
          "name": "",
          "type": "uint8"
        }
      ],
      "stateMutability": "view",
      "type": "function"
    },
    {
      "inputs": [],
      "name": "name",
      "outputs": [
        {
          "internalType": "string",
          "name": "",
          "type": "string"
        }
      ],
      "stateMutability": "view",
      "type": "function"
    },
    {
      "inputs": [
        {
          "internalType": "uint256",
          "name": "tokenId",
          "type": "uint256"
        }
      ],
      "name": "ownerOf",
      "outputs": [
        {
          "internalType": "address",
          "name": "",
          "type": "address"
        }
      ],
      "stateMutability": "view",
      "type": "function"
    },
    {
      "inputs": [
        {
          "internalType": "bytes32",
          "name": "role",
          "type": "bytes32"
        },
        {
          "internalType": "address",
          "name": "account",
          "type": "address"
        }
      ],
      "name": "renounceRole",
      "outputs": [],
      "stateMutability": "nonpayable",
      "type": "function"
    },
    {
      "inputs": [
        {
          "internalType": "bytes32",
          "name": "role",
          "type": "bytes32"
        },
        {
          "internalType": "address",
          "name": "account",
          "type": "address"
        }
      ],
      "name": "revokeRole",
      "outputs": [],
      "stateMutability": "nonpayable",
      "type": "function"
    },
    {
      "inputs": [
        {
          "internalType": "address",
          "name": "target",
          "type": "address"
        }
      ],
      "name": "revokeRoleWhitelist",
      "outputs": [],
      "stateMutability": "nonpayable",
      "type": "function"
    },
    {
      "inputs": [
        {
          "internalType": "address",
          "name": "from",
          "type": "address"
        },
        {
          "internalType": "address",
          "name": "to",
          "type": "address"
        },
        {
          "internalType": "uint256",
          "name": "tokenId",
          "type": "uint256"
        }
      ],
      "name": "safeTransferFrom",
      "outputs": [],
      "stateMutability": "nonpayable",
      "type": "function"
    },
    {
      "inputs": [
        {
          "internalType": "address",
          "name": "from",
          "type": "address"
        },
        {
          "internalType": "address",
          "name": "to",
          "type": "address"
        },
        {
          "internalType": "uint256",
          "name": "tokenId",
          "type": "uint256"
        },
        {
          "internalType": "bytes",
          "name": "_data",
          "type": "bytes"
        }
      ],
      "name": "safeTransferFrom",
      "outputs": [],
      "stateMutability": "nonpayable",
      "type": "function"
    },
    {
      "inputs": [
        {
          "internalType": "address",
          "name": "operator",
          "type": "address"
        },
        {
          "internalType": "bool",
          "name": "approved",
          "type": "bool"
        }
      ],
      "name": "setApprovalForAll",
      "outputs": [],
      "stateMutability": "nonpayable",
      "type": "function"
    },
    {
      "inputs": [
        {
          "internalType": "string",
          "name": "baseURI_",
          "type": "string"
        }
      ],
      "name": "setBaseURI",
      "outputs": [],
      "stateMutability": "nonpayable",
      "type": "function"
    },
    {
      "inputs": [
        {
          "internalType": "bytes4",
          "name": "interfaceId",
          "type": "bytes4"
        }
      ],
      "name": "supportsInterface",
      "outputs": [
        {
          "internalType": "bool",
          "name": "",
          "type": "bool"
        }
      ],
      "stateMutability": "view",
      "type": "function"
    },
    {
      "inputs": [],
      "name": "symbol",
      "outputs": [
        {
          "internalType": "string",
          "name": "",
          "type": "string"
        }
      ],
      "stateMutability": "view",
      "type": "function"
    },
    {
      "inputs": [
        {
          "internalType": "uint256",
          "name": "index",
          "type": "uint256"
        }
      ],
      "name": "tokenByIndex",
      "outputs": [
        {
          "internalType": "uint256",
          "name": "",
          "type": "uint256"
        }
      ],
      "stateMutability": "view",
      "type": "function"
    },
    {
      "inputs": [
        {
          "internalType": "address",
          "name": "owner",
          "type": "address"
        },
        {
          "internalType": "uint256",
          "name": "index",
          "type": "uint256"
        }
      ],
      "name": "tokenOfOwnerByIndex",
      "outputs": [
        {
          "internalType": "uint256",
          "name": "",
          "type": "uint256"
        }
      ],
      "stateMutability": "view",
      "type": "function"
    },
    {
      "inputs": [
        {
          "internalType": "uint256",
          "name": "tokenId",
          "type": "uint256"
        }
      ],
      "name": "tokenURI",
      "outputs": [
        {
          "internalType": "string",
          "name": "",
          "type": "string"
        }
      ],
      "stateMutability": "view",
      "type": "function"
    },
    {
      "inputs": [],
      "name": "totalSupply",
      "outputs": [
        {
          "internalType": "uint256",
          "name": "",
          "type": "uint256"
        }
      ],
      "stateMutability": "view",
      "type": "function"
    },
    {
      "inputs": [
        {
          "internalType": "address",
          "name": "from",
          "type": "address"
        },
        {
          "internalType": "address",
          "name": "to",
          "type": "address"
        },
        {
          "internalType": "uint256",
          "name": "tokenId",
          "type": "uint256"
        }
      ],
      "name": "transferFrom",
      "outputs": [],
      "stateMutability": "nonpayable",
      "type": "function"
    },
    {
      "inputs": [
        {
          "internalType": "address",
          "name": "target",
          "type": "address"
        }
      ],
      "name": "transferOwnership",
      "outputs": [],
      "stateMutability": "nonpayable",
      "type": "function"
    }
  ],
  "bytecode": "0x60806040523480156200001157600080fd5b506040516200316e3803806200316e833981810160405260608110156200003757600080fd5b81019080805160405193929190846401000000008211156200005857600080fd5b9083019060208201858111156200006e57600080fd5b82516401000000008111828201881017156200008957600080fd5b82525081516020918201929091019080838360005b83811015620000b85781810151838201526020016200009e565b50505050905090810190601f168015620000e65780820380516001836020036101000a031916815260200191505b50604052602001805160405193929190846401000000008211156200010a57600080fd5b9083019060208201858111156200012057600080fd5b82516401000000008111828201881017156200013b57600080fd5b82525081516020918201929091019080838360005b838110156200016a57818101518382015260200162000150565b50505050905090810190601f168015620001985780820380516001836020036101000a031916815260200191505b506040526020015191508190508383620001d27f01ffc9a70000000000000000000000000000000000000000000000000000000062000318565b8151620001e7906006906020850190620004fd565b508051620001fd906007906020840190620004fd565b50620002297f80ac58cd0000000000000000000000000000000000000000000000000000000062000318565b620002547f5b5e139f0000000000000000000000000000000000000000000000000000000062000318565b6200027f7f780e9d630000000000000000000000000000000000000000000000000000000062000318565b5050600b805482919060ff191660018360028111156200029b57fe5b0217905550620002d77f524f4c453a4f574e45520000000000000000000000000000000000000000000033620003e760201b62000d171760201c565b6200030e7f524f4c453a57484954454c49535400000000000000000000000000000000000033620003e760201b62000d171760201c565b5050505062000599565b7fffffffff000000000000000000000000000000000000000000000000000000008082161415620003aa57604080517f08c379a000000000000000000000000000000000000000000000000000000000815260206004820152601c60248201527f4552433136353a20696e76616c696420696e7465726661636520696400000000604482015290519081900360640190fd5b7fffffffff00000000000000000000000000000000000000000000000000000000166000908152602081905260409020805460ff19166001179055565b620003f38282620003f7565b5050565b6000828152600a602090815260409091206200041e9183906200185d62000472821b17901c565b15620003f3576200042e62000492565b6001600160a01b0316816001600160a01b0316837f2f8788117e7eff1d82e926ec794901d17c78024a50270940304540a733656f0d60405160405180910390a45050565b600062000489836001600160a01b03841662000496565b90505b92915050565b3390565b6000620004a48383620004e5565b620004dc575081546001818101845560008481526020808220909301849055845484825282860190935260409020919091556200048c565b5060006200048c565b60009081526001919091016020526040902054151590565b828054600181600116156101000203166002900490600052602060002090601f016020900481019282601f106200054057805160ff191683800117855562000570565b8280016001018555821562000570579182015b828111156200057057825182559160200191906001019062000553565b506200057e92915062000582565b5090565b5b808211156200057e576000815560010162000583565b612bc580620005a96000396000f3fe608060405234801561001057600080fd5b50600436106102415760003560e01c8063510b515811610145578063a22cb465116100bd578063c87b56dd1161008c578063d547741f11610071578063d547741f14610846578063e985e9c514610872578063f2fde38b146108a057610241565b8063c87b56dd1461080c578063ca15c8731461082957610241565b8063a22cb465146106f8578063a568682614610726578063b29d6947146104c9578063b88d4fde1461074657610241565b806370a082311161011457806391d14854116100f957806391d14854146106bc57806395d89b41146106e8578063a217fddf146106f057610241565b806370a08231146106735780639010d07c1461069957610241565b8063510b51581461058b57806355f804b3146105a85780636352211e1461064e5780636c0360eb1461066b57610241565b80632a959b89116101d857806339a3f6e2116101a757806342842e0e1161018c57806342842e0e1461051b57806342966c68146105515780634f6ccce71461056e57610241565b806339a3f6e2146104c957806340c10f19146104ef57610241565b80632a959b89146104135780632f2ff15d146104455780632f745c591461047157806336568abe1461049d57610241565b806318160ddd1161021457806318160ddd1461037d57806323b872dd14610397578063248a9ca3146103cd578063295a5212146103ea57610241565b806301ffc9a71461024657806306fdde0314610299578063081812fc14610316578063095ea7b31461034f575b600080fd5b6102856004803603602081101561025c57600080fd5b50357fffffffff00000000000000000000000000000000000000000000000000000000166108c6565b604080519115158252519081900360200190f35b6102a1610901565b6040805160208082528351818301528351919283929083019185019080838360005b838110156102db5781810151838201526020016102c3565b50505050905090810190601f1680156103085780820380516001836020036101000a031916815260200191505b509250505060405180910390f35b6103336004803603602081101561032c57600080fd5b5035610997565b604080516001600160a01b039092168252519081900360200190f35b61037b6004803603604081101561036557600080fd5b506001600160a01b0381351690602001356109f9565b005b610385610ad4565b60408051918252519081900360200190f35b61037b600480360360608110156103ad57600080fd5b506001600160a01b03813581169160208101359091169060400135610ae5565b610385600480360360208110156103e357600080fd5b5035610b3c565b6103f2610b51565b6040518082600281111561040257fe5b815260200191505060405180910390f35b61037b6004803603606081101561042957600080fd5b506001600160a01b038135169060208101359060400135610b5a565b61037b6004803603604081101561045b57600080fd5b50803590602001356001600160a01b0316610cb9565b6103856004803603604081101561048757600080fd5b506001600160a01b038135169060200135610d25565b61037b600480360360408110156104b357600080fd5b50803590602001356001600160a01b0316610d50565b61037b600480360360208110156104df57600080fd5b50356001600160a01b0316610db1565b61037b6004803603604081101561050557600080fd5b506001600160a01b038135169060200135610e36565b61037b6004803603606081101561053157600080fd5b506001600160a01b03813581169160208101359091169060400135610f85565b61037b6004803603602081101561056757600080fd5b5035610fa0565b6103856004803603602081101561058457600080fd5b50356110de565b610333600480360360208110156105a157600080fd5b50356110f4565b61037b600480360360208110156105be57600080fd5b8101906020810181356401000000008111156105d957600080fd5b8201836020820111156105eb57600080fd5b8035906020019184600183028401116401000000008311171561060d57600080fd5b91908080601f01602080910402602001604051908101604052809392919081815260200183838082843760009201919091525092955061110f945050505050565b6103336004803603602081101561066457600080fd5b5035611170565b6102a1611198565b6103856004803603602081101561068957600080fd5b50356001600160a01b03166111f9565b610333600480360360408110156106af57600080fd5b5080359060200135611261565b610285600480360360408110156106d257600080fd5b50803590602001356001600160a01b0316611279565b6102a1611291565b6103856112f2565b61037b6004803603604081101561070e57600080fd5b506001600160a01b03813516906020013515156112f7565b61037b6004803603602081101561073c57600080fd5b503560ff166113fc565b61037b6004803603608081101561075c57600080fd5b6001600160a01b0382358116926020810135909116916040820135919081019060808101606082013564010000000081111561079757600080fd5b8201836020820111156107a957600080fd5b803590602001918460018302840111640100000000831117156107cb57600080fd5b91908080601f016020809104026020016040519081016040528093929190818152602001838380828437600092019190915250929550611475945050505050565b6102a16004803603602081101561082257600080fd5b50356114cd565b6103856004803603602081101561083f57600080fd5b5035611750565b61037b6004803603604081101561085c57600080fd5b50803590602001356001600160a01b0316611767565b6102856004803603604081101561088857600080fd5b506001600160a01b03813581169160200135166117c0565b61037b600480360360208110156108b657600080fd5b50356001600160a01b03166117ee565b7fffffffff00000000000000000000000000000000000000000000000000000000811660009081526020819052604090205460ff165b919050565b60068054604080516020601f600260001961010060018816150201909516949094049384018190048102820181019092528281526060939092909183018282801561098d5780601f106109625761010080835404028352916020019161098d565b820191906000526020600020905b81548152906001019060200180831161097057829003601f168201915b5050505050905090565b60006109a282611872565b6109dd5760405162461bcd60e51b815260040180806020018281038252602c815260200180612a8b602c913960400191505060405180910390fd5b506000908152600460205260409020546001600160a01b031690565b6000610a0482611170565b9050806001600160a01b0316836001600160a01b03161415610a575760405162461bcd60e51b8152600401808060200182810382526021815260200180612b0f6021913960400191505060405180910390fd5b806001600160a01b0316610a6961187f565b6001600160a01b03161480610a8a5750610a8a81610a8561187f565b6117c0565b610ac55760405162461bcd60e51b81526004018080602001828103825260388152602001806129de6038913960400191505060405180910390fd5b610acf8383611883565b505050565b6000610ae060026118fe565b905090565b610af6610af061187f565b82611909565b610b315760405162461bcd60e51b8152600401808060200182810382526031815260200180612b306031913960400191505060405180910390fd5b610acf8383836119ad565b6000908152600a602052604090206002015490565b600b5460ff1681565b6000600b5460ff166002811115610b6d57fe5b1415610bd057610b8a692927a6229d27aba722a960b11b33611279565b610bcb576040805162461bcd60e51b815260206004820152600d60248201526c2922a8aaa4a9229027aba722a960991b604482015290519081900360640190fd5b610c64565b6001600b5460ff166002811115610be357fe5b1415610c6457610c137f524f4c453a57484954454c49535400000000000000000000000000000000000033611279565b610c64576040805162461bcd60e51b815260206004820152601b60248201527f524551554952452053454e44455220494e2057484954454c4953540000000000604482015290519081900360640190fd5b815b818111610cb357610c778482611af9565b6000818152600c60205260409020805473ffffffffffffffffffffffffffffffffffffffff19166001600160a01b038616179055600101610c66565b50505050565b6000828152600a6020526040902060020154610cdc90610cd761187f565b611279565b610d175760405162461bcd60e51b815260040180806020018281038252602f8152602001806128fd602f913960400191505060405180910390fd5b610d218282611b13565b5050565b6001600160a01b0382166000908152600160205260408120610d479083611b7c565b90505b92915050565b610d5861187f565b6001600160a01b0316816001600160a01b031614610da75760405162461bcd60e51b815260040180806020018281038252602f815260200180612b61602f913960400191505060405180910390fd5b610d218282611b88565b610dc8692927a6229d27aba722a960b11b33611279565b610e09576040805162461bcd60e51b815260206004820152600d60248201526c2922a8aaa4a9229027aba722a960991b604482015290519081900360640190fd5b610e337f524f4c453a57484954454c49535400000000000000000000000000000000000082610d17565b50565b6000600b5460ff166002811115610e4957fe5b1415610eac57610e66692927a6229d27aba722a960b11b33611279565b610ea7576040805162461bcd60e51b815260206004820152600d60248201526c2922a8aaa4a9229027aba722a960991b604482015290519081900360640190fd5b610f40565b6001600b5460ff166002811115610ebf57fe5b1415610f4057610eef7f524f4c453a57484954454c49535400000000000000000000000000000000000033611279565b610f40576040805162461bcd60e51b815260206004820152601b60248201527f524551554952452053454e44455220494e2057484954454c4953540000000000604482015290519081900360640190fd5b610f4a8282611af9565b6000908152600c60205260409020805473ffffffffffffffffffffffffffffffffffffffff19166001600160a01b0392909216919091179055565b610acf83838360405180602001604052806000815250611475565b6000600b5460ff166002811115610fb357fe5b141561101657610fd0692927a6229d27aba722a960b11b33611279565b611011576040805162461bcd60e51b815260206004820152600d60248201526c2922a8aaa4a9229027aba722a960991b604482015290519081900360640190fd5b6110aa565b6001600b5460ff16600281111561102957fe5b14156110aa576110597f524f4c453a57484954454c49535400000000000000000000000000000000000033611279565b6110aa576040805162461bcd60e51b815260206004820152601b60248201527f524551554952452053454e44455220494e2057484954454c4953540000000000604482015290519081900360640190fd5b6110b381611bf1565b6000908152600c60205260409020805473ffffffffffffffffffffffffffffffffffffffff19169055565b6000806110ec600284611cbe565b509392505050565b600c602052600090815260409020546001600160a01b031681565b611126692927a6229d27aba722a960b11b33611279565b611167576040805162461bcd60e51b815260206004820152600d60248201526c2922a8aaa4a9229027aba722a960991b604482015290519081900360640190fd5b610e3381611cda565b6000610d4a82604051806060016040528060298152602001612a406029913960029190611ced565b60098054604080516020601f600260001961010060018816150201909516949094049384018190048102820181019092528281526060939092909183018282801561098d5780601f106109625761010080835404028352916020019161098d565b60006001600160a01b0382166112405760405162461bcd60e51b815260040180806020018281038252602a815260200180612a16602a913960400191505060405180910390fd5b6001600160a01b0382166000908152600160205260409020610d4a906118fe565b6000828152600a60205260408120610d479083611b7c565b6000828152600a60205260408120610d479083611d04565b60078054604080516020601f600260001961010060018816150201909516949094049384018190048102820181019092528281526060939092909183018282801561098d5780601f106109625761010080835404028352916020019161098d565b600081565b6112ff61187f565b6001600160a01b0316826001600160a01b03161415611365576040805162461bcd60e51b815260206004820152601960248201527f4552433732313a20617070726f766520746f2063616c6c657200000000000000604482015290519081900360640190fd5b806005600061137261187f565b6001600160a01b03908116825260208083019390935260409182016000908120918716808252919093529120805460ff1916921515929092179091556113b661187f565b6001600160a01b03167f17307eab39ab6107e8899845ad3d59bd9653f200f220920489ca2b5937696c318360405180821515815260200191505060405180910390a35050565b611413692927a6229d27aba722a960b11b33611279565b611454576040805162461bcd60e51b815260206004820152600d60248201526c2922a8aaa4a9229027aba722a960991b604482015290519081900360640190fd5b600b805482919060ff1916600183600281111561146d57fe5b021790555050565b61148661148061187f565b83611909565b6114c15760405162461bcd60e51b8152600401808060200182810382526031815260200180612b306031913960400191505060405180910390fd5b610cb384848484611d19565b60606114d882611872565b6115135760405162461bcd60e51b815260040180806020018281038252602f815260200180612ae0602f913960400191505060405180910390fd5b60008281526008602090815260409182902080548351601f60026000196101006001861615020190931692909204918201849004840281018401909452808452606093928301828280156115a85780601f1061157d576101008083540402835291602001916115a8565b820191906000526020600020905b81548152906001019060200180831161158b57829003601f168201915b5050505050905060606115b9611198565b90508051600014156115cd575090506108fc565b81511561168e5780826040516020018083805190602001908083835b602083106116085780518252601f1990920191602091820191016115e9565b51815160209384036101000a600019018019909216911617905285519190930192850191508083835b602083106116505780518252601f199092019160209182019101611631565b6001836020036101000a03801982511681845116808217855250505050505090500192505050604051602081830303815290604052925050506108fc565b8061169885611d6b565b6040516020018083805190602001908083835b602083106116ca5780518252601f1990920191602091820191016116ab565b51815160209384036101000a600019018019909216911617905285519190930192850191508083835b602083106117125780518252601f1990920191602091820191016116f3565b6001836020036101000a0380198251168184511680821785525050505050509050019250505060405160208183030381529060405292505050919050565b6000818152600a60205260408120610d4a906118fe565b6000828152600a602052604090206002015461178590610cd761187f565b610da75760405162461bcd60e51b81526004018080602001828103825260308152602001806129ae6030913960400191505060405180910390fd5b6001600160a01b03918216600090815260056020908152604080832093909416825291909152205460ff1690565b611805692927a6229d27aba722a960b11b33611279565b611846576040805162461bcd60e51b815260206004820152600d60248201526c2922a8aaa4a9229027aba722a960991b604482015290519081900360640190fd5b610e33692927a6229d27aba722a960b11b82610d17565b6000610d47836001600160a01b038416611e7a565b6000610d4a600283611ec4565b3390565b6000818152600460205260409020805473ffffffffffffffffffffffffffffffffffffffff19166001600160a01b03841690811790915581906118c582611170565b6001600160a01b03167f8c5be1e5ebec7d5bd14f71427d1e84f3dd0314c0f7b2291e5b200ac8c7c3b92560405160405180910390a45050565b6000610d4a82611ed0565b600061191482611872565b61194f5760405162461bcd60e51b815260040180806020018281038252602c815260200180612982602c913960400191505060405180910390fd5b600061195a83611170565b9050806001600160a01b0316846001600160a01b031614806119955750836001600160a01b031661198a84610997565b6001600160a01b0316145b806119a557506119a581856117c0565b949350505050565b826001600160a01b03166119c082611170565b6001600160a01b031614611a055760405162461bcd60e51b8152600401808060200182810382526029815260200180612ab76029913960400191505060405180910390fd5b6001600160a01b038216611a4a5760405162461bcd60e51b815260040180806020018281038252602481526020018061295e6024913960400191505060405180910390fd5b611a55838383610acf565b611a60600082611883565b6001600160a01b0383166000908152600160205260409020611a829082611ed4565b506001600160a01b0382166000908152600160205260409020611aa59082611ee0565b50611ab260028284611eec565b5080826001600160a01b0316846001600160a01b03167fddf252ad1be2c89b69c2b068fc378daa952ba7f163c4a11628f55a4df523b3ef60405160405180910390a4505050565b610d21828260405180602001604052806000815250611f02565b6000828152600a60205260409020611b2b908261185d565b15610d2157611b3861187f565b6001600160a01b0316816001600160a01b0316837f2f8788117e7eff1d82e926ec794901d17c78024a50270940304540a733656f0d60405160405180910390a45050565b6000610d478383611f54565b6000828152600a60205260409020611ba09082611fb8565b15610d2157611bad61187f565b6001600160a01b0316816001600160a01b0316837ff6391f5c32d9c69d2a47ea670b442974b53935d1edc7fd64eb21e047a839171b60405160405180910390a45050565b6000611bfc82611170565b9050611c0a81600084610acf565b611c15600083611883565b6000828152600860205260409020546002600019610100600184161502019091160415611c53576000828152600860205260408120611c5391612803565b6001600160a01b0381166000908152600160205260409020611c759083611ed4565b50611c81600283611fcd565b5060405182906000906001600160a01b038416907fddf252ad1be2c89b69c2b068fc378daa952ba7f163c4a11628f55a4df523b3ef908390a45050565b6000808080611ccd8686611fd9565b9097909650945050505050565b8051610d21906009906020840190612847565b6000611cfa848484612054565b90505b9392505050565b6000610d47836001600160a01b03841661211e565b611d248484846119ad565b611d3084848484612136565b610cb35760405162461bcd60e51b815260040180806020018281038252603281526020018061292c6032913960400191505060405180910390fd5b606081611dac575060408051808201909152600181527f300000000000000000000000000000000000000000000000000000000000000060208201526108fc565b8160005b8115611dc457600101600a82049150611db0565b60608167ffffffffffffffff81118015611ddd57600080fd5b506040519080825280601f01601f191660200182016040528015611e08576020820181803683370190505b50859350905060001982015b8315611e7157600a840660300160f81b82828060019003935081518110611e3757fe5b60200101907effffffffffffffffffffffffffffffffffffffffffffffffffffffffffffff1916908160001a905350600a84049350611e14565b50949350505050565b6000611e86838361211e565b611ebc57508154600181810184556000848152602080822090930184905584548482528286019093526040902091909155610d4a565b506000610d4a565b6000610d47838361211e565b5490565b6000610d478383612312565b6000610d478383611e7a565b6000611cfa84846001600160a01b0385166123d8565b611f0c838361246f565b611f196000848484612136565b610acf5760405162461bcd60e51b815260040180806020018281038252603281526020018061292c6032913960400191505060405180910390fd5b81546000908210611f965760405162461bcd60e51b81526004018080602001828103825260228152602001806128db6022913960400191505060405180910390fd5b826000018281548110611fa557fe5b9060005260206000200154905092915050565b6000610d47836001600160a01b038416612312565b6000610d47838361259d565b81546000908190831061201d5760405162461bcd60e51b8152600401808060200182810382526022815260200180612a696022913960400191505060405180910390fd5b600084600001848154811061202e57fe5b906000526020600020906002020190508060000154816001015492509250509250929050565b600082815260018401602052604081205482816120ef5760405162461bcd60e51b81526004018080602001828103825283818151815260200191508051906020019080838360005b838110156120b457818101518382015260200161209c565b50505050905090810190601f1680156120e15780820380516001836020036101000a031916815260200191505b509250505060405180910390fd5b5084600001600182038154811061210257fe5b9060005260206000209060020201600101549150509392505050565b60009081526001919091016020526040902054151590565b600061214a846001600160a01b0316612671565b612156575060016119a5565b60606122a77f150b7a020000000000000000000000000000000000000000000000000000000061218461187f565b88878760405160240180856001600160a01b03168152602001846001600160a01b0316815260200183815260200180602001828103825283818151815260200191508051906020019080838360005b838110156121eb5781810151838201526020016121d3565b50505050905090810190601f1680156122185780820380516001836020036101000a031916815260200191505b5095505050505050604051602081830303815290604052907bffffffffffffffffffffffffffffffffffffffffffffffffffffffff19166020820180517bffffffffffffffffffffffffffffffffffffffffffffffffffffffff838183161783525050505060405180606001604052806032815260200161292c603291396001600160a01b0388169190612677565b905060008180602001905160208110156122c057600080fd5b50517fffffffff00000000000000000000000000000000000000000000000000000000167f150b7a02000000000000000000000000000000000000000000000000000000001492505050949350505050565b600081815260018301602052604081205480156123ce578354600019808301919081019060009087908390811061234557fe5b906000526020600020015490508087600001848154811061236257fe5b60009182526020808320909101929092558281526001898101909252604090209084019055865487908061239257fe5b60019003818190600052602060002001600090559055866001016000878152602001908152602001600020600090556001945050505050610d4a565b6000915050610d4a565b60008281526001840160205260408120548061243d575050604080518082018252838152602080820184815286546001818101895560008981528481209551600290930290950191825591519082015586548684528188019092529290912055611cfd565b8285600001600183038154811061245057fe5b9060005260206000209060020201600101819055506000915050611cfd565b6001600160a01b0382166124ca576040805162461bcd60e51b815260206004820181905260248201527f4552433732313a206d696e7420746f20746865207a65726f2061646472657373604482015290519081900360640190fd5b6124d381611872565b15612525576040805162461bcd60e51b815260206004820152601c60248201527f4552433732313a20746f6b656e20616c7265616479206d696e74656400000000604482015290519081900360640190fd5b61253160008383610acf565b6001600160a01b03821660009081526001602052604090206125539082611ee0565b5061256060028284611eec565b5060405181906001600160a01b038416906000907fddf252ad1be2c89b69c2b068fc378daa952ba7f163c4a11628f55a4df523b3ef908290a45050565b600081815260018301602052604081205480156123ce57835460001980830191908101906000908790839081106125d057fe5b90600052602060002090600202019050808760000184815481106125f057fe5b60009182526020808320845460029093020191825560019384015491840191909155835482528983019052604090209084019055865487908061262f57fe5b6000828152602080822060026000199094019384020182815560019081018390559290935588815289820190925260408220919091559450610d4a9350505050565b3b151590565b6060611cfa84846000858561268b85612671565b6126dc576040805162461bcd60e51b815260206004820152601d60248201527f416464726573733a2063616c6c20746f206e6f6e2d636f6e7472616374000000604482015290519081900360640190fd5b60006060866001600160a01b031685876040518082805190602001908083835b6020831061271b5780518252601f1990920191602091820191016126fc565b6001836020036101000a03801982511681845116808217855250505050505090500191505060006040518083038185875af1925050503d806000811461277d576040519150601f19603f3d011682016040523d82523d6000602084013e612782565b606091505b509150915061279282828661279d565b979650505050505050565b606083156127ac575081611cfd565b8251156127bc5782518084602001fd5b60405162461bcd60e51b81526020600482018181528451602484015284518593919283926044019190850190808383600083156120b457818101518382015260200161209c565b50805460018160011615610100020316600290046000825580601f106128295750610e33565b601f016020900490600052602060002090810190610e3391906128c5565b828054600181600116156101000203166002900490600052602060002090601f016020900481019282601f1061288857805160ff19168380011785556128b5565b828001600101855582156128b5579182015b828111156128b557825182559160200191906001019061289a565b506128c19291506128c5565b5090565b5b808211156128c157600081556001016128c656fe456e756d657261626c655365743a20696e646578206f7574206f6620626f756e6473416363657373436f6e74726f6c3a2073656e646572206d75737420626520616e2061646d696e20746f206772616e744552433732313a207472616e7366657220746f206e6f6e20455243373231526563656976657220696d706c656d656e7465724552433732313a207472616e7366657220746f20746865207a65726f20616464726573734552433732313a206f70657261746f7220717565727920666f72206e6f6e6578697374656e7420746f6b656e416363657373436f6e74726f6c3a2073656e646572206d75737420626520616e2061646d696e20746f207265766f6b654552433732313a20617070726f76652063616c6c6572206973206e6f74206f776e6572206e6f7220617070726f76656420666f7220616c6c4552433732313a2062616c616e636520717565727920666f7220746865207a65726f20616464726573734552433732313a206f776e657220717565727920666f72206e6f6e6578697374656e7420746f6b656e456e756d657261626c654d61703a20696e646578206f7574206f6620626f756e64734552433732313a20617070726f76656420717565727920666f72206e6f6e6578697374656e7420746f6b656e4552433732313a207472616e73666572206f6620746f6b656e2074686174206973206e6f74206f776e4552433732314d657461646174613a2055524920717565727920666f72206e6f6e6578697374656e7420746f6b656e4552433732313a20617070726f76616c20746f2063757272656e74206f776e65724552433732313a207472616e736665722063616c6c6572206973206e6f74206f776e6572206e6f7220617070726f766564416363657373436f6e74726f6c3a2063616e206f6e6c792072656e6f756e636520726f6c657320666f722073656c66a26469706673582212208281d9350935f1db5ed279aaa9e32046e94e67a8aef6581aee5dc44ef797c23064736f6c634300060c0033",
  "compiler": {
    "name": "solc",
    "version": "0.6.12+commit.27d51765.Emscripten.clang",
    "optimizer": {
      "enabled": true,
      "runs": 2000
    },
    "evmVersion": "petersburg"
  }
}