{
  "fileName": "BounceERC721.sol",
  "contractName": "BounceERC721",
  "source": "// SPDX-License-Identifier: MIT\n\npragma solidity ^0.6.0;\n\nimport \"@openzeppelin/contracts/access/Ownable.sol\";\nimport \"@openzeppelin/contracts/token/ERC721/ERC721.sol\";\n\ncontract BounceERC721 is ERC721, Ownable {\n    constructor (string memory name_, string memory symbol_) public ERC721(name_, symbol_) {}\n\n    // tokenid => creator address\n    mapping(uint256 => address) creator;\n\n    function setBaseURI(string memory baseURI_) external onlyOwner {\n        super._setBaseURI(baseURI_);\n    }\n\n    function mint(address to, uint256 tokenId) external onlyOwner {\n        super._safeMint(to, tokenId);\n        creator[tokenId] = to;\n    }\n\n    function burn(uint256 tokenId) external onlyOwner {\n        super._burn(tokenId);\n        creator[tokenId] = address(0);\n    }\n\n    function batchMint(address to, uint256 fromTokenId, uint256 toTokenId) external onlyOwner {\n        for (uint256 tokenId = fromTokenId; tokenId <= toTokenId; tokenId++) {\n            super._safeMint(to, tokenId);\n            creator[tokenId] = to;\n        }\n    }\n}\n",
  "sourcePath": "contracts/BounceERC721.sol",
  "abi": [
    {
      "inputs": [
        {
          "internalType": "string",
          "name": "name_",
          "type": "string"
        },
        {
          "internalType": "string",
          "name": "symbol_",
          "type": "string"
        }
      ],
      "stateMutability": "nonpayable",
      "type": "constructor"
    },
    {
      "anonymous": false,
      "inputs": [
        {
          "indexed": true,
          "internalType": "address",
          "name": "owner",
          "type": "address"
        },
        {
          "indexed": true,
          "internalType": "address",
          "name": "approved",
          "type": "address"
        },
        {
          "indexed": true,
          "internalType": "uint256",
          "name": "tokenId",
          "type": "uint256"
        }
      ],
      "name": "Approval",
      "type": "event"
    },
    {
      "anonymous": false,
      "inputs": [
        {
          "indexed": true,
          "internalType": "address",
          "name": "owner",
          "type": "address"
        },
        {
          "indexed": true,
          "internalType": "address",
          "name": "operator",
          "type": "address"
        },
        {
          "indexed": false,
          "internalType": "bool",
          "name": "approved",
          "type": "bool"
        }
      ],
      "name": "ApprovalForAll",
      "type": "event"
    },
    {
      "anonymous": false,
      "inputs": [
        {
          "indexed": true,
          "internalType": "address",
          "name": "previousOwner",
          "type": "address"
        },
        {
          "indexed": true,
          "internalType": "address",
          "name": "newOwner",
          "type": "address"
        }
      ],
      "name": "OwnershipTransferred",
      "type": "event"
    },
    {
      "anonymous": false,
      "inputs": [
        {
          "indexed": true,
          "internalType": "address",
          "name": "from",
          "type": "address"
        },
        {
          "indexed": true,
          "internalType": "address",
          "name": "to",
          "type": "address"
        },
        {
          "indexed": true,
          "internalType": "uint256",
          "name": "tokenId",
          "type": "uint256"
        }
      ],
      "name": "Transfer",
      "type": "event"
    },
    {
      "inputs": [
        {
          "internalType": "address",
          "name": "to",
          "type": "address"
        },
        {
          "internalType": "uint256",
          "name": "tokenId",
          "type": "uint256"
        }
      ],
      "name": "approve",
      "outputs": [],
      "stateMutability": "nonpayable",
      "type": "function"
    },
    {
      "inputs": [
        {
          "internalType": "address",
          "name": "owner",
          "type": "address"
        }
      ],
      "name": "balanceOf",
      "outputs": [
        {
          "internalType": "uint256",
          "name": "",
          "type": "uint256"
        }
      ],
      "stateMutability": "view",
      "type": "function"
    },
    {
      "inputs": [],
      "name": "baseURI",
      "outputs": [
        {
          "internalType": "string",
          "name": "",
          "type": "string"
        }
      ],
      "stateMutability": "view",
      "type": "function"
    },
    {
      "inputs": [
        {
          "internalType": "address",
          "name": "to",
          "type": "address"
        },
        {
          "internalType": "uint256",
          "name": "fromTokenId",
          "type": "uint256"
        },
        {
          "internalType": "uint256",
          "name": "toTokenId",
          "type": "uint256"
        }
      ],
      "name": "batchMint",
      "outputs": [],
      "stateMutability": "nonpayable",
      "type": "function"
    },
    {
      "inputs": [
        {
          "internalType": "uint256",
          "name": "tokenId",
          "type": "uint256"
        }
      ],
      "name": "burn",
      "outputs": [],
      "stateMutability": "nonpayable",
      "type": "function"
    },
    {
      "inputs": [
        {
          "internalType": "uint256",
          "name": "tokenId",
          "type": "uint256"
        }
      ],
      "name": "getApproved",
      "outputs": [
        {
          "internalType": "address",
          "name": "",
          "type": "address"
        }
      ],
      "stateMutability": "view",
      "type": "function"
    },
    {
      "inputs": [
        {
          "internalType": "address",
          "name": "owner",
          "type": "address"
        },
        {
          "internalType": "address",
          "name": "operator",
          "type": "address"
        }
      ],
      "name": "isApprovedForAll",
      "outputs": [
        {
          "internalType": "bool",
          "name": "",
          "type": "bool"
        }
      ],
      "stateMutability": "view",
      "type": "function"
    },
    {
      "inputs": [
        {
          "internalType": "address",
          "name": "to",
          "type": "address"
        },
        {
          "internalType": "uint256",
          "name": "tokenId",
          "type": "uint256"
        }
      ],
      "name": "mint",
      "outputs": [],
      "stateMutability": "nonpayable",
      "type": "function"
    },
    {
      "inputs": [],
      "name": "name",
      "outputs": [
        {
          "internalType": "string",
          "name": "",
          "type": "string"
        }
      ],
      "stateMutability": "view",
      "type": "function"
    },
    {
      "inputs": [],
      "name": "owner",
      "outputs": [
        {
          "internalType": "address",
          "name": "",
          "type": "address"
        }
      ],
      "stateMutability": "view",
      "type": "function"
    },
    {
      "inputs": [
        {
          "internalType": "uint256",
          "name": "tokenId",
          "type": "uint256"
        }
      ],
      "name": "ownerOf",
      "outputs": [
        {
          "internalType": "address",
          "name": "",
          "type": "address"
        }
      ],
      "stateMutability": "view",
      "type": "function"
    },
    {
      "inputs": [],
      "name": "renounceOwnership",
      "outputs": [],
      "stateMutability": "nonpayable",
      "type": "function"
    },
    {
      "inputs": [
        {
          "internalType": "address",
          "name": "from",
          "type": "address"
        },
        {
          "internalType": "address",
          "name": "to",
          "type": "address"
        },
        {
          "internalType": "uint256",
          "name": "tokenId",
          "type": "uint256"
        }
      ],
      "name": "safeTransferFrom",
      "outputs": [],
      "stateMutability": "nonpayable",
      "type": "function"
    },
    {
      "inputs": [
        {
          "internalType": "address",
          "name": "from",
          "type": "address"
        },
        {
          "internalType": "address",
          "name": "to",
          "type": "address"
        },
        {
          "internalType": "uint256",
          "name": "tokenId",
          "type": "uint256"
        },
        {
          "internalType": "bytes",
          "name": "_data",
          "type": "bytes"
        }
      ],
      "name": "safeTransferFrom",
      "outputs": [],
      "stateMutability": "nonpayable",
      "type": "function"
    },
    {
      "inputs": [
        {
          "internalType": "address",
          "name": "operator",
          "type": "address"
        },
        {
          "internalType": "bool",
          "name": "approved",
          "type": "bool"
        }
      ],
      "name": "setApprovalForAll",
      "outputs": [],
      "stateMutability": "nonpayable",
      "type": "function"
    },
    {
      "inputs": [
        {
          "internalType": "string",
          "name": "baseURI_",
          "type": "string"
        }
      ],
      "name": "setBaseURI",
      "outputs": [],
      "stateMutability": "nonpayable",
      "type": "function"
    },
    {
      "inputs": [
        {
          "internalType": "bytes4",
          "name": "interfaceId",
          "type": "bytes4"
        }
      ],
      "name": "supportsInterface",
      "outputs": [
        {
          "internalType": "bool",
          "name": "",
          "type": "bool"
        }
      ],
      "stateMutability": "view",
      "type": "function"
    },
    {
      "inputs": [],
      "name": "symbol",
      "outputs": [
        {
          "internalType": "string",
          "name": "",
          "type": "string"
        }
      ],
      "stateMutability": "view",
      "type": "function"
    },
    {
      "inputs": [
        {
          "internalType": "uint256",
          "name": "index",
          "type": "uint256"
        }
      ],
      "name": "tokenByIndex",
      "outputs": [
        {
          "internalType": "uint256",
          "name": "",
          "type": "uint256"
        }
      ],
      "stateMutability": "view",
      "type": "function"
    },
    {
      "inputs": [
        {
          "internalType": "address",
          "name": "owner",
          "type": "address"
        },
        {
          "internalType": "uint256",
          "name": "index",
          "type": "uint256"
        }
      ],
      "name": "tokenOfOwnerByIndex",
      "outputs": [
        {
          "internalType": "uint256",
          "name": "",
          "type": "uint256"
        }
      ],
      "stateMutability": "view",
      "type": "function"
    },
    {
      "inputs": [
        {
          "internalType": "uint256",
          "name": "tokenId",
          "type": "uint256"
        }
      ],
      "name": "tokenURI",
      "outputs": [
        {
          "internalType": "string",
          "name": "",
          "type": "string"
        }
      ],
      "stateMutability": "view",
      "type": "function"
    },
    {
      "inputs": [],
      "name": "totalSupply",
      "outputs": [
        {
          "internalType": "uint256",
          "name": "",
          "type": "uint256"
        }
      ],
      "stateMutability": "view",
      "type": "function"
    },
    {
      "inputs": [
        {
          "internalType": "address",
          "name": "from",
          "type": "address"
        },
        {
          "internalType": "address",
          "name": "to",
          "type": "address"
        },
        {
          "internalType": "uint256",
          "name": "tokenId",
          "type": "uint256"
        }
      ],
      "name": "transferFrom",
      "outputs": [],
      "stateMutability": "nonpayable",
      "type": "function"
    },
    {
      "inputs": [
        {
          "internalType": "address",
          "name": "newOwner",
          "type": "address"
        }
      ],
      "name": "transferOwnership",
      "outputs": [],
      "stateMutability": "nonpayable",
      "type": "function"
    }
  ],
  "bytecode": "0x60806040523480156200001157600080fd5b50604051620029d4380380620029d4833981810160405260408110156200003757600080fd5b81019080805160405193929190846401000000008211156200005857600080fd5b9083019060208201858111156200006e57600080fd5b82516401000000008111828201881017156200008957600080fd5b82525081516020918201929091019080838360005b83811015620000b85781810151838201526020016200009e565b50505050905090810190601f168015620000e65780820380516001836020036101000a031916815260200191505b50604052602001805160405193929190846401000000008211156200010a57600080fd5b9083019060208201858111156200012057600080fd5b82516401000000008111828201881017156200013b57600080fd5b82525081516020918201929091019080838360005b838110156200016a57818101518382015260200162000150565b50505050905090810190601f168015620001985780820380516001836020036101000a031916815260200191505b5060405250839150829050620001ce7f01ffc9a700000000000000000000000000000000000000000000000000000000620002e0565b8151620001e3906006906020850190620003b3565b508051620001f9906007906020840190620003b3565b50620002257f80ac58cd00000000000000000000000000000000000000000000000000000000620002e0565b620002507f5b5e139f00000000000000000000000000000000000000000000000000000000620002e0565b6200027b7f780e9d6300000000000000000000000000000000000000000000000000000000620002e0565b50600090506200028a620003af565b600a80546001600160a01b0319166001600160a01b038316908117909155604051919250906000907f8be0079c531659141344cd1fd0a4f28419497f9722a3daafe3b4186f6b6457e0908290a35050506200044f565b7fffffffff0000000000000000000000000000000000000000000000000000000080821614156200037257604080517f08c379a000000000000000000000000000000000000000000000000000000000815260206004820152601c60248201527f4552433136353a20696e76616c696420696e7465726661636520696400000000604482015290519081900360640190fd5b7fffffffff00000000000000000000000000000000000000000000000000000000166000908152602081905260409020805460ff19166001179055565b3390565b828054600181600116156101000203166002900490600052602060002090601f016020900481019282601f10620003f657805160ff191683800117855562000426565b8280016001018555821562000426579182015b828111156200042657825182559160200191906001019062000409565b506200043492915062000438565b5090565b5b8082111562000434576000815560010162000439565b612575806200045f6000396000f3fe608060405234801561001057600080fd5b50600436106101985760003560e01c806355f804b3116100e357806395d89b411161008c578063c87b56dd11610066578063c87b56dd1461061b578063e985e9c514610638578063f2fde38b1461066657610198565b806395d89b411461051f578063a22cb46514610527578063b88d4fde1461055557610198565b806370a08231116100bd57806370a08231146104e9578063715018a61461050f5780638da5cb5b1461051757610198565b806355f804b31461041e5780636352211e146104c45780636c0360eb146104e157610198565b80632a959b891161014557806342842e0e1161011f57806342842e0e146103ae57806342966c68146103e45780634f6ccce71461040157610198565b80632a959b89146103245780632f745c591461035657806340c10f191461038257610198565b8063095ea7b311610176578063095ea7b3146102a657806318160ddd146102d457806323b872dd146102ee57610198565b806301ffc9a71461019d57806306fdde03146101f0578063081812fc1461026d575b600080fd5b6101dc600480360360208110156101b357600080fd5b50357fffffffff000000000000000000000000000000000000000000000000000000001661068c565b604080519115158252519081900360200190f35b6101f86106c7565b6040805160208082528351818301528351919283929083019185019080838360005b8381101561023257818101518382015260200161021a565b50505050905090810190601f16801561025f5780820380516001836020036101000a031916815260200191505b509250505060405180910390f35b61028a6004803603602081101561028357600080fd5b503561075d565b604080516001600160a01b039092168252519081900360200190f35b6102d2600480360360408110156102bc57600080fd5b506001600160a01b0381351690602001356107bf565b005b6102dc61089a565b60408051918252519081900360200190f35b6102d26004803603606081101561030457600080fd5b506001600160a01b038135811691602081013590911690604001356108ab565b6102d26004803603606081101561033a57600080fd5b506001600160a01b038135169060208101359060400135610902565b6102dc6004803603604081101561036c57600080fd5b506001600160a01b0381351690602001356109cb565b6102d26004803603604081101561039857600080fd5b506001600160a01b0381351690602001356109f6565b6102d2600480360360608110156103c457600080fd5b506001600160a01b03813581169160208101359091169060400135610aaf565b6102d2600480360360208110156103fa57600080fd5b5035610aca565b6102dc6004803603602081101561041757600080fd5b5035610b72565b6102d26004803603602081101561043457600080fd5b81019060208101813564010000000081111561044f57600080fd5b82018360208201111561046157600080fd5b8035906020019184600183028401116401000000008311171561048357600080fd5b91908080601f016020809104026020016040519081016040528093929190818152602001838380828437600092019190915250929550610b88945050505050565b61028a600480360360208110156104da57600080fd5b5035610c08565b6101f8610c30565b6102dc600480360360208110156104ff57600080fd5b50356001600160a01b0316610c91565b6102d2610cf9565b61028a610dc4565b6101f8610dd3565b6102d26004803603604081101561053d57600080fd5b506001600160a01b0381351690602001351515610e34565b6102d26004803603608081101561056b57600080fd5b6001600160a01b038235811692602081013590911691604082013591908101906080810160608201356401000000008111156105a657600080fd5b8201836020820111156105b857600080fd5b803590602001918460018302840111640100000000831117156105da57600080fd5b91908080601f016020809104026020016040519081016040528093929190818152602001838380828437600092019190915250929550610f57945050505050565b6101f86004803603602081101561063157600080fd5b5035610faf565b6101dc6004803603604081101561064e57600080fd5b506001600160a01b0381358116916020013516611232565b6102d26004803603602081101561067c57600080fd5b50356001600160a01b0316611260565b7fffffffff00000000000000000000000000000000000000000000000000000000811660009081526020819052604090205460ff165b919050565b60068054604080516020601f60026000196101006001881615020190951694909404938401819004810282018101909252828152606093909290918301828280156107535780601f1061072857610100808354040283529160200191610753565b820191906000526020600020905b81548152906001019060200180831161073657829003601f168201915b5050505050905090565b600061076882611382565b6107a35760405162461bcd60e51b815260040180806020018281038252602c81526020018061246a602c913960400191505060405180910390fd5b506000908152600460205260409020546001600160a01b031690565b60006107ca82610c08565b9050806001600160a01b0316836001600160a01b0316141561081d5760405162461bcd60e51b81526004018080602001828103825260218152602001806124ee6021913960400191505060405180910390fd5b806001600160a01b031661082f61138f565b6001600160a01b0316148061085057506108508161084b61138f565b611232565b61088b5760405162461bcd60e51b81526004018080602001828103825260388152602001806123bd6038913960400191505060405180910390fd5b6108958383611393565b505050565b60006108a6600261140e565b905090565b6108bc6108b661138f565b82611419565b6108f75760405162461bcd60e51b815260040180806020018281038252603181526020018061250f6031913960400191505060405180910390fd5b6108958383836114bd565b61090a61138f565b6001600160a01b031661091b610dc4565b6001600160a01b031614610976576040805162461bcd60e51b815260206004820181905260248201527f4f776e61626c653a2063616c6c6572206973206e6f7420746865206f776e6572604482015290519081900360640190fd5b815b8181116109c5576109898482611609565b6000818152600b60205260409020805473ffffffffffffffffffffffffffffffffffffffff19166001600160a01b038616179055600101610978565b50505050565b6001600160a01b03821660009081526001602052604081206109ed9083611627565b90505b92915050565b6109fe61138f565b6001600160a01b0316610a0f610dc4565b6001600160a01b031614610a6a576040805162461bcd60e51b815260206004820181905260248201527f4f776e61626c653a2063616c6c6572206973206e6f7420746865206f776e6572604482015290519081900360640190fd5b610a748282611609565b6000908152600b60205260409020805473ffffffffffffffffffffffffffffffffffffffff19166001600160a01b0392909216919091179055565b61089583838360405180602001604052806000815250610f57565b610ad261138f565b6001600160a01b0316610ae3610dc4565b6001600160a01b031614610b3e576040805162461bcd60e51b815260206004820181905260248201527f4f776e61626c653a2063616c6c6572206973206e6f7420746865206f776e6572604482015290519081900360640190fd5b610b4781611633565b6000908152600b60205260409020805473ffffffffffffffffffffffffffffffffffffffff19169055565b600080610b80600284611700565b509392505050565b610b9061138f565b6001600160a01b0316610ba1610dc4565b6001600160a01b031614610bfc576040805162461bcd60e51b815260206004820181905260248201527f4f776e61626c653a2063616c6c6572206973206e6f7420746865206f776e6572604482015290519081900360640190fd5b610c058161171c565b50565b60006109f08260405180606001604052806029815260200161241f602991396002919061172f565b60098054604080516020601f60026000196101006001881615020190951694909404938401819004810282018101909252828152606093909290918301828280156107535780601f1061072857610100808354040283529160200191610753565b60006001600160a01b038216610cd85760405162461bcd60e51b815260040180806020018281038252602a8152602001806123f5602a913960400191505060405180910390fd5b6001600160a01b03821660009081526001602052604090206109f09061140e565b610d0161138f565b6001600160a01b0316610d12610dc4565b6001600160a01b031614610d6d576040805162461bcd60e51b815260206004820181905260248201527f4f776e61626c653a2063616c6c6572206973206e6f7420746865206f776e6572604482015290519081900360640190fd5b600a546040516000916001600160a01b0316907f8be0079c531659141344cd1fd0a4f28419497f9722a3daafe3b4186f6b6457e0908390a3600a805473ffffffffffffffffffffffffffffffffffffffff19169055565b600a546001600160a01b031690565b60078054604080516020601f60026000196101006001881615020190951694909404938401819004810282018101909252828152606093909290918301828280156107535780601f1061072857610100808354040283529160200191610753565b610e3c61138f565b6001600160a01b0316826001600160a01b03161415610ea2576040805162461bcd60e51b815260206004820152601960248201527f4552433732313a20617070726f766520746f2063616c6c657200000000000000604482015290519081900360640190fd5b8060056000610eaf61138f565b6001600160a01b0390811682526020808301939093526040918201600090812091871680825291909352912080547fffffffffffffffffffffffffffffffffffffffffffffffffffffffffffffff001692151592909217909155610f1161138f565b6001600160a01b03167f17307eab39ab6107e8899845ad3d59bd9653f200f220920489ca2b5937696c318360405180821515815260200191505060405180910390a35050565b610f68610f6261138f565b83611419565b610fa35760405162461bcd60e51b815260040180806020018281038252603181526020018061250f6031913960400191505060405180910390fd5b6109c584848484611746565b6060610fba82611382565b610ff55760405162461bcd60e51b815260040180806020018281038252602f8152602001806124bf602f913960400191505060405180910390fd5b60008281526008602090815260409182902080548351601f600260001961010060018616150201909316929092049182018490048402810184019094528084526060939283018282801561108a5780601f1061105f5761010080835404028352916020019161108a565b820191906000526020600020905b81548152906001019060200180831161106d57829003601f168201915b50505050509050606061109b610c30565b90508051600014156110af575090506106c2565b8151156111705780826040516020018083805190602001908083835b602083106110ea5780518252601f1990920191602091820191016110cb565b51815160209384036101000a600019018019909216911617905285519190930192850191508083835b602083106111325780518252601f199092019160209182019101611113565b6001836020036101000a03801982511681845116808217855250505050505090500192505050604051602081830303815290604052925050506106c2565b8061117a85611798565b6040516020018083805190602001908083835b602083106111ac5780518252601f19909201916020918201910161118d565b51815160209384036101000a600019018019909216911617905285519190930192850191508083835b602083106111f45780518252601f1990920191602091820191016111d5565b6001836020036101000a0380198251168184511680821785525050505050509050019250505060405160208183030381529060405292505050919050565b6001600160a01b03918216600090815260056020908152604080832093909416825291909152205460ff1690565b61126861138f565b6001600160a01b0316611279610dc4565b6001600160a01b0316146112d4576040805162461bcd60e51b815260206004820181905260248201527f4f776e61626c653a2063616c6c6572206973206e6f7420746865206f776e6572604482015290519081900360640190fd5b6001600160a01b0381166113195760405162461bcd60e51b81526004018080602001828103825260268152602001806123476026913960400191505060405180910390fd5b600a546040516001600160a01b038084169216907f8be0079c531659141344cd1fd0a4f28419497f9722a3daafe3b4186f6b6457e090600090a3600a805473ffffffffffffffffffffffffffffffffffffffff19166001600160a01b0392909216919091179055565b60006109f06002836118a7565b3390565b6000818152600460205260409020805473ffffffffffffffffffffffffffffffffffffffff19166001600160a01b03841690811790915581906113d582610c08565b6001600160a01b03167f8c5be1e5ebec7d5bd14f71427d1e84f3dd0314c0f7b2291e5b200ac8c7c3b92560405160405180910390a45050565b60006109f0826118b3565b600061142482611382565b61145f5760405162461bcd60e51b815260040180806020018281038252602c815260200180612391602c913960400191505060405180910390fd5b600061146a83610c08565b9050806001600160a01b0316846001600160a01b031614806114a55750836001600160a01b031661149a8461075d565b6001600160a01b0316145b806114b557506114b58185611232565b949350505050565b826001600160a01b03166114d082610c08565b6001600160a01b0316146115155760405162461bcd60e51b81526004018080602001828103825260298152602001806124966029913960400191505060405180910390fd5b6001600160a01b03821661155a5760405162461bcd60e51b815260040180806020018281038252602481526020018061236d6024913960400191505060405180910390fd5b611565838383610895565b611570600082611393565b6001600160a01b038316600090815260016020526040902061159290826118b7565b506001600160a01b03821660009081526001602052604090206115b590826118c3565b506115c2600282846118cf565b5080826001600160a01b0316846001600160a01b03167fddf252ad1be2c89b69c2b068fc378daa952ba7f163c4a11628f55a4df523b3ef60405160405180910390a4505050565b6116238282604051806020016040528060008152506118e5565b5050565b60006109ed8383611937565b600061163e82610c08565b905061164c81600084610895565b611657600083611393565b60008281526008602052604090205460026000196101006001841615020190911604156116955760008281526008602052604081206116959161221b565b6001600160a01b03811660009081526001602052604090206116b790836118b7565b506116c360028361199b565b5060405182906000906001600160a01b038416907fddf252ad1be2c89b69c2b068fc378daa952ba7f163c4a11628f55a4df523b3ef908390a45050565b600080808061170f86866119a7565b9097909650945050505050565b805161162390600990602084019061225f565b600061173c848484611a22565b90505b9392505050565b6117518484846114bd565b61175d84848484611aec565b6109c55760405162461bcd60e51b81526004018080602001828103825260328152602001806123156032913960400191505060405180910390fd5b6060816117d9575060408051808201909152600181527f300000000000000000000000000000000000000000000000000000000000000060208201526106c2565b8160005b81156117f157600101600a820491506117dd565b60608167ffffffffffffffff8111801561180a57600080fd5b506040519080825280601f01601f191660200182016040528015611835576020820181803683370190505b50859350905060001982015b831561189e57600a840660300160f81b8282806001900393508151811061186457fe5b60200101907effffffffffffffffffffffffffffffffffffffffffffffffffffffffffffff1916908160001a905350600a84049350611841565b50949350505050565b60006109ed8383611cc8565b5490565b60006109ed8383611ce0565b60006109ed8383611da6565b600061173c84846001600160a01b038516611df0565b6118ef8383611e87565b6118fc6000848484611aec565b6108955760405162461bcd60e51b81526004018080602001828103825260328152602001806123156032913960400191505060405180910390fd5b815460009082106119795760405162461bcd60e51b81526004018080602001828103825260228152602001806122f36022913960400191505060405180910390fd5b82600001828154811061198857fe5b9060005260206000200154905092915050565b60006109ed8383611fb5565b8154600090819083106119eb5760405162461bcd60e51b81526004018080602001828103825260228152602001806124486022913960400191505060405180910390fd5b60008460000184815481106119fc57fe5b906000526020600020906002020190508060000154816001015492509250509250929050565b60008281526001840160205260408120548281611abd5760405162461bcd60e51b81526004018080602001828103825283818151815260200191508051906020019080838360005b83811015611a82578181015183820152602001611a6a565b50505050905090810190601f168015611aaf5780820380516001836020036101000a031916815260200191505b509250505060405180910390fd5b50846000016001820381548110611ad057fe5b9060005260206000209060020201600101549150509392505050565b6000611b00846001600160a01b0316612089565b611b0c575060016114b5565b6060611c5d7f150b7a0200000000000000000000000000000000000000000000000000000000611b3a61138f565b88878760405160240180856001600160a01b03168152602001846001600160a01b0316815260200183815260200180602001828103825283818151815260200191508051906020019080838360005b83811015611ba1578181015183820152602001611b89565b50505050905090810190601f168015611bce5780820380516001836020036101000a031916815260200191505b5095505050505050604051602081830303815290604052907bffffffffffffffffffffffffffffffffffffffffffffffffffffffff19166020820180517bffffffffffffffffffffffffffffffffffffffffffffffffffffffff8381831617835250505050604051806060016040528060328152602001612315603291396001600160a01b038816919061208f565b90506000818060200190516020811015611c7657600080fd5b50517fffffffff00000000000000000000000000000000000000000000000000000000167f150b7a02000000000000000000000000000000000000000000000000000000001492505050949350505050565b60009081526001919091016020526040902054151590565b60008181526001830160205260408120548015611d9c5783546000198083019190810190600090879083908110611d1357fe5b9060005260206000200154905080876000018481548110611d3057fe5b600091825260208083209091019290925582815260018981019092526040902090840190558654879080611d6057fe5b600190038181906000526020600020016000905590558660010160008781526020019081526020016000206000905560019450505050506109f0565b60009150506109f0565b6000611db28383611cc8565b611de8575081546001818101845560008481526020808220909301849055845484825282860190935260409020919091556109f0565b5060006109f0565b600082815260018401602052604081205480611e5557505060408051808201825283815260208082018481528654600181810189556000898152848120955160029093029095019182559151908201558654868452818801909252929091205561173f565b82856000016001830381548110611e6857fe5b906000526020600020906002020160010181905550600091505061173f565b6001600160a01b038216611ee2576040805162461bcd60e51b815260206004820181905260248201527f4552433732313a206d696e7420746f20746865207a65726f2061646472657373604482015290519081900360640190fd5b611eeb81611382565b15611f3d576040805162461bcd60e51b815260206004820152601c60248201527f4552433732313a20746f6b656e20616c7265616479206d696e74656400000000604482015290519081900360640190fd5b611f4960008383610895565b6001600160a01b0382166000908152600160205260409020611f6b90826118c3565b50611f78600282846118cf565b5060405181906001600160a01b038416906000907fddf252ad1be2c89b69c2b068fc378daa952ba7f163c4a11628f55a4df523b3ef908290a45050565b60008181526001830160205260408120548015611d9c5783546000198083019190810190600090879083908110611fe857fe5b906000526020600020906002020190508087600001848154811061200857fe5b60009182526020808320845460029093020191825560019384015491840191909155835482528983019052604090209084019055865487908061204757fe5b60008281526020808220600260001990940193840201828155600190810183905592909355888152898201909252604082209190915594506109f09350505050565b3b151590565b606061173c8484600085856120a385612089565b6120f4576040805162461bcd60e51b815260206004820152601d60248201527f416464726573733a2063616c6c20746f206e6f6e2d636f6e7472616374000000604482015290519081900360640190fd5b60006060866001600160a01b031685876040518082805190602001908083835b602083106121335780518252601f199092019160209182019101612114565b6001836020036101000a03801982511681845116808217855250505050505090500191505060006040518083038185875af1925050503d8060008114612195576040519150601f19603f3d011682016040523d82523d6000602084013e61219a565b606091505b50915091506121aa8282866121b5565b979650505050505050565b606083156121c457508161173f565b8251156121d45782518084602001fd5b60405162461bcd60e51b8152602060048201818152845160248401528451859391928392604401919085019080838360008315611a82578181015183820152602001611a6a565b50805460018160011615610100020316600290046000825580601f106122415750610c05565b601f016020900490600052602060002090810190610c0591906122dd565b828054600181600116156101000203166002900490600052602060002090601f016020900481019282601f106122a057805160ff19168380011785556122cd565b828001600101855582156122cd579182015b828111156122cd5782518255916020019190600101906122b2565b506122d99291506122dd565b5090565b5b808211156122d957600081556001016122de56fe456e756d657261626c655365743a20696e646578206f7574206f6620626f756e64734552433732313a207472616e7366657220746f206e6f6e20455243373231526563656976657220696d706c656d656e7465724f776e61626c653a206e6577206f776e657220697320746865207a65726f20616464726573734552433732313a207472616e7366657220746f20746865207a65726f20616464726573734552433732313a206f70657261746f7220717565727920666f72206e6f6e6578697374656e7420746f6b656e4552433732313a20617070726f76652063616c6c6572206973206e6f74206f776e6572206e6f7220617070726f76656420666f7220616c6c4552433732313a2062616c616e636520717565727920666f7220746865207a65726f20616464726573734552433732313a206f776e657220717565727920666f72206e6f6e6578697374656e7420746f6b656e456e756d657261626c654d61703a20696e646578206f7574206f6620626f756e64734552433732313a20617070726f76656420717565727920666f72206e6f6e6578697374656e7420746f6b656e4552433732313a207472616e73666572206f6620746f6b656e2074686174206973206e6f74206f776e4552433732314d657461646174613a2055524920717565727920666f72206e6f6e6578697374656e7420746f6b656e4552433732313a20617070726f76616c20746f2063757272656e74206f776e65724552433732313a207472616e736665722063616c6c6572206973206e6f74206f776e6572206e6f7220617070726f766564a2646970667358221220a8a27700758e0d504d9af835c7fa7f4a0a871c92d4805bc8223e812a91a2860c64736f6c634300060c0033",
  "compiler": {
    "name": "solc",
    "version": "0.6.12+commit.27d51765.Emscripten.clang",
    "optimizer": {
      "enabled": true,
      "runs": 2000
    },
    "evmVersion": "petersburg"
  }
}