{
  "fileName": "BounceNFTFactory.sol",
  "contractName": "BounceNFTFactory",
  "source": "// SPDX-License-Identifier: GPL-3.0-or-later\npragma solidity ^0.6.0;\n\nimport \"@openzeppelin/contracts/utils/Create2.sol\";\nimport \"./BounceERC721.sol\";\nimport \"./BounceERC1155.sol\";\n\ncontract BounceNFTFactory {\n\n    event Brand721Created(address indexed user, address nft);\n    event Brand1155Created(address indexed user, address nft);\n\n    mapping(address => address) public brands;\n\n    function createBrand721(string calldata _name, string calldata _symbol) brandNotCreated(msg.sender) external {\n        bytes memory bytecode = abi.encodePacked(type(BounceERC721).creationCode, abi.encode(_name, _symbol));\n        bytes32 salt = keccak256(abi.encodePacked(msg.sender, _name, _symbol));\n        address nft = Create2.deploy(0, salt, bytecode);\n        brands[msg.sender] = nft;\n        BounceERC721(nft).transferOwnership(msg.sender);\n        emit Brand721Created(msg.sender, nft);\n    }\n\n    function createBrand1155(string calldata _uri) brandNotCreated(msg.sender) external {\n        bytes memory bytecode = abi.encodePacked(type(BounceERC1155).creationCode, abi.encode(_uri));\n        bytes32 salt = keccak256(abi.encodePacked(msg.sender, _uri));\n        address nft = Create2.deploy(0, salt, bytecode);\n        brands[msg.sender] = nft;\n        BounceERC1155(nft).transferOwnership(msg.sender);\n        emit Brand1155Created(msg.sender, nft);\n    }\n\n    modifier brandNotCreated(address _user) {\n        require(brands[_user] == address(0), \"ALREADY CREATED\");\n        _;\n    }\n}",
  "sourcePath": "contracts/BounceNFTFactory.sol",
  "abi": [
    {
      "anonymous": false,
      "inputs": [
        {
          "indexed": true,
          "internalType": "address",
          "name": "user",
          "type": "address"
        },
        {
          "indexed": false,
          "internalType": "address",
          "name": "nft",
          "type": "address"
        }
      ],
      "name": "Brand1155Created",
      "type": "event"
    },
    {
      "anonymous": false,
      "inputs": [
        {
          "indexed": true,
          "internalType": "address",
          "name": "user",
          "type": "address"
        },
        {
          "indexed": false,
          "internalType": "address",
          "name": "nft",
          "type": "address"
        }
      ],
      "name": "Brand721Created",
      "type": "event"
    },
    {
      "inputs": [
        {
          "internalType": "address",
          "name": "",
          "type": "address"
        }
      ],
      "name": "brands",
      "outputs": [
        {
          "internalType": "address",
          "name": "",
          "type": "address"
        }
      ],
      "stateMutability": "view",
      "type": "function"
    },
    {
      "inputs": [
        {
          "internalType": "string",
          "name": "_uri",
          "type": "string"
        }
      ],
      "name": "createBrand1155",
      "outputs": [],
      "stateMutability": "nonpayable",
      "type": "function"
    },
    {
      "inputs": [
        {
          "internalType": "string",
          "name": "_name",
          "type": "string"
        },
        {
          "internalType": "string",
          "name": "_symbol",
          "type": "string"
        }
      ],
      "name": "createBrand721",
      "outputs": [],
      "stateMutability": "nonpayable",
      "type": "function"
    }
  ],
  "bytecode": "0x608060405234801561001057600080fd5b50615885806100206000396000f3fe608060405234801561001057600080fd5b50600436106100415760003560e01c80635b7fd9b514610046578063b28657e414610088578063b30930241461014c575b600080fd5b61006c6004803603602081101561005c57600080fd5b50356001600160a01b03166101bc565b604080516001600160a01b039092168252519081900360200190f35b61014a6004803603604081101561009e57600080fd5b8101906020810181356401000000008111156100b957600080fd5b8201836020820111156100cb57600080fd5b803590602001918460018302840111640100000000831117156100ed57600080fd5b91939092909160208101903564010000000081111561010b57600080fd5b82018360208201111561011d57600080fd5b8035906020019184600183028401116401000000008311171561013f57600080fd5b5090925090506101d7565b005b61014a6004803603602081101561016257600080fd5b81019060208101813564010000000081111561017d57600080fd5b82018360208201111561018f57600080fd5b803590602001918460018302840111640100000000831117156101b157600080fd5b5090925090506104f2565b6000602081905290815260409020546001600160a01b031681565b336000818152602081905260409020546001600160a01b031615610242576040805162461bcd60e51b815260206004820152600f60248201527f414c524541445920435245415445440000000000000000000000000000000000604482015290519081900360640190fd5b606060405180602001610254906108e9565b6020820181038252601f19601f82011660405250868686866040516020018080602001806020018381038352878782818152602001925080828437600083820152601f01601f191690910184810383528581526020019050858580828437600081840152601f19601f82011690508083019250505096505050505050506040516020818303038152906040526040516020018083805190602001908083835b602083106103125780518252601f1990920191602091820191016102f3565b51815160209384036101000a600019018019909216911617905285519190930192850191508083835b6020831061035a5780518252601f19909201916020918201910161033b565b6001836020036101000a0380198251168184511680821785525050505050509050019250505060405160208183030381529060405290506000338787878760405160200180866001600160a01b031660601b8152601401858580828437919091019050838380828437808301925050509550505050505060405160208183030381529060405280519060200120905060006103f7600083856107cf565b3360008181526020819052604080822080547fffffffffffffffffffffffff0000000000000000000000000000000000000000166001600160a01b03861690811790915581517ff2fde38b000000000000000000000000000000000000000000000000000000008152600481019490945290519394509263f2fde38b92602480820193929182900301818387803b15801561049157600080fd5b505af11580156104a5573d6000803e3d6000fd5b5050604080516001600160a01b038516815290513393507fac0827e8b7a7c0520d569791cf6019f585c1cd66b641d5dc0826bc0ddb3babea92509081900360200190a25050505050505050565b336000818152602081905260409020546001600160a01b03161561055d576040805162461bcd60e51b815260206004820152600f60248201527f414c524541445920435245415445440000000000000000000000000000000000604482015290519081900360640190fd5b60606040518060200161056f906108f7565b6020820181038252601f19601f82011660405250848460405160200180806020018281038252848482818152602001925080828437600081840152601f19601f82011690508083019250505093505050506040516020818303038152906040526040516020018083805190602001908083835b602083106106015780518252601f1990920191602091820191016105e2565b51815160209384036101000a600019018019909216911617905285519190930192850191508083835b602083106106495780518252601f19909201916020918201910161062a565b6001836020036101000a038019825116818451168082178552505050505050905001925050506040516020818303038152906040529050600033858560405160200180846001600160a01b031660601b815260140183838082843780830192505050935050505060405160208183030381529060405280519060200120905060006106d6600083856107cf565b3360008181526020819052604080822080547fffffffffffffffffffffffff0000000000000000000000000000000000000000166001600160a01b03861690811790915581517ff2fde38b000000000000000000000000000000000000000000000000000000008152600481019490945290519394509263f2fde38b92602480820193929182900301818387803b15801561077057600080fd5b505af1158015610784573d6000803e3d6000fd5b5050604080516001600160a01b038516815290513393507f1897eafcc4906ea8e02e8ee90f143407cb63f26df1eb90f63e65852c67a1e0fd92509081900360200190a2505050505050565b6000803031851115610828576040805162461bcd60e51b815260206004820152601d60248201527f437265617465323a20696e73756666696369656e742062616c616e6365000000604482015290519081900360640190fd5b825161087b576040805162461bcd60e51b815260206004820181905260248201527f437265617465323a2062797465636f6465206c656e677468206973207a65726f604482015290519081900360640190fd5b8383516020850187f590506001600160a01b0381166108e1576040805162461bcd60e51b815260206004820152601960248201527f437265617465323a204661696c6564206f6e206465706c6f7900000000000000604482015290519081900360640190fd5b949350505050565b6129d4806200090683390190565b61257680620032da8339019056fe60806040523480156200001157600080fd5b50604051620029d4380380620029d4833981810160405260408110156200003757600080fd5b81019080805160405193929190846401000000008211156200005857600080fd5b9083019060208201858111156200006e57600080fd5b82516401000000008111828201881017156200008957600080fd5b82525081516020918201929091019080838360005b83811015620000b85781810151838201526020016200009e565b50505050905090810190601f168015620000e65780820380516001836020036101000a031916815260200191505b50604052602001805160405193929190846401000000008211156200010a57600080fd5b9083019060208201858111156200012057600080fd5b82516401000000008111828201881017156200013b57600080fd5b82525081516020918201929091019080838360005b838110156200016a57818101518382015260200162000150565b50505050905090810190601f168015620001985780820380516001836020036101000a031916815260200191505b5060405250839150829050620001ce7f01ffc9a700000000000000000000000000000000000000000000000000000000620002e0565b8151620001e3906006906020850190620003b3565b508051620001f9906007906020840190620003b3565b50620002257f80ac58cd00000000000000000000000000000000000000000000000000000000620002e0565b620002507f5b5e139f00000000000000000000000000000000000000000000000000000000620002e0565b6200027b7f780e9d6300000000000000000000000000000000000000000000000000000000620002e0565b50600090506200028a620003af565b600a80546001600160a01b0319166001600160a01b038316908117909155604051919250906000907f8be0079c531659141344cd1fd0a4f28419497f9722a3daafe3b4186f6b6457e0908290a35050506200044f565b7fffffffff0000000000000000000000000000000000000000000000000000000080821614156200037257604080517f08c379a000000000000000000000000000000000000000000000000000000000815260206004820152601c60248201527f4552433136353a20696e76616c696420696e7465726661636520696400000000604482015290519081900360640190fd5b7fffffffff00000000000000000000000000000000000000000000000000000000166000908152602081905260409020805460ff19166001179055565b3390565b828054600181600116156101000203166002900490600052602060002090601f016020900481019282601f10620003f657805160ff191683800117855562000426565b8280016001018555821562000426579182015b828111156200042657825182559160200191906001019062000409565b506200043492915062000438565b5090565b5b8082111562000434576000815560010162000439565b612575806200045f6000396000f3fe608060405234801561001057600080fd5b50600436106101985760003560e01c806355f804b3116100e357806395d89b411161008c578063c87b56dd11610066578063c87b56dd1461061b578063e985e9c514610638578063f2fde38b1461066657610198565b806395d89b411461051f578063a22cb46514610527578063b88d4fde1461055557610198565b806370a08231116100bd57806370a08231146104e9578063715018a61461050f5780638da5cb5b1461051757610198565b806355f804b31461041e5780636352211e146104c45780636c0360eb146104e157610198565b80632a959b891161014557806342842e0e1161011f57806342842e0e146103ae57806342966c68146103e45780634f6ccce71461040157610198565b80632a959b89146103245780632f745c591461035657806340c10f191461038257610198565b8063095ea7b311610176578063095ea7b3146102a657806318160ddd146102d457806323b872dd146102ee57610198565b806301ffc9a71461019d57806306fdde03146101f0578063081812fc1461026d575b600080fd5b6101dc600480360360208110156101b357600080fd5b50357fffffffff000000000000000000000000000000000000000000000000000000001661068c565b604080519115158252519081900360200190f35b6101f86106c7565b6040805160208082528351818301528351919283929083019185019080838360005b8381101561023257818101518382015260200161021a565b50505050905090810190601f16801561025f5780820380516001836020036101000a031916815260200191505b509250505060405180910390f35b61028a6004803603602081101561028357600080fd5b503561075d565b604080516001600160a01b039092168252519081900360200190f35b6102d2600480360360408110156102bc57600080fd5b506001600160a01b0381351690602001356107bf565b005b6102dc61089a565b60408051918252519081900360200190f35b6102d26004803603606081101561030457600080fd5b506001600160a01b038135811691602081013590911690604001356108ab565b6102d26004803603606081101561033a57600080fd5b506001600160a01b038135169060208101359060400135610902565b6102dc6004803603604081101561036c57600080fd5b506001600160a01b0381351690602001356109cb565b6102d26004803603604081101561039857600080fd5b506001600160a01b0381351690602001356109f6565b6102d2600480360360608110156103c457600080fd5b506001600160a01b03813581169160208101359091169060400135610aaf565b6102d2600480360360208110156103fa57600080fd5b5035610aca565b6102dc6004803603602081101561041757600080fd5b5035610b72565b6102d26004803603602081101561043457600080fd5b81019060208101813564010000000081111561044f57600080fd5b82018360208201111561046157600080fd5b8035906020019184600183028401116401000000008311171561048357600080fd5b91908080601f016020809104026020016040519081016040528093929190818152602001838380828437600092019190915250929550610b88945050505050565b61028a600480360360208110156104da57600080fd5b5035610c08565b6101f8610c30565b6102dc600480360360208110156104ff57600080fd5b50356001600160a01b0316610c91565b6102d2610cf9565b61028a610dc4565b6101f8610dd3565b6102d26004803603604081101561053d57600080fd5b506001600160a01b0381351690602001351515610e34565b6102d26004803603608081101561056b57600080fd5b6001600160a01b038235811692602081013590911691604082013591908101906080810160608201356401000000008111156105a657600080fd5b8201836020820111156105b857600080fd5b803590602001918460018302840111640100000000831117156105da57600080fd5b91908080601f016020809104026020016040519081016040528093929190818152602001838380828437600092019190915250929550610f57945050505050565b6101f86004803603602081101561063157600080fd5b5035610faf565b6101dc6004803603604081101561064e57600080fd5b506001600160a01b0381358116916020013516611232565b6102d26004803603602081101561067c57600080fd5b50356001600160a01b0316611260565b7fffffffff00000000000000000000000000000000000000000000000000000000811660009081526020819052604090205460ff165b919050565b60068054604080516020601f60026000196101006001881615020190951694909404938401819004810282018101909252828152606093909290918301828280156107535780601f1061072857610100808354040283529160200191610753565b820191906000526020600020905b81548152906001019060200180831161073657829003601f168201915b5050505050905090565b600061076882611382565b6107a35760405162461bcd60e51b815260040180806020018281038252602c81526020018061246a602c913960400191505060405180910390fd5b506000908152600460205260409020546001600160a01b031690565b60006107ca82610c08565b9050806001600160a01b0316836001600160a01b0316141561081d5760405162461bcd60e51b81526004018080602001828103825260218152602001806124ee6021913960400191505060405180910390fd5b806001600160a01b031661082f61138f565b6001600160a01b0316148061085057506108508161084b61138f565b611232565b61088b5760405162461bcd60e51b81526004018080602001828103825260388152602001806123bd6038913960400191505060405180910390fd5b6108958383611393565b505050565b60006108a6600261140e565b905090565b6108bc6108b661138f565b82611419565b6108f75760405162461bcd60e51b815260040180806020018281038252603181526020018061250f6031913960400191505060405180910390fd5b6108958383836114bd565b61090a61138f565b6001600160a01b031661091b610dc4565b6001600160a01b031614610976576040805162461bcd60e51b815260206004820181905260248201527f4f776e61626c653a2063616c6c6572206973206e6f7420746865206f776e6572604482015290519081900360640190fd5b815b8181116109c5576109898482611609565b6000818152600b60205260409020805473ffffffffffffffffffffffffffffffffffffffff19166001600160a01b038616179055600101610978565b50505050565b6001600160a01b03821660009081526001602052604081206109ed9083611627565b90505b92915050565b6109fe61138f565b6001600160a01b0316610a0f610dc4565b6001600160a01b031614610a6a576040805162461bcd60e51b815260206004820181905260248201527f4f776e61626c653a2063616c6c6572206973206e6f7420746865206f776e6572604482015290519081900360640190fd5b610a748282611609565b6000908152600b60205260409020805473ffffffffffffffffffffffffffffffffffffffff19166001600160a01b0392909216919091179055565b61089583838360405180602001604052806000815250610f57565b610ad261138f565b6001600160a01b0316610ae3610dc4565b6001600160a01b031614610b3e576040805162461bcd60e51b815260206004820181905260248201527f4f776e61626c653a2063616c6c6572206973206e6f7420746865206f776e6572604482015290519081900360640190fd5b610b4781611633565b6000908152600b60205260409020805473ffffffffffffffffffffffffffffffffffffffff19169055565b600080610b80600284611700565b509392505050565b610b9061138f565b6001600160a01b0316610ba1610dc4565b6001600160a01b031614610bfc576040805162461bcd60e51b815260206004820181905260248201527f4f776e61626c653a2063616c6c6572206973206e6f7420746865206f776e6572604482015290519081900360640190fd5b610c058161171c565b50565b60006109f08260405180606001604052806029815260200161241f602991396002919061172f565b60098054604080516020601f60026000196101006001881615020190951694909404938401819004810282018101909252828152606093909290918301828280156107535780601f1061072857610100808354040283529160200191610753565b60006001600160a01b038216610cd85760405162461bcd60e51b815260040180806020018281038252602a8152602001806123f5602a913960400191505060405180910390fd5b6001600160a01b03821660009081526001602052604090206109f09061140e565b610d0161138f565b6001600160a01b0316610d12610dc4565b6001600160a01b031614610d6d576040805162461bcd60e51b815260206004820181905260248201527f4f776e61626c653a2063616c6c6572206973206e6f7420746865206f776e6572604482015290519081900360640190fd5b600a546040516000916001600160a01b0316907f8be0079c531659141344cd1fd0a4f28419497f9722a3daafe3b4186f6b6457e0908390a3600a805473ffffffffffffffffffffffffffffffffffffffff19169055565b600a546001600160a01b031690565b60078054604080516020601f60026000196101006001881615020190951694909404938401819004810282018101909252828152606093909290918301828280156107535780601f1061072857610100808354040283529160200191610753565b610e3c61138f565b6001600160a01b0316826001600160a01b03161415610ea2576040805162461bcd60e51b815260206004820152601960248201527f4552433732313a20617070726f766520746f2063616c6c657200000000000000604482015290519081900360640190fd5b8060056000610eaf61138f565b6001600160a01b0390811682526020808301939093526040918201600090812091871680825291909352912080547fffffffffffffffffffffffffffffffffffffffffffffffffffffffffffffff001692151592909217909155610f1161138f565b6001600160a01b03167f17307eab39ab6107e8899845ad3d59bd9653f200f220920489ca2b5937696c318360405180821515815260200191505060405180910390a35050565b610f68610f6261138f565b83611419565b610fa35760405162461bcd60e51b815260040180806020018281038252603181526020018061250f6031913960400191505060405180910390fd5b6109c584848484611746565b6060610fba82611382565b610ff55760405162461bcd60e51b815260040180806020018281038252602f8152602001806124bf602f913960400191505060405180910390fd5b60008281526008602090815260409182902080548351601f600260001961010060018616150201909316929092049182018490048402810184019094528084526060939283018282801561108a5780601f1061105f5761010080835404028352916020019161108a565b820191906000526020600020905b81548152906001019060200180831161106d57829003601f168201915b50505050509050606061109b610c30565b90508051600014156110af575090506106c2565b8151156111705780826040516020018083805190602001908083835b602083106110ea5780518252601f1990920191602091820191016110cb565b51815160209384036101000a600019018019909216911617905285519190930192850191508083835b602083106111325780518252601f199092019160209182019101611113565b6001836020036101000a03801982511681845116808217855250505050505090500192505050604051602081830303815290604052925050506106c2565b8061117a85611798565b6040516020018083805190602001908083835b602083106111ac5780518252601f19909201916020918201910161118d565b51815160209384036101000a600019018019909216911617905285519190930192850191508083835b602083106111f45780518252601f1990920191602091820191016111d5565b6001836020036101000a0380198251168184511680821785525050505050509050019250505060405160208183030381529060405292505050919050565b6001600160a01b03918216600090815260056020908152604080832093909416825291909152205460ff1690565b61126861138f565b6001600160a01b0316611279610dc4565b6001600160a01b0316146112d4576040805162461bcd60e51b815260206004820181905260248201527f4f776e61626c653a2063616c6c6572206973206e6f7420746865206f776e6572604482015290519081900360640190fd5b6001600160a01b0381166113195760405162461bcd60e51b81526004018080602001828103825260268152602001806123476026913960400191505060405180910390fd5b600a546040516001600160a01b038084169216907f8be0079c531659141344cd1fd0a4f28419497f9722a3daafe3b4186f6b6457e090600090a3600a805473ffffffffffffffffffffffffffffffffffffffff19166001600160a01b0392909216919091179055565b60006109f06002836118a7565b3390565b6000818152600460205260409020805473ffffffffffffffffffffffffffffffffffffffff19166001600160a01b03841690811790915581906113d582610c08565b6001600160a01b03167f8c5be1e5ebec7d5bd14f71427d1e84f3dd0314c0f7b2291e5b200ac8c7c3b92560405160405180910390a45050565b60006109f0826118b3565b600061142482611382565b61145f5760405162461bcd60e51b815260040180806020018281038252602c815260200180612391602c913960400191505060405180910390fd5b600061146a83610c08565b9050806001600160a01b0316846001600160a01b031614806114a55750836001600160a01b031661149a8461075d565b6001600160a01b0316145b806114b557506114b58185611232565b949350505050565b826001600160a01b03166114d082610c08565b6001600160a01b0316146115155760405162461bcd60e51b81526004018080602001828103825260298152602001806124966029913960400191505060405180910390fd5b6001600160a01b03821661155a5760405162461bcd60e51b815260040180806020018281038252602481526020018061236d6024913960400191505060405180910390fd5b611565838383610895565b611570600082611393565b6001600160a01b038316600090815260016020526040902061159290826118b7565b506001600160a01b03821660009081526001602052604090206115b590826118c3565b506115c2600282846118cf565b5080826001600160a01b0316846001600160a01b03167fddf252ad1be2c89b69c2b068fc378daa952ba7f163c4a11628f55a4df523b3ef60405160405180910390a4505050565b6116238282604051806020016040528060008152506118e5565b5050565b60006109ed8383611937565b600061163e82610c08565b905061164c81600084610895565b611657600083611393565b60008281526008602052604090205460026000196101006001841615020190911604156116955760008281526008602052604081206116959161221b565b6001600160a01b03811660009081526001602052604090206116b790836118b7565b506116c360028361199b565b5060405182906000906001600160a01b038416907fddf252ad1be2c89b69c2b068fc378daa952ba7f163c4a11628f55a4df523b3ef908390a45050565b600080808061170f86866119a7565b9097909650945050505050565b805161162390600990602084019061225f565b600061173c848484611a22565b90505b9392505050565b6117518484846114bd565b61175d84848484611aec565b6109c55760405162461bcd60e51b81526004018080602001828103825260328152602001806123156032913960400191505060405180910390fd5b6060816117d9575060408051808201909152600181527f300000000000000000000000000000000000000000000000000000000000000060208201526106c2565b8160005b81156117f157600101600a820491506117dd565b60608167ffffffffffffffff8111801561180a57600080fd5b506040519080825280601f01601f191660200182016040528015611835576020820181803683370190505b50859350905060001982015b831561189e57600a840660300160f81b8282806001900393508151811061186457fe5b60200101907effffffffffffffffffffffffffffffffffffffffffffffffffffffffffffff1916908160001a905350600a84049350611841565b50949350505050565b60006109ed8383611cc8565b5490565b60006109ed8383611ce0565b60006109ed8383611da6565b600061173c84846001600160a01b038516611df0565b6118ef8383611e87565b6118fc6000848484611aec565b6108955760405162461bcd60e51b81526004018080602001828103825260328152602001806123156032913960400191505060405180910390fd5b815460009082106119795760405162461bcd60e51b81526004018080602001828103825260228152602001806122f36022913960400191505060405180910390fd5b82600001828154811061198857fe5b9060005260206000200154905092915050565b60006109ed8383611fb5565b8154600090819083106119eb5760405162461bcd60e51b81526004018080602001828103825260228152602001806124486022913960400191505060405180910390fd5b60008460000184815481106119fc57fe5b906000526020600020906002020190508060000154816001015492509250509250929050565b60008281526001840160205260408120548281611abd5760405162461bcd60e51b81526004018080602001828103825283818151815260200191508051906020019080838360005b83811015611a82578181015183820152602001611a6a565b50505050905090810190601f168015611aaf5780820380516001836020036101000a031916815260200191505b509250505060405180910390fd5b50846000016001820381548110611ad057fe5b9060005260206000209060020201600101549150509392505050565b6000611b00846001600160a01b0316612089565b611b0c575060016114b5565b6060611c5d7f150b7a0200000000000000000000000000000000000000000000000000000000611b3a61138f565b88878760405160240180856001600160a01b03168152602001846001600160a01b0316815260200183815260200180602001828103825283818151815260200191508051906020019080838360005b83811015611ba1578181015183820152602001611b89565b50505050905090810190601f168015611bce5780820380516001836020036101000a031916815260200191505b5095505050505050604051602081830303815290604052907bffffffffffffffffffffffffffffffffffffffffffffffffffffffff19166020820180517bffffffffffffffffffffffffffffffffffffffffffffffffffffffff8381831617835250505050604051806060016040528060328152602001612315603291396001600160a01b038816919061208f565b90506000818060200190516020811015611c7657600080fd5b50517fffffffff00000000000000000000000000000000000000000000000000000000167f150b7a02000000000000000000000000000000000000000000000000000000001492505050949350505050565b60009081526001919091016020526040902054151590565b60008181526001830160205260408120548015611d9c5783546000198083019190810190600090879083908110611d1357fe5b9060005260206000200154905080876000018481548110611d3057fe5b600091825260208083209091019290925582815260018981019092526040902090840190558654879080611d6057fe5b600190038181906000526020600020016000905590558660010160008781526020019081526020016000206000905560019450505050506109f0565b60009150506109f0565b6000611db28383611cc8565b611de8575081546001818101845560008481526020808220909301849055845484825282860190935260409020919091556109f0565b5060006109f0565b600082815260018401602052604081205480611e5557505060408051808201825283815260208082018481528654600181810189556000898152848120955160029093029095019182559151908201558654868452818801909252929091205561173f565b82856000016001830381548110611e6857fe5b906000526020600020906002020160010181905550600091505061173f565b6001600160a01b038216611ee2576040805162461bcd60e51b815260206004820181905260248201527f4552433732313a206d696e7420746f20746865207a65726f2061646472657373604482015290519081900360640190fd5b611eeb81611382565b15611f3d576040805162461bcd60e51b815260206004820152601c60248201527f4552433732313a20746f6b656e20616c7265616479206d696e74656400000000604482015290519081900360640190fd5b611f4960008383610895565b6001600160a01b0382166000908152600160205260409020611f6b90826118c3565b50611f78600282846118cf565b5060405181906001600160a01b038416906000907fddf252ad1be2c89b69c2b068fc378daa952ba7f163c4a11628f55a4df523b3ef908290a45050565b60008181526001830160205260408120548015611d9c5783546000198083019190810190600090879083908110611fe857fe5b906000526020600020906002020190508087600001848154811061200857fe5b60009182526020808320845460029093020191825560019384015491840191909155835482528983019052604090209084019055865487908061204757fe5b60008281526020808220600260001990940193840201828155600190810183905592909355888152898201909252604082209190915594506109f09350505050565b3b151590565b606061173c8484600085856120a385612089565b6120f4576040805162461bcd60e51b815260206004820152601d60248201527f416464726573733a2063616c6c20746f206e6f6e2d636f6e7472616374000000604482015290519081900360640190fd5b60006060866001600160a01b031685876040518082805190602001908083835b602083106121335780518252601f199092019160209182019101612114565b6001836020036101000a03801982511681845116808217855250505050505090500191505060006040518083038185875af1925050503d8060008114612195576040519150601f19603f3d011682016040523d82523d6000602084013e61219a565b606091505b50915091506121aa8282866121b5565b979650505050505050565b606083156121c457508161173f565b8251156121d45782518084602001fd5b60405162461bcd60e51b8152602060048201818152845160248401528451859391928392604401919085019080838360008315611a82578181015183820152602001611a6a565b50805460018160011615610100020316600290046000825580601f106122415750610c05565b601f016020900490600052602060002090810190610c0591906122dd565b828054600181600116156101000203166002900490600052602060002090601f016020900481019282601f106122a057805160ff19168380011785556122cd565b828001600101855582156122cd579182015b828111156122cd5782518255916020019190600101906122b2565b506122d99291506122dd565b5090565b5b808211156122d957600081556001016122de56fe456e756d657261626c655365743a20696e646578206f7574206f6620626f756e64734552433732313a207472616e7366657220746f206e6f6e20455243373231526563656976657220696d706c656d656e7465724f776e61626c653a206e6577206f776e657220697320746865207a65726f20616464726573734552433732313a207472616e7366657220746f20746865207a65726f20616464726573734552433732313a206f70657261746f7220717565727920666f72206e6f6e6578697374656e7420746f6b656e4552433732313a20617070726f76652063616c6c6572206973206e6f74206f776e6572206e6f7220617070726f76656420666f7220616c6c4552433732313a2062616c616e636520717565727920666f7220746865207a65726f20616464726573734552433732313a206f776e657220717565727920666f72206e6f6e6578697374656e7420746f6b656e456e756d657261626c654d61703a20696e646578206f7574206f6620626f756e64734552433732313a20617070726f76656420717565727920666f72206e6f6e6578697374656e7420746f6b656e4552433732313a207472616e73666572206f6620746f6b656e2074686174206973206e6f74206f776e4552433732314d657461646174613a2055524920717565727920666f72206e6f6e6578697374656e7420746f6b656e4552433732313a20617070726f76616c20746f2063757272656e74206f776e65724552433732313a207472616e736665722063616c6c6572206973206e6f74206f776e6572206e6f7220617070726f766564a2646970667358221220a8a27700758e0d504d9af835c7fa7f4a0a871c92d4805bc8223e812a91a2860c64736f6c634300060c003360806040523480156200001157600080fd5b506040516200257638038062002576833981810160405260208110156200003757600080fd5b81019080805160405193929190846401000000008211156200005857600080fd5b9083019060208201858111156200006e57600080fd5b82516401000000008111828201881017156200008957600080fd5b82525081516020918201929091019080838360005b83811015620000b85781810151838201526020016200009e565b50505050905090810190601f168015620000e65780820380516001836020036101000a031916815260200191505b50604052508291506200011b90507f01ffc9a700000000000000000000000000000000000000000000000000000000620001de565b6200012681620002ad565b620001517fd9b67a2600000000000000000000000000000000000000000000000000000000620001de565b6200017c7f0e89341c00000000000000000000000000000000000000000000000000000000620001de565b50600062000189620002c6565b600480546001600160a01b0319166001600160a01b038316908117909155604051919250906000907f8be0079c531659141344cd1fd0a4f28419497f9722a3daafe3b4186f6b6457e0908290a3505062000366565b7fffffffff0000000000000000000000000000000000000000000000000000000080821614156200027057604080517f08c379a000000000000000000000000000000000000000000000000000000000815260206004820152601c60248201527f4552433136353a20696e76616c696420696e7465726661636520696400000000604482015290519081900360640190fd5b7fffffffff00000000000000000000000000000000000000000000000000000000166000908152602081905260409020805460ff19166001179055565b8051620002c2906003906020840190620002ca565b5050565b3390565b828054600181600116156101000203166002900490600052602060002090601f016020900481019282601f106200030d57805160ff19168380011785556200033d565b828001600101855582156200033d579182015b828111156200033d57825182559160200191906001019062000320565b506200034b9291506200034f565b5090565b5b808211156200034b576000815560010162000350565b61220080620003766000396000f3fe608060405234801561001057600080fd5b50600436106100f45760003560e01c8063715018a611610097578063e985e9c511610066578063e985e9c5146107e5578063f242432a14610813578063f2fde38b146108de578063f5298aca14610904576100f4565b8063715018a6146106c9578063731133e9146106d15780638da5cb5b14610793578063a22cb465146107b7576100f4565b80630e89341c116100d35780630e89341c146102325780632eb2c2d6146102c45780634e1273f41461048b57806362f5cbd814610602576100f4565b8062fdd58e146100f957806301ffc9a71461013757806302fe53051461018a575b600080fd5b6101256004803603604081101561010f57600080fd5b506001600160a01b038135169060200135610936565b60408051918252519081900360200190f35b6101766004803603602081101561014d57600080fd5b50357fffffffff00000000000000000000000000000000000000000000000000000000166109a5565b604080519115158252519081900360200190f35b610230600480360360208110156101a057600080fd5b8101906020810181356401000000008111156101bb57600080fd5b8201836020820111156101cd57600080fd5b803590602001918460018302840111640100000000831117156101ef57600080fd5b91908080601f0160208091040260200160405190810160405280939291908181526020018383808284376000920191909152509295506109dc945050505050565b005b61024f6004803603602081101561024857600080fd5b5035610a5c565b6040805160208082528351818301528351919283929083019185019080838360005b83811015610289578181015183820152602001610271565b50505050905090810190601f1680156102b65780820380516001836020036101000a031916815260200191505b509250505060405180910390f35b610230600480360360a08110156102da57600080fd5b6001600160a01b03823581169260208101359091169181019060608101604082013564010000000081111561030e57600080fd5b82018360208201111561032057600080fd5b8035906020019184602083028401116401000000008311171561034257600080fd5b919080806020026020016040519081016040528093929190818152602001838360200280828437600092019190915250929594936020810193503591505064010000000081111561039257600080fd5b8201836020820111156103a457600080fd5b803590602001918460208302840111640100000000831117156103c657600080fd5b919080806020026020016040519081016040528093929190818152602001838360200280828437600092019190915250929594936020810193503591505064010000000081111561041657600080fd5b82018360208201111561042857600080fd5b8035906020019184600183028401116401000000008311171561044a57600080fd5b91908080601f016020809104026020016040519081016040528093929190818152602001838380828437600092019190915250929550610b12945050505050565b6105b2600480360360408110156104a157600080fd5b8101906020810181356401000000008111156104bc57600080fd5b8201836020820111156104ce57600080fd5b803590602001918460208302840111640100000000831117156104f057600080fd5b919080806020026020016040519081016040528093929190818152602001838360200280828437600092019190915250929594936020810193503591505064010000000081111561054057600080fd5b82018360208201111561055257600080fd5b8035906020019184602083028401116401000000008311171561057457600080fd5b919080806020026020016040519081016040528093929190818152602001838360200280828437600092019190915250929550610e10945050505050565b60408051602080825283518183015283519192839290830191858101910280838360005b838110156105ee5781810151838201526020016105d6565b505050509050019250505060405180910390f35b610230600480360360a081101561061857600080fd5b6001600160a01b038235169160208101359160408201359160608101359181019060a08101608082013564010000000081111561065457600080fd5b82018360208201111561066657600080fd5b8035906020019184600183028401116401000000008311171561068857600080fd5b91908080601f016020809104026020016040519081016040528093929190818152602001838380828437600092019190915250929550610efc945050505050565b610230610fc1565b610230600480360360808110156106e757600080fd5b6001600160a01b03823516916020810135916040820135919081019060808101606082013564010000000081111561071e57600080fd5b82018360208201111561073057600080fd5b8035906020019184600183028401116401000000008311171561075257600080fd5b91908080601f01602080910402602001604051908101604052809392919081815260200183838082843760009201919091525092955061108c945050505050565b61079b611149565b604080516001600160a01b039092168252519081900360200190f35b610230600480360360408110156107cd57600080fd5b506001600160a01b0381351690602001351515611159565b610176600480360360408110156107fb57600080fd5b506001600160a01b0381358116916020013516611266565b610230600480360360a081101561082957600080fd5b6001600160a01b03823581169260208101359091169160408201359160608101359181019060a08101608082013564010000000081111561086957600080fd5b82018360208201111561087b57600080fd5b8035906020019184600183028401116401000000008311171561089d57600080fd5b91908080601f016020809104026020016040519081016040528093929190818152602001838380828437600092019190915250929550611294945050505050565b610230600480360360208110156108f457600080fd5b50356001600160a01b031661145f565b6102306004803603606081101561091a57600080fd5b506001600160a01b038135169060208101359060400135611581565b60006001600160a01b03831661097d5760405162461bcd60e51b815260040180806020018281038252602b815260200180611fee602b913960400191505060405180910390fd5b5060009081526001602090815260408083206001600160a01b03949094168352929052205490565b7fffffffff000000000000000000000000000000000000000000000000000000001660009081526020819052604090205460ff1690565b6109e461162d565b6001600160a01b03166109f5611149565b6001600160a01b031614610a50576040805162461bcd60e51b815260206004820181905260248201527f4f776e61626c653a2063616c6c6572206973206e6f7420746865206f776e6572604482015290519081900360640190fd5b610a5981611631565b50565b60038054604080516020601f60027fffffffffffffffffffffffffffffffffffffffffffffffffffffffffffffffff610100600188161502019095169490940493840181900481028201810190925282815260609390929091830182828015610b065780601f10610adb57610100808354040283529160200191610b06565b820191906000526020600020905b815481529060010190602001808311610ae957829003601f168201915b50505050509050919050565b8151835114610b525760405162461bcd60e51b81526004018080602001828103825260288152602001806121826028913960400191505060405180910390fd5b6001600160a01b038416610b975760405162461bcd60e51b815260040180806020018281038252602581526020018061208c6025913960400191505060405180910390fd5b610b9f61162d565b6001600160a01b0316856001600160a01b03161480610bca5750610bca85610bc561162d565b611266565b610c055760405162461bcd60e51b81526004018080602001828103825260328152602001806120b16032913960400191505060405180910390fd5b6000610c0f61162d565b9050610c1f818787878787610e08565b60005b8451811015610d20576000858281518110610c3957fe5b602002602001015190506000858381518110610c5157fe5b60200260200101519050610cbe816040518060600160405280602a8152602001612106602a91396001600086815260200190815260200160002060008d6001600160a01b03166001600160a01b03168152602001908152602001600020546116489092919063ffffffff16565b60008381526001602090815260408083206001600160a01b038e811685529252808320939093558a1681522054610cf590826116df565b60009283526001602081815260408086206001600160a01b038d168752909152909320555001610c22565b50846001600160a01b0316866001600160a01b0316826001600160a01b03167f4a39dc06d4c0dbc64b70af90fd698a233a518aa5d07e595d983b8c0526c8f7fb8787604051808060200180602001838103835285818151815260200191508051906020019060200280838360005b83811015610da6578181015183820152602001610d8e565b50505050905001838103825284818151815260200191508051906020019060200280838360005b83811015610de5578181015183820152602001610dcd565b5050505090500194505050505060405180910390a4610e08818787878787611740565b505050505050565b60608151835114610e525760405162461bcd60e51b81526004018080602001828103825260298152602001806121596029913960400191505060405180910390fd5b6060835167ffffffffffffffff81118015610e6c57600080fd5b50604051908082528060200260200182016040528015610e96578160200160208202803683370190505b50905060005b8451811015610ef457610ed5858281518110610eb457fe5b6020026020010151858381518110610ec857fe5b6020026020010151610936565b828281518110610ee157fe5b6020908102919091010152600101610e9c565b509392505050565b610f0461162d565b6001600160a01b0316610f15611149565b6001600160a01b031614610f70576040805162461bcd60e51b815260206004820181905260248201527f4f776e61626c653a2063616c6c6572206973206e6f7420746865206f776e6572604482015290519081900360640190fd5b835b838111610e0857610f85868285856119f0565b6000818152600560205260409020805473ffffffffffffffffffffffffffffffffffffffff19166001600160a01b038816179055600101610f72565b610fc961162d565b6001600160a01b0316610fda611149565b6001600160a01b031614611035576040805162461bcd60e51b815260206004820181905260248201527f4f776e61626c653a2063616c6c6572206973206e6f7420746865206f776e6572604482015290519081900360640190fd5b6004546040516000916001600160a01b0316907f8be0079c531659141344cd1fd0a4f28419497f9722a3daafe3b4186f6b6457e0908390a36004805473ffffffffffffffffffffffffffffffffffffffff19169055565b61109461162d565b6001600160a01b03166110a5611149565b6001600160a01b031614611100576040805162461bcd60e51b815260206004820181905260248201527f4f776e61626c653a2063616c6c6572206973206e6f7420746865206f776e6572604482015290519081900360640190fd5b61110c848484846119f0565b50506000908152600560205260409020805473ffffffffffffffffffffffffffffffffffffffff19166001600160a01b0392909216919091179055565b6004546001600160a01b03165b90565b816001600160a01b031661116b61162d565b6001600160a01b031614156111b15760405162461bcd60e51b81526004018080602001828103825260298152602001806121306029913960400191505060405180910390fd5b80600260006111be61162d565b6001600160a01b0390811682526020808301939093526040918201600090812091871680825291909352912080547fffffffffffffffffffffffffffffffffffffffffffffffffffffffffffffff00169215159290921790915561122061162d565b6001600160a01b03167f17307eab39ab6107e8899845ad3d59bd9653f200f220920489ca2b5937696c318360405180821515815260200191505060405180910390a35050565b6001600160a01b03918216600090815260026020908152604080832093909416825291909152205460ff1690565b6001600160a01b0384166112d95760405162461bcd60e51b815260040180806020018281038252602581526020018061208c6025913960400191505060405180910390fd5b6112e161162d565b6001600160a01b0316856001600160a01b03161480611307575061130785610bc561162d565b6113425760405162461bcd60e51b81526004018080602001828103825260298152602001806120636029913960400191505060405180910390fd5b600061134c61162d565b905061136c81878761135d88611af8565b61136688611af8565b87610e08565b6113b3836040518060600160405280602a8152602001612106602a913960008781526001602090815260408083206001600160a01b038d1684529091529020549190611648565b60008581526001602090815260408083206001600160a01b038b811685529252808320939093558716815220546113ea90846116df565b60008581526001602090815260408083206001600160a01b03808b168086529184529382902094909455805188815291820187905280518a8416938616927fc3d58168c5ae7397731d063d5bbf3d657854427343f4c083240f7aacaa2d0f6292908290030190a4610e08818787878787611b3c565b61146761162d565b6001600160a01b0316611478611149565b6001600160a01b0316146114d3576040805162461bcd60e51b815260206004820181905260248201527f4f776e61626c653a2063616c6c6572206973206e6f7420746865206f776e6572604482015290519081900360640190fd5b6001600160a01b0381166115185760405162461bcd60e51b81526004018080602001828103825260268152602001806120196026913960400191505060405180910390fd5b6004546040516001600160a01b038084169216907f8be0079c531659141344cd1fd0a4f28419497f9722a3daafe3b4186f6b6457e090600090a36004805473ffffffffffffffffffffffffffffffffffffffff19166001600160a01b0392909216919091179055565b61158961162d565b6001600160a01b031661159a611149565b6001600160a01b0316146115f5576040805162461bcd60e51b815260206004820181905260248201527f4f776e61626c653a2063616c6c6572206973206e6f7420746865206f776e6572604482015290519081900360640190fd5b611600838383611cde565b506000908152600560205260409020805473ffffffffffffffffffffffffffffffffffffffff1916905550565b3390565b8051611644906003906020840190611e17565b5050565b600081848411156116d75760405162461bcd60e51b81526004018080602001828103825283818151815260200191508051906020019080838360005b8381101561169c578181015183820152602001611684565b50505050905090810190601f1680156116c95780820380516001836020036101000a031916815260200191505b509250505060405180910390fd5b505050900390565b600082820183811015611739576040805162461bcd60e51b815260206004820152601b60248201527f536166654d6174683a206164646974696f6e206f766572666c6f770000000000604482015290519081900360640190fd5b9392505050565b611752846001600160a01b0316611e11565b15610e0857836001600160a01b031663bc197c8187878686866040518663ffffffff1660e01b815260040180866001600160a01b03168152602001856001600160a01b03168152602001806020018060200180602001848103845287818151815260200191508051906020019060200280838360005b838110156117e05781810151838201526020016117c8565b50505050905001848103835286818151815260200191508051906020019060200280838360005b8381101561181f578181015183820152602001611807565b50505050905001848103825285818151815260200191508051906020019080838360005b8381101561185b578181015183820152602001611843565b50505050905090810190601f1680156118885780820380516001836020036101000a031916815260200191505b5098505050505050505050602060405180830381600087803b1580156118ad57600080fd5b505af19250505080156118d257506040513d60208110156118cd57600080fd5b505160015b611967576118de611eb0565b806118e95750611930565b60405162461bcd60e51b815260206004820181815283516024840152835184939192839260440191908501908083836000831561169c578181015183820152602001611684565b60405162461bcd60e51b8152600401808060200182810382526034815260200180611f926034913960400191505060405180910390fd5b7fffffffff0000000000000000000000000000000000000000000000000000000081167fbc197c8100000000000000000000000000000000000000000000000000000000146119e75760405162461bcd60e51b8152600401808060200182810382526028815260200180611fc66028913960400191505060405180910390fd5b50505050505050565b6001600160a01b038416611a355760405162461bcd60e51b81526004018080602001828103825260218152602001806121aa6021913960400191505060405180910390fd5b6000611a3f61162d565b9050611a518160008761135d88611af8565b60008481526001602090815260408083206001600160a01b0389168452909152902054611a7e90846116df565b60008581526001602090815260408083206001600160a01b03808b16808652918452828520959095558151898152928301889052815190948616927fc3d58168c5ae7397731d063d5bbf3d657854427343f4c083240f7aacaa2d0f6292908290030190a4611af181600087878787611b3c565b5050505050565b604080516001808252818301909252606091829190602080830190803683370190505090508281600081518110611b2b57fe5b602090810291909101015292915050565b611b4e846001600160a01b0316611e11565b15610e0857836001600160a01b031663f23a6e6187878686866040518663ffffffff1660e01b815260040180866001600160a01b03168152602001856001600160a01b0316815260200184815260200183815260200180602001828103825283818151815260200191508051906020019080838360005b83811015611bdd578181015183820152602001611bc5565b50505050905090810190601f168015611c0a5780820380516001836020036101000a031916815260200191505b509650505050505050602060405180830381600087803b158015611c2d57600080fd5b505af1925050508015611c5257506040513d6020811015611c4d57600080fd5b505160015b611c5e576118de611eb0565b7fffffffff0000000000000000000000000000000000000000000000000000000081167ff23a6e6100000000000000000000000000000000000000000000000000000000146119e75760405162461bcd60e51b8152600401808060200182810382526028815260200180611fc66028913960400191505060405180910390fd5b6001600160a01b038316611d235760405162461bcd60e51b81526004018080602001828103825260238152602001806120e36023913960400191505060405180910390fd5b6000611d2d61162d565b9050611d5d81856000611d3f87611af8565b611d4887611af8565b60405180602001604052806000815250610e08565b611da48260405180606001604052806024815260200161203f6024913960008681526001602090815260408083206001600160a01b038b1684529091529020549190611648565b60008481526001602090815260408083206001600160a01b03808a16808652918452828520959095558151888152928301879052815193949093908616927fc3d58168c5ae7397731d063d5bbf3d657854427343f4c083240f7aacaa2d0f6292908290030190a450505050565b3b151590565b828054600181600116156101000203166002900490600052602060002090601f016020900481019282601f10611e5857805160ff1916838001178555611e85565b82800160010185558215611e85579182015b82811115611e85578251825591602001919060010190611e6a565b50611e91929150611e95565b5090565b5b80821115611e915760008155600101611e96565b60e01c90565b600060443d1015611ec057611156565b600481823e6308c379a0611ed48251611eaa565b14611ede57611156565b6040517ffffffffffffffffffffffffffffffffffffffffffffffffffffffffffffffffc3d016004823e80513d67ffffffffffffffff8160248401118184111715611f2c5750505050611156565b82840192508251915080821115611f465750505050611156565b503d83016020828401011115611f5e57505050611156565b601f017fffffffffffffffffffffffffffffffffffffffffffffffffffffffffffffffe01681016020016040529150509056fe455243313135353a207472616e7366657220746f206e6f6e2045524331313535526563656976657220696d706c656d656e746572455243313135353a204552433131353552656365697665722072656a656374656420746f6b656e73455243313135353a2062616c616e636520717565727920666f7220746865207a65726f20616464726573734f776e61626c653a206e6577206f776e657220697320746865207a65726f2061646472657373455243313135353a206275726e20616d6f756e7420657863656564732062616c616e6365455243313135353a2063616c6c6572206973206e6f74206f776e6572206e6f7220617070726f766564455243313135353a207472616e7366657220746f20746865207a65726f2061646472657373455243313135353a207472616e736665722063616c6c6572206973206e6f74206f776e6572206e6f7220617070726f766564455243313135353a206275726e2066726f6d20746865207a65726f2061646472657373455243313135353a20696e73756666696369656e742062616c616e636520666f72207472616e73666572455243313135353a2073657474696e6720617070726f76616c2073746174757320666f722073656c66455243313135353a206163636f756e747320616e6420696473206c656e677468206d69736d61746368455243313135353a2069647320616e6420616d6f756e7473206c656e677468206d69736d61746368455243313135353a206d696e7420746f20746865207a65726f2061646472657373a2646970667358221220b737332fe7b55d488a38a9f5da47be068d8938045de7650615dc58247791591164736f6c634300060c0033a26469706673582212204fa70d9177b579f3bd6bd549f01583f31c5244e9b86628d664069f79c4e9399564736f6c634300060c0033",
  "compiler": {
    "name": "solc",
    "version": "0.6.12+commit.27d51765.Emscripten.clang",
    "optimizer": {
      "enabled": true,
      "runs": 2000
    },
    "evmVersion": "petersburg"
  }
}