{
  "fileName": "BounceERC1155V2.sol",
  "contractName": "BounceERC1155V2",
  "source": "// SPDX-License-Identifier: MIT\n\npragma solidity ^0.6.0;\n\nimport \"@openzeppelin/contracts/token/ERC1155/ERC1155.sol\";\nimport \"./Access.sol\";\n\ncontract BounceERC1155V2 is ERC1155, Access {\n    constructor(string memory uri, Mode mode_) ERC1155(uri) Access(mode_) public {}\n\n    // tokenid => creator address\n    mapping(uint256 => address) public creator;\n\n    function setURI(string memory uri) external onlyOwner {\n        super._setURI(uri);\n    }\n\n    function mint(address account, uint256 id, uint256 amount, bytes memory data) external checkRole {\n        super._mint(account, id, amount, data);\n        creator[id] = account;\n    }\n\n    function burn(address account, uint256 id, uint256 amount) external checkRole {\n        super._burn(account, id, amount);\n        creator[id] = address(0);\n    }\n\n    function batchMint(address to, uint256 fromId, uint256 toId, uint256 amount, bytes memory data) external checkRole {\n        for (uint256 id = fromId; id <= toId; id++) {\n            super._mint(to, id, amount, data);\n            creator[id] = to;\n        }\n    }\n}\n",
  "sourcePath": "contracts/BounceERC1155V2.sol",
  "abi": [
    {
      "inputs": [
        {
          "internalType": "string",
          "name": "uri",
          "type": "string"
        },
        {
          "internalType": "enum Access.Mode",
          "name": "mode_",
          "type": "uint8"
        }
      ],
      "stateMutability": "nonpayable",
      "type": "constructor"
    },
    {
      "anonymous": false,
      "inputs": [
        {
          "indexed": true,
          "internalType": "address",
          "name": "account",
          "type": "address"
        },
        {
          "indexed": true,
          "internalType": "address",
          "name": "operator",
          "type": "address"
        },
        {
          "indexed": false,
          "internalType": "bool",
          "name": "approved",
          "type": "bool"
        }
      ],
      "name": "ApprovalForAll",
      "type": "event"
    },
    {
      "anonymous": false,
      "inputs": [
        {
          "indexed": true,
          "internalType": "bytes32",
          "name": "role",
          "type": "bytes32"
        },
        {
          "indexed": true,
          "internalType": "bytes32",
          "name": "previousAdminRole",
          "type": "bytes32"
        },
        {
          "indexed": true,
          "internalType": "bytes32",
          "name": "newAdminRole",
          "type": "bytes32"
        }
      ],
      "name": "RoleAdminChanged",
      "type": "event"
    },
    {
      "anonymous": false,
      "inputs": [
        {
          "indexed": true,
          "internalType": "bytes32",
          "name": "role",
          "type": "bytes32"
        },
        {
          "indexed": true,
          "internalType": "address",
          "name": "account",
          "type": "address"
        },
        {
          "indexed": true,
          "internalType": "address",
          "name": "sender",
          "type": "address"
        }
      ],
      "name": "RoleGranted",
      "type": "event"
    },
    {
      "anonymous": false,
      "inputs": [
        {
          "indexed": true,
          "internalType": "bytes32",
          "name": "role",
          "type": "bytes32"
        },
        {
          "indexed": true,
          "internalType": "address",
          "name": "account",
          "type": "address"
        },
        {
          "indexed": true,
          "internalType": "address",
          "name": "sender",
          "type": "address"
        }
      ],
      "name": "RoleRevoked",
      "type": "event"
    },
    {
      "anonymous": false,
      "inputs": [
        {
          "indexed": true,
          "internalType": "address",
          "name": "operator",
          "type": "address"
        },
        {
          "indexed": true,
          "internalType": "address",
          "name": "from",
          "type": "address"
        },
        {
          "indexed": true,
          "internalType": "address",
          "name": "to",
          "type": "address"
        },
        {
          "indexed": false,
          "internalType": "uint256[]",
          "name": "ids",
          "type": "uint256[]"
        },
        {
          "indexed": false,
          "internalType": "uint256[]",
          "name": "values",
          "type": "uint256[]"
        }
      ],
      "name": "TransferBatch",
      "type": "event"
    },
    {
      "anonymous": false,
      "inputs": [
        {
          "indexed": true,
          "internalType": "address",
          "name": "operator",
          "type": "address"
        },
        {
          "indexed": true,
          "internalType": "address",
          "name": "from",
          "type": "address"
        },
        {
          "indexed": true,
          "internalType": "address",
          "name": "to",
          "type": "address"
        },
        {
          "indexed": false,
          "internalType": "uint256",
          "name": "id",
          "type": "uint256"
        },
        {
          "indexed": false,
          "internalType": "uint256",
          "name": "value",
          "type": "uint256"
        }
      ],
      "name": "TransferSingle",
      "type": "event"
    },
    {
      "anonymous": false,
      "inputs": [
        {
          "indexed": false,
          "internalType": "string",
          "name": "value",
          "type": "string"
        },
        {
          "indexed": true,
          "internalType": "uint256",
          "name": "id",
          "type": "uint256"
        }
      ],
      "name": "URI",
      "type": "event"
    },
    {
      "inputs": [],
      "name": "DEFAULT_ADMIN_ROLE",
      "outputs": [
        {
          "internalType": "bytes32",
          "name": "",
          "type": "bytes32"
        }
      ],
      "stateMutability": "view",
      "type": "function"
    },
    {
      "inputs": [
        {
          "internalType": "address",
          "name": "account",
          "type": "address"
        },
        {
          "internalType": "uint256",
          "name": "id",
          "type": "uint256"
        }
      ],
      "name": "balanceOf",
      "outputs": [
        {
          "internalType": "uint256",
          "name": "",
          "type": "uint256"
        }
      ],
      "stateMutability": "view",
      "type": "function"
    },
    {
      "inputs": [
        {
          "internalType": "address[]",
          "name": "accounts",
          "type": "address[]"
        },
        {
          "internalType": "uint256[]",
          "name": "ids",
          "type": "uint256[]"
        }
      ],
      "name": "balanceOfBatch",
      "outputs": [
        {
          "internalType": "uint256[]",
          "name": "",
          "type": "uint256[]"
        }
      ],
      "stateMutability": "view",
      "type": "function"
    },
    {
      "inputs": [
        {
          "internalType": "address",
          "name": "to",
          "type": "address"
        },
        {
          "internalType": "uint256",
          "name": "fromId",
          "type": "uint256"
        },
        {
          "internalType": "uint256",
          "name": "toId",
          "type": "uint256"
        },
        {
          "internalType": "uint256",
          "name": "amount",
          "type": "uint256"
        },
        {
          "internalType": "bytes",
          "name": "data",
          "type": "bytes"
        }
      ],
      "name": "batchMint",
      "outputs": [],
      "stateMutability": "nonpayable",
      "type": "function"
    },
    {
      "inputs": [
        {
          "internalType": "address",
          "name": "account",
          "type": "address"
        },
        {
          "internalType": "uint256",
          "name": "id",
          "type": "uint256"
        },
        {
          "internalType": "uint256",
          "name": "amount",
          "type": "uint256"
        }
      ],
      "name": "burn",
      "outputs": [],
      "stateMutability": "nonpayable",
      "type": "function"
    },
    {
      "inputs": [
        {
          "internalType": "enum Access.Mode",
          "name": "mode_",
          "type": "uint8"
        }
      ],
      "name": "changeMode",
      "outputs": [],
      "stateMutability": "nonpayable",
      "type": "function"
    },
    {
      "inputs": [
        {
          "internalType": "uint256",
          "name": "",
          "type": "uint256"
        }
      ],
      "name": "creator",
      "outputs": [
        {
          "internalType": "address",
          "name": "",
          "type": "address"
        }
      ],
      "stateMutability": "view",
      "type": "function"
    },
    {
      "inputs": [
        {
          "internalType": "bytes32",
          "name": "role",
          "type": "bytes32"
        }
      ],
      "name": "getRoleAdmin",
      "outputs": [
        {
          "internalType": "bytes32",
          "name": "",
          "type": "bytes32"
        }
      ],
      "stateMutability": "view",
      "type": "function"
    },
    {
      "inputs": [
        {
          "internalType": "bytes32",
          "name": "role",
          "type": "bytes32"
        },
        {
          "internalType": "uint256",
          "name": "index",
          "type": "uint256"
        }
      ],
      "name": "getRoleMember",
      "outputs": [
        {
          "internalType": "address",
          "name": "",
          "type": "address"
        }
      ],
      "stateMutability": "view",
      "type": "function"
    },
    {
      "inputs": [
        {
          "internalType": "bytes32",
          "name": "role",
          "type": "bytes32"
        }
      ],
      "name": "getRoleMemberCount",
      "outputs": [
        {
          "internalType": "uint256",
          "name": "",
          "type": "uint256"
        }
      ],
      "stateMutability": "view",
      "type": "function"
    },
    {
      "inputs": [
        {
          "internalType": "bytes32",
          "name": "role",
          "type": "bytes32"
        },
        {
          "internalType": "address",
          "name": "account",
          "type": "address"
        }
      ],
      "name": "grantRole",
      "outputs": [],
      "stateMutability": "nonpayable",
      "type": "function"
    },
    {
      "inputs": [
        {
          "internalType": "address",
          "name": "target",
          "type": "address"
        }
      ],
      "name": "grantRoleWhitelist",
      "outputs": [],
      "stateMutability": "nonpayable",
      "type": "function"
    },
    {
      "inputs": [
        {
          "internalType": "bytes32",
          "name": "role",
          "type": "bytes32"
        },
        {
          "internalType": "address",
          "name": "account",
          "type": "address"
        }
      ],
      "name": "hasRole",
      "outputs": [
        {
          "internalType": "bool",
          "name": "",
          "type": "bool"
        }
      ],
      "stateMutability": "view",
      "type": "function"
    },
    {
      "inputs": [
        {
          "internalType": "address",
          "name": "account",
          "type": "address"
        },
        {
          "internalType": "address",
          "name": "operator",
          "type": "address"
        }
      ],
      "name": "isApprovedForAll",
      "outputs": [
        {
          "internalType": "bool",
          "name": "",
          "type": "bool"
        }
      ],
      "stateMutability": "view",
      "type": "function"
    },
    {
      "inputs": [
        {
          "internalType": "address",
          "name": "account",
          "type": "address"
        },
        {
          "internalType": "uint256",
          "name": "id",
          "type": "uint256"
        },
        {
          "internalType": "uint256",
          "name": "amount",
          "type": "uint256"
        },
        {
          "internalType": "bytes",
          "name": "data",
          "type": "bytes"
        }
      ],
      "name": "mint",
      "outputs": [],
      "stateMutability": "nonpayable",
      "type": "function"
    },
    {
      "inputs": [],
      "name": "mode",
      "outputs": [
        {
          "internalType": "enum Access.Mode",
          "name": "",
          "type": "uint8"
        }
      ],
      "stateMutability": "view",
      "type": "function"
    },
    {
      "inputs": [
        {
          "internalType": "bytes32",
          "name": "role",
          "type": "bytes32"
        },
        {
          "internalType": "address",
          "name": "account",
          "type": "address"
        }
      ],
      "name": "renounceRole",
      "outputs": [],
      "stateMutability": "nonpayable",
      "type": "function"
    },
    {
      "inputs": [
        {
          "internalType": "bytes32",
          "name": "role",
          "type": "bytes32"
        },
        {
          "internalType": "address",
          "name": "account",
          "type": "address"
        }
      ],
      "name": "revokeRole",
      "outputs": [],
      "stateMutability": "nonpayable",
      "type": "function"
    },
    {
      "inputs": [
        {
          "internalType": "address",
          "name": "target",
          "type": "address"
        }
      ],
      "name": "revokeRoleWhitelist",
      "outputs": [],
      "stateMutability": "nonpayable",
      "type": "function"
    },
    {
      "inputs": [
        {
          "internalType": "address",
          "name": "from",
          "type": "address"
        },
        {
          "internalType": "address",
          "name": "to",
          "type": "address"
        },
        {
          "internalType": "uint256[]",
          "name": "ids",
          "type": "uint256[]"
        },
        {
          "internalType": "uint256[]",
          "name": "amounts",
          "type": "uint256[]"
        },
        {
          "internalType": "bytes",
          "name": "data",
          "type": "bytes"
        }
      ],
      "name": "safeBatchTransferFrom",
      "outputs": [],
      "stateMutability": "nonpayable",
      "type": "function"
    },
    {
      "inputs": [
        {
          "internalType": "address",
          "name": "from",
          "type": "address"
        },
        {
          "internalType": "address",
          "name": "to",
          "type": "address"
        },
        {
          "internalType": "uint256",
          "name": "id",
          "type": "uint256"
        },
        {
          "internalType": "uint256",
          "name": "amount",
          "type": "uint256"
        },
        {
          "internalType": "bytes",
          "name": "data",
          "type": "bytes"
        }
      ],
      "name": "safeTransferFrom",
      "outputs": [],
      "stateMutability": "nonpayable",
      "type": "function"
    },
    {
      "inputs": [
        {
          "internalType": "address",
          "name": "operator",
          "type": "address"
        },
        {
          "internalType": "bool",
          "name": "approved",
          "type": "bool"
        }
      ],
      "name": "setApprovalForAll",
      "outputs": [],
      "stateMutability": "nonpayable",
      "type": "function"
    },
    {
      "inputs": [
        {
          "internalType": "string",
          "name": "uri",
          "type": "string"
        }
      ],
      "name": "setURI",
      "outputs": [],
      "stateMutability": "nonpayable",
      "type": "function"
    },
    {
      "inputs": [
        {
          "internalType": "bytes4",
          "name": "interfaceId",
          "type": "bytes4"
        }
      ],
      "name": "supportsInterface",
      "outputs": [
        {
          "internalType": "bool",
          "name": "",
          "type": "bool"
        }
      ],
      "stateMutability": "view",
      "type": "function"
    },
    {
      "inputs": [
        {
          "internalType": "address",
          "name": "target",
          "type": "address"
        }
      ],
      "name": "transferOwnership",
      "outputs": [],
      "stateMutability": "nonpayable",
      "type": "function"
    },
    {
      "inputs": [
        {
          "internalType": "uint256",
          "name": "",
          "type": "uint256"
        }
      ],
      "name": "uri",
      "outputs": [
        {
          "internalType": "string",
          "name": "",
          "type": "string"
        }
      ],
      "stateMutability": "view",
      "type": "function"
    }
  ],
  "bytecode": "0x60806040523480156200001157600080fd5b5060405162002ec538038062002ec5833981810160405260408110156200003757600080fd5b81019080805160405193929190846401000000008211156200005857600080fd5b9083019060208201858111156200006e57600080fd5b82516401000000008111828201881017156200008957600080fd5b82525081516020918201929091019080838360005b83811015620000b85781810151838201526020016200009e565b50505050905090810190601f168015620000e65780820380516001836020036101000a031916815260200191505b50604052602001519150819050826200011f7f01ffc9a70000000000000000000000000000000000000000000000000000000062000217565b6200012a81620002e6565b620001557fd9b67a260000000000000000000000000000000000000000000000000000000062000217565b620001807f0e89341c0000000000000000000000000000000000000000000000000000000062000217565b506005805482919060ff191660018360028111156200019b57fe5b0217905550620001d77f524f4c453a4f574e45520000000000000000000000000000000000000000000033620002ff60201b6200109f1760201c565b6200020e7f524f4c453a57484954454c49535400000000000000000000000000000000000033620002ff60201b6200109f1760201c565b505050620004a7565b7fffffffff000000000000000000000000000000000000000000000000000000008082161415620002a957604080517f08c379a000000000000000000000000000000000000000000000000000000000815260206004820152601c60248201527f4552433136353a20696e76616c696420696e7465726661636520696400000000604482015290519081900360640190fd5b7fffffffff00000000000000000000000000000000000000000000000000000000166000908152602081905260409020805460ff19166001179055565b8051620002fb9060039060208401906200040b565b5050565b620002fb828260008281526004602090815260409091206200032c91839062001b0362000380821b17901c565b15620002fb576200033c620003a0565b6001600160a01b0316816001600160a01b0316837f2f8788117e7eff1d82e926ec794901d17c78024a50270940304540a733656f0d60405160405180910390a45050565b600062000397836001600160a01b038416620003a4565b90505b92915050565b3390565b6000620003b28383620003f3565b620003ea575081546001818101845560008481526020808220909301849055845484825282860190935260409020919091556200039a565b5060006200039a565b60009081526001919091016020526040902054151590565b828054600181600116156101000203166002900490600052602060002090601f016020900481019282601f106200044e57805160ff19168380011785556200047e565b828001600101855582156200047e579182015b828111156200047e57825182559160200191906001019062000461565b506200048c92915062000490565b5090565b5b808211156200048c576000815560010162000491565b612a0e80620004b76000396000f3fe608060405234801561001057600080fd5b50600436106101ad5760003560e01c8063731133e9116100ee578063b29d694711610097578063e985e9c511610071578063e985e9c514610a2f578063f242432a14610a5d578063f2fde38b14610b28578063f5298aca14610b4e576101ad565b8063b29d6947146105e2578063ca15c873146109e6578063d547741f14610a03576101ad565b8063a217fddf116100c8578063a217fddf14610990578063a22cb46514610998578063a5686826146109c6576101ad565b8063731133e91461087f5780639010d07c1461094157806391d1485414610964576101ad565b80632eb2c2d61161015b57806339a3f6e21161013557806339a3f6e2146105e25780634e1273f414610608578063510b51581461077f57806362f5cbd8146107b8576101ad565b80632eb2c2d6146103c35780632f2ff15d1461058a57806336568abe146105b6576101ad565b80630e89341c1161018c5780630e89341c146102eb578063248a9ca31461037d578063295a52121461039a576101ad565b8062fdd58e146101b257806301ffc9a7146101f057806302fe530514610243575b600080fd5b6101de600480360360408110156101c857600080fd5b506001600160a01b038135169060200135610b80565b60408051918252519081900360200190f35b61022f6004803603602081101561020657600080fd5b50357fffffffff0000000000000000000000000000000000000000000000000000000016610bf2565b604080519115158252519081900360200190f35b6102e96004803603602081101561025957600080fd5b81019060208101813564010000000081111561027457600080fd5b82018360208201111561028657600080fd5b803590602001918460018302840111640100000000831117156102a857600080fd5b91908080601f016020809104026020016040519081016040528093929190818152602001838380828437600092019190915250929550610c29945050505050565b005b6103086004803603602081101561030157600080fd5b5035610c8d565b6040805160208082528351818301528351919283929083019185019080838360005b8381101561034257818101518382015260200161032a565b50505050905090810190601f16801561036f5780820380516001836020036101000a031916815260200191505b509250505060405180910390f35b6101de6004803603602081101561039357600080fd5b5035610d25565b6103a2610d3a565b604051808260028111156103b257fe5b815260200191505060405180910390f35b6102e9600480360360a08110156103d957600080fd5b6001600160a01b03823581169260208101359091169181019060608101604082013564010000000081111561040d57600080fd5b82018360208201111561041f57600080fd5b8035906020019184602083028401116401000000008311171561044157600080fd5b919080806020026020016040519081016040528093929190818152602001838360200280828437600092019190915250929594936020810193503591505064010000000081111561049157600080fd5b8201836020820111156104a357600080fd5b803590602001918460208302840111640100000000831117156104c557600080fd5b919080806020026020016040519081016040528093929190818152602001838360200280828437600092019190915250929594936020810193503591505064010000000081111561051557600080fd5b82018360208201111561052757600080fd5b8035906020019184600183028401116401000000008311171561054957600080fd5b91908080601f016020809104026020016040519081016040528093929190818152602001838380828437600092019190915250929550610d43945050505050565b6102e9600480360360408110156105a057600080fd5b50803590602001356001600160a01b0316611041565b6102e9600480360360408110156105cc57600080fd5b50803590602001356001600160a01b03166110ad565b6102e9600480360360208110156105f857600080fd5b50356001600160a01b031661110e565b61072f6004803603604081101561061e57600080fd5b81019060208101813564010000000081111561063957600080fd5b82018360208201111561064b57600080fd5b8035906020019184602083028401116401000000008311171561066d57600080fd5b91908080602002602001604051908101604052809392919081815260200183836020028082843760009201919091525092959493602081019350359150506401000000008111156106bd57600080fd5b8201836020820111156106cf57600080fd5b803590602001918460208302840111640100000000831117156106f157600080fd5b919080806020026020016040519081016040528093929190818152602001838360200280828437600092019190915250929550611190945050505050565b60408051602080825283518183015283519192839290830191858101910280838360005b8381101561076b578181015183820152602001610753565b505050509050019250505060405180910390f35b61079c6004803603602081101561079557600080fd5b503561127c565b604080516001600160a01b039092168252519081900360200190f35b6102e9600480360360a08110156107ce57600080fd5b6001600160a01b038235169160208101359160408201359160608101359181019060a08101608082013564010000000081111561080a57600080fd5b82018360208201111561081c57600080fd5b8035906020019184600183028401116401000000008311171561083e57600080fd5b91908080601f016020809104026020016040519081016040528093929190818152602001838380828437600092019190915250929550611297945050505050565b6102e96004803603608081101561089557600080fd5b6001600160a01b0382351691602081013591604082013591908101906080810160608201356401000000008111156108cc57600080fd5b8201836020820111156108de57600080fd5b8035906020019184600183028401116401000000008311171561090057600080fd5b91908080601f0160208091040260200160405190810160405280939291908181526020018383808284376000920191909152509295506113f2945050505050565b61079c6004803603604081101561095757600080fd5b5080359060200135611545565b61022f6004803603604081101561097a57600080fd5b50803590602001356001600160a01b0316611564565b6101de61157c565b6102e9600480360360408110156109ae57600080fd5b506001600160a01b0381351690602001351515611581565b6102e9600480360360208110156109dc57600080fd5b503560ff16611670565b6101de600480360360208110156109fc57600080fd5b50356116e9565b6102e960048036036040811015610a1957600080fd5b50803590602001356001600160a01b0316611700565b61022f60048036036040811015610a4557600080fd5b506001600160a01b0381358116916020013516611759565b6102e9600480360360a0811015610a7357600080fd5b6001600160a01b03823581169260208101359091169160408201359160608101359181019060a081016080820135640100000000811115610ab357600080fd5b820183602082011115610ac557600080fd5b80359060200191846001830284011164010000000083111715610ae757600080fd5b91908080601f016020809104026020016040519081016040528093929190818152602001838380828437600092019190915250929550611787945050505050565b6102e960048036036020811015610b3e57600080fd5b50356001600160a01b0316611952565b6102e960048036036060811015610b6457600080fd5b506001600160a01b0381351690602081013590604001356119c1565b60006001600160a01b038316610bc75760405162461bcd60e51b815260040180806020018281038252602b8152602001806127c3602b913960400191505060405180910390fd5b5060008181526001602090815260408083206001600160a01b03861684529091529020545b92915050565b7fffffffff000000000000000000000000000000000000000000000000000000001660009081526020819052604090205460ff1690565b610c40692927a6229d27aba722a960b11b33611564565b610c81576040805162461bcd60e51b815260206004820152600d60248201526c2922a8aaa4a9229027aba722a960991b604482015290519081900360640190fd5b610c8a81611b18565b50565b60038054604080516020601f6002600019610100600188161502019095169490940493840181900481028201810190925282815260609390929091830182828015610d195780601f10610cee57610100808354040283529160200191610d19565b820191906000526020600020905b815481529060010190602001808311610cfc57829003601f168201915b50505050509050919050565b60009081526004602052604090206002015490565b60055460ff1681565b8151835114610d835760405162461bcd60e51b81526004018080602001828103825260288152602001806129616028913960400191505060405180910390fd5b6001600160a01b038416610dc85760405162461bcd60e51b815260040180806020018281038252602581526020018061286b6025913960400191505060405180910390fd5b610dd0611b2b565b6001600160a01b0316856001600160a01b03161480610dfb5750610dfb85610df6611b2b565b611759565b610e365760405162461bcd60e51b81526004018080602001828103825260328152602001806128906032913960400191505060405180910390fd5b6000610e40611b2b565b9050610e50818787878787611039565b60005b8451811015610f51576000858281518110610e6a57fe5b602002602001015190506000858381518110610e8257fe5b60200260200101519050610eef816040518060600160405280602a81526020016128e5602a91396001600086815260200190815260200160002060008d6001600160a01b03166001600160a01b0316815260200190815260200160002054611b309092919063ffffffff16565b60008381526001602090815260408083206001600160a01b038e811685529252808320939093558a1681522054610f269082611bc7565b60009283526001602081815260408086206001600160a01b038d168752909152909320555001610e53565b50846001600160a01b0316866001600160a01b0316826001600160a01b03167f4a39dc06d4c0dbc64b70af90fd698a233a518aa5d07e595d983b8c0526c8f7fb8787604051808060200180602001838103835285818151815260200191508051906020019060200280838360005b83811015610fd7578181015183820152602001610fbf565b50505050905001838103825284818151815260200191508051906020019060200280838360005b83811015611016578181015183820152602001610ffe565b5050505090500194505050505060405180910390a4611039818787878787611c21565b505050505050565b6000828152600460205260409020600201546110649061105f611b2b565b611564565b61109f5760405162461bcd60e51b815260040180806020018281038252602f815260200180612794602f913960400191505060405180910390fd5b6110a98282611ed1565b5050565b6110b5611b2b565b6001600160a01b0316816001600160a01b0316146111045760405162461bcd60e51b815260040180806020018281038252602f8152602001806129aa602f913960400191505060405180910390fd5b6110a98282611f3a565b611125692927a6229d27aba722a960b11b33611564565b611166576040805162461bcd60e51b815260206004820152600d60248201526c2922a8aaa4a9229027aba722a960991b604482015290519081900360640190fd5b610c8a7f524f4c453a57484954454c4953540000000000000000000000000000000000008261109f565b606081518351146111d25760405162461bcd60e51b81526004018080602001828103825260298152602001806129386029913960400191505060405180910390fd5b6060835167ffffffffffffffff811180156111ec57600080fd5b50604051908082528060200260200182016040528015611216578160200160208202803683370190505b50905060005b84518110156112745761125585828151811061123457fe5b602002602001015185838151811061124857fe5b6020026020010151610b80565b82828151811061126157fe5b602090810291909101015260010161121c565b509392505050565b6006602052600090815260409020546001600160a01b031681565b600060055460ff1660028111156112aa57fe5b141561130d576112c7692927a6229d27aba722a960b11b33611564565b611308576040805162461bcd60e51b815260206004820152600d60248201526c2922a8aaa4a9229027aba722a960991b604482015290519081900360640190fd5b6113a1565b600160055460ff16600281111561132057fe5b14156113a1576113507f524f4c453a57484954454c49535400000000000000000000000000000000000033611564565b6113a1576040805162461bcd60e51b815260206004820152601b60248201527f524551554952452053454e44455220494e2057484954454c4953540000000000604482015290519081900360640190fd5b835b838111611039576113b686828585611fa3565b6000818152600660205260409020805473ffffffffffffffffffffffffffffffffffffffff19166001600160a01b0388161790556001016113a3565b600060055460ff16600281111561140557fe5b141561146857611422692927a6229d27aba722a960b11b33611564565b611463576040805162461bcd60e51b815260206004820152600d60248201526c2922a8aaa4a9229027aba722a960991b604482015290519081900360640190fd5b6114fc565b600160055460ff16600281111561147b57fe5b14156114fc576114ab7f524f4c453a57484954454c49535400000000000000000000000000000000000033611564565b6114fc576040805162461bcd60e51b815260206004820152601b60248201527f524551554952452053454e44455220494e2057484954454c4953540000000000604482015290519081900360640190fd5b61150884848484611fa3565b50506000908152600660205260409020805473ffffffffffffffffffffffffffffffffffffffff19166001600160a01b0392909216919091179055565b600082815260046020526040812061155d90836120ab565b9392505050565b600082815260046020526040812061155d90836120b7565b600081565b816001600160a01b0316611593611b2b565b6001600160a01b031614156115d95760405162461bcd60e51b815260040180806020018281038252602981526020018061290f6029913960400191505060405180910390fd5b80600260006115e6611b2b565b6001600160a01b03908116825260208083019390935260409182016000908120918716808252919093529120805460ff19169215159290921790915561162a611b2b565b6001600160a01b03167f17307eab39ab6107e8899845ad3d59bd9653f200f220920489ca2b5937696c318360405180821515815260200191505060405180910390a35050565b611687692927a6229d27aba722a960b11b33611564565b6116c8576040805162461bcd60e51b815260206004820152600d60248201526c2922a8aaa4a9229027aba722a960991b604482015290519081900360640190fd5b6005805482919060ff191660018360028111156116e157fe5b021790555050565b6000818152600460205260408120610bec906120cc565b60008281526004602052604090206002015461171e9061105f611b2b565b6111045760405162461bcd60e51b815260040180806020018281038252603081526020018061283b6030913960400191505060405180910390fd5b6001600160a01b03918216600090815260026020908152604080832093909416825291909152205460ff1690565b6001600160a01b0384166117cc5760405162461bcd60e51b815260040180806020018281038252602581526020018061286b6025913960400191505060405180910390fd5b6117d4611b2b565b6001600160a01b0316856001600160a01b031614806117fa57506117fa85610df6611b2b565b6118355760405162461bcd60e51b81526004018080602001828103825260298152602001806128126029913960400191505060405180910390fd5b600061183f611b2b565b905061185f818787611850886120d7565b611859886120d7565b87611039565b6118a6836040518060600160405280602a81526020016128e5602a913960008781526001602090815260408083206001600160a01b038d1684529091529020549190611b30565b60008581526001602090815260408083206001600160a01b038b811685529252808320939093558716815220546118dd9084611bc7565b60008581526001602090815260408083206001600160a01b03808b168086529184529382902094909455805188815291820187905280518a8416938616927fc3d58168c5ae7397731d063d5bbf3d657854427343f4c083240f7aacaa2d0f6292908290030190a461103981878787878761211b565b611969692927a6229d27aba722a960b11b33611564565b6119aa576040805162461bcd60e51b815260206004820152600d60248201526c2922a8aaa4a9229027aba722a960991b604482015290519081900360640190fd5b610c8a692927a6229d27aba722a960b11b8261109f565b600060055460ff1660028111156119d457fe5b1415611a37576119f1692927a6229d27aba722a960b11b33611564565b611a32576040805162461bcd60e51b815260206004820152600d60248201526c2922a8aaa4a9229027aba722a960991b604482015290519081900360640190fd5b611acb565b600160055460ff166002811115611a4a57fe5b1415611acb57611a7a7f524f4c453a57484954454c49535400000000000000000000000000000000000033611564565b611acb576040805162461bcd60e51b815260206004820152601b60248201527f524551554952452053454e44455220494e2057484954454c4953540000000000604482015290519081900360640190fd5b611ad68383836122bd565b506000908152600660205260409020805473ffffffffffffffffffffffffffffffffffffffff1916905550565b600061155d836001600160a01b0384166123f0565b80516110a990600390602084019061259b565b335b90565b60008184841115611bbf5760405162461bcd60e51b81526004018080602001828103825283818151815260200191508051906020019080838360005b83811015611b84578181015183820152602001611b6c565b50505050905090810190601f168015611bb15780820380516001836020036101000a031916815260200191505b509250505060405180910390fd5b505050900390565b60008282018381101561155d576040805162461bcd60e51b815260206004820152601b60248201527f536166654d6174683a206164646974696f6e206f766572666c6f770000000000604482015290519081900360640190fd5b611c33846001600160a01b031661243a565b1561103957836001600160a01b031663bc197c8187878686866040518663ffffffff1660e01b815260040180866001600160a01b03168152602001856001600160a01b03168152602001806020018060200180602001848103845287818151815260200191508051906020019060200280838360005b83811015611cc1578181015183820152602001611ca9565b50505050905001848103835286818151815260200191508051906020019060200280838360005b83811015611d00578181015183820152602001611ce8565b50505050905001848103825285818151815260200191508051906020019080838360005b83811015611d3c578181015183820152602001611d24565b50505050905090810190601f168015611d695780820380516001836020036101000a031916815260200191505b5098505050505050505050602060405180830381600087803b158015611d8e57600080fd5b505af1925050508015611db357506040513d6020811015611dae57600080fd5b505160015b611e4857611dbf612634565b80611dca5750611e11565b60405162461bcd60e51b8152602060048201818152835160248401528351849391928392604401919085019080838360008315611b84578181015183820152602001611b6c565b60405162461bcd60e51b81526004018080602001828103825260348152602001806127166034913960400191505060405180910390fd5b7fffffffff0000000000000000000000000000000000000000000000000000000081167fbc197c810000000000000000000000000000000000000000000000000000000014611ec85760405162461bcd60e51b815260040180806020018281038252602881526020018061276c6028913960400191505060405180910390fd5b50505050505050565b6000828152600460205260409020611ee99082611b03565b156110a957611ef6611b2b565b6001600160a01b0316816001600160a01b0316837f2f8788117e7eff1d82e926ec794901d17c78024a50270940304540a733656f0d60405160405180910390a45050565b6000828152600460205260409020611f529082612440565b156110a957611f5f611b2b565b6001600160a01b0316816001600160a01b0316837ff6391f5c32d9c69d2a47ea670b442974b53935d1edc7fd64eb21e047a839171b60405160405180910390a45050565b6001600160a01b038416611fe85760405162461bcd60e51b81526004018080602001828103825260218152602001806129896021913960400191505060405180910390fd5b6000611ff2611b2b565b905061200481600087611850886120d7565b60008481526001602090815260408083206001600160a01b03891684529091529020546120319084611bc7565b60008581526001602090815260408083206001600160a01b03808b16808652918452828520959095558151898152928301889052815190948616927fc3d58168c5ae7397731d063d5bbf3d657854427343f4c083240f7aacaa2d0f6292908290030190a46120a48160008787878761211b565b5050505050565b600061155d8383612455565b600061155d836001600160a01b0384166124b9565b6000610bec826124d1565b60408051600180825281830190925260609182919060208083019080368337019050509050828160008151811061210a57fe5b602090810291909101015292915050565b61212d846001600160a01b031661243a565b1561103957836001600160a01b031663f23a6e6187878686866040518663ffffffff1660e01b815260040180866001600160a01b03168152602001856001600160a01b0316815260200184815260200183815260200180602001828103825283818151815260200191508051906020019080838360005b838110156121bc5781810151838201526020016121a4565b50505050905090810190601f1680156121e95780820380516001836020036101000a031916815260200191505b509650505050505050602060405180830381600087803b15801561220c57600080fd5b505af192505050801561223157506040513d602081101561222c57600080fd5b505160015b61223d57611dbf612634565b7fffffffff0000000000000000000000000000000000000000000000000000000081167ff23a6e610000000000000000000000000000000000000000000000000000000014611ec85760405162461bcd60e51b815260040180806020018281038252602881526020018061276c6028913960400191505060405180910390fd5b6001600160a01b0383166123025760405162461bcd60e51b81526004018080602001828103825260238152602001806128c26023913960400191505060405180910390fd5b600061230c611b2b565b905061233c8185600061231e876120d7565b612327876120d7565b60405180602001604052806000815250611039565b612383826040518060600160405280602481526020016127ee6024913960008681526001602090815260408083206001600160a01b038b1684529091529020549190611b30565b60008481526001602090815260408083206001600160a01b03808a16808652918452828520959095558151888152928301879052815193949093908616927fc3d58168c5ae7397731d063d5bbf3d657854427343f4c083240f7aacaa2d0f6292908290030190a450505050565b60006123fc83836124b9565b61243257508154600181810184556000848152602080822090930184905584548482528286019093526040902091909155610bec565b506000610bec565b3b151590565b600061155d836001600160a01b0384166124d5565b815460009082106124975760405162461bcd60e51b815260040180806020018281038252602281526020018061274a6022913960400191505060405180910390fd5b8260000182815481106124a657fe5b9060005260206000200154905092915050565b60009081526001919091016020526040902054151590565b5490565b60008181526001830160205260408120548015612591578354600019808301919081019060009087908390811061250857fe5b906000526020600020015490508087600001848154811061252557fe5b60009182526020808320909101929092558281526001898101909252604090209084019055865487908061255557fe5b60019003818190600052602060002001600090559055866001016000878152602001908152602001600020600090556001945050505050610bec565b6000915050610bec565b828054600181600116156101000203166002900490600052602060002090601f016020900481019282601f106125dc57805160ff1916838001178555612609565b82800160010185558215612609579182015b828111156126095782518255916020019190600101906125ee565b50612615929150612619565b5090565b5b80821115612615576000815560010161261a565b60e01c90565b600060443d101561264457611b2d565b600481823e6308c379a0612658825161262e565b1461266257611b2d565b6040517ffffffffffffffffffffffffffffffffffffffffffffffffffffffffffffffffc3d016004823e80513d67ffffffffffffffff81602484011181841117156126b05750505050611b2d565b828401925082519150808211156126ca5750505050611b2d565b503d830160208284010111156126e257505050611b2d565b601f017fffffffffffffffffffffffffffffffffffffffffffffffffffffffffffffffe01681016020016040529150509056fe455243313135353a207472616e7366657220746f206e6f6e2045524331313535526563656976657220696d706c656d656e746572456e756d657261626c655365743a20696e646578206f7574206f6620626f756e6473455243313135353a204552433131353552656365697665722072656a656374656420746f6b656e73416363657373436f6e74726f6c3a2073656e646572206d75737420626520616e2061646d696e20746f206772616e74455243313135353a2062616c616e636520717565727920666f7220746865207a65726f2061646472657373455243313135353a206275726e20616d6f756e7420657863656564732062616c616e6365455243313135353a2063616c6c6572206973206e6f74206f776e6572206e6f7220617070726f766564416363657373436f6e74726f6c3a2073656e646572206d75737420626520616e2061646d696e20746f207265766f6b65455243313135353a207472616e7366657220746f20746865207a65726f2061646472657373455243313135353a207472616e736665722063616c6c6572206973206e6f74206f776e6572206e6f7220617070726f766564455243313135353a206275726e2066726f6d20746865207a65726f2061646472657373455243313135353a20696e73756666696369656e742062616c616e636520666f72207472616e73666572455243313135353a2073657474696e6720617070726f76616c2073746174757320666f722073656c66455243313135353a206163636f756e747320616e6420696473206c656e677468206d69736d61746368455243313135353a2069647320616e6420616d6f756e7473206c656e677468206d69736d61746368455243313135353a206d696e7420746f20746865207a65726f2061646472657373416363657373436f6e74726f6c3a2063616e206f6e6c792072656e6f756e636520726f6c657320666f722073656c66a2646970667358221220907e55cb3bf54b3d3480dcb9114e0806e445c51824c577018c72f741853e025d64736f6c634300060c0033",
  "compiler": {
    "name": "solc",
    "version": "0.6.12+commit.27d51765.Emscripten.clang",
    "optimizer": {
      "enabled": true,
      "runs": 2000
    },
    "evmVersion": "petersburg"
  }
}