{
  "fileName": "BounceFixedEndEnglishAuctionNFT.sol",
  "contractName": "BounceFixedEndEnglishAuctionNFT",
  "source": "// SPDX-License-Identifier: MIT\n\npragma solidity ^0.6.0;\npragma experimental ABIEncoderV2;\n\nimport \"@openzeppelin/contracts-ethereum-package/contracts/math/SafeMath.sol\";\nimport \"@openzeppelin/contracts-ethereum-package/contracts/token/ERC20/SafeERC20.sol\";\nimport \"@openzeppelin/contracts-ethereum-package/contracts/token/ERC20/IERC20.sol\";\nimport \"@openzeppelin/contracts-ethereum-package/contracts/token/ERC721/IERC721.sol\";\nimport \"@openzeppelin/contracts-ethereum-package/contracts/token/ERC721/IERC721Receiver.sol\";\nimport \"./Governable.sol\";\nimport \"./interfaces/IERC1155.sol\";\n\ncontract BounceFixedEndEnglishAuctionNFT is Configurable, IERC721Receiver {\n    using SafeMath for uint256;\n    using SafeERC20 for IERC20;\n\n    bytes32 internal constant TxFeeRatio =              bytes32(\"EANFT::TxFeeRatio\");\n    bytes32 internal constant MinValueOfBotHolder =     bytes32(\"EANFT::MinValueOfBotHolder\");\n    bytes32 internal constant BotToken =                bytes32(\"EANFT::BotToken\");\n    bytes32 internal constant DisableErc721 =           bytes32(\"EANFT::DisableErc721\");\n    bytes32 internal constant DisableErc1155 =          bytes32(\"EANFT::DisableErc1155\");\n    uint    internal constant TypeErc721                = 0;\n    uint    internal constant TypeErc1155               = 1;\n\n    struct Pool {\n        // address of pool creator\n        address payable creator;\n        // pool name\n        string name;\n        // address of sell token\n        address token0;\n        // address of buy token\n        address token1;\n        // token id of token0\n        uint tokenId;\n        // amount of token id of token0\n        uint tokenAmount0;\n        // maximum amount of token1 that creator want to swap\n        uint amountMax1;\n        // minimum amount of token1 that creator want to swap\n        uint amountMin1;\n        // minimum incremental amount of token1\n        uint amountMinIncr1;\n        // reserve amount of token1 that creator want to swap\n//        uint amountReserve1;\n        // the duration in seconds the pool will be closed\n        uint duration;\n        // the timestamp in seconds the pool will be closed\n        uint closeAt;\n        // NFT token type\n        uint nftType;\n    }\n\n    Pool[] public pools;\n\n    // pool index => a flag that if creator is claimed the pool\n    mapping(uint => bool) public creatorClaimedP;\n    // pool index => the swap pool only allow BOT holder to take part in\n    mapping(uint => bool) public onlyBotHolderP;\n    // pool index => the candidate of winner who bid the highest amount1 in current round\n    mapping(uint => address payable) public currentBidderP;\n    // pool index => the highest amount1 in current round\n    mapping(uint => uint) public currentBidderAmount1P;\n    // pool index => reserve amount of token1\n    mapping(uint => uint) public reserveAmount1P;\n\n    // creator address => pool index => whether the account create the pool.\n    mapping(address => mapping(uint => bool)) public myCreatedP;\n    // account => pool index => bid amount1\n    mapping(address => mapping(uint => uint)) public myBidderAmount1P;\n    // account => pool index => claim flag\n    mapping(address => mapping(uint => bool)) public myClaimedP;\n\n    // pool index => bid count\n    mapping(uint => uint) public bidCountP;\n\n    uint unlocked;\n\n    event Created(address indexed sender, uint indexed index, Pool pool);\n    event Bid(address indexed sender, uint indexed index, uint amount1);\n    event CreatorClaimed(address indexed sender, uint indexed index, uint tokenId, uint amount0, uint amount1);\n    event BidderClaimed(address indexed sender, uint indexed index, uint tokenId, uint amount0, uint amount1);\n\n    function initialize(address _governor) public override initializer {\n        super.initialize(_governor);\n\n        unlocked = 1;\n        config[TxFeeRatio] = 0.01 ether;\n        config[MinValueOfBotHolder] = 1 ether;\n\n        config[BotToken] = uint(0xA9B1Eb5908CfC3cdf91F9B8B3a74108598009096); // AUCTION\n    }\n\n    function initialize_rinkeby(address _governor) public {\n        initialize(_governor);\n\n        config[BotToken] = uint(0x5E26FA0FE067d28aae8aFf2fB85Ac2E693BD9EfA); // AUCTION\n    }\n\n    function initialize_bsc(address _governor) public {\n        initialize(_governor);\n\n        config[BotToken] = uint(0x1188d953aFC697C031851169EEf640F23ac8529C); // AUCTION\n    }\n\n    function createErc721(\n        // name of the pool\n        string memory name,\n        // address of token0\n        address token0,\n        // address of token1\n        address token1,\n        // token id of token0\n        uint tokenId,\n        // maximum amount of token1\n        uint amountMax1,\n        // minimum amount of token1\n        uint amountMin1,\n        // minimum incremental amount of token1\n        uint amountMinIncr1,\n        // reserve amount of token1\n        uint amountReserve1,\n        // duration\n        uint duration,\n        // only bot holder can bid the pool\n        bool onlyBot\n    ) public {\n        require(!getDisableErc721(), \"ERC721 pool is disabled\");\n        uint tokenAmount0 = 1;\n        _create(name, token0, token1, tokenId, tokenAmount0, amountMax1, amountMin1, amountMinIncr1, amountReserve1, duration, onlyBot, TypeErc721);\n    }\n\n    function createErc1155(\n        // name of the pool\n        string memory name,\n        // address of token0\n        address token0,\n        // address of token1\n        address token1,\n        // token id of token0\n        uint tokenId,\n        // amount of token id of token0\n        uint tokenAmount0,\n        // maximum amount of token1\n        uint amountMax1,\n        // minimum amount of token1\n        uint amountMin1,\n        // minimum incremental amount of token1\n        uint amountMinIncr1,\n        // reserve amount of token1\n        uint amountReserve1,\n        // duration\n        uint duration,\n        // only bot holder can bid the pool\n        bool onlyBot\n    ) public {\n        require(!getDisableErc1155(), \"ERC1155 pool is disabled\");\n        _create(name, token0, token1, tokenId, tokenAmount0, amountMax1, amountMin1, amountMinIncr1, amountReserve1, duration, onlyBot, TypeErc1155);\n    }\n\n    function _create(\n        // name of the pool\n        string memory name,\n        // address of token0\n        address token0,\n        // address of token1\n        address token1,\n        // token id of token0\n        uint tokenId,\n        // amount of token id of token0\n        uint tokenAmount0,\n        // maximum amount of token1\n        uint amountMax1,\n        // minimum amount of token1\n        uint amountMin1,\n        // minimum incremental amount of token1\n        uint amountMinIncr1,\n        // reserve amount of token1\n        uint amountReserve1,\n        // duration\n        uint duration,\n        // only bot holder can bid the pool\n        bool onlyBot,\n        // NFT token type\n        uint nftType\n    ) private {\n        address payable creator = msg.sender;\n\n        require(tokenAmount0 != 0, \"invalid tokenAmount0\");\n        require(amountReserve1 >= amountMin1, \"invalid amountReserve1\");\n        require(amountMax1 > amountReserve1.add(amountMinIncr1), \"invalid amountMax1\");\n        require(amountMinIncr1 != 0, \"invalid amountMinIncr1\");\n        require(duration != 0, \"invalid duration\");\n        require(bytes(name).length <= 32, \"the length of name is too long\");\n\n        // transfer tokenId of token0 to this contract\n        if (nftType == TypeErc721) {\n            IERC721(token0).safeTransferFrom(creator, address(this), tokenId);\n        } else {\n            IERC1155(token0).safeTransferFrom(creator, address(this), tokenId, tokenAmount0, \"\");\n        }\n\n        // creator pool\n        Pool memory pool;\n        pool.creator = creator;\n        pool.name = name;\n        pool.token0 = token0;\n        pool.token1 = token1;\n        pool.tokenId = tokenId;\n        pool.tokenAmount0 = tokenAmount0;\n        pool.amountMax1 = amountMax1;\n        pool.amountMin1 = amountMin1;\n        pool.amountMinIncr1 = amountMinIncr1;\n        pool.duration = duration;\n        pool.closeAt = now.add(duration);\n        pool.nftType = nftType;\n\n        uint index = pools.length;\n        reserveAmount1P[index] = amountReserve1;\n        myCreatedP[msg.sender][index] = true;\n        if (onlyBot) {\n            onlyBotHolderP[index] = onlyBot;\n        }\n\n        pools.push(pool);\n\n        emit Created(msg.sender, index, pool);\n    }\n\n    function bid(\n        // pool index\n        uint index,\n        // amount of token1\n        uint amount1\n    ) external payable\n        lock\n        isPoolExist(index)\n        checkBotHolder(index)\n        isPoolNotClosed(index)\n    {\n        address payable sender = msg.sender;\n\n        Pool storage pool = pools[index];\n        require(pool.creator != sender, \"creator can't bid the pool created by self\");\n        require(amount1 != 0, \"invalid amount1\");\n        require(amount1 >= pool.amountMin1, \"the bid amount is lower than minimum bidder amount\");\n        require(amount1 >= currentBidderAmount(index), \"the bid amount is lower than the current bidder amount\");\n\n        if (pool.token1 == address(0)) {\n            require(amount1 == msg.value, \"invalid ETH amount\");\n        } else {\n            IERC20(pool.token1).safeTransferFrom(sender, address(this), amount1);\n            IERC20(pool.token1).safeApprove(address(this), 0);\n        }\n\n        // return ETH to previous bidder\n        if (currentBidderP[index] != address(0) && currentBidderAmount1P[index] > 0) {\n            if (pool.token1 == address(0)) {\n                currentBidderP[index].transfer(currentBidderAmount1P[index]);\n            } else {\n                IERC20(pool.token1).safeTransfer(currentBidderP[index], currentBidderAmount1P[index]);\n            }\n        }\n\n        if (pool.amountMax1 > 0 && pool.amountMax1 <= amount1) {\n            _creatorClaim(pool.creator, index);\n            _bidderClaim(sender, index);\n        }\n\n        // record new winner\n        currentBidderP[index] = sender;\n        currentBidderAmount1P[index] = amount1;\n        bidCountP[index] = bidCountP[index] + 1;\n        myBidderAmount1P[sender][index] = amount1;\n\n        emit Bid(sender, index, amount1);\n    }\n\n    function creatorClaim(uint index) external\n        isPoolExist(index)\n        isPoolClosed(index)\n    {\n        require(isCreator(msg.sender, index), \"sender is not pool's creator\");\n        _creatorClaim(msg.sender, index);\n    }\n\n    function _creatorClaim(address sender, uint index) private {\n        require(!creatorClaimedP[index], \"creator has claimed\");\n        creatorClaimedP[index] = true;\n\n        Pool memory pool = pools[index];\n        uint amount1 = currentBidderAmount1P[index];\n        if (currentBidderP[index] != address(0) && amount1 >= reserveAmount1P[index]) {\n            if (pool.token1 == address(0)) {\n                // transfer ETH to creator\n                uint256 txFee = amount1.mul(getTxFeeRatio()).div(1 ether);\n                uint256 _actualAmount1 = amount1.sub(txFee);\n                if (_actualAmount1 > 0) {\n                    pool.creator.transfer(_actualAmount1);\n                }\n                if (txFee > 0) {\n                    // keep transaction fee in this contract\n                }\n            } else {\n                IERC20(pool.token1).safeTransfer(pool.creator, amount1);\n            }\n            emit CreatorClaimed(sender, index, pool.tokenId, 0, amount1);\n        } else {\n            // transfer token0 back to creator\n            if (pool.nftType == TypeErc721) {\n                IERC721(pool.token0).safeTransferFrom(address(this), pool.creator, pool.tokenId);\n                emit CreatorClaimed(sender, index, pool.tokenId, 1, 0);\n            } else {\n                IERC1155(pool.token0).safeTransferFrom(address(this), pool.creator, pool.tokenId, pool.tokenAmount0, \"\");\n                emit CreatorClaimed(sender, index, pool.tokenId, pool.tokenAmount0, 0);\n            }\n        }\n    }\n\n    function bidderClaim(uint index) external\n        isPoolExist(index)\n        isPoolClosed(index)\n    {\n        _bidderClaim(msg.sender, index);\n    }\n\n    function _bidderClaim(address sender, uint index) private {\n        require(currentBidderP[index] == sender, \"sender is not winner\");\n        require(!myClaimedP[sender][index], \"sender has claimed\");\n        myClaimedP[sender][index] = true;\n\n        uint amount1 = currentBidderAmount1P[index];\n        Pool memory pool = pools[index];\n        if (amount1 >= reserveAmount1P[index]) {\n            // transfer token0 to bidder\n            if (pool.nftType == TypeErc721) {\n                IERC721(pool.token0).safeTransferFrom(address(this), sender, pool.tokenId);\n                emit BidderClaimed(sender, index, pool.tokenId, 1, 0);\n            } else {\n                IERC1155(pool.token0).safeTransferFrom(address(this), sender, pool.tokenId, pool.tokenAmount0, \"\");\n                emit BidderClaimed(sender, index, pool.tokenId, pool.tokenAmount0, 0);\n            }\n        } else {\n            // transfer token1 back to creator\n            if (pool.token1 == address(0)) {\n                pool.creator.transfer(amount1);\n            } else {\n                IERC20(pool.token1).safeTransfer(pool.creator, amount1);\n            }\n            emit BidderClaimed(sender, index, pool.tokenId, 0, amount1);\n        }\n    }\n\n    function onERC721Received(address, address, uint256, bytes calldata) external override returns (bytes4) {\n        return this.onERC721Received.selector;\n    }\n\n    function onERC1155Received(address, address, uint256, uint256, bytes calldata) external pure returns(bytes4) {\n        return this.onERC1155Received.selector;\n    }\n\n    function getPoolCount() external view returns (uint) {\n        return pools.length;\n    }\n\n    function currentBidderAmount(uint index) public view returns (uint) {\n        Pool memory pool = pools[index];\n        uint amount = pool.amountMin1;\n\n        if (currentBidderP[index] != address(0)) {\n            amount = currentBidderAmount1P[index].add(pool.amountMinIncr1);\n        } else if (pool.amountMin1 == 0) {\n            amount = pool.amountMinIncr1;\n        }\n\n        return amount;\n    }\n\n    function isCreator(address target, uint index) private view returns (bool) {\n        if (pools[index].creator == target) {\n            return true;\n        }\n        return false;\n    }\n\n    function getTxFeeRatio() public view returns (uint) {\n        return config[TxFeeRatio];\n    }\n\n    function getMinValueOfBotHolder() public view returns (uint) {\n        return config[MinValueOfBotHolder];\n    }\n\n    function getDisableErc721() public view returns (bool) {\n        return config[DisableErc721] != 0;\n    }\n\n    function getDisableErc1155() public view returns (bool) {\n        return config[DisableErc1155] != 0;\n    }\n\n    function getBotToken() public view returns (address) {\n        return address(config[BotToken]);\n    }\n\n    modifier checkBotHolder(uint index) {\n        if (onlyBotHolderP[index]) {\n            require(\n                IERC20(getBotToken()).balanceOf(msg.sender) >= getMinValueOfBotHolder(),\n                \"BOT is not enough\"\n            );\n        }\n        _;\n    }\n\n    modifier isPoolClosed(uint index) {\n        require(pools[index].closeAt <= now || creatorClaimedP[index], \"this pool is not closed\");\n        _;\n    }\n\n    modifier isPoolNotClosed(uint index) {\n        require(pools[index].closeAt > now || !creatorClaimedP[index], \"this pool is closed\");\n        _;\n    }\n\n    modifier isPoolExist(uint index) {\n        require(index < pools.length, \"this pool does not exist\");\n        _;\n    }\n\n    modifier lock() {\n        require(unlocked == 1, 'LOCKED');\n        unlocked = 0;\n        _;\n        unlocked = 1;\n    }\n}\n",
  "sourcePath": "contracts/BounceFixedEndEnglishAuctionNFT.sol",
  "abi": [
    {
      "anonymous": false,
      "inputs": [
        {
          "indexed": true,
          "internalType": "address",
          "name": "sender",
          "type": "address"
        },
        {
          "indexed": true,
          "internalType": "uint256",
          "name": "index",
          "type": "uint256"
        },
        {
          "indexed": false,
          "internalType": "uint256",
          "name": "amount1",
          "type": "uint256"
        }
      ],
      "name": "Bid",
      "type": "event"
    },
    {
      "anonymous": false,
      "inputs": [
        {
          "indexed": true,
          "internalType": "address",
          "name": "sender",
          "type": "address"
        },
        {
          "indexed": true,
          "internalType": "uint256",
          "name": "index",
          "type": "uint256"
        },
        {
          "indexed": false,
          "internalType": "uint256",
          "name": "tokenId",
          "type": "uint256"
        },
        {
          "indexed": false,
          "internalType": "uint256",
          "name": "amount0",
          "type": "uint256"
        },
        {
          "indexed": false,
          "internalType": "uint256",
          "name": "amount1",
          "type": "uint256"
        }
      ],
      "name": "BidderClaimed",
      "type": "event"
    },
    {
      "anonymous": false,
      "inputs": [
        {
          "indexed": true,
          "internalType": "address",
          "name": "sender",
          "type": "address"
        },
        {
          "indexed": true,
          "internalType": "uint256",
          "name": "index",
          "type": "uint256"
        },
        {
          "components": [
            {
              "internalType": "address payable",
              "name": "creator",
              "type": "address"
            },
            {
              "internalType": "string",
              "name": "name",
              "type": "string"
            },
            {
              "internalType": "address",
              "name": "token0",
              "type": "address"
            },
            {
              "internalType": "address",
              "name": "token1",
              "type": "address"
            },
            {
              "internalType": "uint256",
              "name": "tokenId",
              "type": "uint256"
            },
            {
              "internalType": "uint256",
              "name": "tokenAmount0",
              "type": "uint256"
            },
            {
              "internalType": "uint256",
              "name": "amountMax1",
              "type": "uint256"
            },
            {
              "internalType": "uint256",
              "name": "amountMin1",
              "type": "uint256"
            },
            {
              "internalType": "uint256",
              "name": "amountMinIncr1",
              "type": "uint256"
            },
            {
              "internalType": "uint256",
              "name": "duration",
              "type": "uint256"
            },
            {
              "internalType": "uint256",
              "name": "closeAt",
              "type": "uint256"
            },
            {
              "internalType": "uint256",
              "name": "nftType",
              "type": "uint256"
            }
          ],
          "indexed": false,
          "internalType": "struct BounceFixedEndEnglishAuctionNFT.Pool",
          "name": "pool",
          "type": "tuple"
        }
      ],
      "name": "Created",
      "type": "event"
    },
    {
      "anonymous": false,
      "inputs": [
        {
          "indexed": true,
          "internalType": "address",
          "name": "sender",
          "type": "address"
        },
        {
          "indexed": true,
          "internalType": "uint256",
          "name": "index",
          "type": "uint256"
        },
        {
          "indexed": false,
          "internalType": "uint256",
          "name": "tokenId",
          "type": "uint256"
        },
        {
          "indexed": false,
          "internalType": "uint256",
          "name": "amount0",
          "type": "uint256"
        },
        {
          "indexed": false,
          "internalType": "uint256",
          "name": "amount1",
          "type": "uint256"
        }
      ],
      "name": "CreatorClaimed",
      "type": "event"
    },
    {
      "anonymous": false,
      "inputs": [
        {
          "indexed": true,
          "internalType": "address",
          "name": "previousGovernor",
          "type": "address"
        },
        {
          "indexed": true,
          "internalType": "address",
          "name": "newGovernor",
          "type": "address"
        }
      ],
      "name": "GovernorshipTransferred",
      "type": "event"
    },
    {
      "inputs": [
        {
          "internalType": "uint256",
          "name": "index",
          "type": "uint256"
        },
        {
          "internalType": "uint256",
          "name": "amount1",
          "type": "uint256"
        }
      ],
      "name": "bid",
      "outputs": [],
      "stateMutability": "payable",
      "type": "function"
    },
    {
      "inputs": [
        {
          "internalType": "uint256",
          "name": "",
          "type": "uint256"
        }
      ],
      "name": "bidCountP",
      "outputs": [
        {
          "internalType": "uint256",
          "name": "",
          "type": "uint256"
        }
      ],
      "stateMutability": "view",
      "type": "function"
    },
    {
      "inputs": [
        {
          "internalType": "uint256",
          "name": "index",
          "type": "uint256"
        }
      ],
      "name": "bidderClaim",
      "outputs": [],
      "stateMutability": "nonpayable",
      "type": "function"
    },
    {
      "inputs": [
        {
          "internalType": "string",
          "name": "name",
          "type": "string"
        },
        {
          "internalType": "address",
          "name": "token0",
          "type": "address"
        },
        {
          "internalType": "address",
          "name": "token1",
          "type": "address"
        },
        {
          "internalType": "uint256",
          "name": "tokenId",
          "type": "uint256"
        },
        {
          "internalType": "uint256",
          "name": "tokenAmount0",
          "type": "uint256"
        },
        {
          "internalType": "uint256",
          "name": "amountMax1",
          "type": "uint256"
        },
        {
          "internalType": "uint256",
          "name": "amountMin1",
          "type": "uint256"
        },
        {
          "internalType": "uint256",
          "name": "amountMinIncr1",
          "type": "uint256"
        },
        {
          "internalType": "uint256",
          "name": "amountReserve1",
          "type": "uint256"
        },
        {
          "internalType": "uint256",
          "name": "duration",
          "type": "uint256"
        },
        {
          "internalType": "bool",
          "name": "onlyBot",
          "type": "bool"
        }
      ],
      "name": "createErc1155",
      "outputs": [],
      "stateMutability": "nonpayable",
      "type": "function"
    },
    {
      "inputs": [
        {
          "internalType": "string",
          "name": "name",
          "type": "string"
        },
        {
          "internalType": "address",
          "name": "token0",
          "type": "address"
        },
        {
          "internalType": "address",
          "name": "token1",
          "type": "address"
        },
        {
          "internalType": "uint256",
          "name": "tokenId",
          "type": "uint256"
        },
        {
          "internalType": "uint256",
          "name": "amountMax1",
          "type": "uint256"
        },
        {
          "internalType": "uint256",
          "name": "amountMin1",
          "type": "uint256"
        },
        {
          "internalType": "uint256",
          "name": "amountMinIncr1",
          "type": "uint256"
        },
        {
          "internalType": "uint256",
          "name": "amountReserve1",
          "type": "uint256"
        },
        {
          "internalType": "uint256",
          "name": "duration",
          "type": "uint256"
        },
        {
          "internalType": "bool",
          "name": "onlyBot",
          "type": "bool"
        }
      ],
      "name": "createErc721",
      "outputs": [],
      "stateMutability": "nonpayable",
      "type": "function"
    },
    {
      "inputs": [
        {
          "internalType": "uint256",
          "name": "index",
          "type": "uint256"
        }
      ],
      "name": "creatorClaim",
      "outputs": [],
      "stateMutability": "nonpayable",
      "type": "function"
    },
    {
      "inputs": [
        {
          "internalType": "uint256",
          "name": "",
          "type": "uint256"
        }
      ],
      "name": "creatorClaimedP",
      "outputs": [
        {
          "internalType": "bool",
          "name": "",
          "type": "bool"
        }
      ],
      "stateMutability": "view",
      "type": "function"
    },
    {
      "inputs": [
        {
          "internalType": "uint256",
          "name": "index",
          "type": "uint256"
        }
      ],
      "name": "currentBidderAmount",
      "outputs": [
        {
          "internalType": "uint256",
          "name": "",
          "type": "uint256"
        }
      ],
      "stateMutability": "view",
      "type": "function"
    },
    {
      "inputs": [
        {
          "internalType": "uint256",
          "name": "",
          "type": "uint256"
        }
      ],
      "name": "currentBidderAmount1P",
      "outputs": [
        {
          "internalType": "uint256",
          "name": "",
          "type": "uint256"
        }
      ],
      "stateMutability": "view",
      "type": "function"
    },
    {
      "inputs": [
        {
          "internalType": "uint256",
          "name": "",
          "type": "uint256"
        }
      ],
      "name": "currentBidderP",
      "outputs": [
        {
          "internalType": "address payable",
          "name": "",
          "type": "address"
        }
      ],
      "stateMutability": "view",
      "type": "function"
    },
    {
      "inputs": [],
      "name": "getBotToken",
      "outputs": [
        {
          "internalType": "address",
          "name": "",
          "type": "address"
        }
      ],
      "stateMutability": "view",
      "type": "function"
    },
    {
      "inputs": [
        {
          "internalType": "bytes32",
          "name": "key",
          "type": "bytes32"
        },
        {
          "internalType": "address",
          "name": "addr",
          "type": "address"
        }
      ],
      "name": "getConfig",
      "outputs": [
        {
          "internalType": "uint256",
          "name": "",
          "type": "uint256"
        }
      ],
      "stateMutability": "view",
      "type": "function"
    },
    {
      "inputs": [
        {
          "internalType": "bytes32",
          "name": "key",
          "type": "bytes32"
        }
      ],
      "name": "getConfig",
      "outputs": [
        {
          "internalType": "uint256",
          "name": "",
          "type": "uint256"
        }
      ],
      "stateMutability": "view",
      "type": "function"
    },
    {
      "inputs": [
        {
          "internalType": "bytes32",
          "name": "key",
          "type": "bytes32"
        },
        {
          "internalType": "uint256",
          "name": "index",
          "type": "uint256"
        }
      ],
      "name": "getConfig",
      "outputs": [
        {
          "internalType": "uint256",
          "name": "",
          "type": "uint256"
        }
      ],
      "stateMutability": "view",
      "type": "function"
    },
    {
      "inputs": [],
      "name": "getDisableErc1155",
      "outputs": [
        {
          "internalType": "bool",
          "name": "",
          "type": "bool"
        }
      ],
      "stateMutability": "view",
      "type": "function"
    },
    {
      "inputs": [],
      "name": "getDisableErc721",
      "outputs": [
        {
          "internalType": "bool",
          "name": "",
          "type": "bool"
        }
      ],
      "stateMutability": "view",
      "type": "function"
    },
    {
      "inputs": [],
      "name": "getMinValueOfBotHolder",
      "outputs": [
        {
          "internalType": "uint256",
          "name": "",
          "type": "uint256"
        }
      ],
      "stateMutability": "view",
      "type": "function"
    },
    {
      "inputs": [],
      "name": "getPoolCount",
      "outputs": [
        {
          "internalType": "uint256",
          "name": "",
          "type": "uint256"
        }
      ],
      "stateMutability": "view",
      "type": "function"
    },
    {
      "inputs": [],
      "name": "getTxFeeRatio",
      "outputs": [
        {
          "internalType": "uint256",
          "name": "",
          "type": "uint256"
        }
      ],
      "stateMutability": "view",
      "type": "function"
    },
    {
      "inputs": [],
      "name": "governor",
      "outputs": [
        {
          "internalType": "address",
          "name": "",
          "type": "address"
        }
      ],
      "stateMutability": "view",
      "type": "function"
    },
    {
      "inputs": [
        {
          "internalType": "address",
          "name": "_governor",
          "type": "address"
        }
      ],
      "name": "initialize",
      "outputs": [],
      "stateMutability": "nonpayable",
      "type": "function"
    },
    {
      "inputs": [
        {
          "internalType": "address",
          "name": "_governor",
          "type": "address"
        }
      ],
      "name": "initialize_bsc",
      "outputs": [],
      "stateMutability": "nonpayable",
      "type": "function"
    },
    {
      "inputs": [
        {
          "internalType": "address",
          "name": "_governor",
          "type": "address"
        }
      ],
      "name": "initialize_rinkeby",
      "outputs": [],
      "stateMutability": "nonpayable",
      "type": "function"
    },
    {
      "inputs": [
        {
          "internalType": "address",
          "name": "",
          "type": "address"
        },
        {
          "internalType": "uint256",
          "name": "",
          "type": "uint256"
        }
      ],
      "name": "myBidderAmount1P",
      "outputs": [
        {
          "internalType": "uint256",
          "name": "",
          "type": "uint256"
        }
      ],
      "stateMutability": "view",
      "type": "function"
    },
    {
      "inputs": [
        {
          "internalType": "address",
          "name": "",
          "type": "address"
        },
        {
          "internalType": "uint256",
          "name": "",
          "type": "uint256"
        }
      ],
      "name": "myClaimedP",
      "outputs": [
        {
          "internalType": "bool",
          "name": "",
          "type": "bool"
        }
      ],
      "stateMutability": "view",
      "type": "function"
    },
    {
      "inputs": [
        {
          "internalType": "address",
          "name": "",
          "type": "address"
        },
        {
          "internalType": "uint256",
          "name": "",
          "type": "uint256"
        }
      ],
      "name": "myCreatedP",
      "outputs": [
        {
          "internalType": "bool",
          "name": "",
          "type": "bool"
        }
      ],
      "stateMutability": "view",
      "type": "function"
    },
    {
      "inputs": [
        {
          "internalType": "address",
          "name": "",
          "type": "address"
        },
        {
          "internalType": "address",
          "name": "",
          "type": "address"
        },
        {
          "internalType": "uint256",
          "name": "",
          "type": "uint256"
        },
        {
          "internalType": "uint256",
          "name": "",
          "type": "uint256"
        },
        {
          "internalType": "bytes",
          "name": "",
          "type": "bytes"
        }
      ],
      "name": "onERC1155Received",
      "outputs": [
        {
          "internalType": "bytes4",
          "name": "",
          "type": "bytes4"
        }
      ],
      "stateMutability": "pure",
      "type": "function"
    },
    {
      "inputs": [
        {
          "internalType": "address",
          "name": "",
          "type": "address"
        },
        {
          "internalType": "address",
          "name": "",
          "type": "address"
        },
        {
          "internalType": "uint256",
          "name": "",
          "type": "uint256"
        },
        {
          "internalType": "bytes",
          "name": "",
          "type": "bytes"
        }
      ],
      "name": "onERC721Received",
      "outputs": [
        {
          "internalType": "bytes4",
          "name": "",
          "type": "bytes4"
        }
      ],
      "stateMutability": "nonpayable",
      "type": "function"
    },
    {
      "inputs": [
        {
          "internalType": "uint256",
          "name": "",
          "type": "uint256"
        }
      ],
      "name": "onlyBotHolderP",
      "outputs": [
        {
          "internalType": "bool",
          "name": "",
          "type": "bool"
        }
      ],
      "stateMutability": "view",
      "type": "function"
    },
    {
      "inputs": [
        {
          "internalType": "uint256",
          "name": "",
          "type": "uint256"
        }
      ],
      "name": "pools",
      "outputs": [
        {
          "internalType": "address payable",
          "name": "creator",
          "type": "address"
        },
        {
          "internalType": "string",
          "name": "name",
          "type": "string"
        },
        {
          "internalType": "address",
          "name": "token0",
          "type": "address"
        },
        {
          "internalType": "address",
          "name": "token1",
          "type": "address"
        },
        {
          "internalType": "uint256",
          "name": "tokenId",
          "type": "uint256"
        },
        {
          "internalType": "uint256",
          "name": "tokenAmount0",
          "type": "uint256"
        },
        {
          "internalType": "uint256",
          "name": "amountMax1",
          "type": "uint256"
        },
        {
          "internalType": "uint256",
          "name": "amountMin1",
          "type": "uint256"
        },
        {
          "internalType": "uint256",
          "name": "amountMinIncr1",
          "type": "uint256"
        },
        {
          "internalType": "uint256",
          "name": "duration",
          "type": "uint256"
        },
        {
          "internalType": "uint256",
          "name": "closeAt",
          "type": "uint256"
        },
        {
          "internalType": "uint256",
          "name": "nftType",
          "type": "uint256"
        }
      ],
      "stateMutability": "view",
      "type": "function"
    },
    {
      "inputs": [],
      "name": "renounceGovernorship",
      "outputs": [],
      "stateMutability": "nonpayable",
      "type": "function"
    },
    {
      "inputs": [
        {
          "internalType": "uint256",
          "name": "",
          "type": "uint256"
        }
      ],
      "name": "reserveAmount1P",
      "outputs": [
        {
          "internalType": "uint256",
          "name": "",
          "type": "uint256"
        }
      ],
      "stateMutability": "view",
      "type": "function"
    },
    {
      "inputs": [
        {
          "internalType": "bytes32",
          "name": "key",
          "type": "bytes32"
        },
        {
          "internalType": "uint256",
          "name": "value",
          "type": "uint256"
        }
      ],
      "name": "setConfig",
      "outputs": [],
      "stateMutability": "nonpayable",
      "type": "function"
    },
    {
      "inputs": [
        {
          "internalType": "bytes32",
          "name": "key",
          "type": "bytes32"
        },
        {
          "internalType": "address",
          "name": "addr",
          "type": "address"
        },
        {
          "internalType": "uint256",
          "name": "value",
          "type": "uint256"
        }
      ],
      "name": "setConfig",
      "outputs": [],
      "stateMutability": "nonpayable",
      "type": "function"
    },
    {
      "inputs": [
        {
          "internalType": "bytes32",
          "name": "key",
          "type": "bytes32"
        },
        {
          "internalType": "uint256",
          "name": "index",
          "type": "uint256"
        },
        {
          "internalType": "uint256",
          "name": "value",
          "type": "uint256"
        }
      ],
      "name": "setConfig",
      "outputs": [],
      "stateMutability": "nonpayable",
      "type": "function"
    },
    {
      "inputs": [
        {
          "internalType": "address",
          "name": "newGovernor",
          "type": "address"
        }
      ],
      "name": "transferGovernorship",
      "outputs": [],
      "stateMutability": "nonpayable",
      "type": "function"
    }
  ],
  "bytecode": "0x608060405234801561001057600080fd5b50615c2680620000216000396000f3fe60806040526004361061020f5760003560e01c80638695f2d211610118578063c4d66de8116100a0578063ddf2be3f1161006f578063ddf2be3f14610809578063e87ba7aa14610832578063f23a6e611461086f578063f5639ff5146108ac578063f6dfbf24146108e95761020f565b8063c4d66de81461073b578063c6472b1214610764578063c7011b7b146107a1578063d286bea5146107cc5761020f565b806399401ce2116100e757806399401ce214610639578063ac4afa3814610676578063b21544f3146106be578063b4b26776146106e7578063b6aa515b146107125761020f565b80638695f2d2146105575780638d32b658146105945780638ec872e3146105d15780638eec5d701461060e5761020f565b806352665f471161019b57806363cb6c421161016a57806363cb6c421461047257806364cc79bd1461049d5780636dd5b69d146104da57806381c0c26314610517578063859537b31461052e5761020f565b806352665f47146103c757806354ecca5614610404578063598647f81461042d57806360de1d61146104495761020f565b806329a65f8f116101e257806329a65f8f146102d05780632ad540ed1461030d57806333838c6e146103365780633fb7166d14610361578063494cd9cf1461039e5761020f565b80630c340a2414610214578063150b7a021461023f57806315fe96dc1461027c5780631bb2dd6c146102a5575b600080fd5b34801561022057600080fd5b50610229610912565b60405161023691906151bf565b60405180910390f35b34801561024b57600080fd5b50610266600480360381019061026191906141b9565b610938565b60405161027391906154eb565b60405180910390f35b34801561028857600080fd5b506102a3600480360381019061029e91906143e4565b61094d565b005b3480156102b157600080fd5b506102ba6109b5565b6040516102c791906158ea565b60405180910390f35b3480156102dc57600080fd5b506102f760048036038101906102f2919061466a565b6109f0565b60405161030491906158ea565b60405180910390f35b34801561031957600080fd5b50610334600480360381019061032f919061466a565b610a08565b005b34801561034257600080fd5b5061034b610b32565b60405161035891906154d0565b60405180910390f35b34801561036d57600080fd5b50610388600480360381019061038391906142cb565b610b70565b60405161039591906154d0565b60405180910390f35b3480156103aa57600080fd5b506103c560048036038101906103c09190614190565b610b9f565b005b3480156103d357600080fd5b506103ee60048036038101906103e99190614359565b610c0d565b6040516103fb91906158ea565b60405180910390f35b34801561041057600080fd5b5061042b6004803603810190610426919061446f565b610c49565b005b610447600480360381019061044291906146bc565b610cb9565b005b34801561045557600080fd5b50610470600480360381019061046b919061466a565b611555565b005b34801561047e57600080fd5b50610487611636565b60405161049491906158ea565b60405180910390f35b3480156104a957600080fd5b506104c460048036038101906104bf919061466a565b611671565b6040516104d191906158ea565b60405180910390f35b3480156104e657600080fd5b5061050160048036038101906104fc9190614330565b611689565b60405161050e91906158ea565b60405180910390f35b34801561052357600080fd5b5061052c6116a6565b005b34801561053a57600080fd5b5061055560048036038101906105509190614190565b6117c1565b005b34801561056357600080fd5b5061057e6004803603810190610579919061466a565b61182f565b60405161058b91906158ea565b60405180910390f35b3480156105a057600080fd5b506105bb60048036038101906105b691906142cb565b611b19565b6040516105c891906158ea565b60405180910390f35b3480156105dd57600080fd5b506105f860048036038101906105f391906143e4565b611b3e565b60405161060591906158ea565b60405180910390f35b34801561061a57600080fd5b50610623611b64565b60405161063091906158ea565b60405180910390f35b34801561064557600080fd5b50610660600480360381019061065b919061466a565b611b71565b60405161066d91906158ea565b60405180910390f35b34801561068257600080fd5b5061069d6004803603810190610698919061466a565b611b89565b6040516106b59c9b9a9998979695949392919061529f565b60405180910390f35b3480156106ca57600080fd5b506106e560048036038101906106e09190614395565b611cee565b005b3480156106f357600080fd5b506106fc611d75565b60405161070991906154d0565b60405180910390f35b34801561071e57600080fd5b5061073960048036038101906107349190614190565b611db3565b005b34801561074757600080fd5b50610762600480360381019061075d9190614190565b611e19565b005b34801561077057600080fd5b5061078b6004803603810190610786919061466a565b611ff4565b60405161079891906154d0565b60405180910390f35b3480156107ad57600080fd5b506107b6612014565b6040516107c391906151bf565b60405180910390f35b3480156107d857600080fd5b506107f360048036038101906107ee91906142cb565b61204f565b60405161080091906154d0565b60405180910390f35b34801561081557600080fd5b50610830600480360381019061082b9190614420565b61207e565b005b34801561083e57600080fd5b506108596004803603810190610854919061466a565b6120ef565b60405161086691906154d0565b60405180910390f35b34801561087b57600080fd5b5061089660048036038101906108919190614239565b61210f565b6040516108a391906154eb565b60405180910390f35b3480156108b857600080fd5b506108d360048036038101906108ce919061466a565b612125565b6040516108e091906151f5565b60405180910390f35b3480156108f557600080fd5b50610910600480360381019061090b9190614562565b612158565b005b603360009054906101000a900473ffffffffffffffffffffffffffffffffffffffff1681565b600063150b7a0260e01b905095945050505050565b603360009054906101000a900473ffffffffffffffffffffffffffffffffffffffff1673ffffffffffffffffffffffffffffffffffffffff163373ffffffffffffffffffffffffffffffffffffffff16146109a757600080fd5b6109b182826121c2565b5050565b6000603460007f45414e46543a3a5478466565526174696f000000000000000000000000000000815260200190815260200160002054905090565b603e6020528060005260406000206000915090505481565b806035805490508110610a50576040517f08c379a0000000000000000000000000000000000000000000000000000000008152600401610a47906155c8565b60405180910390fd5b814260358281548110610a5f57fe5b90600052602060002090600c0201600a0154111580610a9b57506036600082815260200190815260200160002060009054906101000a900460ff165b610ada576040517f08c379a0000000000000000000000000000000000000000000000000000000008152600401610ad1906158a8565b60405180910390fd5b610ae433846121f9565b610b23576040517f08c379a0000000000000000000000000000000000000000000000000000000008152600401610b1a90615548565b60405180910390fd5b610b2d3384612281565b505050565b600080603460007f45414e46543a3a44697361626c654572633131353500000000000000000000008152602001908152602001600020541415905090565b603b6020528160005260406000206020528060005260406000206000915091509054906101000a900460ff1681565b610ba881611e19565b731188d953afc697c031851169eef640f23ac8529c73ffffffffffffffffffffffffffffffffffffffff16603460007f45414e46543a3a426f74546f6b656e000000000000000000000000000000000081526020019081526020016000208190555050565b6000603460008373ffffffffffffffffffffffffffffffffffffffff168560001c1860001b815260200190815260200160002054905092915050565b610c51611d75565b15610c91576040517f08c379a0000000000000000000000000000000000000000000000000000000008152600401610c8890615768565b60405180910390fd5b600060019050610cac8b8b8b8b858c8c8c8c8c8c6000612914565b5050505050505050505050565b6001603f5414610cfe576040517f08c379a0000000000000000000000000000000000000000000000000000000008152600401610cf590615808565b60405180910390fd5b6000603f81905550816035805490508110610d4e576040517f08c379a0000000000000000000000000000000000000000000000000000000008152600401610d45906155c8565b60405180910390fd5b826037600082815260200190815260200160002060009054906101000a900460ff1615610e4f57610d7d611636565b610d85612014565b73ffffffffffffffffffffffffffffffffffffffff166370a08231336040518263ffffffff1660e01b8152600401610dbd91906151da565b60206040518083038186803b158015610dd557600080fd5b505afa158015610de9573d6000803e3d6000fd5b505050506040513d601f19601f82011682018060405250810190610e0d9190614693565b1015610e4e576040517f08c379a0000000000000000000000000000000000000000000000000000000008152600401610e4590615648565b60405180910390fd5b5b834260358281548110610e5e57fe5b90600052602060002090600c0201600a01541180610e9a57506036600082815260200190815260200160002060009054906101000a900460ff16155b610ed9576040517f08c379a0000000000000000000000000000000000000000000000000000000008152600401610ed090615608565b60405180910390fd5b6000339050600060358781548110610eed57fe5b90600052602060002090600c020190508173ffffffffffffffffffffffffffffffffffffffff168160000160009054906101000a900473ffffffffffffffffffffffffffffffffffffffff1673ffffffffffffffffffffffffffffffffffffffff161415610f90576040517f08c379a0000000000000000000000000000000000000000000000000000000008152600401610f87906156c8565b60405180910390fd5b6000861415610fd4576040517f08c379a0000000000000000000000000000000000000000000000000000000008152600401610fcb90615528565b60405180910390fd5b806007015486101561101b576040517f08c379a000000000000000000000000000000000000000000000000000000000815260040161101290615728565b60405180910390fd5b6110248761182f565b861015611066576040517f08c379a000000000000000000000000000000000000000000000000000000000815260040161105d906157a8565b60405180910390fd5b600073ffffffffffffffffffffffffffffffffffffffff168160030160009054906101000a900473ffffffffffffffffffffffffffffffffffffffff1673ffffffffffffffffffffffffffffffffffffffff16141561110657348614611101576040517f08c379a00000000000000000000000000000000000000000000000000000000081526004016110f8906157c8565b60405180910390fd5b6111a8565b6111578230888460030160009054906101000a900473ffffffffffffffffffffffffffffffffffffffff1673ffffffffffffffffffffffffffffffffffffffff16612f60909392919063ffffffff16565b6111a73060008360030160009054906101000a900473ffffffffffffffffffffffffffffffffffffffff1673ffffffffffffffffffffffffffffffffffffffff16612fe99092919063ffffffff16565b5b600073ffffffffffffffffffffffffffffffffffffffff166038600089815260200190815260200160002060009054906101000a900473ffffffffffffffffffffffffffffffffffffffff1673ffffffffffffffffffffffffffffffffffffffff161415801561122b575060006039600089815260200190815260200160002054115b156113b257600073ffffffffffffffffffffffffffffffffffffffff168160030160009054906101000a900473ffffffffffffffffffffffffffffffffffffffff1673ffffffffffffffffffffffffffffffffffffffff16141561131b576038600088815260200190815260200160002060009054906101000a900473ffffffffffffffffffffffffffffffffffffffff1673ffffffffffffffffffffffffffffffffffffffff166108fc603960008a8152602001908152602001600020549081150290604051600060405180830381858888f19350505050158015611315573d6000803e3d6000fd5b506113b1565b6113b06038600089815260200190815260200160002060009054906101000a900473ffffffffffffffffffffffffffffffffffffffff16603960008a8152602001908152602001600020548360030160009054906101000a900473ffffffffffffffffffffffffffffffffffffffff1673ffffffffffffffffffffffffffffffffffffffff166131479092919063ffffffff16565b5b5b600081600601541180156113ca575085816006015411155b15611408576113fd8160000160009054906101000a900473ffffffffffffffffffffffffffffffffffffffff1688612281565b61140782886131cd565b5b816038600089815260200190815260200160002060006101000a81548173ffffffffffffffffffffffffffffffffffffffff021916908373ffffffffffffffffffffffffffffffffffffffff1602179055508560396000898152602001908152602001600020819055506001603e60008981526020019081526020016000205401603e60008981526020019081526020016000208190555085603c60008473ffffffffffffffffffffffffffffffffffffffff1673ffffffffffffffffffffffffffffffffffffffff168152602001908152602001600020600089815260200190815260200160002081905550868273ffffffffffffffffffffffffffffffffffffffff167f19421268847f42dd61705778018ddfc43bcdce8517e7a630acb12f122c7094818860405161153c91906158ea565b60405180910390a350505050506001603f819055505050565b80603580549050811061159d576040517f08c379a0000000000000000000000000000000000000000000000000000000008152600401611594906155c8565b60405180910390fd5b8142603582815481106115ac57fe5b90600052602060002090600c0201600a01541115806115e857506036600082815260200190815260200160002060009054906101000a900460ff165b611627576040517f08c379a000000000000000000000000000000000000000000000000000000000815260040161161e906158a8565b60405180910390fd5b61163133846131cd565b505050565b6000603460007f45414e46543a3a4d696e56616c75654f66426f74486f6c646572000000000000815260200190815260200160002054905090565b60396020528060005260406000206000915090505481565b600060346000838152602001908152602001600020549050919050565b603360009054906101000a900473ffffffffffffffffffffffffffffffffffffffff1673ffffffffffffffffffffffffffffffffffffffff163373ffffffffffffffffffffffffffffffffffffffff161461170057600080fd5b600073ffffffffffffffffffffffffffffffffffffffff16603360009054906101000a900473ffffffffffffffffffffffffffffffffffffffff1673ffffffffffffffffffffffffffffffffffffffff167fc7c0c772add429241571afb3805861fb3cfa2af374534088b76cdb4325a87e9a60405160405180910390a36000603360006101000a81548173ffffffffffffffffffffffffffffffffffffffff021916908373ffffffffffffffffffffffffffffffffffffffff160217905550565b6117ca81611e19565b735e26fa0fe067d28aae8aff2fb85ac2e693bd9efa73ffffffffffffffffffffffffffffffffffffffff16603460007f45414e46543a3a426f74546f6b656e000000000000000000000000000000000081526020019081526020016000208190555050565b6000611839613f34565b6035838154811061184657fe5b90600052602060002090600c0201604051806101800160405290816000820160009054906101000a900473ffffffffffffffffffffffffffffffffffffffff1673ffffffffffffffffffffffffffffffffffffffff1673ffffffffffffffffffffffffffffffffffffffff168152602001600182018054600181600116156101000203166002900480601f01602080910402602001604051908101604052809291908181526020018280546001816001161561010002031660029004801561194f5780601f106119245761010080835404028352916020019161194f565b820191906000526020600020905b81548152906001019060200180831161193257829003601f168201915b505050505081526020016002820160009054906101000a900473ffffffffffffffffffffffffffffffffffffffff1673ffffffffffffffffffffffffffffffffffffffff1673ffffffffffffffffffffffffffffffffffffffff1681526020016003820160009054906101000a900473ffffffffffffffffffffffffffffffffffffffff1673ffffffffffffffffffffffffffffffffffffffff1673ffffffffffffffffffffffffffffffffffffffff168152602001600482015481526020016005820154815260200160068201548152602001600782015481526020016008820154815260200160098201548152602001600a8201548152602001600b82015481525050905060008160e001519050600073ffffffffffffffffffffffffffffffffffffffff166038600086815260200190815260200160002060009054906101000a900473ffffffffffffffffffffffffffffffffffffffff1673ffffffffffffffffffffffffffffffffffffffff1614611af857611af182610100015160396000878152602001908152602001600020546138aa90919063ffffffff16565b9050611b0f565b60008260e001511415611b0e5781610100015190505b5b8092505050919050565b603c602052816000526040600020602052806000526040600020600091509150505481565b600060346000838560001c1860001b815260200190815260200160002054905092915050565b6000603580549050905090565b603a6020528060005260406000206000915090505481565b60358181548110611b9657fe5b90600052602060002090600c02016000915090508060000160009054906101000a900473ffffffffffffffffffffffffffffffffffffffff1690806001018054600181600116156101000203166002900480601f016020809104026020016040519081016040528092919081815260200182805460018160011615610100020316600290048015611c685780601f10611c3d57610100808354040283529160200191611c68565b820191906000526020600020905b815481529060010190602001808311611c4b57829003601f168201915b5050505050908060020160009054906101000a900473ffffffffffffffffffffffffffffffffffffffff16908060030160009054906101000a900473ffffffffffffffffffffffffffffffffffffffff169080600401549080600501549080600601549080600701549080600801549080600901549080600a01549080600b015490508c565b603360009054906101000a900473ffffffffffffffffffffffffffffffffffffffff1673ffffffffffffffffffffffffffffffffffffffff163373ffffffffffffffffffffffffffffffffffffffff1614611d4857600080fd5b611d708273ffffffffffffffffffffffffffffffffffffffff168460001c1860001b826121c2565b505050565b600080603460007f45414e46543a3a44697361626c654572633732310000000000000000000000008152602001908152602001600020541415905090565b603360009054906101000a900473ffffffffffffffffffffffffffffffffffffffff1673ffffffffffffffffffffffffffffffffffffffff163373ffffffffffffffffffffffffffffffffffffffff1614611e0d57600080fd5b611e16816138ff565b50565b600060019054906101000a900460ff1680611e385750611e376139f9565b5b80611e4e575060008054906101000a900460ff16155b611e8d576040517f08c379a0000000000000000000000000000000000000000000000000000000008152600401611e84906156e8565b60405180910390fd5b60008060019054906101000a900460ff161590508015611edd576001600060016101000a81548160ff02191690831515021790555060016000806101000a81548160ff0219169083151502179055505b611ee682613a10565b6001603f81905550662386f26fc10000603460007f45414e46543a3a5478466565526174696f000000000000000000000000000000815260200190815260200160002081905550670de0b6b3a7640000603460007f45414e46543a3a4d696e56616c75654f66426f74486f6c64657200000000000081526020019081526020016000208190555073a9b1eb5908cfc3cdf91f9b8b3a7410859800909673ffffffffffffffffffffffffffffffffffffffff16603460007f45414e46543a3a426f74546f6b656e00000000000000000000000000000000008152602001908152602001600020819055508015611ff05760008060016101000a81548160ff0219169083151502179055505b5050565b60376020528060005260406000206000915054906101000a900460ff1681565b6000603460007f45414e46543a3a426f74546f6b656e0000000000000000000000000000000000815260200190815260200160002054905090565b603d6020528160005260406000206020528060005260406000206000915091509054906101000a900460ff1681565b603360009054906101000a900473ffffffffffffffffffffffffffffffffffffffff1673ffffffffffffffffffffffffffffffffffffffff163373ffffffffffffffffffffffffffffffffffffffff16146120d857600080fd5b6120ea828460001c1860001b826121c2565b505050565b60366020528060005260406000206000915054906101000a900460ff1681565b600063f23a6e6160e01b90509695505050505050565b60386020528060005260406000206000915054906101000a900473ffffffffffffffffffffffffffffffffffffffff1681565b612160610b32565b156121a0576040517f08c379a0000000000000000000000000000000000000000000000000000000008152600401612197906156a8565b60405180910390fd5b6121b58b8b8b8b8b8b8b8b8b8b8b6001612914565b5050505050505050505050565b806034600084815260200190815260200160002054146121f5578060346000848152602001908152602001600020819055505b5050565b60008273ffffffffffffffffffffffffffffffffffffffff166035838154811061221f57fe5b90600052602060002090600c020160000160009054906101000a900473ffffffffffffffffffffffffffffffffffffffff1673ffffffffffffffffffffffffffffffffffffffff161415612276576001905061227b565b600090505b92915050565b6036600082815260200190815260200160002060009054906101000a900460ff16156122e2576040517f08c379a00000000000000000000000000000000000000000000000000000000081526004016122d9906155a8565b60405180910390fd5b60016036600083815260200190815260200160002060006101000a81548160ff021916908315150217905550612316613f34565b6035828154811061232357fe5b90600052602060002090600c0201604051806101800160405290816000820160009054906101000a900473ffffffffffffffffffffffffffffffffffffffff1673ffffffffffffffffffffffffffffffffffffffff1673ffffffffffffffffffffffffffffffffffffffff168152602001600182018054600181600116156101000203166002900480601f01602080910402602001604051908101604052809291908181526020018280546001816001161561010002031660029004801561242c5780601f106124015761010080835404028352916020019161242c565b820191906000526020600020905b81548152906001019060200180831161240f57829003601f168201915b505050505081526020016002820160009054906101000a900473ffffffffffffffffffffffffffffffffffffffff1673ffffffffffffffffffffffffffffffffffffffff1673ffffffffffffffffffffffffffffffffffffffff1681526020016003820160009054906101000a900473ffffffffffffffffffffffffffffffffffffffff1673ffffffffffffffffffffffffffffffffffffffff1673ffffffffffffffffffffffffffffffffffffffff168152602001600482015481526020016005820154815260200160068201548152602001600782015481526020016008820154815260200160098201548152602001600a8201548152602001600b820154815250509050600060396000848152602001908152602001600020549050600073ffffffffffffffffffffffffffffffffffffffff166038600085815260200190815260200160002060009054906101000a900473ffffffffffffffffffffffffffffffffffffffff1673ffffffffffffffffffffffffffffffffffffffff16141580156125ce5750603a6000848152602001908152602001600020548110155b1561274857600073ffffffffffffffffffffffffffffffffffffffff16826060015173ffffffffffffffffffffffffffffffffffffffff1614156126b7576000612642670de0b6b3a76400006126346126256109b5565b85613bb790919063ffffffff16565b613c2790919063ffffffff16565b905060006126598284613c7190919063ffffffff16565b905060008111156126b057836000015173ffffffffffffffffffffffffffffffffffffffff166108fc829081150290604051600060405180830381858888f193505050501580156126ae573d6000803e3d6000fd5b505b50506126eb565b6126ea826000015182846060015173ffffffffffffffffffffffffffffffffffffffff166131479092919063ffffffff16565b5b828473ffffffffffffffffffffffffffffffffffffffff167f451cdf527db4a5b895db1edd4a06b9310f85433bb63224af34c92ff9c2b0fda2846080015160008560405161273b93929190615905565b60405180910390a361290e565b6000826101600151141561282f57816040015173ffffffffffffffffffffffffffffffffffffffff166342842e0e30846000015185608001516040518463ffffffff1660e01b815260040161279f93929190615389565b600060405180830381600087803b1580156127b957600080fd5b505af11580156127cd573d6000803e3d6000fd5b50505050828473ffffffffffffffffffffffffffffffffffffffff167f451cdf527db4a5b895db1edd4a06b9310f85433bb63224af34c92ff9c2b0fda28460800151600160006040516128229392919061593c565b60405180910390a361290d565b816040015173ffffffffffffffffffffffffffffffffffffffff1663f242432a30846000015185608001518660a001516040518563ffffffff1660e01b815260040161287e94939291906153c0565b600060405180830381600087803b15801561289857600080fd5b505af11580156128ac573d6000803e3d6000fd5b50505050828473ffffffffffffffffffffffffffffffffffffffff167f451cdf527db4a5b895db1edd4a06b9310f85433bb63224af34c92ff9c2b0fda284608001518560a00151600060405161290493929190615973565b60405180910390a35b5b50505050565b6000339050600089141561295d576040517f08c379a000000000000000000000000000000000000000000000000000000000815260040161295490615828565b60405180910390fd5b868510156129a0576040517f08c379a000000000000000000000000000000000000000000000000000000000815260040161299790615568565b60405180910390fd5b6129b386866138aa90919063ffffffff16565b88116129f4576040517f08c379a00000000000000000000000000000000000000000000000000000000081526004016129eb90615748565b60405180910390fd5b6000861415612a38576040517f08c379a0000000000000000000000000000000000000000000000000000000008152600401612a2f90615788565b60405180910390fd5b6000841415612a7c576040517f08c379a0000000000000000000000000000000000000000000000000000000008152600401612a7390615708565b60405180910390fd5b60208d511115612ac1576040517f08c379a0000000000000000000000000000000000000000000000000000000008152600401612ab890615668565b60405180910390fd5b6000821415612b3e578b73ffffffffffffffffffffffffffffffffffffffff166342842e0e82308d6040518463ffffffff1660e01b8152600401612b0793929190615210565b600060405180830381600087803b158015612b2157600080fd5b505af1158015612b35573d6000803e3d6000fd5b50505050612bb0565b8b73ffffffffffffffffffffffffffffffffffffffff1663f242432a82308d8d6040518563ffffffff1660e01b8152600401612b7d9493929190615247565b600060405180830381600087803b158015612b9757600080fd5b505af1158015612bab573d6000803e3d6000fd5b505050505b612bb8613f34565b81816000019073ffffffffffffffffffffffffffffffffffffffff16908173ffffffffffffffffffffffffffffffffffffffff16815250508d81602001819052508c816040019073ffffffffffffffffffffffffffffffffffffffff16908173ffffffffffffffffffffffffffffffffffffffff16815250508b816060019073ffffffffffffffffffffffffffffffffffffffff16908173ffffffffffffffffffffffffffffffffffffffff16815250508a816080018181525050898160a0018181525050888160c0018181525050878160e001818152505086816101000181815250508481610120018181525050612cba85426138aa90919063ffffffff16565b8161014001818152505082816101600181815250506000603580549050905086603a6000838152602001908152602001600020819055506001603b60003373ffffffffffffffffffffffffffffffffffffffff1673ffffffffffffffffffffffffffffffffffffffff168152602001908152602001600020600083815260200190815260200160002060006101000a81548160ff0219169083151502179055508415612d8c57846037600083815260200190815260200160002060006101000a81548160ff0219169083151502179055505b60358290806001815401808255809150506001900390600052602060002090600c020160009091909190915060008201518160000160006101000a81548173ffffffffffffffffffffffffffffffffffffffff021916908373ffffffffffffffffffffffffffffffffffffffff1602179055506020820151816001019080519060200190612e1b929190613fd7565b5060408201518160020160006101000a81548173ffffffffffffffffffffffffffffffffffffffff021916908373ffffffffffffffffffffffffffffffffffffffff16021790555060608201518160030160006101000a81548173ffffffffffffffffffffffffffffffffffffffff021916908373ffffffffffffffffffffffffffffffffffffffff1602179055506080820151816004015560a0820151816005015560c0820151816006015560e082015181600701556101008201518160080155610120820151816009015561014082015181600a015561016082015181600b01555050803373ffffffffffffffffffffffffffffffffffffffff167fc978750b381f51a44d9ad6df542713237e070cbb43aeb40f0eb280afbb9cbeb684604051612f4791906158c8565b60405180910390a3505050505050505050505050505050565b612fe3846323b872dd60e01b858585604051602401612f8193929190615418565b604051602081830303815290604052907bffffffffffffffffffffffffffffffffffffffffffffffffffffffff19166020820180517bffffffffffffffffffffffffffffffffffffffffffffffffffffffff8381831617835250505050613cbb565b50505050565b6000811480613082575060008373ffffffffffffffffffffffffffffffffffffffff1663dd62ed3e30856040518363ffffffff1660e01b8152600401613030929190615360565b60206040518083038186803b15801561304857600080fd5b505afa15801561305c573d6000803e3d6000fd5b505050506040513d601f19601f820116820180604052508101906130809190614693565b145b6130c1576040517f08c379a00000000000000000000000000000000000000000000000000000000081526004016130b890615848565b60405180910390fd5b6131428363095ea7b360e01b84846040516024016130e09291906154a7565b604051602081830303815290604052907bffffffffffffffffffffffffffffffffffffffffffffffffffffffff19166020820180517bffffffffffffffffffffffffffffffffffffffffffffffffffffffff8381831617835250505050613cbb565b505050565b6131c88363a9059cbb60e01b84846040516024016131669291906154a7565b604051602081830303815290604052907bffffffffffffffffffffffffffffffffffffffffffffffffffffffff19166020820180517bffffffffffffffffffffffffffffffffffffffffffffffffffffffff8381831617835250505050613cbb565b505050565b8173ffffffffffffffffffffffffffffffffffffffff166038600083815260200190815260200160002060009054906101000a900473ffffffffffffffffffffffffffffffffffffffff1673ffffffffffffffffffffffffffffffffffffffff161461326e576040517f08c379a000000000000000000000000000000000000000000000000000000000815260040161326590615868565b60405180910390fd5b603d60008373ffffffffffffffffffffffffffffffffffffffff1673ffffffffffffffffffffffffffffffffffffffff168152602001908152602001600020600082815260200190815260200160002060009054906101000a900460ff161561330c576040517f08c379a000000000000000000000000000000000000000000000000000000000815260040161330390615628565b60405180910390fd5b6001603d60008473ffffffffffffffffffffffffffffffffffffffff1673ffffffffffffffffffffffffffffffffffffffff168152602001908152602001600020600083815260200190815260200160002060006101000a81548160ff021916908315150217905550600060396000838152602001908152602001600020549050613395613f34565b603583815481106133a257fe5b90600052602060002090600c0201604051806101800160405290816000820160009054906101000a900473ffffffffffffffffffffffffffffffffffffffff1673ffffffffffffffffffffffffffffffffffffffff1673ffffffffffffffffffffffffffffffffffffffff168152602001600182018054600181600116156101000203166002900480601f0160208091040260200160405190810160405280929190818152602001828054600181600116156101000203166002900480156134ab5780601f10613480576101008083540402835291602001916134ab565b820191906000526020600020905b81548152906001019060200180831161348e57829003601f168201915b505050505081526020016002820160009054906101000a900473ffffffffffffffffffffffffffffffffffffffff1673ffffffffffffffffffffffffffffffffffffffff1673ffffffffffffffffffffffffffffffffffffffff1681526020016003820160009054906101000a900473ffffffffffffffffffffffffffffffffffffffff1673ffffffffffffffffffffffffffffffffffffffff1673ffffffffffffffffffffffffffffffffffffffff168152602001600482015481526020016005820154815260200160068201548152602001600782015481526020016008820154815260200160098201548152602001600a8201548152602001600b820154815250509050603a600084815260200190815260200160002054821061378e57600081610160015114156136af57806040015173ffffffffffffffffffffffffffffffffffffffff166342842e0e308684608001516040518463ffffffff1660e01b815260040161361f93929190615418565b600060405180830381600087803b15801561363957600080fd5b505af115801561364d573d6000803e3d6000fd5b50505050828473ffffffffffffffffffffffffffffffffffffffff167f521cf108b65b7aefb5d5c7538915e85ff3edafcfb325bfdf72b1a0ea512bf9038360800151600160006040516136a29392919061593c565b60405180910390a3613789565b806040015173ffffffffffffffffffffffffffffffffffffffff1663f242432a308684608001518560a001516040518563ffffffff1660e01b81526004016136fa949392919061544f565b600060405180830381600087803b15801561371457600080fd5b505af1158015613728573d6000803e3d6000fd5b50505050828473ffffffffffffffffffffffffffffffffffffffff167f521cf108b65b7aefb5d5c7538915e85ff3edafcfb325bfdf72b1a0ea512bf90383608001518460a00151600060405161378093929190615973565b60405180910390a35b6138a4565b600073ffffffffffffffffffffffffffffffffffffffff16816060015173ffffffffffffffffffffffffffffffffffffffff16141561381757806000015173ffffffffffffffffffffffffffffffffffffffff166108fc839081150290604051600060405180830381858888f19350505050158015613811573d6000803e3d6000fd5b5061384b565b61384a816000015183836060015173ffffffffffffffffffffffffffffffffffffffff166131479092919063ffffffff16565b5b828473ffffffffffffffffffffffffffffffffffffffff167f521cf108b65b7aefb5d5c7538915e85ff3edafcfb325bfdf72b1a0ea512bf903836080015160008660405161389b93929190615905565b60405180910390a35b50505050565b6000808284019050838110156138f5576040517f08c379a00000000000000000000000000000000000000000000000000000000081526004016138ec90615588565b60405180910390fd5b8091505092915050565b600073ffffffffffffffffffffffffffffffffffffffff168173ffffffffffffffffffffffffffffffffffffffff16141561393957600080fd5b8073ffffffffffffffffffffffffffffffffffffffff16603360009054906101000a900473ffffffffffffffffffffffffffffffffffffffff1673ffffffffffffffffffffffffffffffffffffffff167fc7c0c772add429241571afb3805861fb3cfa2af374534088b76cdb4325a87e9a60405160405180910390a380603360006101000a81548173ffffffffffffffffffffffffffffffffffffffff021916908373ffffffffffffffffffffffffffffffffffffffff16021790555050565b6000803090506000813b9050600081149250505090565b600060019054906101000a900460ff1680613a2f5750613a2e6139f9565b5b80613a45575060008054906101000a900460ff16155b613a84576040517f08c379a0000000000000000000000000000000000000000000000000000000008152600401613a7b906156e8565b60405180910390fd5b60008060019054906101000a900460ff161590508015613ad4576001600060016101000a81548160ff02191690831515021790555060016000806101000a81548160ff0219169083151502179055505b81603360006101000a81548173ffffffffffffffffffffffffffffffffffffffff021916908373ffffffffffffffffffffffffffffffffffffffff160217905550603360009054906101000a900473ffffffffffffffffffffffffffffffffffffffff1673ffffffffffffffffffffffffffffffffffffffff16600073ffffffffffffffffffffffffffffffffffffffff167fc7c0c772add429241571afb3805861fb3cfa2af374534088b76cdb4325a87e9a60405160405180910390a38015613bb35760008060016101000a81548160ff0219169083151502179055505b5050565b600080831415613bca5760009050613c21565b6000828402905082848281613bdb57fe5b0414613c1c576040517f08c379a0000000000000000000000000000000000000000000000000000000008152600401613c1390615688565b60405180910390fd5b809150505b92915050565b6000613c6983836040518060400160405280601a81526020017f536166654d6174683a206469766973696f6e206279207a65726f000000000000815250613e2d565b905092915050565b6000613cb383836040518060400160405280601e81526020017f536166654d6174683a207375627472616374696f6e206f766572666c6f770000815250613e8e565b905092915050565b613cda8273ffffffffffffffffffffffffffffffffffffffff16613ee9565b613d19576040517f08c379a0000000000000000000000000000000000000000000000000000000008152600401613d1090615888565b60405180910390fd5b600060608373ffffffffffffffffffffffffffffffffffffffff1683604051613d4291906151a8565b6000604051808303816000865af19150503d8060008114613d7f576040519150601f19603f3d011682016040523d82523d6000602084013e613d84565b606091505b509150915081613dc9576040517f08c379a0000000000000000000000000000000000000000000000000000000008152600401613dc0906155e8565b60405180910390fd5b600081511115613e275780806020019051810190613de79190614307565b613e26576040517f08c379a0000000000000000000000000000000000000000000000000000000008152600401613e1d906157e8565b60405180910390fd5b5b50505050565b60008083118290613e74576040517f08c379a0000000000000000000000000000000000000000000000000000000008152600401613e6b9190615506565b60405180910390fd5b506000838581613e8057fe5b049050809150509392505050565b6000838311158290613ed6576040517f08c379a0000000000000000000000000000000000000000000000000000000008152600401613ecd9190615506565b60405180910390fd5b5060008385039050809150509392505050565b60008060007fc5d2460186f7233c927e7db2dcc703c0e500b653ca82273b7bfad8045d85a47060001b9050833f9150808214158015613f2b57506000801b8214155b92505050919050565b604051806101800160405280600073ffffffffffffffffffffffffffffffffffffffff16815260200160608152602001600073ffffffffffffffffffffffffffffffffffffffff168152602001600073ffffffffffffffffffffffffffffffffffffffff16815260200160008152602001600081526020016000815260200160008152602001600081526020016000815260200160008152602001600081525090565b828054600181600116156101000203166002900490600052602060002090601f016020900481019282601f1061401857805160ff1916838001178555614046565b82800160010185558215614046579182015b8281111561404557825182559160200191906001019061402a565b5b5090506140539190614057565b5090565b5b80821115614070576000816000905550600101614058565b5090565b60008135905061408381615b94565b92915050565b60008135905061409881615bab565b92915050565b6000815190506140ad81615bab565b92915050565b6000813590506140c281615bc2565b92915050565b60008083601f8401126140da57600080fd5b8235905067ffffffffffffffff8111156140f357600080fd5b60208301915083600182028301111561410b57600080fd5b9250929050565b600082601f83011261412357600080fd5b8135614136614131826159d7565b6159aa565b9150808252602083016020830185838301111561415257600080fd5b61415d838284615b41565b50505092915050565b60008135905061417581615bd9565b92915050565b60008151905061418a81615bd9565b92915050565b6000602082840312156141a257600080fd5b60006141b084828501614074565b91505092915050565b6000806000806000608086880312156141d157600080fd5b60006141df88828901614074565b95505060206141f088828901614074565b945050604061420188828901614166565b935050606086013567ffffffffffffffff81111561421e57600080fd5b61422a888289016140c8565b92509250509295509295909350565b60008060008060008060a0878903121561425257600080fd5b600061426089828a01614074565b965050602061427189828a01614074565b955050604061428289828a01614166565b945050606061429389828a01614166565b935050608087013567ffffffffffffffff8111156142b057600080fd5b6142bc89828a016140c8565b92509250509295509295509295565b600080604083850312156142de57600080fd5b60006142ec85828601614074565b92505060206142fd85828601614166565b9150509250929050565b60006020828403121561431957600080fd5b60006143278482850161409e565b91505092915050565b60006020828403121561434257600080fd5b6000614350848285016140b3565b91505092915050565b6000806040838503121561436c57600080fd5b600061437a858286016140b3565b925050602061438b85828601614074565b9150509250929050565b6000806000606084860312156143aa57600080fd5b60006143b8868287016140b3565b93505060206143c986828701614074565b92505060406143da86828701614166565b9150509250925092565b600080604083850312156143f757600080fd5b6000614405858286016140b3565b925050602061441685828601614166565b9150509250929050565b60008060006060848603121561443557600080fd5b6000614443868287016140b3565b935050602061445486828701614166565b925050604061446586828701614166565b9150509250925092565b6000806000806000806000806000806101408b8d03121561448f57600080fd5b60008b013567ffffffffffffffff8111156144a957600080fd5b6144b58d828e01614112565b9a505060206144c68d828e01614074565b99505060406144d78d828e01614074565b98505060606144e88d828e01614166565b97505060806144f98d828e01614166565b96505060a061450a8d828e01614166565b95505060c061451b8d828e01614166565b94505060e061452c8d828e01614166565b93505061010061453e8d828e01614166565b9250506101206145508d828e01614089565b9150509295989b9194979a5092959850565b60008060008060008060008060008060006101608c8e03121561458457600080fd5b60008c013567ffffffffffffffff81111561459e57600080fd5b6145aa8e828f01614112565b9b505060206145bb8e828f01614074565b9a505060406145cc8e828f01614074565b99505060606145dd8e828f01614166565b98505060806145ee8e828f01614166565b97505060a06145ff8e828f01614166565b96505060c06146108e828f01614166565b95505060e06146218e828f01614166565b9450506101006146338e828f01614166565b9350506101206146458e828f01614166565b9250506101406146578e828f01614089565b9150509295989b509295989b9093969950565b60006020828403121561467c57600080fd5b600061468a84828501614166565b91505092915050565b6000602082840312156146a557600080fd5b60006146b38482850161417b565b91505092915050565b600080604083850312156146cf57600080fd5b60006146dd85828601614166565b92505060206146ee85828601614166565b9150509250929050565b61470181615ae7565b82525050565b61471081615a69565b82525050565b61471f81615a69565b82525050565b61472e81615a57565b82525050565b61473d81615a57565b82525050565b61474c81615a7b565b82525050565b61475b81615a91565b82525050565b600061476c82615a03565b6147768185615a2a565b9350614786818560208601615b50565b80840191505092915050565b61479b81615af9565b82525050565b6147aa81615b0b565b82525050565b60006147bb82615a0e565b6147c58185615a35565b93506147d5818560208601615b50565b6147de81615b83565b840191505092915050565b60006147f482615a0e565b6147fe8185615a46565b935061480e818560208601615b50565b61481781615b83565b840191505092915050565b600061482f600f83615a46565b91507f696e76616c696420616d6f756e743100000000000000000000000000000000006000830152602082019050919050565b600061486f601c83615a46565b91507f73656e646572206973206e6f7420706f6f6c27732063726561746f72000000006000830152602082019050919050565b60006148af601683615a46565b91507f696e76616c696420616d6f756e745265736572766531000000000000000000006000830152602082019050919050565b60006148ef601b83615a46565b91507f536166654d6174683a206164646974696f6e206f766572666c6f7700000000006000830152602082019050919050565b600061492f601383615a46565b91507f63726561746f722068617320636c61696d6564000000000000000000000000006000830152602082019050919050565b600061496f601883615a46565b91507f7468697320706f6f6c20646f6573206e6f7420657869737400000000000000006000830152602082019050919050565b60006149af602083615a46565b91507f5361666545524332303a206c6f772d6c6576656c2063616c6c206661696c65646000830152602082019050919050565b60006149ef601383615a46565b91507f7468697320706f6f6c20697320636c6f736564000000000000000000000000006000830152602082019050919050565b6000614a2f601283615a46565b91507f73656e6465722068617320636c61696d656400000000000000000000000000006000830152602082019050919050565b6000614a6f601183615a46565b91507f424f54206973206e6f7420656e6f7567680000000000000000000000000000006000830152602082019050919050565b6000614aaf601e83615a46565b91507f746865206c656e677468206f66206e616d6520697320746f6f206c6f6e6700006000830152602082019050919050565b6000614aef602183615a46565b91507f536166654d6174683a206d756c7469706c69636174696f6e206f766572666c6f60008301527f77000000000000000000000000000000000000000000000000000000000000006020830152604082019050919050565b6000614b55601883615a46565b91507f4552433131353520706f6f6c2069732064697361626c656400000000000000006000830152602082019050919050565b6000614b95602a83615a46565b91507f63726561746f722063616e2774206269642074686520706f6f6c20637265617460008301527f65642062792073656c66000000000000000000000000000000000000000000006020830152604082019050919050565b6000614bfb602e83615a46565b91507f436f6e747261637420696e7374616e63652068617320616c726561647920626560008301527f656e20696e697469616c697a65640000000000000000000000000000000000006020830152604082019050919050565b6000614c61601083615a46565b91507f696e76616c6964206475726174696f6e000000000000000000000000000000006000830152602082019050919050565b6000614ca1603283615a46565b91507f7468652062696420616d6f756e74206973206c6f776572207468616e206d696e60008301527f696d756d2062696464657220616d6f756e7400000000000000000000000000006020830152604082019050919050565b6000614d07600083615a19565b9150600082019050919050565b6000614d21601283615a46565b91507f696e76616c696420616d6f756e744d61783100000000000000000000000000006000830152602082019050919050565b6000614d61601783615a46565b91507f45524337323120706f6f6c2069732064697361626c65640000000000000000006000830152602082019050919050565b6000614da1601683615a46565b91507f696e76616c696420616d6f756e744d696e496e637231000000000000000000006000830152602082019050919050565b6000614de1603683615a46565b91507f7468652062696420616d6f756e74206973206c6f776572207468616e2074686560008301527f2063757272656e742062696464657220616d6f756e74000000000000000000006020830152604082019050919050565b6000614e47601283615a46565b91507f696e76616c69642045544820616d6f756e7400000000000000000000000000006000830152602082019050919050565b6000614e87602a83615a46565b91507f5361666545524332303a204552433230206f7065726174696f6e20646964206e60008301527f6f742073756363656564000000000000000000000000000000000000000000006020830152604082019050919050565b6000614eed600683615a46565b91507f4c4f434b454400000000000000000000000000000000000000000000000000006000830152602082019050919050565b6000614f2d601483615a46565b91507f696e76616c696420746f6b656e416d6f756e74300000000000000000000000006000830152602082019050919050565b6000614f6d603683615a46565b91507f5361666545524332303a20617070726f76652066726f6d206e6f6e2d7a65726f60008301527f20746f206e6f6e2d7a65726f20616c6c6f77616e6365000000000000000000006020830152604082019050919050565b6000614fd3601483615a46565b91507f73656e646572206973206e6f742077696e6e65720000000000000000000000006000830152602082019050919050565b6000615013601f83615a46565b91507f5361666545524332303a2063616c6c20746f206e6f6e2d636f6e7472616374006000830152602082019050919050565b6000615053601783615a46565b91507f7468697320706f6f6c206973206e6f7420636c6f7365640000000000000000006000830152602082019050919050565b60006101808301600083015161509f6000860182614707565b50602083015184820360208601526150b782826147b0565b91505060408301516150cc6040860182614725565b5060608301516150df6060860182614725565b5060808301516150f2608086018261518a565b5060a083015161510560a086018261518a565b5060c083015161511860c086018261518a565b5060e083015161512b60e086018261518a565b5061010083015161514061010086018261518a565b5061012083015161515561012086018261518a565b5061014083015161516a61014086018261518a565b5061016083015161517f61016086018261518a565b508091505092915050565b61519381615add565b82525050565b6151a281615add565b82525050565b60006151b48284614761565b915081905092915050565b60006020820190506151d46000830184614734565b92915050565b60006020820190506151ef60008301846146f8565b92915050565b600060208201905061520a6000830184614716565b92915050565b600060608201905061522560008301866146f8565b6152326020830185614734565b61523f6040830184615199565b949350505050565b600060a08201905061525c60008301876146f8565b6152696020830186614734565b6152766040830185615199565b6152836060830184615199565b818103608083015261529481614cfa565b905095945050505050565b6000610180820190506152b5600083018f614716565b81810360208301526152c7818e6147e9565b90506152d6604083018d614734565b6152e3606083018c614734565b6152f0608083018b615199565b6152fd60a083018a615199565b61530a60c0830189615199565b61531760e0830188615199565b615325610100830187615199565b615333610120830186615199565b615341610140830185615199565b61534f610160830184615199565b9d9c50505050505050505050505050565b60006040820190506153756000830185614734565b6153826020830184614734565b9392505050565b600060608201905061539e6000830186614734565b6153ab60208301856146f8565b6153b86040830184615199565b949350505050565b600060a0820190506153d56000830187614734565b6153e260208301866146f8565b6153ef6040830185615199565b6153fc6060830184615199565b818103608083015261540d81614cfa565b905095945050505050565b600060608201905061542d6000830186614734565b61543a6020830185614734565b6154476040830184615199565b949350505050565b600060a0820190506154646000830187614734565b6154716020830186614734565b61547e6040830185615199565b61548b6060830184615199565b818103608083015261549c81614cfa565b905095945050505050565b60006040820190506154bc6000830185614734565b6154c96020830184615199565b9392505050565b60006020820190506154e56000830184614743565b92915050565b60006020820190506155006000830184614752565b92915050565b6000602082019050818103600083015261552081846147e9565b905092915050565b6000602082019050818103600083015261554181614822565b9050919050565b6000602082019050818103600083015261556181614862565b9050919050565b60006020820190508181036000830152615581816148a2565b9050919050565b600060208201905081810360008301526155a1816148e2565b9050919050565b600060208201905081810360008301526155c181614922565b9050919050565b600060208201905081810360008301526155e181614962565b9050919050565b60006020820190508181036000830152615601816149a2565b9050919050565b60006020820190508181036000830152615621816149e2565b9050919050565b6000602082019050818103600083015261564181614a22565b9050919050565b6000602082019050818103600083015261566181614a62565b9050919050565b6000602082019050818103600083015261568181614aa2565b9050919050565b600060208201905081810360008301526156a181614ae2565b9050919050565b600060208201905081810360008301526156c181614b48565b9050919050565b600060208201905081810360008301526156e181614b88565b9050919050565b6000602082019050818103600083015261570181614bee565b9050919050565b6000602082019050818103600083015261572181614c54565b9050919050565b6000602082019050818103600083015261574181614c94565b9050919050565b6000602082019050818103600083015261576181614d14565b9050919050565b6000602082019050818103600083015261578181614d54565b9050919050565b600060208201905081810360008301526157a181614d94565b9050919050565b600060208201905081810360008301526157c181614dd4565b9050919050565b600060208201905081810360008301526157e181614e3a565b9050919050565b6000602082019050818103600083015261580181614e7a565b9050919050565b6000602082019050818103600083015261582181614ee0565b9050919050565b6000602082019050818103600083015261584181614f20565b9050919050565b6000602082019050818103600083015261586181614f60565b9050919050565b6000602082019050818103600083015261588181614fc6565b9050919050565b600060208201905081810360008301526158a181615006565b9050919050565b600060208201905081810360008301526158c181615046565b9050919050565b600060208201905081810360008301526158e28184615086565b905092915050565b60006020820190506158ff6000830184615199565b92915050565b600060608201905061591a6000830186615199565b6159276020830185614792565b6159346040830184615199565b949350505050565b60006060820190506159516000830186615199565b61595e60208301856147a1565b61596b6040830184614792565b949350505050565b60006060820190506159886000830186615199565b6159956020830185615199565b6159a26040830184614792565b949350505050565b6000604051905081810181811067ffffffffffffffff821117156159cd57600080fd5b8060405250919050565b600067ffffffffffffffff8211156159ee57600080fd5b601f19601f8301169050602081019050919050565b600081519050919050565b600081519050919050565b600082825260208201905092915050565b600081905092915050565b600082825260208201905092915050565b600082825260208201905092915050565b6000615a6282615abd565b9050919050565b6000615a7482615abd565b9050919050565b60008115159050919050565b6000819050919050565b60007fffffffff0000000000000000000000000000000000000000000000000000000082169050919050565b600073ffffffffffffffffffffffffffffffffffffffff82169050919050565b6000819050919050565b6000615af282615b1d565b9050919050565b6000615b0482615add565b9050919050565b6000615b1682615add565b9050919050565b6000615b2882615b2f565b9050919050565b6000615b3a82615abd565b9050919050565b82818337600083830152505050565b60005b83811015615b6e578082015181840152602081019050615b53565b83811115615b7d576000848401525b50505050565b6000601f19601f8301169050919050565b615b9d81615a57565b8114615ba857600080fd5b50565b615bb481615a7b565b8114615bbf57600080fd5b50565b615bcb81615a87565b8114615bd657600080fd5b50565b615be281615add565b8114615bed57600080fd5b5056fea26469706673582212206e2b52bfbcf722653d4e48bb82ea9568b1d2a546ddca62573611d0aa18fd769c64736f6c634300060c0033",
  "compiler": {
    "name": "solc",
    "version": "0.6.12+commit.27d51765.Emscripten.clang",
    "optimizer": {
      "enabled": false,
      "runs": 200
    },
    "evmVersion": "petersburg"
  }
}