{
  "fileName": "BounceERC1155V2.sol",
  "contractName": "BounceERC1155V2",
  "source": "// SPDX-License-Identifier: MIT\n\npragma solidity ^0.6.0;\n\nimport \"@openzeppelin/contracts/token/ERC1155/ERC1155.sol\";\nimport \"./Access.sol\";\n\ncontract BounceERC1155V2 is ERC1155, Access {\n    constructor(string memory uri, Mode mode_) ERC1155(uri) Access(mode_) public {}\n\n    // tokenid => creator address\n    mapping(uint256 => address) public creator;\n\n    function setURI(string memory uri) external onlyOwner {\n        super._setURI(uri);\n    }\n\n    function mint(address account, uint256 id, uint256 amount, bytes memory data) external checkRole {\n        super._mint(account, id, amount, data);\n        creator[id] = account;\n    }\n\n    function burn(address account, uint256 id, uint256 amount) external checkRole {\n        super._burn(account, id, amount);\n        creator[id] = address(0);\n    }\n\n    function batchMint(address to, uint256 fromId, uint256 toId, uint256 amount, bytes memory data) external checkRole {\n        for (uint256 id = fromId; id <= toId; id++) {\n            super._mint(to, id, amount, data);\n            creator[id] = to;\n        }\n    }\n}\n",
  "sourcePath": "contracts/BounceERC1155V2.sol",
  "abi": [
    {
      "inputs": [
        {
          "internalType": "string",
          "name": "uri",
          "type": "string"
        },
        {
          "internalType": "enum Access.Mode",
          "name": "mode_",
          "type": "uint8"
        }
      ],
      "stateMutability": "nonpayable",
      "type": "constructor"
    },
    {
      "anonymous": false,
      "inputs": [
        {
          "indexed": true,
          "internalType": "address",
          "name": "account",
          "type": "address"
        },
        {
          "indexed": true,
          "internalType": "address",
          "name": "operator",
          "type": "address"
        },
        {
          "indexed": false,
          "internalType": "bool",
          "name": "approved",
          "type": "bool"
        }
      ],
      "name": "ApprovalForAll",
      "type": "event"
    },
    {
      "anonymous": false,
      "inputs": [
        {
          "indexed": true,
          "internalType": "bytes32",
          "name": "role",
          "type": "bytes32"
        },
        {
          "indexed": true,
          "internalType": "bytes32",
          "name": "previousAdminRole",
          "type": "bytes32"
        },
        {
          "indexed": true,
          "internalType": "bytes32",
          "name": "newAdminRole",
          "type": "bytes32"
        }
      ],
      "name": "RoleAdminChanged",
      "type": "event"
    },
    {
      "anonymous": false,
      "inputs": [
        {
          "indexed": true,
          "internalType": "bytes32",
          "name": "role",
          "type": "bytes32"
        },
        {
          "indexed": true,
          "internalType": "address",
          "name": "account",
          "type": "address"
        },
        {
          "indexed": true,
          "internalType": "address",
          "name": "sender",
          "type": "address"
        }
      ],
      "name": "RoleGranted",
      "type": "event"
    },
    {
      "anonymous": false,
      "inputs": [
        {
          "indexed": true,
          "internalType": "bytes32",
          "name": "role",
          "type": "bytes32"
        },
        {
          "indexed": true,
          "internalType": "address",
          "name": "account",
          "type": "address"
        },
        {
          "indexed": true,
          "internalType": "address",
          "name": "sender",
          "type": "address"
        }
      ],
      "name": "RoleRevoked",
      "type": "event"
    },
    {
      "anonymous": false,
      "inputs": [
        {
          "indexed": true,
          "internalType": "address",
          "name": "operator",
          "type": "address"
        },
        {
          "indexed": true,
          "internalType": "address",
          "name": "from",
          "type": "address"
        },
        {
          "indexed": true,
          "internalType": "address",
          "name": "to",
          "type": "address"
        },
        {
          "indexed": false,
          "internalType": "uint256[]",
          "name": "ids",
          "type": "uint256[]"
        },
        {
          "indexed": false,
          "internalType": "uint256[]",
          "name": "values",
          "type": "uint256[]"
        }
      ],
      "name": "TransferBatch",
      "type": "event"
    },
    {
      "anonymous": false,
      "inputs": [
        {
          "indexed": true,
          "internalType": "address",
          "name": "operator",
          "type": "address"
        },
        {
          "indexed": true,
          "internalType": "address",
          "name": "from",
          "type": "address"
        },
        {
          "indexed": true,
          "internalType": "address",
          "name": "to",
          "type": "address"
        },
        {
          "indexed": false,
          "internalType": "uint256",
          "name": "id",
          "type": "uint256"
        },
        {
          "indexed": false,
          "internalType": "uint256",
          "name": "value",
          "type": "uint256"
        }
      ],
      "name": "TransferSingle",
      "type": "event"
    },
    {
      "anonymous": false,
      "inputs": [
        {
          "indexed": false,
          "internalType": "string",
          "name": "value",
          "type": "string"
        },
        {
          "indexed": true,
          "internalType": "uint256",
          "name": "id",
          "type": "uint256"
        }
      ],
      "name": "URI",
      "type": "event"
    },
    {
      "inputs": [],
      "name": "DEFAULT_ADMIN_ROLE",
      "outputs": [
        {
          "internalType": "bytes32",
          "name": "",
          "type": "bytes32"
        }
      ],
      "stateMutability": "view",
      "type": "function"
    },
    {
      "inputs": [
        {
          "internalType": "address",
          "name": "account",
          "type": "address"
        },
        {
          "internalType": "uint256",
          "name": "id",
          "type": "uint256"
        }
      ],
      "name": "balanceOf",
      "outputs": [
        {
          "internalType": "uint256",
          "name": "",
          "type": "uint256"
        }
      ],
      "stateMutability": "view",
      "type": "function"
    },
    {
      "inputs": [
        {
          "internalType": "address[]",
          "name": "accounts",
          "type": "address[]"
        },
        {
          "internalType": "uint256[]",
          "name": "ids",
          "type": "uint256[]"
        }
      ],
      "name": "balanceOfBatch",
      "outputs": [
        {
          "internalType": "uint256[]",
          "name": "",
          "type": "uint256[]"
        }
      ],
      "stateMutability": "view",
      "type": "function"
    },
    {
      "inputs": [
        {
          "internalType": "address",
          "name": "to",
          "type": "address"
        },
        {
          "internalType": "uint256",
          "name": "fromId",
          "type": "uint256"
        },
        {
          "internalType": "uint256",
          "name": "toId",
          "type": "uint256"
        },
        {
          "internalType": "uint256",
          "name": "amount",
          "type": "uint256"
        },
        {
          "internalType": "bytes",
          "name": "data",
          "type": "bytes"
        }
      ],
      "name": "batchMint",
      "outputs": [],
      "stateMutability": "nonpayable",
      "type": "function"
    },
    {
      "inputs": [
        {
          "internalType": "address",
          "name": "account",
          "type": "address"
        },
        {
          "internalType": "uint256",
          "name": "id",
          "type": "uint256"
        },
        {
          "internalType": "uint256",
          "name": "amount",
          "type": "uint256"
        }
      ],
      "name": "burn",
      "outputs": [],
      "stateMutability": "nonpayable",
      "type": "function"
    },
    {
      "inputs": [
        {
          "internalType": "enum Access.Mode",
          "name": "mode_",
          "type": "uint8"
        }
      ],
      "name": "changeMode",
      "outputs": [],
      "stateMutability": "nonpayable",
      "type": "function"
    },
    {
      "inputs": [
        {
          "internalType": "uint256",
          "name": "",
          "type": "uint256"
        }
      ],
      "name": "creator",
      "outputs": [
        {
          "internalType": "address",
          "name": "",
          "type": "address"
        }
      ],
      "stateMutability": "view",
      "type": "function"
    },
    {
      "inputs": [
        {
          "internalType": "bytes32",
          "name": "role",
          "type": "bytes32"
        }
      ],
      "name": "getRoleAdmin",
      "outputs": [
        {
          "internalType": "bytes32",
          "name": "",
          "type": "bytes32"
        }
      ],
      "stateMutability": "view",
      "type": "function"
    },
    {
      "inputs": [
        {
          "internalType": "bytes32",
          "name": "role",
          "type": "bytes32"
        },
        {
          "internalType": "uint256",
          "name": "index",
          "type": "uint256"
        }
      ],
      "name": "getRoleMember",
      "outputs": [
        {
          "internalType": "address",
          "name": "",
          "type": "address"
        }
      ],
      "stateMutability": "view",
      "type": "function"
    },
    {
      "inputs": [
        {
          "internalType": "bytes32",
          "name": "role",
          "type": "bytes32"
        }
      ],
      "name": "getRoleMemberCount",
      "outputs": [
        {
          "internalType": "uint256",
          "name": "",
          "type": "uint256"
        }
      ],
      "stateMutability": "view",
      "type": "function"
    },
    {
      "inputs": [
        {
          "internalType": "bytes32",
          "name": "role",
          "type": "bytes32"
        },
        {
          "internalType": "address",
          "name": "account",
          "type": "address"
        }
      ],
      "name": "grantRole",
      "outputs": [],
      "stateMutability": "nonpayable",
      "type": "function"
    },
    {
      "inputs": [
        {
          "internalType": "address",
          "name": "target",
          "type": "address"
        }
      ],
      "name": "grantRoleWhitelist",
      "outputs": [],
      "stateMutability": "nonpayable",
      "type": "function"
    },
    {
      "inputs": [
        {
          "internalType": "bytes32",
          "name": "role",
          "type": "bytes32"
        },
        {
          "internalType": "address",
          "name": "account",
          "type": "address"
        }
      ],
      "name": "hasRole",
      "outputs": [
        {
          "internalType": "bool",
          "name": "",
          "type": "bool"
        }
      ],
      "stateMutability": "view",
      "type": "function"
    },
    {
      "inputs": [
        {
          "internalType": "address",
          "name": "account",
          "type": "address"
        },
        {
          "internalType": "address",
          "name": "operator",
          "type": "address"
        }
      ],
      "name": "isApprovedForAll",
      "outputs": [
        {
          "internalType": "bool",
          "name": "",
          "type": "bool"
        }
      ],
      "stateMutability": "view",
      "type": "function"
    },
    {
      "inputs": [
        {
          "internalType": "address",
          "name": "account",
          "type": "address"
        },
        {
          "internalType": "uint256",
          "name": "id",
          "type": "uint256"
        },
        {
          "internalType": "uint256",
          "name": "amount",
          "type": "uint256"
        },
        {
          "internalType": "bytes",
          "name": "data",
          "type": "bytes"
        }
      ],
      "name": "mint",
      "outputs": [],
      "stateMutability": "nonpayable",
      "type": "function"
    },
    {
      "inputs": [],
      "name": "mode",
      "outputs": [
        {
          "internalType": "enum Access.Mode",
          "name": "",
          "type": "uint8"
        }
      ],
      "stateMutability": "view",
      "type": "function"
    },
    {
      "inputs": [
        {
          "internalType": "bytes32",
          "name": "role",
          "type": "bytes32"
        },
        {
          "internalType": "address",
          "name": "account",
          "type": "address"
        }
      ],
      "name": "renounceRole",
      "outputs": [],
      "stateMutability": "nonpayable",
      "type": "function"
    },
    {
      "inputs": [
        {
          "internalType": "bytes32",
          "name": "role",
          "type": "bytes32"
        },
        {
          "internalType": "address",
          "name": "account",
          "type": "address"
        }
      ],
      "name": "revokeRole",
      "outputs": [],
      "stateMutability": "nonpayable",
      "type": "function"
    },
    {
      "inputs": [
        {
          "internalType": "address",
          "name": "target",
          "type": "address"
        }
      ],
      "name": "revokeRoleWhitelist",
      "outputs": [],
      "stateMutability": "nonpayable",
      "type": "function"
    },
    {
      "inputs": [
        {
          "internalType": "address",
          "name": "from",
          "type": "address"
        },
        {
          "internalType": "address",
          "name": "to",
          "type": "address"
        },
        {
          "internalType": "uint256[]",
          "name": "ids",
          "type": "uint256[]"
        },
        {
          "internalType": "uint256[]",
          "name": "amounts",
          "type": "uint256[]"
        },
        {
          "internalType": "bytes",
          "name": "data",
          "type": "bytes"
        }
      ],
      "name": "safeBatchTransferFrom",
      "outputs": [],
      "stateMutability": "nonpayable",
      "type": "function"
    },
    {
      "inputs": [
        {
          "internalType": "address",
          "name": "from",
          "type": "address"
        },
        {
          "internalType": "address",
          "name": "to",
          "type": "address"
        },
        {
          "internalType": "uint256",
          "name": "id",
          "type": "uint256"
        },
        {
          "internalType": "uint256",
          "name": "amount",
          "type": "uint256"
        },
        {
          "internalType": "bytes",
          "name": "data",
          "type": "bytes"
        }
      ],
      "name": "safeTransferFrom",
      "outputs": [],
      "stateMutability": "nonpayable",
      "type": "function"
    },
    {
      "inputs": [
        {
          "internalType": "address",
          "name": "operator",
          "type": "address"
        },
        {
          "internalType": "bool",
          "name": "approved",
          "type": "bool"
        }
      ],
      "name": "setApprovalForAll",
      "outputs": [],
      "stateMutability": "nonpayable",
      "type": "function"
    },
    {
      "inputs": [
        {
          "internalType": "string",
          "name": "uri",
          "type": "string"
        }
      ],
      "name": "setURI",
      "outputs": [],
      "stateMutability": "nonpayable",
      "type": "function"
    },
    {
      "inputs": [
        {
          "internalType": "bytes4",
          "name": "interfaceId",
          "type": "bytes4"
        }
      ],
      "name": "supportsInterface",
      "outputs": [
        {
          "internalType": "bool",
          "name": "",
          "type": "bool"
        }
      ],
      "stateMutability": "view",
      "type": "function"
    },
    {
      "inputs": [
        {
          "internalType": "address",
          "name": "target",
          "type": "address"
        }
      ],
      "name": "transferOwnership",
      "outputs": [],
      "stateMutability": "nonpayable",
      "type": "function"
    },
    {
      "inputs": [
        {
          "internalType": "uint256",
          "name": "",
          "type": "uint256"
        }
      ],
      "name": "uri",
      "outputs": [
        {
          "internalType": "string",
          "name": "",
          "type": "string"
        }
      ],
      "stateMutability": "view",
      "type": "function"
    }
  ],
  "bytecode": "0x60806040523480156200001157600080fd5b506040516200316638038062003166833981810160405260408110156200003757600080fd5b81019080805160405193929190846401000000008211156200005857600080fd5b9083019060208201858111156200006e57600080fd5b82516401000000008111828201881017156200008957600080fd5b82525081516020918201929091019080838360005b83811015620000b85781810151838201526020016200009e565b50505050905090810190601f168015620000e65780820380516001836020036101000a031916815260200191505b50604052602001519150819050826200011f7f01ffc9a700000000000000000000000000000000000000000000000000000000620002f5565b6200012a81620003c4565b620001557fd9b67a2600000000000000000000000000000000000000000000000000000000620002f5565b620001807f0e89341c00000000000000000000000000000000000000000000000000000000620002f5565b506005805482919060ff191660018360028111156200019b57fe5b0217905550620001f77f524f4c453a4f574e4552000000000000000000000000000000000000000000007f524f4c453a41444d494e00000000000000000000000000000000000000000000620003dd60201b62001c221760201c565b6200024e7f524f4c453a57484954454c4953540000000000000000000000000000000000007f524f4c453a4f574e455200000000000000000000000000000000000000000000620003dd60201b62001c221760201c565b6200028e7f524f4c453a41444d494e000000000000000000000000000000000000000000006200027d6200042f565b6200043360201b620010c71760201c565b620002bd7f524f4c453a4f574e4552000000000000000000000000000000000000000000006200027d6200042f565b620002ec7f524f4c453a57484954454c4953540000000000000000000000000000000000006200027d6200042f565b505050620005d7565b7fffffffff0000000000000000000000000000000000000000000000000000000080821614156200038757604080517f08c379a000000000000000000000000000000000000000000000000000000000815260206004820152601c60248201527f4552433136353a20696e76616c696420696e7465726661636520696400000000604482015290519081900360640190fd5b7fffffffff00000000000000000000000000000000000000000000000000000000166000908152602081905260409020805460ff19166001179055565b8051620003d99060039060208401906200053b565b5050565b600082815260046020526040808220600201549051839285917fbd79b86ffe0ab8e8776151514217cd7cacd52c909f66475c3af44e129f0b00ff9190a460009182526004602052604090912060020155565b3390565b620003d9828260008281526004602090815260409091206200046091839062001c74620004b4821b17901c565b15620003d957620004706200042f565b6001600160a01b0316816001600160a01b0316837f2f8788117e7eff1d82e926ec794901d17c78024a50270940304540a733656f0d60405160405180910390a45050565b6000620004cb836001600160a01b038416620004d4565b90505b92915050565b6000620004e2838362000523565b6200051a57508154600181810184556000848152602080822090930184905584548482528286019093526040902091909155620004ce565b506000620004ce565b60009081526001919091016020526040902054151590565b828054600181600116156101000203166002900490600052602060002090601f016020900481019282601f106200057e57805160ff1916838001178555620005ae565b82800160010185558215620005ae579182015b82811115620005ae57825182559160200191906001019062000591565b50620005bc929150620005c0565b5090565b5b80821115620005bc5760008155600101620005c1565b612b7f80620005e76000396000f3fe608060405234801561001057600080fd5b50600436106101ad5760003560e01c8063731133e9116100ee578063b29d694711610097578063e985e9c511610071578063e985e9c514610a55578063f242432a14610a83578063f2fde38b14610b4e578063f5298aca14610b74576101ad565b8063b29d6947146109e6578063ca15c87314610a0c578063d547741f14610a29576101ad565b8063a217fddf116100c8578063a217fddf14610990578063a22cb46514610998578063a5686826146109c6576101ad565b8063731133e91461087f5780639010d07c1461094157806391d1485414610964576101ad565b80632eb2c2d61161015b57806339a3f6e21161013557806339a3f6e2146105e25780634e1273f414610608578063510b51581461077f57806362f5cbd8146107b8576101ad565b80632eb2c2d6146103c35780632f2ff15d1461058a57806336568abe146105b6576101ad565b80630e89341c1161018c5780630e89341c146102eb578063248a9ca31461037d578063295a52121461039a576101ad565b8062fdd58e146101b257806301ffc9a7146101f057806302fe530514610243575b600080fd5b6101de600480360360408110156101c857600080fd5b506001600160a01b038135169060200135610ba6565b60408051918252519081900360200190f35b61022f6004803603602081101561020657600080fd5b50357fffffffff0000000000000000000000000000000000000000000000000000000016610c18565b604080519115158252519081900360200190f35b6102e96004803603602081101561025957600080fd5b81019060208101813564010000000081111561027457600080fd5b82018360208201111561028657600080fd5b803590602001918460018302840111640100000000831117156102a857600080fd5b91908080601f016020809104026020016040519081016040528093929190818152602001838380828437600092019190915250929550610c4f945050505050565b005b6103086004803603602081101561030157600080fd5b5035610cba565b6040805160208082528351818301528351919283929083019185019080838360005b8381101561034257818101518382015260200161032a565b50505050905090810190601f16801561036f5780820380516001836020036101000a031916815260200191505b509250505060405180910390f35b6101de6004803603602081101561039357600080fd5b5035610d52565b6103a2610d67565b604051808260028111156103b257fe5b815260200191505060405180910390f35b6102e9600480360360a08110156103d957600080fd5b6001600160a01b03823581169260208101359091169181019060608101604082013564010000000081111561040d57600080fd5b82018360208201111561041f57600080fd5b8035906020019184602083028401116401000000008311171561044157600080fd5b919080806020026020016040519081016040528093929190818152602001838360200280828437600092019190915250929594936020810193503591505064010000000081111561049157600080fd5b8201836020820111156104a357600080fd5b803590602001918460208302840111640100000000831117156104c557600080fd5b919080806020026020016040519081016040528093929190818152602001838360200280828437600092019190915250929594936020810193503591505064010000000081111561051557600080fd5b82018360208201111561052757600080fd5b8035906020019184600183028401116401000000008311171561054957600080fd5b91908080601f016020809104026020016040519081016040528093929190818152602001838380828437600092019190915250929550610d70945050505050565b6102e9600480360360408110156105a057600080fd5b50803590602001356001600160a01b031661106e565b6102e9600480360360408110156105cc57600080fd5b50803590602001356001600160a01b03166110d5565b6102e9600480360360208110156105f857600080fd5b50356001600160a01b0316611136565b61072f6004803603604081101561061e57600080fd5b81019060208101813564010000000081111561063957600080fd5b82018360208201111561064b57600080fd5b8035906020019184602083028401116401000000008311171561066d57600080fd5b91908080602002602001604051908101604052809392919081815260200183836020028082843760009201919091525092959493602081019350359150506401000000008111156106bd57600080fd5b8201836020820111156106cf57600080fd5b803590602001918460208302840111640100000000831117156106f157600080fd5b9190808060200260200160405190810160405280939291908181526020018383602002808284376000920191909152509295506111ab945050505050565b60408051602080825283518183015283519192839290830191858101910280838360005b8381101561076b578181015183820152602001610753565b505050509050019250505060405180910390f35b61079c6004803603602081101561079557600080fd5b5035611297565b604080516001600160a01b039092168252519081900360200190f35b6102e9600480360360a08110156107ce57600080fd5b6001600160a01b038235169160208101359160408201359160608101359181019060a08101608082013564010000000081111561080a57600080fd5b82018360208201111561081c57600080fd5b8035906020019184600183028401116401000000008311171561083e57600080fd5b91908080601f0160208091040260200160405190810160405280939291908181526020018383808284376000920191909152509295506112b2945050505050565b6102e96004803603608081101561089557600080fd5b6001600160a01b0382351691602081013591604082013591908101906080810160608201356401000000008111156108cc57600080fd5b8201836020820111156108de57600080fd5b8035906020019184600183028401116401000000008311171561090057600080fd5b91908080601f016020809104026020016040519081016040528093929190818152602001838380828437600092019190915250929550611402945050505050565b61079c6004803603604081101561095757600080fd5b508035906020013561154a565b61022f6004803603604081101561097a57600080fd5b50803590602001356001600160a01b0316611569565b6101de611581565b6102e9600480360360408110156109ae57600080fd5b506001600160a01b0381351690602001351515611586565b6102e9600480360360208110156109dc57600080fd5b503560ff16611675565b6102e9600480360360208110156109fc57600080fd5b50356001600160a01b03166116f0565b6101de60048036036020811015610a2257600080fd5b5035611765565b6102e960048036036040811015610a3f57600080fd5b50803590602001356001600160a01b031661177c565b61022f60048036036040811015610a6b57600080fd5b506001600160a01b03813581169160200135166117d5565b6102e9600480360360a0811015610a9957600080fd5b6001600160a01b03823581169260208101359091169160408201359160608101359181019060a081016080820135640100000000811115610ad957600080fd5b820183602082011115610aeb57600080fd5b80359060200191846001830284011164010000000083111715610b0d57600080fd5b91908080601f016020809104026020016040519081016040528093929190818152602001838380828437600092019190915250929550611803945050505050565b6102e960048036036020811015610b6457600080fd5b50356001600160a01b03166119ce565b6102e960048036036060811015610b8a57600080fd5b506001600160a01b038135169060208101359060400135611aeb565b60006001600160a01b038316610bed5760405162461bcd60e51b815260040180806020018281038252602b815260200180612934602b913960400191505060405180910390fd5b5060008181526001602090815260408083206001600160a01b03861684529091529020545b92915050565b7fffffffff000000000000000000000000000000000000000000000000000000001660009081526020819052604090205460ff1690565b610c6d692927a6229d27aba722a960b11b610c68611c89565b611569565b610cae576040805162461bcd60e51b815260206004820152600d60248201526c2922a8aaa4a9229027aba722a960991b604482015290519081900360640190fd5b610cb781611c8e565b50565b60038054604080516020601f6002600019610100600188161502019095169490940493840181900481028201810190925282815260609390929091830182828015610d465780601f10610d1b57610100808354040283529160200191610d46565b820191906000526020600020905b815481529060010190602001808311610d2957829003601f168201915b50505050509050919050565b60009081526004602052604090206002015490565b60055460ff1681565b8151835114610db05760405162461bcd60e51b8152600401808060200182810382526028815260200180612ad26028913960400191505060405180910390fd5b6001600160a01b038416610df55760405162461bcd60e51b81526004018080602001828103825260258152602001806129dc6025913960400191505060405180910390fd5b610dfd611c89565b6001600160a01b0316856001600160a01b03161480610e285750610e2885610e23611c89565b6117d5565b610e635760405162461bcd60e51b8152600401808060200182810382526032815260200180612a016032913960400191505060405180910390fd5b6000610e6d611c89565b9050610e7d818787878787611066565b60005b8451811015610f7e576000858281518110610e9757fe5b602002602001015190506000858381518110610eaf57fe5b60200260200101519050610f1c816040518060600160405280602a8152602001612a56602a91396001600086815260200190815260200160002060008d6001600160a01b03166001600160a01b0316815260200190815260200160002054611ca19092919063ffffffff16565b60008381526001602090815260408083206001600160a01b038e811685529252808320939093558a1681522054610f539082611d38565b60009283526001602081815260408086206001600160a01b038d168752909152909320555001610e80565b50846001600160a01b0316866001600160a01b0316826001600160a01b03167f4a39dc06d4c0dbc64b70af90fd698a233a518aa5d07e595d983b8c0526c8f7fb8787604051808060200180602001838103835285818151815260200191508051906020019060200280838360005b83811015611004578181015183820152602001610fec565b50505050905001838103825284818151815260200191508051906020019060200280838360005b8381101561104357818101518382015260200161102b565b5050505090500194505050505060405180910390a4611066818787878787611d92565b505050505050565b60008281526004602052604090206002015461108c90610c68611c89565b6110c75760405162461bcd60e51b815260040180806020018281038252602f815260200180612905602f913960400191505060405180910390fd5b6110d18282612042565b5050565b6110dd611c89565b6001600160a01b0316816001600160a01b03161461112c5760405162461bcd60e51b815260040180806020018281038252602f815260200180612b1b602f913960400191505060405180910390fd5b6110d182826120ab565b61114f692927a6229d27aba722a960b11b610c68611c89565b611190576040805162461bcd60e51b815260206004820152600d60248201526c2922a8aaa4a9229027aba722a960991b604482015290519081900360640190fd5b610cb76d1493d3114e95d2125511531254d560921b8261177c565b606081518351146111ed5760405162461bcd60e51b8152600401808060200182810382526029815260200180612aa96029913960400191505060405180910390fd5b6060835167ffffffffffffffff8111801561120757600080fd5b50604051908082528060200260200182016040528015611231578160200160208202803683370190505b50905060005b845181101561128f5761127085828151811061124f57fe5b602002602001015185838151811061126357fe5b6020026020010151610ba6565b82828151811061127c57fe5b6020908102919091010152600101611237565b509392505050565b6006602052600090815260409020546001600160a01b031681565b600060055460ff1660028111156112c557fe5b141561132a576112e4692927a6229d27aba722a960b11b610c68611c89565b611325576040805162461bcd60e51b815260206004820152600d60248201526c2922a8aaa4a9229027aba722a960991b604482015290519081900360640190fd5b6113b1565b600160055460ff16600281111561133d57fe5b14156113b1576113606d1493d3114e95d2125511531254d560921b610c68611c89565b6113b1576040805162461bcd60e51b815260206004820152601b60248201527f524551554952452053454e44455220494e2057484954454c4953540000000000604482015290519081900360640190fd5b835b838111611066576113c686828585612114565b6000818152600660205260409020805473ffffffffffffffffffffffffffffffffffffffff19166001600160a01b0388161790556001016113b3565b600060055460ff16600281111561141557fe5b141561147a57611434692927a6229d27aba722a960b11b610c68611c89565b611475576040805162461bcd60e51b815260206004820152600d60248201526c2922a8aaa4a9229027aba722a960991b604482015290519081900360640190fd5b611501565b600160055460ff16600281111561148d57fe5b1415611501576114b06d1493d3114e95d2125511531254d560921b610c68611c89565b611501576040805162461bcd60e51b815260206004820152601b60248201527f524551554952452053454e44455220494e2057484954454c4953540000000000604482015290519081900360640190fd5b61150d84848484612114565b50506000908152600660205260409020805473ffffffffffffffffffffffffffffffffffffffff19166001600160a01b0392909216919091179055565b6000828152600460205260408120611562908361221c565b9392505050565b60008281526004602052604081206115629083612228565b600081565b816001600160a01b0316611598611c89565b6001600160a01b031614156115de5760405162461bcd60e51b8152600401808060200182810382526029815260200180612a806029913960400191505060405180910390fd5b80600260006115eb611c89565b6001600160a01b03908116825260208083019390935260409182016000908120918716808252919093529120805460ff19169215159290921790915561162f611c89565b6001600160a01b03167f17307eab39ab6107e8899845ad3d59bd9653f200f220920489ca2b5937696c318360405180821515815260200191505060405180910390a35050565b61168e692927a6229d27aba722a960b11b610c68611c89565b6116cf576040805162461bcd60e51b815260206004820152600d60248201526c2922a8aaa4a9229027aba722a960991b604482015290519081900360640190fd5b6005805482919060ff191660018360028111156116e857fe5b021790555050565b611709692927a6229d27aba722a960b11b610c68611c89565b61174a576040805162461bcd60e51b815260206004820152600d60248201526c2922a8aaa4a9229027aba722a960991b604482015290519081900360640190fd5b610cb76d1493d3114e95d2125511531254d560921b826110c7565b6000818152600460205260408120610c129061223d565b60008281526004602052604090206002015461179a90610c68611c89565b61112c5760405162461bcd60e51b81526004018080602001828103825260308152602001806129ac6030913960400191505060405180910390fd5b6001600160a01b03918216600090815260026020908152604080832093909416825291909152205460ff1690565b6001600160a01b0384166118485760405162461bcd60e51b81526004018080602001828103825260258152602001806129dc6025913960400191505060405180910390fd5b611850611c89565b6001600160a01b0316856001600160a01b03161480611876575061187685610e23611c89565b6118b15760405162461bcd60e51b81526004018080602001828103825260298152602001806129836029913960400191505060405180910390fd5b60006118bb611c89565b90506118db8187876118cc88612248565b6118d588612248565b87611066565b611922836040518060600160405280602a8152602001612a56602a913960008781526001602090815260408083206001600160a01b038d1684529091529020549190611ca1565b60008581526001602090815260408083206001600160a01b038b811685529252808320939093558716815220546119599084611d38565b60008581526001602090815260408083206001600160a01b03808b168086529184529382902094909455805188815291820187905280518a8416938616927fc3d58168c5ae7397731d063d5bbf3d657854427343f4c083240f7aacaa2d0f6292908290030190a461106681878787878761228c565b6119e7692927a6229d27aba722a960b11b610c68611c89565b611a28576040805162461bcd60e51b815260206004820152600d60248201526c2922a8aaa4a9229027aba722a960991b604482015290519081900360640190fd5b611a527f524f4c453a41444d494e00000000000000000000000000000000000000000000826110c7565b611a69692927a6229d27aba722a960b11b826110c7565b611a846d1493d3114e95d2125511531254d560921b826110c7565b611aa66d1493d3114e95d2125511531254d560921b611aa1611c89565b6110d5565b611abf692927a6229d27aba722a960b11b611aa1611c89565b610cb77f524f4c453a41444d494e00000000000000000000000000000000000000000000611aa1611c89565b600060055460ff166002811115611afe57fe5b1415611b6357611b1d692927a6229d27aba722a960b11b610c68611c89565b611b5e576040805162461bcd60e51b815260206004820152600d60248201526c2922a8aaa4a9229027aba722a960991b604482015290519081900360640190fd5b611bea565b600160055460ff166002811115611b7657fe5b1415611bea57611b996d1493d3114e95d2125511531254d560921b610c68611c89565b611bea576040805162461bcd60e51b815260206004820152601b60248201527f524551554952452053454e44455220494e2057484954454c4953540000000000604482015290519081900360640190fd5b611bf583838361242e565b506000908152600660205260409020805473ffffffffffffffffffffffffffffffffffffffff1916905550565b600082815260046020526040808220600201549051839285917fbd79b86ffe0ab8e8776151514217cd7cacd52c909f66475c3af44e129f0b00ff9190a460009182526004602052604090912060020155565b6000611562836001600160a01b038416612561565b335b90565b80516110d190600390602084019061270c565b60008184841115611d305760405162461bcd60e51b81526004018080602001828103825283818151815260200191508051906020019080838360005b83811015611cf5578181015183820152602001611cdd565b50505050905090810190601f168015611d225780820380516001836020036101000a031916815260200191505b509250505060405180910390fd5b505050900390565b600082820183811015611562576040805162461bcd60e51b815260206004820152601b60248201527f536166654d6174683a206164646974696f6e206f766572666c6f770000000000604482015290519081900360640190fd5b611da4846001600160a01b03166125ab565b1561106657836001600160a01b031663bc197c8187878686866040518663ffffffff1660e01b815260040180866001600160a01b03168152602001856001600160a01b03168152602001806020018060200180602001848103845287818151815260200191508051906020019060200280838360005b83811015611e32578181015183820152602001611e1a565b50505050905001848103835286818151815260200191508051906020019060200280838360005b83811015611e71578181015183820152602001611e59565b50505050905001848103825285818151815260200191508051906020019080838360005b83811015611ead578181015183820152602001611e95565b50505050905090810190601f168015611eda5780820380516001836020036101000a031916815260200191505b5098505050505050505050602060405180830381600087803b158015611eff57600080fd5b505af1925050508015611f2457506040513d6020811015611f1f57600080fd5b505160015b611fb957611f306127a5565b80611f3b5750611f82565b60405162461bcd60e51b8152602060048201818152835160248401528351849391928392604401919085019080838360008315611cf5578181015183820152602001611cdd565b60405162461bcd60e51b81526004018080602001828103825260348152602001806128876034913960400191505060405180910390fd5b7fffffffff0000000000000000000000000000000000000000000000000000000081167fbc197c8100000000000000000000000000000000000000000000000000000000146120395760405162461bcd60e51b81526004018080602001828103825260288152602001806128dd6028913960400191505060405180910390fd5b50505050505050565b600082815260046020526040902061205a9082611c74565b156110d157612067611c89565b6001600160a01b0316816001600160a01b0316837f2f8788117e7eff1d82e926ec794901d17c78024a50270940304540a733656f0d60405160405180910390a45050565b60008281526004602052604090206120c390826125b1565b156110d1576120d0611c89565b6001600160a01b0316816001600160a01b0316837ff6391f5c32d9c69d2a47ea670b442974b53935d1edc7fd64eb21e047a839171b60405160405180910390a45050565b6001600160a01b0384166121595760405162461bcd60e51b8152600401808060200182810382526021815260200180612afa6021913960400191505060405180910390fd5b6000612163611c89565b9050612175816000876118cc88612248565b60008481526001602090815260408083206001600160a01b03891684529091529020546121a29084611d38565b60008581526001602090815260408083206001600160a01b03808b16808652918452828520959095558151898152928301889052815190948616927fc3d58168c5ae7397731d063d5bbf3d657854427343f4c083240f7aacaa2d0f6292908290030190a46122158160008787878761228c565b5050505050565b600061156283836125c6565b6000611562836001600160a01b03841661262a565b6000610c1282612642565b60408051600180825281830190925260609182919060208083019080368337019050509050828160008151811061227b57fe5b602090810291909101015292915050565b61229e846001600160a01b03166125ab565b1561106657836001600160a01b031663f23a6e6187878686866040518663ffffffff1660e01b815260040180866001600160a01b03168152602001856001600160a01b0316815260200184815260200183815260200180602001828103825283818151815260200191508051906020019080838360005b8381101561232d578181015183820152602001612315565b50505050905090810190601f16801561235a5780820380516001836020036101000a031916815260200191505b509650505050505050602060405180830381600087803b15801561237d57600080fd5b505af19250505080156123a257506040513d602081101561239d57600080fd5b505160015b6123ae57611f306127a5565b7fffffffff0000000000000000000000000000000000000000000000000000000081167ff23a6e6100000000000000000000000000000000000000000000000000000000146120395760405162461bcd60e51b81526004018080602001828103825260288152602001806128dd6028913960400191505060405180910390fd5b6001600160a01b0383166124735760405162461bcd60e51b8152600401808060200182810382526023815260200180612a336023913960400191505060405180910390fd5b600061247d611c89565b90506124ad8185600061248f87612248565b61249887612248565b60405180602001604052806000815250611066565b6124f48260405180606001604052806024815260200161295f6024913960008681526001602090815260408083206001600160a01b038b1684529091529020549190611ca1565b60008481526001602090815260408083206001600160a01b03808a16808652918452828520959095558151888152928301879052815193949093908616927fc3d58168c5ae7397731d063d5bbf3d657854427343f4c083240f7aacaa2d0f6292908290030190a450505050565b600061256d838361262a565b6125a357508154600181810184556000848152602080822090930184905584548482528286019093526040902091909155610c12565b506000610c12565b3b151590565b6000611562836001600160a01b038416612646565b815460009082106126085760405162461bcd60e51b81526004018080602001828103825260228152602001806128bb6022913960400191505060405180910390fd5b82600001828154811061261757fe5b9060005260206000200154905092915050565b60009081526001919091016020526040902054151590565b5490565b60008181526001830160205260408120548015612702578354600019808301919081019060009087908390811061267957fe5b906000526020600020015490508087600001848154811061269657fe5b6000918252602080832090910192909255828152600189810190925260409020908401905586548790806126c657fe5b60019003818190600052602060002001600090559055866001016000878152602001908152602001600020600090556001945050505050610c12565b6000915050610c12565b828054600181600116156101000203166002900490600052602060002090601f016020900481019282601f1061274d57805160ff191683800117855561277a565b8280016001018555821561277a579182015b8281111561277a57825182559160200191906001019061275f565b5061278692915061278a565b5090565b5b80821115612786576000815560010161278b565b60e01c90565b600060443d10156127b557611c8b565b600481823e6308c379a06127c9825161279f565b146127d357611c8b565b6040517ffffffffffffffffffffffffffffffffffffffffffffffffffffffffffffffffc3d016004823e80513d67ffffffffffffffff81602484011181841117156128215750505050611c8b565b8284019250825191508082111561283b5750505050611c8b565b503d8301602082840101111561285357505050611c8b565b601f017fffffffffffffffffffffffffffffffffffffffffffffffffffffffffffffffe01681016020016040529150509056fe455243313135353a207472616e7366657220746f206e6f6e2045524331313535526563656976657220696d706c656d656e746572456e756d657261626c655365743a20696e646578206f7574206f6620626f756e6473455243313135353a204552433131353552656365697665722072656a656374656420746f6b656e73416363657373436f6e74726f6c3a2073656e646572206d75737420626520616e2061646d696e20746f206772616e74455243313135353a2062616c616e636520717565727920666f7220746865207a65726f2061646472657373455243313135353a206275726e20616d6f756e7420657863656564732062616c616e6365455243313135353a2063616c6c6572206973206e6f74206f776e6572206e6f7220617070726f766564416363657373436f6e74726f6c3a2073656e646572206d75737420626520616e2061646d696e20746f207265766f6b65455243313135353a207472616e7366657220746f20746865207a65726f2061646472657373455243313135353a207472616e736665722063616c6c6572206973206e6f74206f776e6572206e6f7220617070726f766564455243313135353a206275726e2066726f6d20746865207a65726f2061646472657373455243313135353a20696e73756666696369656e742062616c616e636520666f72207472616e73666572455243313135353a2073657474696e6720617070726f76616c2073746174757320666f722073656c66455243313135353a206163636f756e747320616e6420696473206c656e677468206d69736d61746368455243313135353a2069647320616e6420616d6f756e7473206c656e677468206d69736d61746368455243313135353a206d696e7420746f20746865207a65726f2061646472657373416363657373436f6e74726f6c3a2063616e206f6e6c792072656e6f756e636520726f6c657320666f722073656c66a26469706673582212205f493e03c45daa1a2459a505cd8f9130c4ce0cf45ee74b06a4ea6e7f3b98aff564736f6c634300060c0033",
  "compiler": {
    "name": "solc",
    "version": "0.6.12+commit.27d51765.Emscripten.clang",
    "optimizer": {
      "enabled": true,
      "runs": 2000
    },
    "evmVersion": "petersburg"
  }
}