{
  "fileName": "BounceNFTFactoryV2.sol",
  "contractName": "BounceNFTFactoryV2",
  "source": "// SPDX-License-Identifier: GPL-3.0-or-later\npragma solidity ^0.6.0;\n\nimport \"@openzeppelin/contracts/utils/Create2.sol\";\nimport \"./BounceERC721V2.sol\";\nimport \"./BounceERC1155V2.sol\";\n\ncontract BounceNFTFactoryV2 {\n\n    event Brand721Created(address indexed user, address nft);\n    event Brand1155Created(address indexed user, address nft);\n\n    mapping(address => address) public brands;\n\n    function createBrand721(bytes calldata creationCode, string calldata _name, string calldata _symbol, uint _mode) brandNotCreated(msg.sender) external {\n        bytes memory bytecode = abi.encodePacked(creationCode, abi.encode(_name, _symbol, _mode));\n        bytes32 salt = keccak256(abi.encodePacked(msg.sender, _name, _symbol));\n        address nft = Create2.deploy(0, salt, bytecode);\n        brands[msg.sender] = nft;\n        BounceERC721V2(nft).transferOwnership(msg.sender);\n        emit Brand721Created(msg.sender, nft);\n    }\n\n    function createBrand1155(bytes calldata creationCode, string calldata _uri, uint _mode) brandNotCreated(msg.sender) external {\n        bytes memory bytecode = abi.encodePacked(creationCode, abi.encode(_uri, _mode));\n        bytes32 salt = keccak256(abi.encodePacked(msg.sender, _uri));\n        address nft = Create2.deploy(0, salt, bytecode);\n        brands[msg.sender] = nft;\n        BounceERC1155V2(nft).transferOwnership(msg.sender);\n        emit Brand1155Created(msg.sender, nft);\n    }\n\n    modifier brandNotCreated(address _user) {\n        require(brands[_user] == address(0), \"ALREADY CREATED\");\n        _;\n    }\n}",
  "sourcePath": "contracts/BounceNFTFactoryV2.sol",
  "abi": [
    {
      "anonymous": false,
      "inputs": [
        {
          "indexed": true,
          "internalType": "address",
          "name": "user",
          "type": "address"
        },
        {
          "indexed": false,
          "internalType": "address",
          "name": "nft",
          "type": "address"
        }
      ],
      "name": "Brand1155Created",
      "type": "event"
    },
    {
      "anonymous": false,
      "inputs": [
        {
          "indexed": true,
          "internalType": "address",
          "name": "user",
          "type": "address"
        },
        {
          "indexed": false,
          "internalType": "address",
          "name": "nft",
          "type": "address"
        }
      ],
      "name": "Brand721Created",
      "type": "event"
    },
    {
      "inputs": [
        {
          "internalType": "address",
          "name": "",
          "type": "address"
        }
      ],
      "name": "brands",
      "outputs": [
        {
          "internalType": "address",
          "name": "",
          "type": "address"
        }
      ],
      "stateMutability": "view",
      "type": "function"
    },
    {
      "inputs": [
        {
          "internalType": "bytes",
          "name": "creationCode",
          "type": "bytes"
        },
        {
          "internalType": "string",
          "name": "_uri",
          "type": "string"
        },
        {
          "internalType": "uint256",
          "name": "_mode",
          "type": "uint256"
        }
      ],
      "name": "createBrand1155",
      "outputs": [],
      "stateMutability": "nonpayable",
      "type": "function"
    },
    {
      "inputs": [
        {
          "internalType": "bytes",
          "name": "creationCode",
          "type": "bytes"
        },
        {
          "internalType": "string",
          "name": "_name",
          "type": "string"
        },
        {
          "internalType": "string",
          "name": "_symbol",
          "type": "string"
        },
        {
          "internalType": "uint256",
          "name": "_mode",
          "type": "uint256"
        }
      ],
      "name": "createBrand721",
      "outputs": [],
      "stateMutability": "nonpayable",
      "type": "function"
    }
  ],
  "bytecode": "0x608060405234801561001057600080fd5b50610919806100206000396000f3fe608060405234801561001057600080fd5b50600436106100415760003560e01c80635b7fd9b5146100465780637ebeea9b14610088578063b8e5c5451461014c575b600080fd5b61006c6004803603602081101561005c57600080fd5b50356001600160a01b0316610260565b604080516001600160a01b039092168252519081900360200190f35b61014a6004803603606081101561009e57600080fd5b8101906020810181356401000000008111156100b957600080fd5b8201836020820111156100cb57600080fd5b803590602001918460018302840111640100000000831117156100ed57600080fd5b91939092909160208101903564010000000081111561010b57600080fd5b82018360208201111561011d57600080fd5b8035906020019184600183028401116401000000008311171561013f57600080fd5b91935091503561027b565b005b61014a6004803603608081101561016257600080fd5b81019060208101813564010000000081111561017d57600080fd5b82018360208201111561018f57600080fd5b803590602001918460018302840111640100000000831117156101b157600080fd5b9193909290916020810190356401000000008111156101cf57600080fd5b8201836020820111156101e157600080fd5b8035906020019184600183028401116401000000008311171561020357600080fd5b91939092909160208101903564010000000081111561022157600080fd5b82018360208201111561023357600080fd5b8035906020019184600183028401116401000000008311171561025557600080fd5b919350915035610503565b6000602081905290815260409020546001600160a01b031681565b336000818152602081905260409020546001600160a01b0316156102e6576040805162461bcd60e51b815260206004820152600f60248201527f414c524541445920435245415445440000000000000000000000000000000000604482015290519081900360640190fd5b6060868686868660405160200180806020018381526020018281038252858582818152602001925080828437600081840152601f19601f8201169050808301925050509450505050506040516020818303038152906040526040516020018084848082843784519201916020850191508083835b602083106103795780518252601f19909201916020918201910161035a565b6001836020036101000a03801982511681845116808217855250505050505090500193505050506040516020818303038152906040529050600033868660405160200180846001600160a01b031660601b81526014018383808284378083019250505093505050506040516020818303038152906040528051906020012090506000610407600083856107c9565b3360008181526020819052604080822080547fffffffffffffffffffffffff0000000000000000000000000000000000000000166001600160a01b03861690811790915581517ff2fde38b000000000000000000000000000000000000000000000000000000008152600481019490945290519394509263f2fde38b92602480820193929182900301818387803b1580156104a157600080fd5b505af11580156104b5573d6000803e3d6000fd5b5050604080516001600160a01b038516815290513393507f1897eafcc4906ea8e02e8ee90f143407cb63f26df1eb90f63e65852c67a1e0fd92509081900360200190a2505050505050505050565b336000818152602081905260409020546001600160a01b03161561056e576040805162461bcd60e51b815260206004820152600f60248201527f414c524541445920435245415445440000000000000000000000000000000000604482015290519081900360640190fd5b6060888888888888886040516020018080602001806020018481526020018381038352888882818152602001925080828437600083820152601f01601f191690910184810383528681526020019050868680828437600081840152601f19601f8201169050808301925050509750505050505050506040516020818303038152906040526040516020018084848082843784519201916020850191508083835b6020831061062d5780518252601f19909201916020918201910161060e565b6001836020036101000a038019825116818451168082178552505050505050905001935050505060405160208183030381529060405290506000338888888860405160200180866001600160a01b031660601b8152601401858580828437919091019050838380828437808301925050509550505050505060405160208183030381529060405280519060200120905060006106cb600083856107c9565b3360008181526020819052604080822080547fffffffffffffffffffffffff0000000000000000000000000000000000000000166001600160a01b03861690811790915581517ff2fde38b000000000000000000000000000000000000000000000000000000008152600481019490945290519394509263f2fde38b92602480820193929182900301818387803b15801561076557600080fd5b505af1158015610779573d6000803e3d6000fd5b5050604080516001600160a01b038516815290513393507fac0827e8b7a7c0520d569791cf6019f585c1cd66b641d5dc0826bc0ddb3babea92509081900360200190a25050505050505050505050565b6000803031851115610822576040805162461bcd60e51b815260206004820152601d60248201527f437265617465323a20696e73756666696369656e742062616c616e6365000000604482015290519081900360640190fd5b8251610875576040805162461bcd60e51b815260206004820181905260248201527f437265617465323a2062797465636f6465206c656e677468206973207a65726f604482015290519081900360640190fd5b8383516020850187f590506001600160a01b0381166108db576040805162461bcd60e51b815260206004820152601960248201527f437265617465323a204661696c6564206f6e206465706c6f7900000000000000604482015290519081900360640190fd5b94935050505056fea264697066735822122092ecd8632141c771ed46e6c6af05526bb4563fd8a147f4f70ec4b2b90a68f71064736f6c634300060c0033",
  "compiler": {
    "name": "solc",
    "version": "0.6.12+commit.27d51765.Emscripten.clang",
    "optimizer": {
      "enabled": true,
      "runs": 2000
    },
    "evmVersion": "petersburg"
  }
}