{
  "fileName": "BounceERC1155WithSign.sol",
  "contractName": "BounceERC1155WithSign",
  "source": "// SPDX-License-Identifier: MIT\npragma solidity ^0.6.0;\n\nimport \"@openzeppelin/contracts/cryptography/ECDSA.sol\";\nimport \"./BounceERC1155.sol\";\n\ncontract BounceERC1155WithSign is BounceERC1155 {\n    constructor(string memory uri) BounceERC1155(uri) public {}\n\n    // address to sign mint message\n    address public signer; \n    \n    function setSigner(address _signer) external onlyOwner {\n        signer = _signer;\n    }\n\n    function mintUser(uint256 id, uint256 amount, bytes calldata data, bytes calldata sign, uint expireTime) external {\n        require(block.timestamp <= expireTime, \"SIGN EXPIRE\");\n        bytes32 hash = ECDSA.toEthSignedMessageHash(keccak256(abi.encode(msg.sender, id, amount, expireTime)));\n        require(ECDSA.recover(hash, sign) == signer, \"INVALID SIGNER\");\n        super._mint(msg.sender, id, amount, data);\n        creator[id] = msg.sender;\n    }\n}",
  "sourcePath": "contracts/BounceERC1155WithSign.sol",
  "abi": [
    {
      "inputs": [
        {
          "internalType": "string",
          "name": "uri",
          "type": "string"
        }
      ],
      "stateMutability": "nonpayable",
      "type": "constructor"
    },
    {
      "anonymous": false,
      "inputs": [
        {
          "indexed": true,
          "internalType": "address",
          "name": "account",
          "type": "address"
        },
        {
          "indexed": true,
          "internalType": "address",
          "name": "operator",
          "type": "address"
        },
        {
          "indexed": false,
          "internalType": "bool",
          "name": "approved",
          "type": "bool"
        }
      ],
      "name": "ApprovalForAll",
      "type": "event"
    },
    {
      "anonymous": false,
      "inputs": [
        {
          "indexed": true,
          "internalType": "address",
          "name": "previousOwner",
          "type": "address"
        },
        {
          "indexed": true,
          "internalType": "address",
          "name": "newOwner",
          "type": "address"
        }
      ],
      "name": "OwnershipTransferred",
      "type": "event"
    },
    {
      "anonymous": false,
      "inputs": [
        {
          "indexed": true,
          "internalType": "address",
          "name": "operator",
          "type": "address"
        },
        {
          "indexed": true,
          "internalType": "address",
          "name": "from",
          "type": "address"
        },
        {
          "indexed": true,
          "internalType": "address",
          "name": "to",
          "type": "address"
        },
        {
          "indexed": false,
          "internalType": "uint256[]",
          "name": "ids",
          "type": "uint256[]"
        },
        {
          "indexed": false,
          "internalType": "uint256[]",
          "name": "values",
          "type": "uint256[]"
        }
      ],
      "name": "TransferBatch",
      "type": "event"
    },
    {
      "anonymous": false,
      "inputs": [
        {
          "indexed": true,
          "internalType": "address",
          "name": "operator",
          "type": "address"
        },
        {
          "indexed": true,
          "internalType": "address",
          "name": "from",
          "type": "address"
        },
        {
          "indexed": true,
          "internalType": "address",
          "name": "to",
          "type": "address"
        },
        {
          "indexed": false,
          "internalType": "uint256",
          "name": "id",
          "type": "uint256"
        },
        {
          "indexed": false,
          "internalType": "uint256",
          "name": "value",
          "type": "uint256"
        }
      ],
      "name": "TransferSingle",
      "type": "event"
    },
    {
      "anonymous": false,
      "inputs": [
        {
          "indexed": false,
          "internalType": "string",
          "name": "value",
          "type": "string"
        },
        {
          "indexed": true,
          "internalType": "uint256",
          "name": "id",
          "type": "uint256"
        }
      ],
      "name": "URI",
      "type": "event"
    },
    {
      "inputs": [
        {
          "internalType": "address",
          "name": "account",
          "type": "address"
        },
        {
          "internalType": "uint256",
          "name": "id",
          "type": "uint256"
        }
      ],
      "name": "balanceOf",
      "outputs": [
        {
          "internalType": "uint256",
          "name": "",
          "type": "uint256"
        }
      ],
      "stateMutability": "view",
      "type": "function"
    },
    {
      "inputs": [
        {
          "internalType": "address[]",
          "name": "accounts",
          "type": "address[]"
        },
        {
          "internalType": "uint256[]",
          "name": "ids",
          "type": "uint256[]"
        }
      ],
      "name": "balanceOfBatch",
      "outputs": [
        {
          "internalType": "uint256[]",
          "name": "",
          "type": "uint256[]"
        }
      ],
      "stateMutability": "view",
      "type": "function"
    },
    {
      "inputs": [
        {
          "internalType": "address",
          "name": "to",
          "type": "address"
        },
        {
          "internalType": "uint256",
          "name": "fromId",
          "type": "uint256"
        },
        {
          "internalType": "uint256",
          "name": "toId",
          "type": "uint256"
        },
        {
          "internalType": "uint256",
          "name": "amount",
          "type": "uint256"
        },
        {
          "internalType": "bytes",
          "name": "data",
          "type": "bytes"
        }
      ],
      "name": "batchMint",
      "outputs": [],
      "stateMutability": "nonpayable",
      "type": "function"
    },
    {
      "inputs": [
        {
          "internalType": "address",
          "name": "account",
          "type": "address"
        },
        {
          "internalType": "uint256",
          "name": "id",
          "type": "uint256"
        },
        {
          "internalType": "uint256",
          "name": "amount",
          "type": "uint256"
        }
      ],
      "name": "burn",
      "outputs": [],
      "stateMutability": "nonpayable",
      "type": "function"
    },
    {
      "inputs": [
        {
          "internalType": "uint256",
          "name": "",
          "type": "uint256"
        }
      ],
      "name": "creator",
      "outputs": [
        {
          "internalType": "address",
          "name": "",
          "type": "address"
        }
      ],
      "stateMutability": "view",
      "type": "function"
    },
    {
      "inputs": [
        {
          "internalType": "address",
          "name": "account",
          "type": "address"
        },
        {
          "internalType": "address",
          "name": "operator",
          "type": "address"
        }
      ],
      "name": "isApprovedForAll",
      "outputs": [
        {
          "internalType": "bool",
          "name": "",
          "type": "bool"
        }
      ],
      "stateMutability": "view",
      "type": "function"
    },
    {
      "inputs": [
        {
          "internalType": "address",
          "name": "account",
          "type": "address"
        },
        {
          "internalType": "uint256",
          "name": "id",
          "type": "uint256"
        },
        {
          "internalType": "uint256",
          "name": "amount",
          "type": "uint256"
        },
        {
          "internalType": "bytes",
          "name": "data",
          "type": "bytes"
        }
      ],
      "name": "mint",
      "outputs": [],
      "stateMutability": "nonpayable",
      "type": "function"
    },
    {
      "inputs": [
        {
          "internalType": "uint256",
          "name": "id",
          "type": "uint256"
        },
        {
          "internalType": "uint256",
          "name": "amount",
          "type": "uint256"
        },
        {
          "internalType": "bytes",
          "name": "data",
          "type": "bytes"
        },
        {
          "internalType": "bytes",
          "name": "sign",
          "type": "bytes"
        },
        {
          "internalType": "uint256",
          "name": "expireTime",
          "type": "uint256"
        }
      ],
      "name": "mintUser",
      "outputs": [],
      "stateMutability": "nonpayable",
      "type": "function"
    },
    {
      "inputs": [],
      "name": "owner",
      "outputs": [
        {
          "internalType": "address",
          "name": "",
          "type": "address"
        }
      ],
      "stateMutability": "view",
      "type": "function"
    },
    {
      "inputs": [],
      "name": "renounceOwnership",
      "outputs": [],
      "stateMutability": "nonpayable",
      "type": "function"
    },
    {
      "inputs": [
        {
          "internalType": "address",
          "name": "from",
          "type": "address"
        },
        {
          "internalType": "address",
          "name": "to",
          "type": "address"
        },
        {
          "internalType": "uint256[]",
          "name": "ids",
          "type": "uint256[]"
        },
        {
          "internalType": "uint256[]",
          "name": "amounts",
          "type": "uint256[]"
        },
        {
          "internalType": "bytes",
          "name": "data",
          "type": "bytes"
        }
      ],
      "name": "safeBatchTransferFrom",
      "outputs": [],
      "stateMutability": "nonpayable",
      "type": "function"
    },
    {
      "inputs": [
        {
          "internalType": "address",
          "name": "from",
          "type": "address"
        },
        {
          "internalType": "address",
          "name": "to",
          "type": "address"
        },
        {
          "internalType": "uint256",
          "name": "id",
          "type": "uint256"
        },
        {
          "internalType": "uint256",
          "name": "amount",
          "type": "uint256"
        },
        {
          "internalType": "bytes",
          "name": "data",
          "type": "bytes"
        }
      ],
      "name": "safeTransferFrom",
      "outputs": [],
      "stateMutability": "nonpayable",
      "type": "function"
    },
    {
      "inputs": [
        {
          "internalType": "address",
          "name": "operator",
          "type": "address"
        },
        {
          "internalType": "bool",
          "name": "approved",
          "type": "bool"
        }
      ],
      "name": "setApprovalForAll",
      "outputs": [],
      "stateMutability": "nonpayable",
      "type": "function"
    },
    {
      "inputs": [
        {
          "internalType": "address",
          "name": "_signer",
          "type": "address"
        }
      ],
      "name": "setSigner",
      "outputs": [],
      "stateMutability": "nonpayable",
      "type": "function"
    },
    {
      "inputs": [
        {
          "internalType": "string",
          "name": "uri",
          "type": "string"
        }
      ],
      "name": "setURI",
      "outputs": [],
      "stateMutability": "nonpayable",
      "type": "function"
    },
    {
      "inputs": [],
      "name": "signer",
      "outputs": [
        {
          "internalType": "address",
          "name": "",
          "type": "address"
        }
      ],
      "stateMutability": "view",
      "type": "function"
    },
    {
      "inputs": [
        {
          "internalType": "bytes4",
          "name": "interfaceId",
          "type": "bytes4"
        }
      ],
      "name": "supportsInterface",
      "outputs": [
        {
          "internalType": "bool",
          "name": "",
          "type": "bool"
        }
      ],
      "stateMutability": "view",
      "type": "function"
    },
    {
      "inputs": [
        {
          "internalType": "address",
          "name": "newOwner",
          "type": "address"
        }
      ],
      "name": "transferOwnership",
      "outputs": [],
      "stateMutability": "nonpayable",
      "type": "function"
    },
    {
      "inputs": [
        {
          "internalType": "uint256",
          "name": "",
          "type": "uint256"
        }
      ],
      "name": "uri",
      "outputs": [
        {
          "internalType": "string",
          "name": "",
          "type": "string"
        }
      ],
      "stateMutability": "view",
      "type": "function"
    }
  ],
  "bytecode": "0x60806040523480156200001157600080fd5b5060405162002bf938038062002bf9833981810160405260208110156200003757600080fd5b81019080805160405193929190846401000000008211156200005857600080fd5b9083019060208201858111156200006e57600080fd5b82516401000000008111828201881017156200008957600080fd5b82525081516020918201929091019080838360005b83811015620000b85781810151838201526020016200009e565b50505050905090810190601f168015620000e65780820380516001836020036101000a031916815260200191505b50604052508291508190506200011c7f01ffc9a700000000000000000000000000000000000000000000000000000000620001e0565b6200012781620002af565b620001527fd9b67a2600000000000000000000000000000000000000000000000000000000620001e0565b6200017d7f0e89341c00000000000000000000000000000000000000000000000000000000620001e0565b5060006200018a620002c8565b600480546001600160a01b0319166001600160a01b038316908117909155604051919250906000907f8be0079c531659141344cd1fd0a4f28419497f9722a3daafe3b4186f6b6457e0908290a350505062000368565b7fffffffff0000000000000000000000000000000000000000000000000000000080821614156200027257604080517f08c379a000000000000000000000000000000000000000000000000000000000815260206004820152601c60248201527f4552433136353a20696e76616c696420696e7465726661636520696400000000604482015290519081900360640190fd5b7fffffffff00000000000000000000000000000000000000000000000000000000166000908152602081905260409020805460ff19166001179055565b8051620002c4906003906020840190620002cc565b5050565b3390565b828054600181600116156101000203166002900490600052602060002090601f016020900481019282601f106200030f57805160ff19168380011785556200033f565b828001600101855582156200033f579182015b828111156200033f57825182559160200191906001019062000322565b506200034d92915062000351565b5090565b5b808211156200034d576000815560010162000352565b61288180620003786000396000f3fe608060405234801561001057600080fd5b50600436106101505760003560e01c80636c19e783116100cd578063e41a142d11610081578063f242432a11610066578063f242432a14610988578063f2fde38b14610a53578063f5298aca14610a7957610150565b8063e41a142d1461088c578063e985e9c51461095a57610150565b8063731133e9116100b2578063731133e9146107945780638da5cb5b14610856578063a22cb4651461085e57610150565b80636c19e78314610766578063715018a61461078c57610150565b8063238ac933116101245780634e1273f4116101095780634e1273f41461050b578063510b51581461068257806362f5cbd81461069f57610150565b8063238ac933146103205780632eb2c2d61461034457610150565b8062fdd58e1461015557806301ffc9a71461019357806302fe5305146101e65780630e89341c1461028e575b600080fd5b6101816004803603604081101561016b57600080fd5b506001600160a01b038135169060200135610aab565b60408051918252519081900360200190f35b6101d2600480360360208110156101a957600080fd5b50357fffffffff0000000000000000000000000000000000000000000000000000000016610b1a565b604080519115158252519081900360200190f35b61028c600480360360208110156101fc57600080fd5b81019060208101813564010000000081111561021757600080fd5b82018360208201111561022957600080fd5b8035906020019184600183028401116401000000008311171561024b57600080fd5b91908080601f016020809104026020016040519081016040528093929190818152602001838380828437600092019190915250929550610b51945050505050565b005b6102ab600480360360208110156102a457600080fd5b5035610bd1565b6040805160208082528351818301528351919283929083019185019080838360005b838110156102e55781810151838201526020016102cd565b50505050905090810190601f1680156103125780820380516001836020036101000a031916815260200191505b509250505060405180910390f35b610328610c87565b604080516001600160a01b039092168252519081900360200190f35b61028c600480360360a081101561035a57600080fd5b6001600160a01b03823581169260208101359091169181019060608101604082013564010000000081111561038e57600080fd5b8201836020820111156103a057600080fd5b803590602001918460208302840111640100000000831117156103c257600080fd5b919080806020026020016040519081016040528093929190818152602001838360200280828437600092019190915250929594936020810193503591505064010000000081111561041257600080fd5b82018360208201111561042457600080fd5b8035906020019184602083028401116401000000008311171561044657600080fd5b919080806020026020016040519081016040528093929190818152602001838360200280828437600092019190915250929594936020810193503591505064010000000081111561049657600080fd5b8201836020820111156104a857600080fd5b803590602001918460018302840111640100000000831117156104ca57600080fd5b91908080601f016020809104026020016040519081016040528093929190818152602001838380828437600092019190915250929550610c96945050505050565b6106326004803603604081101561052157600080fd5b81019060208101813564010000000081111561053c57600080fd5b82018360208201111561054e57600080fd5b8035906020019184602083028401116401000000008311171561057057600080fd5b91908080602002602001604051908101604052809392919081815260200183836020028082843760009201919091525092959493602081019350359150506401000000008111156105c057600080fd5b8201836020820111156105d257600080fd5b803590602001918460208302840111640100000000831117156105f457600080fd5b919080806020026020016040519081016040528093929190818152602001838360200280828437600092019190915250929550610f94945050505050565b60408051602080825283518183015283519192839290830191858101910280838360005b8381101561066e578181015183820152602001610656565b505050509050019250505060405180910390f35b6103286004803603602081101561069857600080fd5b5035611080565b61028c600480360360a08110156106b557600080fd5b6001600160a01b038235169160208101359160408201359160608101359181019060a0810160808201356401000000008111156106f157600080fd5b82018360208201111561070357600080fd5b8035906020019184600183028401116401000000008311171561072557600080fd5b91908080601f01602080910402602001604051908101604052809392919081815260200183838082843760009201919091525092955061109b945050505050565b61028c6004803603602081101561077c57600080fd5b50356001600160a01b0316611160565b61028c611203565b61028c600480360360808110156107aa57600080fd5b6001600160a01b0382351691602081013591604082013591908101906080810160608201356401000000008111156107e157600080fd5b8201836020820111156107f357600080fd5b8035906020019184600183028401116401000000008311171561081557600080fd5b91908080601f0160208091040260200160405190810160405280939291908181526020018383808284376000920191909152509295506112ce945050505050565b61032861138b565b61028c6004803603604081101561087457600080fd5b506001600160a01b038135169060200135151561139b565b61028c600480360360a08110156108a257600080fd5b8135916020810135918101906060810160408201356401000000008111156108c957600080fd5b8201836020820111156108db57600080fd5b803590602001918460018302840111640100000000831117156108fd57600080fd5b91939092909160208101903564010000000081111561091b57600080fd5b82018360208201111561092d57600080fd5b8035906020019184600183028401116401000000008311171561094f57600080fd5b9193509150356114a8565b6101d26004803603604081101561097057600080fd5b506001600160a01b0381358116916020013516611672565b61028c600480360360a081101561099e57600080fd5b6001600160a01b03823581169260208101359091169160408201359160608101359181019060a0810160808201356401000000008111156109de57600080fd5b8201836020820111156109f057600080fd5b80359060200191846001830284011164010000000083111715610a1257600080fd5b91908080601f0160208091040260200160405190810160405280939291908181526020018383808284376000920191909152509295506116a0945050505050565b61028c60048036036020811015610a6957600080fd5b50356001600160a01b031661186b565b61028c60048036036060811015610a8f57600080fd5b506001600160a01b03813516906020810135906040013561198d565b60006001600160a01b038316610af25760405162461bcd60e51b815260040180806020018281038252602b81526020018061262b602b913960400191505060405180910390fd5b5060009081526001602090815260408083206001600160a01b03949094168352929052205490565b7fffffffff000000000000000000000000000000000000000000000000000000001660009081526020819052604090205460ff1690565b610b59611a39565b6001600160a01b0316610b6a61138b565b6001600160a01b031614610bc5576040805162461bcd60e51b815260206004820181905260248201527f4f776e61626c653a2063616c6c6572206973206e6f7420746865206f776e6572604482015290519081900360640190fd5b610bce81611a3d565b50565b60038054604080516020601f60027fffffffffffffffffffffffffffffffffffffffffffffffffffffffffffffffff610100600188161502019095169490940493840181900481028201810190925282815260609390929091830182828015610c7b5780601f10610c5057610100808354040283529160200191610c7b565b820191906000526020600020905b815481529060010190602001808311610c5e57829003601f168201915b50505050509050919050565b6006546001600160a01b031681565b8151835114610cd65760405162461bcd60e51b81526004018080602001828103825260288152602001806128036028913960400191505060405180910390fd5b6001600160a01b038416610d1b5760405162461bcd60e51b81526004018080602001828103825260258152602001806126eb6025913960400191505060405180910390fd5b610d23611a39565b6001600160a01b0316856001600160a01b03161480610d4e5750610d4e85610d49611a39565b611672565b610d895760405162461bcd60e51b81526004018080602001828103825260328152602001806127106032913960400191505060405180910390fd5b6000610d93611a39565b9050610da3818787878787610f8c565b60005b8451811015610ea4576000858281518110610dbd57fe5b602002602001015190506000858381518110610dd557fe5b60200260200101519050610e42816040518060600160405280602a8152602001612787602a91396001600086815260200190815260200160002060008d6001600160a01b03166001600160a01b0316815260200190815260200160002054611a549092919063ffffffff16565b60008381526001602090815260408083206001600160a01b038e811685529252808320939093558a1681522054610e799082611aeb565b60009283526001602081815260408086206001600160a01b038d168752909152909320555001610da6565b50846001600160a01b0316866001600160a01b0316826001600160a01b03167f4a39dc06d4c0dbc64b70af90fd698a233a518aa5d07e595d983b8c0526c8f7fb8787604051808060200180602001838103835285818151815260200191508051906020019060200280838360005b83811015610f2a578181015183820152602001610f12565b50505050905001838103825284818151815260200191508051906020019060200280838360005b83811015610f69578181015183820152602001610f51565b5050505090500194505050505060405180910390a4610f8c818787878787611b4c565b505050505050565b60608151835114610fd65760405162461bcd60e51b81526004018080602001828103825260298152602001806127da6029913960400191505060405180910390fd5b6060835167ffffffffffffffff81118015610ff057600080fd5b5060405190808252806020026020018201604052801561101a578160200160208202803683370190505b50905060005b84518110156110785761105985828151811061103857fe5b602002602001015185838151811061104c57fe5b6020026020010151610aab565b82828151811061106557fe5b6020908102919091010152600101611020565b509392505050565b6005602052600090815260409020546001600160a01b031681565b6110a3611a39565b6001600160a01b03166110b461138b565b6001600160a01b03161461110f576040805162461bcd60e51b815260206004820181905260248201527f4f776e61626c653a2063616c6c6572206973206e6f7420746865206f776e6572604482015290519081900360640190fd5b835b838111610f8c5761112486828585611dfc565b6000818152600560205260409020805473ffffffffffffffffffffffffffffffffffffffff19166001600160a01b038816179055600101611111565b611168611a39565b6001600160a01b031661117961138b565b6001600160a01b0316146111d4576040805162461bcd60e51b815260206004820181905260248201527f4f776e61626c653a2063616c6c6572206973206e6f7420746865206f776e6572604482015290519081900360640190fd5b6006805473ffffffffffffffffffffffffffffffffffffffff19166001600160a01b0392909216919091179055565b61120b611a39565b6001600160a01b031661121c61138b565b6001600160a01b031614611277576040805162461bcd60e51b815260206004820181905260248201527f4f776e61626c653a2063616c6c6572206973206e6f7420746865206f776e6572604482015290519081900360640190fd5b6004546040516000916001600160a01b0316907f8be0079c531659141344cd1fd0a4f28419497f9722a3daafe3b4186f6b6457e0908390a36004805473ffffffffffffffffffffffffffffffffffffffff19169055565b6112d6611a39565b6001600160a01b03166112e761138b565b6001600160a01b031614611342576040805162461bcd60e51b815260206004820181905260248201527f4f776e61626c653a2063616c6c6572206973206e6f7420746865206f776e6572604482015290519081900360640190fd5b61134e84848484611dfc565b50506000908152600560205260409020805473ffffffffffffffffffffffffffffffffffffffff19166001600160a01b0392909216919091179055565b6004546001600160a01b03165b90565b816001600160a01b03166113ad611a39565b6001600160a01b031614156113f35760405162461bcd60e51b81526004018080602001828103825260298152602001806127b16029913960400191505060405180910390fd5b8060026000611400611a39565b6001600160a01b0390811682526020808301939093526040918201600090812091871680825291909352912080547fffffffffffffffffffffffffffffffffffffffffffffffffffffffffffffff001692151592909217909155611462611a39565b6001600160a01b03167f17307eab39ab6107e8899845ad3d59bd9653f200f220920489ca2b5937696c318360405180821515815260200191505060405180910390a35050565b804211156114fd576040805162461bcd60e51b815260206004820152600b60248201527f5349474e20455850495245000000000000000000000000000000000000000000604482015290519081900360640190fd5b600061154f3389898560405160200180856001600160a01b0316815260200184815260200183815260200182815260200194505050505060405160208183030381529060405280519060200120611f04565b600654604080516020601f88018190048102820181019092528681529293506001600160a01b03909116916115a1918491908890889081908401838280828437600092019190915250611f5592505050565b6001600160a01b0316146115fc576040805162461bcd60e51b815260206004820152600e60248201527f494e56414c4944205349474e4552000000000000000000000000000000000000604482015290519081900360640190fd5b61163e33898989898080601f016020809104026020016040519081016040528093929190818152602001838380828437600092019190915250611dfc92505050565b505050600094855250506005602052505060409020805473ffffffffffffffffffffffffffffffffffffffff191633179055565b6001600160a01b03918216600090815260026020908152604080832093909416825291909152205460ff1690565b6001600160a01b0384166116e55760405162461bcd60e51b81526004018080602001828103825260258152602001806126eb6025913960400191505060405180910390fd5b6116ed611a39565b6001600160a01b0316856001600160a01b03161480611713575061171385610d49611a39565b61174e5760405162461bcd60e51b81526004018080602001828103825260298152602001806126a06029913960400191505060405180910390fd5b6000611758611a39565b905061177881878761176988611fd5565b61177288611fd5565b87610f8c565b6117bf836040518060600160405280602a8152602001612787602a913960008781526001602090815260408083206001600160a01b038d1684529091529020549190611a54565b60008581526001602090815260408083206001600160a01b038b811685529252808320939093558716815220546117f69084611aeb565b60008581526001602090815260408083206001600160a01b03808b168086529184529382902094909455805188815291820187905280518a8416938616927fc3d58168c5ae7397731d063d5bbf3d657854427343f4c083240f7aacaa2d0f6292908290030190a4610f8c818787878787612019565b611873611a39565b6001600160a01b031661188461138b565b6001600160a01b0316146118df576040805162461bcd60e51b815260206004820181905260248201527f4f776e61626c653a2063616c6c6572206973206e6f7420746865206f776e6572604482015290519081900360640190fd5b6001600160a01b0381166119245760405162461bcd60e51b81526004018080602001828103825260268152602001806126566026913960400191505060405180910390fd5b6004546040516001600160a01b038084169216907f8be0079c531659141344cd1fd0a4f28419497f9722a3daafe3b4186f6b6457e090600090a36004805473ffffffffffffffffffffffffffffffffffffffff19166001600160a01b0392909216919091179055565b611995611a39565b6001600160a01b03166119a661138b565b6001600160a01b031614611a01576040805162461bcd60e51b815260206004820181905260248201527f4f776e61626c653a2063616c6c6572206973206e6f7420746865206f776e6572604482015290519081900360640190fd5b611a0c8383836121bb565b506000908152600560205260409020805473ffffffffffffffffffffffffffffffffffffffff1916905550565b3390565b8051611a50906003906020840190612472565b5050565b60008184841115611ae35760405162461bcd60e51b81526004018080602001828103825283818151815260200191508051906020019080838360005b83811015611aa8578181015183820152602001611a90565b50505050905090810190601f168015611ad55780820380516001836020036101000a031916815260200191505b509250505060405180910390fd5b505050900390565b600082820183811015611b45576040805162461bcd60e51b815260206004820152601b60248201527f536166654d6174683a206164646974696f6e206f766572666c6f770000000000604482015290519081900360640190fd5b9392505050565b611b5e846001600160a01b03166122ee565b15610f8c57836001600160a01b031663bc197c8187878686866040518663ffffffff1660e01b815260040180866001600160a01b03168152602001856001600160a01b03168152602001806020018060200180602001848103845287818151815260200191508051906020019060200280838360005b83811015611bec578181015183820152602001611bd4565b50505050905001848103835286818151815260200191508051906020019060200280838360005b83811015611c2b578181015183820152602001611c13565b50505050905001848103825285818151815260200191508051906020019080838360005b83811015611c67578181015183820152602001611c4f565b50505050905090810190601f168015611c945780820380516001836020036101000a031916815260200191505b5098505050505050505050602060405180830381600087803b158015611cb957600080fd5b505af1925050508015611cde57506040513d6020811015611cd957600080fd5b505160015b611d7357611cea61250b565b80611cf55750611d3c565b60405162461bcd60e51b8152602060048201818152835160248401528351849391928392604401919085019080838360008315611aa8578181015183820152602001611a90565b60405162461bcd60e51b81526004018080602001828103825260348152602001806125cf6034913960400191505060405180910390fd5b7fffffffff0000000000000000000000000000000000000000000000000000000081167fbc197c810000000000000000000000000000000000000000000000000000000014611df35760405162461bcd60e51b81526004018080602001828103825260288152602001806126036028913960400191505060405180910390fd5b50505050505050565b6001600160a01b038416611e415760405162461bcd60e51b815260040180806020018281038252602181526020018061282b6021913960400191505060405180910390fd5b6000611e4b611a39565b9050611e5d8160008761176988611fd5565b60008481526001602090815260408083206001600160a01b0389168452909152902054611e8a9084611aeb565b60008581526001602090815260408083206001600160a01b03808b16808652918452828520959095558151898152928301889052815190948616927fc3d58168c5ae7397731d063d5bbf3d657854427343f4c083240f7aacaa2d0f6292908290030190a4611efd81600087878787612019565b5050505050565b604080517f19457468657265756d205369676e6564204d6573736167653a0a333200000000602080830191909152603c8083019490945282518083039094018452605c909101909152815191012090565b60008151604114611fad576040805162461bcd60e51b815260206004820152601f60248201527f45434453413a20696e76616c6964207369676e6174757265206c656e67746800604482015290519081900360640190fd5b60208201516040830151606084015160001a611fcb868285856122f4565b9695505050505050565b60408051600180825281830190925260609182919060208083019080368337019050509050828160008151811061200857fe5b602090810291909101015292915050565b61202b846001600160a01b03166122ee565b15610f8c57836001600160a01b031663f23a6e6187878686866040518663ffffffff1660e01b815260040180866001600160a01b03168152602001856001600160a01b0316815260200184815260200183815260200180602001828103825283818151815260200191508051906020019080838360005b838110156120ba5781810151838201526020016120a2565b50505050905090810190601f1680156120e75780820380516001836020036101000a031916815260200191505b509650505050505050602060405180830381600087803b15801561210a57600080fd5b505af192505050801561212f57506040513d602081101561212a57600080fd5b505160015b61213b57611cea61250b565b7fffffffff0000000000000000000000000000000000000000000000000000000081167ff23a6e610000000000000000000000000000000000000000000000000000000014611df35760405162461bcd60e51b81526004018080602001828103825260288152602001806126036028913960400191505060405180910390fd5b6001600160a01b0383166122005760405162461bcd60e51b81526004018080602001828103825260238152602001806127646023913960400191505060405180910390fd5b600061220a611a39565b905061223a8185600061221c87611fd5565b61222587611fd5565b60405180602001604052806000815250610f8c565b6122818260405180606001604052806024815260200161267c6024913960008681526001602090815260408083206001600160a01b038b1684529091529020549190611a54565b60008481526001602090815260408083206001600160a01b03808a16808652918452828520959095558151888152928301879052815193949093908616927fc3d58168c5ae7397731d063d5bbf3d657854427343f4c083240f7aacaa2d0f6292908290030190a450505050565b3b151590565b60007f7fffffffffffffffffffffffffffffff5d576e7357a4501ddfe92f46681b20a08211156123555760405162461bcd60e51b81526004018080602001828103825260228152602001806126c96022913960400191505060405180910390fd5b8360ff16601b148061236a57508360ff16601c145b6123a55760405162461bcd60e51b81526004018080602001828103825260228152602001806127426022913960400191505060405180910390fd5b600060018686868660405160008152602001604052604051808581526020018460ff1681526020018381526020018281526020019450505050506020604051602081039080840390855afa158015612401573d6000803e3d6000fd5b5050604051601f1901519150506001600160a01b038116612469576040805162461bcd60e51b815260206004820152601860248201527f45434453413a20696e76616c6964207369676e61747572650000000000000000604482015290519081900360640190fd5b95945050505050565b828054600181600116156101000203166002900490600052602060002090601f016020900481019282601f106124b357805160ff19168380011785556124e0565b828001600101855582156124e0579182015b828111156124e05782518255916020019190600101906124c5565b506124ec9291506124f0565b5090565b5b808211156124ec57600081556001016124f1565b60e01c90565b600060443d101561251b57611398565b600481823e6308c379a061252f8251612505565b1461253957611398565b6040517ffffffffffffffffffffffffffffffffffffffffffffffffffffffffffffffffc3d016004823e80513d67ffffffffffffffff81602484011181841117156125875750505050611398565b828401925082519150808211156125a15750505050611398565b503d830160208284010111156125b957505050611398565b601f01601f191681016020016040529150509056fe455243313135353a207472616e7366657220746f206e6f6e2045524331313535526563656976657220696d706c656d656e746572455243313135353a204552433131353552656365697665722072656a656374656420746f6b656e73455243313135353a2062616c616e636520717565727920666f7220746865207a65726f20616464726573734f776e61626c653a206e6577206f776e657220697320746865207a65726f2061646472657373455243313135353a206275726e20616d6f756e7420657863656564732062616c616e6365455243313135353a2063616c6c6572206973206e6f74206f776e6572206e6f7220617070726f76656445434453413a20696e76616c6964207369676e6174757265202773272076616c7565455243313135353a207472616e7366657220746f20746865207a65726f2061646472657373455243313135353a207472616e736665722063616c6c6572206973206e6f74206f776e6572206e6f7220617070726f76656445434453413a20696e76616c6964207369676e6174757265202776272076616c7565455243313135353a206275726e2066726f6d20746865207a65726f2061646472657373455243313135353a20696e73756666696369656e742062616c616e636520666f72207472616e73666572455243313135353a2073657474696e6720617070726f76616c2073746174757320666f722073656c66455243313135353a206163636f756e747320616e6420696473206c656e677468206d69736d61746368455243313135353a2069647320616e6420616d6f756e7473206c656e677468206d69736d61746368455243313135353a206d696e7420746f20746865207a65726f2061646472657373a2646970667358221220a66768eb46b58799a3735cd0ecb0f4cfd58b12f063418f3fd004cf641c51012f64736f6c634300060c0033",
  "compiler": {
    "name": "solc",
    "version": "0.6.12+commit.27d51765.Emscripten.clang",
    "optimizer": {
      "enabled": true,
      "runs": 2000
    },
    "evmVersion": "petersburg"
  }
}