{
  "fileName": "BounceERC1155.sol",
  "contractName": "BounceERC1155",
  "source": "// SPDX-License-Identifier: MIT\n\npragma solidity ^0.6.0;\n\nimport \"@openzeppelin/contracts/access/Ownable.sol\";\nimport \"@openzeppelin/contracts/token/ERC1155/ERC1155.sol\";\n\ncontract BounceERC1155 is ERC1155, Ownable {\n    constructor(string memory uri) ERC1155(uri) public {}\n\n    // tokenid => creator address\n    mapping(uint256 => address) creator;\n\n    function setURI(string memory uri) external onlyOwner {\n        super._setURI(uri);\n    }\n\n    function mint(address account, uint256 id, uint256 amount, bytes memory data) external onlyOwner {\n        super._mint(account, id, amount, data);\n        creator[id] = account;\n    }\n\n    function burn(address account, uint256 id, uint256 amount) external onlyOwner {\n        super._burn(account, id, amount);\n        creator[id] = address(0);\n    }\n\n    function batchMint(address to, uint256 fromId, uint256 toId, uint256 amount, bytes memory data) external onlyOwner {\n        for (uint256 id = fromId; id <= toId; id++) {\n            super._mint(to, id, amount, data);\n            creator[id] = to;\n        }\n    }\n}\n",
  "sourcePath": "contracts/BounceERC1155.sol",
  "abi": [
    {
      "inputs": [
        {
          "internalType": "string",
          "name": "uri",
          "type": "string"
        }
      ],
      "stateMutability": "nonpayable",
      "type": "constructor"
    },
    {
      "anonymous": false,
      "inputs": [
        {
          "indexed": true,
          "internalType": "address",
          "name": "account",
          "type": "address"
        },
        {
          "indexed": true,
          "internalType": "address",
          "name": "operator",
          "type": "address"
        },
        {
          "indexed": false,
          "internalType": "bool",
          "name": "approved",
          "type": "bool"
        }
      ],
      "name": "ApprovalForAll",
      "type": "event"
    },
    {
      "anonymous": false,
      "inputs": [
        {
          "indexed": true,
          "internalType": "address",
          "name": "previousOwner",
          "type": "address"
        },
        {
          "indexed": true,
          "internalType": "address",
          "name": "newOwner",
          "type": "address"
        }
      ],
      "name": "OwnershipTransferred",
      "type": "event"
    },
    {
      "anonymous": false,
      "inputs": [
        {
          "indexed": true,
          "internalType": "address",
          "name": "operator",
          "type": "address"
        },
        {
          "indexed": true,
          "internalType": "address",
          "name": "from",
          "type": "address"
        },
        {
          "indexed": true,
          "internalType": "address",
          "name": "to",
          "type": "address"
        },
        {
          "indexed": false,
          "internalType": "uint256[]",
          "name": "ids",
          "type": "uint256[]"
        },
        {
          "indexed": false,
          "internalType": "uint256[]",
          "name": "values",
          "type": "uint256[]"
        }
      ],
      "name": "TransferBatch",
      "type": "event"
    },
    {
      "anonymous": false,
      "inputs": [
        {
          "indexed": true,
          "internalType": "address",
          "name": "operator",
          "type": "address"
        },
        {
          "indexed": true,
          "internalType": "address",
          "name": "from",
          "type": "address"
        },
        {
          "indexed": true,
          "internalType": "address",
          "name": "to",
          "type": "address"
        },
        {
          "indexed": false,
          "internalType": "uint256",
          "name": "id",
          "type": "uint256"
        },
        {
          "indexed": false,
          "internalType": "uint256",
          "name": "value",
          "type": "uint256"
        }
      ],
      "name": "TransferSingle",
      "type": "event"
    },
    {
      "anonymous": false,
      "inputs": [
        {
          "indexed": false,
          "internalType": "string",
          "name": "value",
          "type": "string"
        },
        {
          "indexed": true,
          "internalType": "uint256",
          "name": "id",
          "type": "uint256"
        }
      ],
      "name": "URI",
      "type": "event"
    },
    {
      "inputs": [
        {
          "internalType": "address",
          "name": "account",
          "type": "address"
        },
        {
          "internalType": "uint256",
          "name": "id",
          "type": "uint256"
        }
      ],
      "name": "balanceOf",
      "outputs": [
        {
          "internalType": "uint256",
          "name": "",
          "type": "uint256"
        }
      ],
      "stateMutability": "view",
      "type": "function"
    },
    {
      "inputs": [
        {
          "internalType": "address[]",
          "name": "accounts",
          "type": "address[]"
        },
        {
          "internalType": "uint256[]",
          "name": "ids",
          "type": "uint256[]"
        }
      ],
      "name": "balanceOfBatch",
      "outputs": [
        {
          "internalType": "uint256[]",
          "name": "",
          "type": "uint256[]"
        }
      ],
      "stateMutability": "view",
      "type": "function"
    },
    {
      "inputs": [
        {
          "internalType": "address",
          "name": "to",
          "type": "address"
        },
        {
          "internalType": "uint256",
          "name": "fromId",
          "type": "uint256"
        },
        {
          "internalType": "uint256",
          "name": "toId",
          "type": "uint256"
        },
        {
          "internalType": "uint256",
          "name": "amount",
          "type": "uint256"
        },
        {
          "internalType": "bytes",
          "name": "data",
          "type": "bytes"
        }
      ],
      "name": "batchMint",
      "outputs": [],
      "stateMutability": "nonpayable",
      "type": "function"
    },
    {
      "inputs": [
        {
          "internalType": "address",
          "name": "account",
          "type": "address"
        },
        {
          "internalType": "uint256",
          "name": "id",
          "type": "uint256"
        },
        {
          "internalType": "uint256",
          "name": "amount",
          "type": "uint256"
        }
      ],
      "name": "burn",
      "outputs": [],
      "stateMutability": "nonpayable",
      "type": "function"
    },
    {
      "inputs": [
        {
          "internalType": "address",
          "name": "account",
          "type": "address"
        },
        {
          "internalType": "address",
          "name": "operator",
          "type": "address"
        }
      ],
      "name": "isApprovedForAll",
      "outputs": [
        {
          "internalType": "bool",
          "name": "",
          "type": "bool"
        }
      ],
      "stateMutability": "view",
      "type": "function"
    },
    {
      "inputs": [
        {
          "internalType": "address",
          "name": "account",
          "type": "address"
        },
        {
          "internalType": "uint256",
          "name": "id",
          "type": "uint256"
        },
        {
          "internalType": "uint256",
          "name": "amount",
          "type": "uint256"
        },
        {
          "internalType": "bytes",
          "name": "data",
          "type": "bytes"
        }
      ],
      "name": "mint",
      "outputs": [],
      "stateMutability": "nonpayable",
      "type": "function"
    },
    {
      "inputs": [],
      "name": "owner",
      "outputs": [
        {
          "internalType": "address",
          "name": "",
          "type": "address"
        }
      ],
      "stateMutability": "view",
      "type": "function"
    },
    {
      "inputs": [],
      "name": "renounceOwnership",
      "outputs": [],
      "stateMutability": "nonpayable",
      "type": "function"
    },
    {
      "inputs": [
        {
          "internalType": "address",
          "name": "from",
          "type": "address"
        },
        {
          "internalType": "address",
          "name": "to",
          "type": "address"
        },
        {
          "internalType": "uint256[]",
          "name": "ids",
          "type": "uint256[]"
        },
        {
          "internalType": "uint256[]",
          "name": "amounts",
          "type": "uint256[]"
        },
        {
          "internalType": "bytes",
          "name": "data",
          "type": "bytes"
        }
      ],
      "name": "safeBatchTransferFrom",
      "outputs": [],
      "stateMutability": "nonpayable",
      "type": "function"
    },
    {
      "inputs": [
        {
          "internalType": "address",
          "name": "from",
          "type": "address"
        },
        {
          "internalType": "address",
          "name": "to",
          "type": "address"
        },
        {
          "internalType": "uint256",
          "name": "id",
          "type": "uint256"
        },
        {
          "internalType": "uint256",
          "name": "amount",
          "type": "uint256"
        },
        {
          "internalType": "bytes",
          "name": "data",
          "type": "bytes"
        }
      ],
      "name": "safeTransferFrom",
      "outputs": [],
      "stateMutability": "nonpayable",
      "type": "function"
    },
    {
      "inputs": [
        {
          "internalType": "address",
          "name": "operator",
          "type": "address"
        },
        {
          "internalType": "bool",
          "name": "approved",
          "type": "bool"
        }
      ],
      "name": "setApprovalForAll",
      "outputs": [],
      "stateMutability": "nonpayable",
      "type": "function"
    },
    {
      "inputs": [
        {
          "internalType": "string",
          "name": "uri",
          "type": "string"
        }
      ],
      "name": "setURI",
      "outputs": [],
      "stateMutability": "nonpayable",
      "type": "function"
    },
    {
      "inputs": [
        {
          "internalType": "bytes4",
          "name": "interfaceId",
          "type": "bytes4"
        }
      ],
      "name": "supportsInterface",
      "outputs": [
        {
          "internalType": "bool",
          "name": "",
          "type": "bool"
        }
      ],
      "stateMutability": "view",
      "type": "function"
    },
    {
      "inputs": [
        {
          "internalType": "address",
          "name": "newOwner",
          "type": "address"
        }
      ],
      "name": "transferOwnership",
      "outputs": [],
      "stateMutability": "nonpayable",
      "type": "function"
    },
    {
      "inputs": [
        {
          "internalType": "uint256",
          "name": "",
          "type": "uint256"
        }
      ],
      "name": "uri",
      "outputs": [
        {
          "internalType": "string",
          "name": "",
          "type": "string"
        }
      ],
      "stateMutability": "view",
      "type": "function"
    }
  ],
  "bytecode": "0x60806040523480156200001157600080fd5b506040516200257638038062002576833981810160405260208110156200003757600080fd5b81019080805160405193929190846401000000008211156200005857600080fd5b9083019060208201858111156200006e57600080fd5b82516401000000008111828201881017156200008957600080fd5b82525081516020918201929091019080838360005b83811015620000b85781810151838201526020016200009e565b50505050905090810190601f168015620000e65780820380516001836020036101000a031916815260200191505b50604052508291506200011b90507f01ffc9a700000000000000000000000000000000000000000000000000000000620001de565b6200012681620002ad565b620001517fd9b67a2600000000000000000000000000000000000000000000000000000000620001de565b6200017c7f0e89341c00000000000000000000000000000000000000000000000000000000620001de565b50600062000189620002c6565b600480546001600160a01b0319166001600160a01b038316908117909155604051919250906000907f8be0079c531659141344cd1fd0a4f28419497f9722a3daafe3b4186f6b6457e0908290a3505062000366565b7fffffffff0000000000000000000000000000000000000000000000000000000080821614156200027057604080517f08c379a000000000000000000000000000000000000000000000000000000000815260206004820152601c60248201527f4552433136353a20696e76616c696420696e7465726661636520696400000000604482015290519081900360640190fd5b7fffffffff00000000000000000000000000000000000000000000000000000000166000908152602081905260409020805460ff19166001179055565b8051620002c2906003906020840190620002ca565b5050565b3390565b828054600181600116156101000203166002900490600052602060002090601f016020900481019282601f106200030d57805160ff19168380011785556200033d565b828001600101855582156200033d579182015b828111156200033d57825182559160200191906001019062000320565b506200034b9291506200034f565b5090565b5b808211156200034b576000815560010162000350565b61220080620003766000396000f3fe608060405234801561001057600080fd5b50600436106100f45760003560e01c8063715018a611610097578063e985e9c511610066578063e985e9c5146107e5578063f242432a14610813578063f2fde38b146108de578063f5298aca14610904576100f4565b8063715018a6146106c9578063731133e9146106d15780638da5cb5b14610793578063a22cb465146107b7576100f4565b80630e89341c116100d35780630e89341c146102325780632eb2c2d6146102c45780634e1273f41461048b57806362f5cbd814610602576100f4565b8062fdd58e146100f957806301ffc9a71461013757806302fe53051461018a575b600080fd5b6101256004803603604081101561010f57600080fd5b506001600160a01b038135169060200135610936565b60408051918252519081900360200190f35b6101766004803603602081101561014d57600080fd5b50357fffffffff00000000000000000000000000000000000000000000000000000000166109a5565b604080519115158252519081900360200190f35b610230600480360360208110156101a057600080fd5b8101906020810181356401000000008111156101bb57600080fd5b8201836020820111156101cd57600080fd5b803590602001918460018302840111640100000000831117156101ef57600080fd5b91908080601f0160208091040260200160405190810160405280939291908181526020018383808284376000920191909152509295506109dc945050505050565b005b61024f6004803603602081101561024857600080fd5b5035610a5c565b6040805160208082528351818301528351919283929083019185019080838360005b83811015610289578181015183820152602001610271565b50505050905090810190601f1680156102b65780820380516001836020036101000a031916815260200191505b509250505060405180910390f35b610230600480360360a08110156102da57600080fd5b6001600160a01b03823581169260208101359091169181019060608101604082013564010000000081111561030e57600080fd5b82018360208201111561032057600080fd5b8035906020019184602083028401116401000000008311171561034257600080fd5b919080806020026020016040519081016040528093929190818152602001838360200280828437600092019190915250929594936020810193503591505064010000000081111561039257600080fd5b8201836020820111156103a457600080fd5b803590602001918460208302840111640100000000831117156103c657600080fd5b919080806020026020016040519081016040528093929190818152602001838360200280828437600092019190915250929594936020810193503591505064010000000081111561041657600080fd5b82018360208201111561042857600080fd5b8035906020019184600183028401116401000000008311171561044a57600080fd5b91908080601f016020809104026020016040519081016040528093929190818152602001838380828437600092019190915250929550610b12945050505050565b6105b2600480360360408110156104a157600080fd5b8101906020810181356401000000008111156104bc57600080fd5b8201836020820111156104ce57600080fd5b803590602001918460208302840111640100000000831117156104f057600080fd5b919080806020026020016040519081016040528093929190818152602001838360200280828437600092019190915250929594936020810193503591505064010000000081111561054057600080fd5b82018360208201111561055257600080fd5b8035906020019184602083028401116401000000008311171561057457600080fd5b919080806020026020016040519081016040528093929190818152602001838360200280828437600092019190915250929550610e10945050505050565b60408051602080825283518183015283519192839290830191858101910280838360005b838110156105ee5781810151838201526020016105d6565b505050509050019250505060405180910390f35b610230600480360360a081101561061857600080fd5b6001600160a01b038235169160208101359160408201359160608101359181019060a08101608082013564010000000081111561065457600080fd5b82018360208201111561066657600080fd5b8035906020019184600183028401116401000000008311171561068857600080fd5b91908080601f016020809104026020016040519081016040528093929190818152602001838380828437600092019190915250929550610efc945050505050565b610230610fc1565b610230600480360360808110156106e757600080fd5b6001600160a01b03823516916020810135916040820135919081019060808101606082013564010000000081111561071e57600080fd5b82018360208201111561073057600080fd5b8035906020019184600183028401116401000000008311171561075257600080fd5b91908080601f01602080910402602001604051908101604052809392919081815260200183838082843760009201919091525092955061108c945050505050565b61079b611149565b604080516001600160a01b039092168252519081900360200190f35b610230600480360360408110156107cd57600080fd5b506001600160a01b0381351690602001351515611159565b610176600480360360408110156107fb57600080fd5b506001600160a01b0381358116916020013516611266565b610230600480360360a081101561082957600080fd5b6001600160a01b03823581169260208101359091169160408201359160608101359181019060a08101608082013564010000000081111561086957600080fd5b82018360208201111561087b57600080fd5b8035906020019184600183028401116401000000008311171561089d57600080fd5b91908080601f016020809104026020016040519081016040528093929190818152602001838380828437600092019190915250929550611294945050505050565b610230600480360360208110156108f457600080fd5b50356001600160a01b031661145f565b6102306004803603606081101561091a57600080fd5b506001600160a01b038135169060208101359060400135611581565b60006001600160a01b03831661097d5760405162461bcd60e51b815260040180806020018281038252602b815260200180611fee602b913960400191505060405180910390fd5b5060009081526001602090815260408083206001600160a01b03949094168352929052205490565b7fffffffff000000000000000000000000000000000000000000000000000000001660009081526020819052604090205460ff1690565b6109e461162d565b6001600160a01b03166109f5611149565b6001600160a01b031614610a50576040805162461bcd60e51b815260206004820181905260248201527f4f776e61626c653a2063616c6c6572206973206e6f7420746865206f776e6572604482015290519081900360640190fd5b610a5981611631565b50565b60038054604080516020601f60027fffffffffffffffffffffffffffffffffffffffffffffffffffffffffffffffff610100600188161502019095169490940493840181900481028201810190925282815260609390929091830182828015610b065780601f10610adb57610100808354040283529160200191610b06565b820191906000526020600020905b815481529060010190602001808311610ae957829003601f168201915b50505050509050919050565b8151835114610b525760405162461bcd60e51b81526004018080602001828103825260288152602001806121826028913960400191505060405180910390fd5b6001600160a01b038416610b975760405162461bcd60e51b815260040180806020018281038252602581526020018061208c6025913960400191505060405180910390fd5b610b9f61162d565b6001600160a01b0316856001600160a01b03161480610bca5750610bca85610bc561162d565b611266565b610c055760405162461bcd60e51b81526004018080602001828103825260328152602001806120b16032913960400191505060405180910390fd5b6000610c0f61162d565b9050610c1f818787878787610e08565b60005b8451811015610d20576000858281518110610c3957fe5b602002602001015190506000858381518110610c5157fe5b60200260200101519050610cbe816040518060600160405280602a8152602001612106602a91396001600086815260200190815260200160002060008d6001600160a01b03166001600160a01b03168152602001908152602001600020546116489092919063ffffffff16565b60008381526001602090815260408083206001600160a01b038e811685529252808320939093558a1681522054610cf590826116df565b60009283526001602081815260408086206001600160a01b038d168752909152909320555001610c22565b50846001600160a01b0316866001600160a01b0316826001600160a01b03167f4a39dc06d4c0dbc64b70af90fd698a233a518aa5d07e595d983b8c0526c8f7fb8787604051808060200180602001838103835285818151815260200191508051906020019060200280838360005b83811015610da6578181015183820152602001610d8e565b50505050905001838103825284818151815260200191508051906020019060200280838360005b83811015610de5578181015183820152602001610dcd565b5050505090500194505050505060405180910390a4610e08818787878787611740565b505050505050565b60608151835114610e525760405162461bcd60e51b81526004018080602001828103825260298152602001806121596029913960400191505060405180910390fd5b6060835167ffffffffffffffff81118015610e6c57600080fd5b50604051908082528060200260200182016040528015610e96578160200160208202803683370190505b50905060005b8451811015610ef457610ed5858281518110610eb457fe5b6020026020010151858381518110610ec857fe5b6020026020010151610936565b828281518110610ee157fe5b6020908102919091010152600101610e9c565b509392505050565b610f0461162d565b6001600160a01b0316610f15611149565b6001600160a01b031614610f70576040805162461bcd60e51b815260206004820181905260248201527f4f776e61626c653a2063616c6c6572206973206e6f7420746865206f776e6572604482015290519081900360640190fd5b835b838111610e0857610f85868285856119f0565b6000818152600560205260409020805473ffffffffffffffffffffffffffffffffffffffff19166001600160a01b038816179055600101610f72565b610fc961162d565b6001600160a01b0316610fda611149565b6001600160a01b031614611035576040805162461bcd60e51b815260206004820181905260248201527f4f776e61626c653a2063616c6c6572206973206e6f7420746865206f776e6572604482015290519081900360640190fd5b6004546040516000916001600160a01b0316907f8be0079c531659141344cd1fd0a4f28419497f9722a3daafe3b4186f6b6457e0908390a36004805473ffffffffffffffffffffffffffffffffffffffff19169055565b61109461162d565b6001600160a01b03166110a5611149565b6001600160a01b031614611100576040805162461bcd60e51b815260206004820181905260248201527f4f776e61626c653a2063616c6c6572206973206e6f7420746865206f776e6572604482015290519081900360640190fd5b61110c848484846119f0565b50506000908152600560205260409020805473ffffffffffffffffffffffffffffffffffffffff19166001600160a01b0392909216919091179055565b6004546001600160a01b03165b90565b816001600160a01b031661116b61162d565b6001600160a01b031614156111b15760405162461bcd60e51b81526004018080602001828103825260298152602001806121306029913960400191505060405180910390fd5b80600260006111be61162d565b6001600160a01b0390811682526020808301939093526040918201600090812091871680825291909352912080547fffffffffffffffffffffffffffffffffffffffffffffffffffffffffffffff00169215159290921790915561122061162d565b6001600160a01b03167f17307eab39ab6107e8899845ad3d59bd9653f200f220920489ca2b5937696c318360405180821515815260200191505060405180910390a35050565b6001600160a01b03918216600090815260026020908152604080832093909416825291909152205460ff1690565b6001600160a01b0384166112d95760405162461bcd60e51b815260040180806020018281038252602581526020018061208c6025913960400191505060405180910390fd5b6112e161162d565b6001600160a01b0316856001600160a01b03161480611307575061130785610bc561162d565b6113425760405162461bcd60e51b81526004018080602001828103825260298152602001806120636029913960400191505060405180910390fd5b600061134c61162d565b905061136c81878761135d88611af8565b61136688611af8565b87610e08565b6113b3836040518060600160405280602a8152602001612106602a913960008781526001602090815260408083206001600160a01b038d1684529091529020549190611648565b60008581526001602090815260408083206001600160a01b038b811685529252808320939093558716815220546113ea90846116df565b60008581526001602090815260408083206001600160a01b03808b168086529184529382902094909455805188815291820187905280518a8416938616927fc3d58168c5ae7397731d063d5bbf3d657854427343f4c083240f7aacaa2d0f6292908290030190a4610e08818787878787611b3c565b61146761162d565b6001600160a01b0316611478611149565b6001600160a01b0316146114d3576040805162461bcd60e51b815260206004820181905260248201527f4f776e61626c653a2063616c6c6572206973206e6f7420746865206f776e6572604482015290519081900360640190fd5b6001600160a01b0381166115185760405162461bcd60e51b81526004018080602001828103825260268152602001806120196026913960400191505060405180910390fd5b6004546040516001600160a01b038084169216907f8be0079c531659141344cd1fd0a4f28419497f9722a3daafe3b4186f6b6457e090600090a36004805473ffffffffffffffffffffffffffffffffffffffff19166001600160a01b0392909216919091179055565b61158961162d565b6001600160a01b031661159a611149565b6001600160a01b0316146115f5576040805162461bcd60e51b815260206004820181905260248201527f4f776e61626c653a2063616c6c6572206973206e6f7420746865206f776e6572604482015290519081900360640190fd5b611600838383611cde565b506000908152600560205260409020805473ffffffffffffffffffffffffffffffffffffffff1916905550565b3390565b8051611644906003906020840190611e17565b5050565b600081848411156116d75760405162461bcd60e51b81526004018080602001828103825283818151815260200191508051906020019080838360005b8381101561169c578181015183820152602001611684565b50505050905090810190601f1680156116c95780820380516001836020036101000a031916815260200191505b509250505060405180910390fd5b505050900390565b600082820183811015611739576040805162461bcd60e51b815260206004820152601b60248201527f536166654d6174683a206164646974696f6e206f766572666c6f770000000000604482015290519081900360640190fd5b9392505050565b611752846001600160a01b0316611e11565b15610e0857836001600160a01b031663bc197c8187878686866040518663ffffffff1660e01b815260040180866001600160a01b03168152602001856001600160a01b03168152602001806020018060200180602001848103845287818151815260200191508051906020019060200280838360005b838110156117e05781810151838201526020016117c8565b50505050905001848103835286818151815260200191508051906020019060200280838360005b8381101561181f578181015183820152602001611807565b50505050905001848103825285818151815260200191508051906020019080838360005b8381101561185b578181015183820152602001611843565b50505050905090810190601f1680156118885780820380516001836020036101000a031916815260200191505b5098505050505050505050602060405180830381600087803b1580156118ad57600080fd5b505af19250505080156118d257506040513d60208110156118cd57600080fd5b505160015b611967576118de611eb0565b806118e95750611930565b60405162461bcd60e51b815260206004820181815283516024840152835184939192839260440191908501908083836000831561169c578181015183820152602001611684565b60405162461bcd60e51b8152600401808060200182810382526034815260200180611f926034913960400191505060405180910390fd5b7fffffffff0000000000000000000000000000000000000000000000000000000081167fbc197c8100000000000000000000000000000000000000000000000000000000146119e75760405162461bcd60e51b8152600401808060200182810382526028815260200180611fc66028913960400191505060405180910390fd5b50505050505050565b6001600160a01b038416611a355760405162461bcd60e51b81526004018080602001828103825260218152602001806121aa6021913960400191505060405180910390fd5b6000611a3f61162d565b9050611a518160008761135d88611af8565b60008481526001602090815260408083206001600160a01b0389168452909152902054611a7e90846116df565b60008581526001602090815260408083206001600160a01b03808b16808652918452828520959095558151898152928301889052815190948616927fc3d58168c5ae7397731d063d5bbf3d657854427343f4c083240f7aacaa2d0f6292908290030190a4611af181600087878787611b3c565b5050505050565b604080516001808252818301909252606091829190602080830190803683370190505090508281600081518110611b2b57fe5b602090810291909101015292915050565b611b4e846001600160a01b0316611e11565b15610e0857836001600160a01b031663f23a6e6187878686866040518663ffffffff1660e01b815260040180866001600160a01b03168152602001856001600160a01b0316815260200184815260200183815260200180602001828103825283818151815260200191508051906020019080838360005b83811015611bdd578181015183820152602001611bc5565b50505050905090810190601f168015611c0a5780820380516001836020036101000a031916815260200191505b509650505050505050602060405180830381600087803b158015611c2d57600080fd5b505af1925050508015611c5257506040513d6020811015611c4d57600080fd5b505160015b611c5e576118de611eb0565b7fffffffff0000000000000000000000000000000000000000000000000000000081167ff23a6e6100000000000000000000000000000000000000000000000000000000146119e75760405162461bcd60e51b8152600401808060200182810382526028815260200180611fc66028913960400191505060405180910390fd5b6001600160a01b038316611d235760405162461bcd60e51b81526004018080602001828103825260238152602001806120e36023913960400191505060405180910390fd5b6000611d2d61162d565b9050611d5d81856000611d3f87611af8565b611d4887611af8565b60405180602001604052806000815250610e08565b611da48260405180606001604052806024815260200161203f6024913960008681526001602090815260408083206001600160a01b038b1684529091529020549190611648565b60008481526001602090815260408083206001600160a01b03808a16808652918452828520959095558151888152928301879052815193949093908616927fc3d58168c5ae7397731d063d5bbf3d657854427343f4c083240f7aacaa2d0f6292908290030190a450505050565b3b151590565b828054600181600116156101000203166002900490600052602060002090601f016020900481019282601f10611e5857805160ff1916838001178555611e85565b82800160010185558215611e85579182015b82811115611e85578251825591602001919060010190611e6a565b50611e91929150611e95565b5090565b5b80821115611e915760008155600101611e96565b60e01c90565b600060443d1015611ec057611156565b600481823e6308c379a0611ed48251611eaa565b14611ede57611156565b6040517ffffffffffffffffffffffffffffffffffffffffffffffffffffffffffffffffc3d016004823e80513d67ffffffffffffffff8160248401118184111715611f2c5750505050611156565b82840192508251915080821115611f465750505050611156565b503d83016020828401011115611f5e57505050611156565b601f017fffffffffffffffffffffffffffffffffffffffffffffffffffffffffffffffe01681016020016040529150509056fe455243313135353a207472616e7366657220746f206e6f6e2045524331313535526563656976657220696d706c656d656e746572455243313135353a204552433131353552656365697665722072656a656374656420746f6b656e73455243313135353a2062616c616e636520717565727920666f7220746865207a65726f20616464726573734f776e61626c653a206e6577206f776e657220697320746865207a65726f2061646472657373455243313135353a206275726e20616d6f756e7420657863656564732062616c616e6365455243313135353a2063616c6c6572206973206e6f74206f776e6572206e6f7220617070726f766564455243313135353a207472616e7366657220746f20746865207a65726f2061646472657373455243313135353a207472616e736665722063616c6c6572206973206e6f74206f776e6572206e6f7220617070726f766564455243313135353a206275726e2066726f6d20746865207a65726f2061646472657373455243313135353a20696e73756666696369656e742062616c616e636520666f72207472616e73666572455243313135353a2073657474696e6720617070726f76616c2073746174757320666f722073656c66455243313135353a206163636f756e747320616e6420696473206c656e677468206d69736d61746368455243313135353a2069647320616e6420616d6f756e7473206c656e677468206d69736d61746368455243313135353a206d696e7420746f20746865207a65726f2061646472657373a2646970667358221220b737332fe7b55d488a38a9f5da47be068d8938045de7650615dc58247791591164736f6c634300060c0033",
  "compiler": {
    "name": "solc",
    "version": "0.6.12+commit.27d51765.Emscripten.clang",
    "optimizer": {
      "enabled": true,
      "runs": 2000
    },
    "evmVersion": "petersburg"
  }
}