{
  "fileName": "BounceERC721WithSign.sol",
  "contractName": "BounceERC721WithSign",
  "source": "// SPDX-License-Identifier: MIT\n\npragma solidity ^0.6.0;\n\nimport \"./BounceERC721.sol\";\nimport \"@openzeppelin/contracts/cryptography/ECDSA.sol\";\n\ncontract BounceERC721WithSign is BounceERC721 {\n    constructor (string memory name_, string memory symbol_) public BounceERC721(name_, symbol_) {}\n\n    // address to sign mint message\n    address public signer;\n\n    function setSigner(address _signer) external onlyOwner {\n        signer = _signer;\n    }\n\n    function mintUser(uint256 id, bytes calldata sign, uint expireTime) external {\n        require(block.timestamp <= expireTime, \"SIGN EXPIRE\");\n        bytes32 hash = ECDSA.toEthSignedMessageHash(keccak256(abi.encode(msg.sender, id, expireTime)));\n        require(ECDSA.recover(hash, sign) == signer, \"INVALID SIGNER\");\n        super._mint(msg.sender, id);\n        creator[id] = msg.sender;\n    }\n}",
  "sourcePath": "contracts/BounceERC721WithSign.sol",
  "abi": [
    {
      "inputs": [
        {
          "internalType": "string",
          "name": "name_",
          "type": "string"
        },
        {
          "internalType": "string",
          "name": "symbol_",
          "type": "string"
        }
      ],
      "stateMutability": "nonpayable",
      "type": "constructor"
    },
    {
      "anonymous": false,
      "inputs": [
        {
          "indexed": true,
          "internalType": "address",
          "name": "owner",
          "type": "address"
        },
        {
          "indexed": true,
          "internalType": "address",
          "name": "approved",
          "type": "address"
        },
        {
          "indexed": true,
          "internalType": "uint256",
          "name": "tokenId",
          "type": "uint256"
        }
      ],
      "name": "Approval",
      "type": "event"
    },
    {
      "anonymous": false,
      "inputs": [
        {
          "indexed": true,
          "internalType": "address",
          "name": "owner",
          "type": "address"
        },
        {
          "indexed": true,
          "internalType": "address",
          "name": "operator",
          "type": "address"
        },
        {
          "indexed": false,
          "internalType": "bool",
          "name": "approved",
          "type": "bool"
        }
      ],
      "name": "ApprovalForAll",
      "type": "event"
    },
    {
      "anonymous": false,
      "inputs": [
        {
          "indexed": true,
          "internalType": "address",
          "name": "previousOwner",
          "type": "address"
        },
        {
          "indexed": true,
          "internalType": "address",
          "name": "newOwner",
          "type": "address"
        }
      ],
      "name": "OwnershipTransferred",
      "type": "event"
    },
    {
      "anonymous": false,
      "inputs": [
        {
          "indexed": true,
          "internalType": "address",
          "name": "from",
          "type": "address"
        },
        {
          "indexed": true,
          "internalType": "address",
          "name": "to",
          "type": "address"
        },
        {
          "indexed": true,
          "internalType": "uint256",
          "name": "tokenId",
          "type": "uint256"
        }
      ],
      "name": "Transfer",
      "type": "event"
    },
    {
      "inputs": [
        {
          "internalType": "address",
          "name": "to",
          "type": "address"
        },
        {
          "internalType": "uint256",
          "name": "tokenId",
          "type": "uint256"
        }
      ],
      "name": "approve",
      "outputs": [],
      "stateMutability": "nonpayable",
      "type": "function"
    },
    {
      "inputs": [
        {
          "internalType": "address",
          "name": "owner",
          "type": "address"
        }
      ],
      "name": "balanceOf",
      "outputs": [
        {
          "internalType": "uint256",
          "name": "",
          "type": "uint256"
        }
      ],
      "stateMutability": "view",
      "type": "function"
    },
    {
      "inputs": [],
      "name": "baseURI",
      "outputs": [
        {
          "internalType": "string",
          "name": "",
          "type": "string"
        }
      ],
      "stateMutability": "view",
      "type": "function"
    },
    {
      "inputs": [
        {
          "internalType": "address",
          "name": "to",
          "type": "address"
        },
        {
          "internalType": "uint256",
          "name": "fromTokenId",
          "type": "uint256"
        },
        {
          "internalType": "uint256",
          "name": "toTokenId",
          "type": "uint256"
        }
      ],
      "name": "batchMint",
      "outputs": [],
      "stateMutability": "nonpayable",
      "type": "function"
    },
    {
      "inputs": [
        {
          "internalType": "uint256",
          "name": "tokenId",
          "type": "uint256"
        }
      ],
      "name": "burn",
      "outputs": [],
      "stateMutability": "nonpayable",
      "type": "function"
    },
    {
      "inputs": [
        {
          "internalType": "uint256",
          "name": "",
          "type": "uint256"
        }
      ],
      "name": "creator",
      "outputs": [
        {
          "internalType": "address",
          "name": "",
          "type": "address"
        }
      ],
      "stateMutability": "view",
      "type": "function"
    },
    {
      "inputs": [
        {
          "internalType": "uint256",
          "name": "tokenId",
          "type": "uint256"
        }
      ],
      "name": "getApproved",
      "outputs": [
        {
          "internalType": "address",
          "name": "",
          "type": "address"
        }
      ],
      "stateMutability": "view",
      "type": "function"
    },
    {
      "inputs": [
        {
          "internalType": "address",
          "name": "owner",
          "type": "address"
        },
        {
          "internalType": "address",
          "name": "operator",
          "type": "address"
        }
      ],
      "name": "isApprovedForAll",
      "outputs": [
        {
          "internalType": "bool",
          "name": "",
          "type": "bool"
        }
      ],
      "stateMutability": "view",
      "type": "function"
    },
    {
      "inputs": [
        {
          "internalType": "address",
          "name": "to",
          "type": "address"
        },
        {
          "internalType": "uint256",
          "name": "tokenId",
          "type": "uint256"
        }
      ],
      "name": "mint",
      "outputs": [],
      "stateMutability": "nonpayable",
      "type": "function"
    },
    {
      "inputs": [
        {
          "internalType": "uint256",
          "name": "id",
          "type": "uint256"
        },
        {
          "internalType": "bytes",
          "name": "sign",
          "type": "bytes"
        },
        {
          "internalType": "uint256",
          "name": "expireTime",
          "type": "uint256"
        }
      ],
      "name": "mintUser",
      "outputs": [],
      "stateMutability": "nonpayable",
      "type": "function"
    },
    {
      "inputs": [],
      "name": "name",
      "outputs": [
        {
          "internalType": "string",
          "name": "",
          "type": "string"
        }
      ],
      "stateMutability": "view",
      "type": "function"
    },
    {
      "inputs": [],
      "name": "owner",
      "outputs": [
        {
          "internalType": "address",
          "name": "",
          "type": "address"
        }
      ],
      "stateMutability": "view",
      "type": "function"
    },
    {
      "inputs": [
        {
          "internalType": "uint256",
          "name": "tokenId",
          "type": "uint256"
        }
      ],
      "name": "ownerOf",
      "outputs": [
        {
          "internalType": "address",
          "name": "",
          "type": "address"
        }
      ],
      "stateMutability": "view",
      "type": "function"
    },
    {
      "inputs": [],
      "name": "renounceOwnership",
      "outputs": [],
      "stateMutability": "nonpayable",
      "type": "function"
    },
    {
      "inputs": [
        {
          "internalType": "address",
          "name": "from",
          "type": "address"
        },
        {
          "internalType": "address",
          "name": "to",
          "type": "address"
        },
        {
          "internalType": "uint256",
          "name": "tokenId",
          "type": "uint256"
        }
      ],
      "name": "safeTransferFrom",
      "outputs": [],
      "stateMutability": "nonpayable",
      "type": "function"
    },
    {
      "inputs": [
        {
          "internalType": "address",
          "name": "from",
          "type": "address"
        },
        {
          "internalType": "address",
          "name": "to",
          "type": "address"
        },
        {
          "internalType": "uint256",
          "name": "tokenId",
          "type": "uint256"
        },
        {
          "internalType": "bytes",
          "name": "_data",
          "type": "bytes"
        }
      ],
      "name": "safeTransferFrom",
      "outputs": [],
      "stateMutability": "nonpayable",
      "type": "function"
    },
    {
      "inputs": [
        {
          "internalType": "address",
          "name": "operator",
          "type": "address"
        },
        {
          "internalType": "bool",
          "name": "approved",
          "type": "bool"
        }
      ],
      "name": "setApprovalForAll",
      "outputs": [],
      "stateMutability": "nonpayable",
      "type": "function"
    },
    {
      "inputs": [
        {
          "internalType": "string",
          "name": "baseURI_",
          "type": "string"
        }
      ],
      "name": "setBaseURI",
      "outputs": [],
      "stateMutability": "nonpayable",
      "type": "function"
    },
    {
      "inputs": [
        {
          "internalType": "address",
          "name": "_signer",
          "type": "address"
        }
      ],
      "name": "setSigner",
      "outputs": [],
      "stateMutability": "nonpayable",
      "type": "function"
    },
    {
      "inputs": [],
      "name": "signer",
      "outputs": [
        {
          "internalType": "address",
          "name": "",
          "type": "address"
        }
      ],
      "stateMutability": "view",
      "type": "function"
    },
    {
      "inputs": [
        {
          "internalType": "bytes4",
          "name": "interfaceId",
          "type": "bytes4"
        }
      ],
      "name": "supportsInterface",
      "outputs": [
        {
          "internalType": "bool",
          "name": "",
          "type": "bool"
        }
      ],
      "stateMutability": "view",
      "type": "function"
    },
    {
      "inputs": [],
      "name": "symbol",
      "outputs": [
        {
          "internalType": "string",
          "name": "",
          "type": "string"
        }
      ],
      "stateMutability": "view",
      "type": "function"
    },
    {
      "inputs": [
        {
          "internalType": "uint256",
          "name": "index",
          "type": "uint256"
        }
      ],
      "name": "tokenByIndex",
      "outputs": [
        {
          "internalType": "uint256",
          "name": "",
          "type": "uint256"
        }
      ],
      "stateMutability": "view",
      "type": "function"
    },
    {
      "inputs": [
        {
          "internalType": "address",
          "name": "owner",
          "type": "address"
        },
        {
          "internalType": "uint256",
          "name": "index",
          "type": "uint256"
        }
      ],
      "name": "tokenOfOwnerByIndex",
      "outputs": [
        {
          "internalType": "uint256",
          "name": "",
          "type": "uint256"
        }
      ],
      "stateMutability": "view",
      "type": "function"
    },
    {
      "inputs": [
        {
          "internalType": "uint256",
          "name": "tokenId",
          "type": "uint256"
        }
      ],
      "name": "tokenURI",
      "outputs": [
        {
          "internalType": "string",
          "name": "",
          "type": "string"
        }
      ],
      "stateMutability": "view",
      "type": "function"
    },
    {
      "inputs": [],
      "name": "totalSupply",
      "outputs": [
        {
          "internalType": "uint256",
          "name": "",
          "type": "uint256"
        }
      ],
      "stateMutability": "view",
      "type": "function"
    },
    {
      "inputs": [
        {
          "internalType": "address",
          "name": "from",
          "type": "address"
        },
        {
          "internalType": "address",
          "name": "to",
          "type": "address"
        },
        {
          "internalType": "uint256",
          "name": "tokenId",
          "type": "uint256"
        }
      ],
      "name": "transferFrom",
      "outputs": [],
      "stateMutability": "nonpayable",
      "type": "function"
    },
    {
      "inputs": [
        {
          "internalType": "address",
          "name": "newOwner",
          "type": "address"
        }
      ],
      "name": "transferOwnership",
      "outputs": [],
      "stateMutability": "nonpayable",
      "type": "function"
    }
  ],
  "bytecode": "0x60806040523480156200001157600080fd5b5060405162002fad38038062002fad833981810160405260408110156200003757600080fd5b81019080805160405193929190846401000000008211156200005857600080fd5b9083019060208201858111156200006e57600080fd5b82516401000000008111828201881017156200008957600080fd5b82525081516020918201929091019080838360005b83811015620000b85781810151838201526020016200009e565b50505050905090810190601f168015620000e65780820380516001836020036101000a031916815260200191505b50604052602001805160405193929190846401000000008211156200010a57600080fd5b9083019060208201858111156200012057600080fd5b82516401000000008111828201881017156200013b57600080fd5b82525081516020918201929091019080838360005b838110156200016a57818101518382015260200162000150565b50505050905090810190601f168015620001985780820380516001836020036101000a031916815260200191505b50604052508391508290508181620001d07f01ffc9a700000000000000000000000000000000000000000000000000000000620002e4565b8151620001e5906006906020850190620003b7565b508051620001fb906007906020840190620003b7565b50620002277f80ac58cd00000000000000000000000000000000000000000000000000000000620002e4565b620002527f5b5e139f00000000000000000000000000000000000000000000000000000000620002e4565b6200027d7f780e9d6300000000000000000000000000000000000000000000000000000000620002e4565b50600090506200028c620003b3565b600a80546001600160a01b0319166001600160a01b038316908117909155604051919250906000907f8be0079c531659141344cd1fd0a4f28419497f9722a3daafe3b4186f6b6457e0908290a3505050505062000453565b7fffffffff0000000000000000000000000000000000000000000000000000000080821614156200037657604080517f08c379a000000000000000000000000000000000000000000000000000000000815260206004820152601c60248201527f4552433136353a20696e76616c696420696e7465726661636520696400000000604482015290519081900360640190fd5b7fffffffff00000000000000000000000000000000000000000000000000000000166000908152602081905260409020805460ff19166001179055565b3390565b828054600181600116156101000203166002900490600052602060002090601f016020900481019282601f10620003fa57805160ff19168380011785556200042a565b828001600101855582156200042a579182015b828111156200042a5782518255916020019190600101906200040d565b50620004389291506200043c565b5090565b5b808211156200043857600081556001016200043d565b612b4a80620004636000396000f3fe608060405234801561001057600080fd5b50600436106101c45760003560e01c806355f804b3116100f957806395d89b4111610097578063bccfb95511610071578063bccfb95514610692578063c87b56dd14610709578063e985e9c514610726578063f2fde38b14610754576101c4565b806395d89b4114610596578063a22cb4651461059e578063b88d4fde146105cc576101c4565b80636c19e783116100d35780636c19e7831461053a57806370a0823114610560578063715018a6146105865780638da5cb5b1461058e576101c4565b806355f804b31461046f5780636352211e146105155780636c0360eb14610532576101c4565b80632a959b891161016657806342842e0e1161014057806342842e0e146103e257806342966c68146104185780634f6ccce714610435578063510b515814610452576101c4565b80632a959b89146103585780632f745c591461038a57806340c10f19146103b6576101c4565b8063095ea7b3116101a2578063095ea7b3146102d257806318160ddd14610300578063238ac9331461031a57806323b872dd14610322576101c4565b806301ffc9a7146101c957806306fdde031461021c578063081812fc14610299575b600080fd5b610208600480360360208110156101df57600080fd5b50357fffffffff000000000000000000000000000000000000000000000000000000001661077a565b604080519115158252519081900360200190f35b6102246107b5565b6040805160208082528351818301528351919283929083019185019080838360005b8381101561025e578181015183820152602001610246565b50505050905090810190601f16801561028b5780820380516001836020036101000a031916815260200191505b509250505060405180910390f35b6102b6600480360360208110156102af57600080fd5b503561084b565b604080516001600160a01b039092168252519081900360200190f35b6102fe600480360360408110156102e857600080fd5b506001600160a01b0381351690602001356108ad565b005b610308610988565b60408051918252519081900360200190f35b6102b6610999565b6102fe6004803603606081101561033857600080fd5b506001600160a01b038135811691602081013590911690604001356109a8565b6102fe6004803603606081101561036e57600080fd5b506001600160a01b0381351690602081013590604001356109ff565b610308600480360360408110156103a057600080fd5b506001600160a01b038135169060200135610ac8565b6102fe600480360360408110156103cc57600080fd5b506001600160a01b038135169060200135610af3565b6102fe600480360360608110156103f857600080fd5b506001600160a01b03813581169160208101359091169060400135610bac565b6102fe6004803603602081101561042e57600080fd5b5035610bc7565b6103086004803603602081101561044b57600080fd5b5035610c6f565b6102b66004803603602081101561046857600080fd5b5035610c85565b6102fe6004803603602081101561048557600080fd5b8101906020810181356401000000008111156104a057600080fd5b8201836020820111156104b257600080fd5b803590602001918460018302840111640100000000831117156104d457600080fd5b91908080601f016020809104026020016040519081016040528093929190818152602001838380828437600092019190915250929550610ca0945050505050565b6102b66004803603602081101561052b57600080fd5b5035610d20565b610224610d48565b6102fe6004803603602081101561055057600080fd5b50356001600160a01b0316610da9565b6103086004803603602081101561057657600080fd5b50356001600160a01b0316610e4c565b6102fe610eb4565b6102b6610f7f565b610224610f8e565b6102fe600480360360408110156105b457600080fd5b506001600160a01b0381351690602001351515610fef565b6102fe600480360360808110156105e257600080fd5b6001600160a01b0382358116926020810135909116916040820135919081019060808101606082013564010000000081111561061d57600080fd5b82018360208201111561062f57600080fd5b8035906020019184600183028401116401000000008311171561065157600080fd5b91908080601f016020809104026020016040519081016040528093929190818152602001838380828437600092019190915250929550611112945050505050565b6102fe600480360360608110156106a857600080fd5b813591908101906040810160208201356401000000008111156106ca57600080fd5b8201836020820111156106dc57600080fd5b803590602001918460018302840111640100000000831117156106fe57600080fd5b91935091503561116a565b6102246004803603602081101561071f57600080fd5b50356112f1565b6102086004803603604081101561073c57600080fd5b506001600160a01b0381358116916020013516611574565b6102fe6004803603602081101561076a57600080fd5b50356001600160a01b03166115a2565b7fffffffff00000000000000000000000000000000000000000000000000000000811660009081526020819052604090205460ff165b919050565b60068054604080516020601f60026000196101006001881615020190951694909404938401819004810282018101909252828152606093909290918301828280156108415780601f1061081657610100808354040283529160200191610841565b820191906000526020600020905b81548152906001019060200180831161082457829003601f168201915b5050505050905090565b6000610856826116c4565b6108915760405162461bcd60e51b815260040180806020018281038252602c815260200180612a3f602c913960400191505060405180910390fd5b506000908152600460205260409020546001600160a01b031690565b60006108b882610d20565b9050806001600160a01b0316836001600160a01b0316141561090b5760405162461bcd60e51b8152600401808060200182810382526021815260200180612ac36021913960400191505060405180910390fd5b806001600160a01b031661091d6116d1565b6001600160a01b0316148061093e575061093e816109396116d1565b611574565b6109795760405162461bcd60e51b81526004018080602001828103825260388152602001806129706038913960400191505060405180910390fd5b61098383836116d5565b505050565b60006109946002611750565b905090565b600c546001600160a01b031681565b6109b96109b36116d1565b8261175b565b6109f45760405162461bcd60e51b8152600401808060200182810382526031815260200180612ae46031913960400191505060405180910390fd5b6109838383836117ff565b610a076116d1565b6001600160a01b0316610a18610f7f565b6001600160a01b031614610a73576040805162461bcd60e51b815260206004820181905260248201527f4f776e61626c653a2063616c6c6572206973206e6f7420746865206f776e6572604482015290519081900360640190fd5b815b818111610ac257610a86848261194b565b6000818152600b60205260409020805473ffffffffffffffffffffffffffffffffffffffff19166001600160a01b038616179055600101610a75565b50505050565b6001600160a01b0382166000908152600160205260408120610aea9083611969565b90505b92915050565b610afb6116d1565b6001600160a01b0316610b0c610f7f565b6001600160a01b031614610b67576040805162461bcd60e51b815260206004820181905260248201527f4f776e61626c653a2063616c6c6572206973206e6f7420746865206f776e6572604482015290519081900360640190fd5b610b71828261194b565b6000908152600b60205260409020805473ffffffffffffffffffffffffffffffffffffffff19166001600160a01b0392909216919091179055565b61098383838360405180602001604052806000815250611112565b610bcf6116d1565b6001600160a01b0316610be0610f7f565b6001600160a01b031614610c3b576040805162461bcd60e51b815260206004820181905260248201527f4f776e61626c653a2063616c6c6572206973206e6f7420746865206f776e6572604482015290519081900360640190fd5b610c4481611975565b6000908152600b60205260409020805473ffffffffffffffffffffffffffffffffffffffff19169055565b600080610c7d600284611a42565b509392505050565b600b602052600090815260409020546001600160a01b031681565b610ca86116d1565b6001600160a01b0316610cb9610f7f565b6001600160a01b031614610d14576040805162461bcd60e51b815260206004820181905260248201527f4f776e61626c653a2063616c6c6572206973206e6f7420746865206f776e6572604482015290519081900360640190fd5b610d1d81611a5e565b50565b6000610aed826040518060600160405280602981526020016129d26029913960029190611a71565b60098054604080516020601f60026000196101006001881615020190951694909404938401819004810282018101909252828152606093909290918301828280156108415780601f1061081657610100808354040283529160200191610841565b610db16116d1565b6001600160a01b0316610dc2610f7f565b6001600160a01b031614610e1d576040805162461bcd60e51b815260206004820181905260248201527f4f776e61626c653a2063616c6c6572206973206e6f7420746865206f776e6572604482015290519081900360640190fd5b600c805473ffffffffffffffffffffffffffffffffffffffff19166001600160a01b0392909216919091179055565b60006001600160a01b038216610e935760405162461bcd60e51b815260040180806020018281038252602a8152602001806129a8602a913960400191505060405180910390fd5b6001600160a01b0382166000908152600160205260409020610aed90611750565b610ebc6116d1565b6001600160a01b0316610ecd610f7f565b6001600160a01b031614610f28576040805162461bcd60e51b815260206004820181905260248201527f4f776e61626c653a2063616c6c6572206973206e6f7420746865206f776e6572604482015290519081900360640190fd5b600a546040516000916001600160a01b0316907f8be0079c531659141344cd1fd0a4f28419497f9722a3daafe3b4186f6b6457e0908390a3600a805473ffffffffffffffffffffffffffffffffffffffff19169055565b600a546001600160a01b031690565b60078054604080516020601f60026000196101006001881615020190951694909404938401819004810282018101909252828152606093909290918301828280156108415780601f1061081657610100808354040283529160200191610841565b610ff76116d1565b6001600160a01b0316826001600160a01b0316141561105d576040805162461bcd60e51b815260206004820152601960248201527f4552433732313a20617070726f766520746f2063616c6c657200000000000000604482015290519081900360640190fd5b806005600061106a6116d1565b6001600160a01b0390811682526020808301939093526040918201600090812091871680825291909352912080547fffffffffffffffffffffffffffffffffffffffffffffffffffffffffffffff0016921515929092179091556110cc6116d1565b6001600160a01b03167f17307eab39ab6107e8899845ad3d59bd9653f200f220920489ca2b5937696c318360405180821515815260200191505060405180910390a35050565b61112361111d6116d1565b8361175b565b61115e5760405162461bcd60e51b8152600401808060200182810382526031815260200180612ae46031913960400191505060405180910390fd5b610ac284848484611a88565b804211156111bf576040805162461bcd60e51b815260206004820152600b60248201527f5349474e20455850495245000000000000000000000000000000000000000000604482015290519081900360640190fd5b600061120933868460405160200180846001600160a01b03168152602001838152602001828152602001935050505060405160208183030381529060405280519060200120611ada565b600c54604080516020601f88018190048102820181019092528681529293506001600160a01b039091169161125b918491908890889081908401838280828437600092019190915250611b2b92505050565b6001600160a01b0316146112b6576040805162461bcd60e51b815260206004820152600e60248201527f494e56414c4944205349474e4552000000000000000000000000000000000000604482015290519081900360640190fd5b6112c03386611bab565b505050600091825250600b60205260409020805473ffffffffffffffffffffffffffffffffffffffff191633179055565b60606112fc826116c4565b6113375760405162461bcd60e51b815260040180806020018281038252602f815260200180612a94602f913960400191505060405180910390fd5b60008281526008602090815260409182902080548351601f60026000196101006001861615020190931692909204918201849004840281018401909452808452606093928301828280156113cc5780601f106113a1576101008083540402835291602001916113cc565b820191906000526020600020905b8154815290600101906020018083116113af57829003601f168201915b5050505050905060606113dd610d48565b90508051600014156113f1575090506107b0565b8151156114b25780826040516020018083805190602001908083835b6020831061142c5780518252601f19909201916020918201910161140d565b51815160209384036101000a600019018019909216911617905285519190930192850191508083835b602083106114745780518252601f199092019160209182019101611455565b6001836020036101000a03801982511681845116808217855250505050505090500192505050604051602081830303815290604052925050506107b0565b806114bc85611cd9565b6040516020018083805190602001908083835b602083106114ee5780518252601f1990920191602091820191016114cf565b51815160209384036101000a600019018019909216911617905285519190930192850191508083835b602083106115365780518252601f199092019160209182019101611517565b6001836020036101000a0380198251168184511680821785525050505050509050019250505060405160208183030381529060405292505050919050565b6001600160a01b03918216600090815260056020908152604080832093909416825291909152205460ff1690565b6115aa6116d1565b6001600160a01b03166115bb610f7f565b6001600160a01b031614611616576040805162461bcd60e51b815260206004820181905260248201527f4f776e61626c653a2063616c6c6572206973206e6f7420746865206f776e6572604482015290519081900360640190fd5b6001600160a01b03811661165b5760405162461bcd60e51b81526004018080602001828103825260268152602001806128d86026913960400191505060405180910390fd5b600a546040516001600160a01b038084169216907f8be0079c531659141344cd1fd0a4f28419497f9722a3daafe3b4186f6b6457e090600090a3600a805473ffffffffffffffffffffffffffffffffffffffff19166001600160a01b0392909216919091179055565b6000610aed600283611de8565b3390565b6000818152600460205260409020805473ffffffffffffffffffffffffffffffffffffffff19166001600160a01b038416908117909155819061171782610d20565b6001600160a01b03167f8c5be1e5ebec7d5bd14f71427d1e84f3dd0314c0f7b2291e5b200ac8c7c3b92560405160405180910390a45050565b6000610aed82611df4565b6000611766826116c4565b6117a15760405162461bcd60e51b815260040180806020018281038252602c815260200180612944602c913960400191505060405180910390fd5b60006117ac83610d20565b9050806001600160a01b0316846001600160a01b031614806117e75750836001600160a01b03166117dc8461084b565b6001600160a01b0316145b806117f757506117f78185611574565b949350505050565b826001600160a01b031661181282610d20565b6001600160a01b0316146118575760405162461bcd60e51b8152600401808060200182810382526029815260200180612a6b6029913960400191505060405180910390fd5b6001600160a01b03821661189c5760405162461bcd60e51b81526004018080602001828103825260248152602001806128fe6024913960400191505060405180910390fd5b6118a7838383610983565b6118b26000826116d5565b6001600160a01b03831660009081526001602052604090206118d49082611df8565b506001600160a01b03821660009081526001602052604090206118f79082611e04565b5061190460028284611e10565b5080826001600160a01b0316846001600160a01b03167fddf252ad1be2c89b69c2b068fc378daa952ba7f163c4a11628f55a4df523b3ef60405160405180910390a4505050565b611965828260405180602001604052806000815250611e26565b5050565b6000610aea8383611e78565b600061198082610d20565b905061198e81600084610983565b6119996000836116d5565b60008281526008602052604090205460026000196101006001841615020190911604156119d75760008281526008602052604081206119d7916127ac565b6001600160a01b03811660009081526001602052604090206119f99083611df8565b50611a05600283611edc565b5060405182906000906001600160a01b038416907fddf252ad1be2c89b69c2b068fc378daa952ba7f163c4a11628f55a4df523b3ef908390a45050565b6000808080611a518686611ee8565b9097909650945050505050565b80516119659060099060208401906127f0565b6000611a7e848484611f63565b90505b9392505050565b611a938484846117ff565b611a9f8484848461202d565b610ac25760405162461bcd60e51b81526004018080602001828103825260328152602001806128a66032913960400191505060405180910390fd5b604080517f19457468657265756d205369676e6564204d6573736167653a0a333200000000602080830191909152603c8083019490945282518083039094018452605c909101909152815191012090565b60008151604114611b83576040805162461bcd60e51b815260206004820152601f60248201527f45434453413a20696e76616c6964207369676e6174757265206c656e67746800604482015290519081900360640190fd5b60208201516040830151606084015160001a611ba186828585612209565b9695505050505050565b6001600160a01b038216611c06576040805162461bcd60e51b815260206004820181905260248201527f4552433732313a206d696e7420746f20746865207a65726f2061646472657373604482015290519081900360640190fd5b611c0f816116c4565b15611c61576040805162461bcd60e51b815260206004820152601c60248201527f4552433732313a20746f6b656e20616c7265616479206d696e74656400000000604482015290519081900360640190fd5b611c6d60008383610983565b6001600160a01b0382166000908152600160205260409020611c8f9082611e04565b50611c9c60028284611e10565b5060405181906001600160a01b038416906000907fddf252ad1be2c89b69c2b068fc378daa952ba7f163c4a11628f55a4df523b3ef908290a45050565b606081611d1a575060408051808201909152600181527f300000000000000000000000000000000000000000000000000000000000000060208201526107b0565b8160005b8115611d3257600101600a82049150611d1e565b60608167ffffffffffffffff81118015611d4b57600080fd5b506040519080825280601f01601f191660200182016040528015611d76576020820181803683370190505b50859350905060001982015b8315611ddf57600a840660300160f81b82828060019003935081518110611da557fe5b60200101907effffffffffffffffffffffffffffffffffffffffffffffffffffffffffffff1916908160001a905350600a84049350611d82565b50949350505050565b6000610aea8383612387565b5490565b6000610aea838361239f565b6000610aea8383612465565b6000611a7e84846001600160a01b0385166124af565b611e308383611bab565b611e3d600084848461202d565b6109835760405162461bcd60e51b81526004018080602001828103825260328152602001806128a66032913960400191505060405180910390fd5b81546000908210611eba5760405162461bcd60e51b81526004018080602001828103825260228152602001806128846022913960400191505060405180910390fd5b826000018281548110611ec957fe5b9060005260206000200154905092915050565b6000610aea8383612546565b815460009081908310611f2c5760405162461bcd60e51b8152600401808060200182810382526022815260200180612a1d6022913960400191505060405180910390fd5b6000846000018481548110611f3d57fe5b906000526020600020906002020190508060000154816001015492509250509250929050565b60008281526001840160205260408120548281611ffe5760405162461bcd60e51b81526004018080602001828103825283818151815260200191508051906020019080838360005b83811015611fc3578181015183820152602001611fab565b50505050905090810190601f168015611ff05780820380516001836020036101000a031916815260200191505b509250505060405180910390fd5b5084600001600182038154811061201157fe5b9060005260206000209060020201600101549150509392505050565b6000612041846001600160a01b031661261a565b61204d575060016117f7565b606061219e7f150b7a020000000000000000000000000000000000000000000000000000000061207b6116d1565b88878760405160240180856001600160a01b03168152602001846001600160a01b0316815260200183815260200180602001828103825283818151815260200191508051906020019080838360005b838110156120e25781810151838201526020016120ca565b50505050905090810190601f16801561210f5780820380516001836020036101000a031916815260200191505b5095505050505050604051602081830303815290604052907bffffffffffffffffffffffffffffffffffffffffffffffffffffffff19166020820180517bffffffffffffffffffffffffffffffffffffffffffffffffffffffff83818316178352505050506040518060600160405280603281526020016128a6603291396001600160a01b0388169190612620565b905060008180602001905160208110156121b757600080fd5b50517fffffffff00000000000000000000000000000000000000000000000000000000167f150b7a02000000000000000000000000000000000000000000000000000000001492505050949350505050565b60007f7fffffffffffffffffffffffffffffff5d576e7357a4501ddfe92f46681b20a082111561226a5760405162461bcd60e51b81526004018080602001828103825260228152602001806129226022913960400191505060405180910390fd5b8360ff16601b148061227f57508360ff16601c145b6122ba5760405162461bcd60e51b81526004018080602001828103825260228152602001806129fb6022913960400191505060405180910390fd5b600060018686868660405160008152602001604052604051808581526020018460ff1681526020018381526020018281526020019450505050506020604051602081039080840390855afa158015612316573d6000803e3d6000fd5b5050604051601f1901519150506001600160a01b03811661237e576040805162461bcd60e51b815260206004820152601860248201527f45434453413a20696e76616c6964207369676e61747572650000000000000000604482015290519081900360640190fd5b95945050505050565b60009081526001919091016020526040902054151590565b6000818152600183016020526040812054801561245b57835460001980830191908101906000908790839081106123d257fe5b90600052602060002001549050808760000184815481106123ef57fe5b60009182526020808320909101929092558281526001898101909252604090209084019055865487908061241f57fe5b60019003818190600052602060002001600090559055866001016000878152602001908152602001600020600090556001945050505050610aed565b6000915050610aed565b60006124718383612387565b6124a757508154600181810184556000848152602080822090930184905584548482528286019093526040902091909155610aed565b506000610aed565b600082815260018401602052604081205480612514575050604080518082018252838152602080820184815286546001818101895560008981528481209551600290930290950191825591519082015586548684528188019092529290912055611a81565b8285600001600183038154811061252757fe5b9060005260206000209060020201600101819055506000915050611a81565b6000818152600183016020526040812054801561245b578354600019808301919081019060009087908390811061257957fe5b906000526020600020906002020190508087600001848154811061259957fe5b6000918252602080832084546002909302019182556001938401549184019190915583548252898301905260409020908401905586548790806125d857fe5b6000828152602080822060026000199094019384020182815560019081018390559290935588815289820190925260408220919091559450610aed9350505050565b3b151590565b6060611a7e8484600085856126348561261a565b612685576040805162461bcd60e51b815260206004820152601d60248201527f416464726573733a2063616c6c20746f206e6f6e2d636f6e7472616374000000604482015290519081900360640190fd5b60006060866001600160a01b031685876040518082805190602001908083835b602083106126c45780518252601f1990920191602091820191016126a5565b6001836020036101000a03801982511681845116808217855250505050505090500191505060006040518083038185875af1925050503d8060008114612726576040519150601f19603f3d011682016040523d82523d6000602084013e61272b565b606091505b509150915061273b828286612746565b979650505050505050565b60608315612755575081611a81565b8251156127655782518084602001fd5b60405162461bcd60e51b8152602060048201818152845160248401528451859391928392604401919085019080838360008315611fc3578181015183820152602001611fab565b50805460018160011615610100020316600290046000825580601f106127d25750610d1d565b601f016020900490600052602060002090810190610d1d919061286e565b828054600181600116156101000203166002900490600052602060002090601f016020900481019282601f1061283157805160ff191683800117855561285e565b8280016001018555821561285e579182015b8281111561285e578251825591602001919060010190612843565b5061286a92915061286e565b5090565b5b8082111561286a576000815560010161286f56fe456e756d657261626c655365743a20696e646578206f7574206f6620626f756e64734552433732313a207472616e7366657220746f206e6f6e20455243373231526563656976657220696d706c656d656e7465724f776e61626c653a206e6577206f776e657220697320746865207a65726f20616464726573734552433732313a207472616e7366657220746f20746865207a65726f206164647265737345434453413a20696e76616c6964207369676e6174757265202773272076616c75654552433732313a206f70657261746f7220717565727920666f72206e6f6e6578697374656e7420746f6b656e4552433732313a20617070726f76652063616c6c6572206973206e6f74206f776e6572206e6f7220617070726f76656420666f7220616c6c4552433732313a2062616c616e636520717565727920666f7220746865207a65726f20616464726573734552433732313a206f776e657220717565727920666f72206e6f6e6578697374656e7420746f6b656e45434453413a20696e76616c6964207369676e6174757265202776272076616c7565456e756d657261626c654d61703a20696e646578206f7574206f6620626f756e64734552433732313a20617070726f76656420717565727920666f72206e6f6e6578697374656e7420746f6b656e4552433732313a207472616e73666572206f6620746f6b656e2074686174206973206e6f74206f776e4552433732314d657461646174613a2055524920717565727920666f72206e6f6e6578697374656e7420746f6b656e4552433732313a20617070726f76616c20746f2063757272656e74206f776e65724552433732313a207472616e736665722063616c6c6572206973206e6f74206f776e6572206e6f7220617070726f766564a2646970667358221220124c5ea0f7e099dbdf510648441002be8a1b993b918d24a93cafed0cfc674e1864736f6c634300060c0033",
  "compiler": {
    "name": "solc",
    "version": "0.6.12+commit.27d51765.Emscripten.clang",
    "optimizer": {
      "enabled": true,
      "runs": 2000
    },
    "evmVersion": "petersburg"
  }
}