{
  "_format": "hh-sol-artifact-1",
  "contractName": "BounceNFTFactoryV2",
  "sourceName": "contracts/BounceNFTFactoryV2.sol",
  "abi": [
    {
      "anonymous": false,
      "inputs": [
        {
          "indexed": true,
          "internalType": "address",
          "name": "user",
          "type": "address"
        },
        {
          "indexed": false,
          "internalType": "address",
          "name": "nft",
          "type": "address"
        }
      ],
      "name": "Brand1155Created",
      "type": "event"
    },
    {
      "anonymous": false,
      "inputs": [
        {
          "indexed": true,
          "internalType": "address",
          "name": "user",
          "type": "address"
        },
        {
          "indexed": false,
          "internalType": "address",
          "name": "nft",
          "type": "address"
        }
      ],
      "name": "Brand721Created",
      "type": "event"
    },
    {
      "inputs": [
        {
          "internalType": "address",
          "name": "",
          "type": "address"
        }
      ],
      "name": "brands",
      "outputs": [
        {
          "internalType": "address",
          "name": "",
          "type": "address"
        }
      ],
      "stateMutability": "view",
      "type": "function"
    },
    {
      "inputs": [
        {
          "internalType": "bytes",
          "name": "creationCode",
          "type": "bytes"
        },
        {
          "internalType": "string",
          "name": "_uri",
          "type": "string"
        },
        {
          "internalType": "uint256",
          "name": "_mode",
          "type": "uint256"
        }
      ],
      "name": "createBrand1155",
      "outputs": [],
      "stateMutability": "nonpayable",
      "type": "function"
    },
    {
      "inputs": [
        {
          "internalType": "bytes",
          "name": "creationCode",
          "type": "bytes"
        },
        {
          "internalType": "string",
          "name": "_uri",
          "type": "string"
        },
        {
          "internalType": "string",
          "name": "_name",
          "type": "string"
        },
        {
          "internalType": "string",
          "name": "_symbol",
          "type": "string"
        },
        {
          "internalType": "uint256",
          "name": "_mode",
          "type": "uint256"
        }
      ],
      "name": "createBrand721",
      "outputs": [],
      "stateMutability": "nonpayable",
      "type": "function"
    },
    {
      "inputs": [
        {
          "internalType": "address",
          "name": "account",
          "type": "address"
        }
      ],
      "name": "toString",
      "outputs": [
        {
          "internalType": "string",
          "name": "",
          "type": "string"
        }
      ],
      "stateMutability": "pure",
      "type": "function"
    },
    {
      "inputs": [
        {
          "internalType": "bytes",
          "name": "data",
          "type": "bytes"
        }
      ],
      "name": "toString",
      "outputs": [
        {
          "internalType": "string",
          "name": "",
          "type": "string"
        }
      ],
      "stateMutability": "pure",
      "type": "function"
    }
  ],
  "bytecode": "0x608060405234801561001057600080fd5b50610c90806100206000396000f3fe608060405234801561001057600080fd5b50600436106100575760003560e01c806356ca623e1461005c5780635b7fd9b5146100f757806371aad10d146101395780637ebeea9b146101dd578063a6b3f8ca1461029d575b600080fd5b6100826004803603602081101561007257600080fd5b50356001600160a01b03166103fb565b6040805160208082528351818301528351919283929083019185019080838360005b838110156100bc5781810151838201526020016100a4565b50505050905090810190601f1680156100e95780820380516001836020036101000a031916815260200191505b509250505060405180910390f35b61011d6004803603602081101561010d57600080fd5b50356001600160a01b0316610437565b604080516001600160a01b039092168252519081900360200190f35b6100826004803603602081101561014f57600080fd5b810190602081018135600160201b81111561016957600080fd5b82018360208201111561017b57600080fd5b803590602001918460018302840111600160201b8311171561019c57600080fd5b91908080601f016020809104026020016040519081016040528093929190818152602001838380828437600092019190915250929550610452945050505050565b61029b600480360360608110156101f357600080fd5b810190602081018135600160201b81111561020d57600080fd5b82018360208201111561021f57600080fd5b803590602001918460018302840111600160201b8311171561024057600080fd5b919390929091602081019035600160201b81111561025d57600080fd5b82018360208201111561026f57600080fd5b803590602001918460018302840111600160201b8311171561029057600080fd5b9193509150356105fc565b005b61029b600480360360a08110156102b357600080fd5b810190602081018135600160201b8111156102cd57600080fd5b8201836020820111156102df57600080fd5b803590602001918460018302840111600160201b8311171561030057600080fd5b919390929091602081019035600160201b81111561031d57600080fd5b82018360208201111561032f57600080fd5b803590602001918460018302840111600160201b8311171561035057600080fd5b919390929091602081019035600160201b81111561036d57600080fd5b82018360208201111561037f57600080fd5b803590602001918460018302840111600160201b831117156103a057600080fd5b919390929091602081019035600160201b8111156103bd57600080fd5b8201836020820111156103cf57600080fd5b803590602001918460018302840111600160201b831117156103f057600080fd5b9193509150356107df565b60606104318260405160200180826001600160a01b031660601b8152601401915050604051602081830303815290604052610452565b92915050565b6000602081905290815260409020546001600160a01b031681565b6060806040518060400160405280601081526020016f181899199a1a9b1b9c1cb0b131b232b360811b81525090506060835160020260020167ffffffffffffffff811180156104a057600080fd5b506040519080825280601f01601f1916602001820160405280156104cb576020820181803683370190505b509050600360fc1b816000815181106104e057fe5b60200101906001600160f81b031916908160001a905350600f60fb1b8160018151811061050957fe5b60200101906001600160f81b031916908160001a90535060005b84518110156105f45782600486838151811061053b57fe5b016020015182516001600160f81b031990911690911c60f81c90811061055d57fe5b602001015160f81c60f81b82826002026002018151811061057a57fe5b60200101906001600160f81b031916908160001a9053508285828151811061059e57fe5b602091010151815160f89190911c600f169081106105b857fe5b602001015160f81c60f81b8282600202600301815181106105d557fe5b60200101906001600160f81b031916908160001a905350600101610523565b509392505050565b6060858585858560405160200180806020018381526020018281038252858582818152602001925080828437600081840152601f19601f8201169050808301925050509450505050506040516020818303038152906040526040516020018084848082843784519201916020850191508083835b6020831061068f5780518252601f199092019160209182019101610670565b6001836020036101000a038019825116818451168082178552505050505050905001935050505060405160208183030381529060405290506000334386868660405160200180866001600160a01b031660601b81526014018581526020018484808284378083019250505082815260200195505050505050604051602081830303815290604052805190602001209050600061072d60008385610b41565b9050806001600160a01b031663f2fde38b336040518263ffffffff1660e01b815260040180826001600160a01b03168152602001915050600060405180830381600087803b15801561077e57600080fd5b505af1158015610792573d6000803e3d6000fd5b5050604080516001600160a01b038516815290513393507f1897eafcc4906ea8e02e8ee90f143407cb63f26df1eb90f63e65852c67a1e0fd92509081900360200190a25050505050505050565b6060898987878787876040516020018080602001806020018481526020018381038352888882818152602001925080828437600083820152601f01601f191690910184810383528681526020019050868680828437600081840152601f19601f8201169050808301925050509750505050505050506040516020818303038152906040526040516020018084848082843784519201916020850191508083835b6020831061089e5780518252601f19909201916020918201910161087f565b6001836020036101000a0380198251168184511680821785525050505050509050019350505050604051602081830303815290604052905060003343888888888860405160200180886001600160a01b031660601b815260140187815260200186868082843791909101905084848082843780830192505050828152602001975050505050505050604051602081830303815290604052805190602001209050600061094c60008385610b41565b9050806001600160a01b03166355f804b38b8b610968856103fb565b6040516020018084848082843784519201916020850191508083835b602083106109a35780518252601f199092019160209182019101610984565b6001836020036101000a03801982511681845116808217855250505050505090500180602f60f81b81525060010193505050506040516020818303038152906040526040518263ffffffff1660e01b81526004018080602001828103825283818151815260200191508051906020019080838360005b83811015610a31578181015183820152602001610a19565b50505050905090810190601f168015610a5e5780820380516001836020036101000a031916815260200191505b5092505050600060405180830381600087803b158015610a7d57600080fd5b505af1158015610a91573d6000803e3d6000fd5b50506040805163f2fde38b60e01b815233600482015290516001600160a01b038516935063f2fde38b9250602480830192600092919082900301818387803b158015610adc57600080fd5b505af1158015610af0573d6000803e3d6000fd5b5050604080516001600160a01b038516815290513393507fac0827e8b7a7c0520d569791cf6019f585c1cd66b641d5dc0826bc0ddb3babea92509081900360200190a2505050505050505050505050565b60008084471015610b99576040805162461bcd60e51b815260206004820152601d60248201527f437265617465323a20696e73756666696369656e742062616c616e6365000000604482015290519081900360640190fd5b8251610bec576040805162461bcd60e51b815260206004820181905260248201527f437265617465323a2062797465636f6465206c656e677468206973207a65726f604482015290519081900360640190fd5b8383516020850187f590506001600160a01b038116610c52576040805162461bcd60e51b815260206004820152601960248201527f437265617465323a204661696c6564206f6e206465706c6f7900000000000000604482015290519081900360640190fd5b94935050505056fea2646970667358221220b7b7d9c65784257857e9c093dc43473114fa8eb0f661fd56221904a9ecd3e3d764736f6c634300060c0033",
  "linkReferences": {},
  "deployedLinkReferences": {}
}