{
  "fileName": "BounceNFT.sol",
  "contractName": "BounceNFT",
  "source": "// SPDX-License-Identifier: MIT\n\npragma solidity ^0.6.0;\npragma experimental ABIEncoderV2;\n\nimport \"@openzeppelin/contracts-ethereum-package/contracts/math/SafeMath.sol\";\nimport \"@openzeppelin/contracts-ethereum-package/contracts/token/ERC20/SafeERC20.sol\";\nimport \"@openzeppelin/contracts-ethereum-package/contracts/token/ERC20/IERC20.sol\";\nimport \"@openzeppelin/contracts-ethereum-package/contracts/token/ERC721/IERC721.sol\";\nimport \"@openzeppelin/contracts-ethereum-package/contracts/token/ERC721/IERC721Receiver.sol\";\nimport \"./Governable.sol\";\nimport \"./interfaces/IERC1155.sol\";\n\ncontract BounceNFT is Configurable, IERC721Receiver {\n    using SafeMath for uint;\n    using SafeERC20 for IERC20;\n\n    bytes32 internal constant TxFeeRatio            = bytes32(\"FPNFT::TxFeeRatio\");\n    bytes32 internal constant MinValueOfBotHolder   = bytes32(\"FPNFT::MinValueOfBotHolder\");\n    bytes32 internal constant BotToken              = bytes32(\"FPNFT::BotToken\");\n    bytes32 internal constant DisableErc721         = bytes32(\"FPNFT::DisableErc721\");\n    bytes32 internal constant DisableErc1155        = bytes32(\"FPNFT::DisableErc1155\");\n    uint    internal constant TypeErc721            = 0;\n    uint    internal constant TypeErc1155           = 1;\n\n    struct Pool {\n        // address of pool creator\n        address payable creator;\n        // pool name\n        string name;\n        // address of sell token\n        address token0;\n        // address of buy token\n        address token1;\n        // token id of token0\n        uint tokenId;\n        // total amount of token0\n        uint amountTotal0;\n        // total amount of token1\n        uint amountTotal1;\n        // NFT token type\n        uint nftType;\n    }\n\n    Pool[] public pools;\n\n    // creator address => pool index => whether the account create the pool.\n    mapping(address => mapping(uint => bool)) public myCreatedP;\n\n    // pool index => the swap pool only allow BOT holder to take part in\n    mapping(uint => bool) public onlyBotHolderP;\n\n    // pool index => a flag that if creator is canceled the pool\n    mapping(uint => bool) public creatorCanceledP;\n    mapping(uint => bool) public swappedP;\n\n    // check if token0 in whitelist\n    bool public checkToken0;\n    // token0 address => true or false\n    mapping(address => bool) public token0List;\n\n    // pool index => swapped amount of token0\n    mapping(uint => uint) public swappedAmount0P;\n    // pool index => swapped amount of token1\n    mapping(uint => uint) public swappedAmount1P;\n\n    event Created(address indexed sender, uint indexed index, Pool pool);\n    event Canceled(address indexed sender, uint indexed index, uint unswappedAmount0);\n    event Swapped(address indexed sender, uint indexed index, uint swappedAmount0, uint swappedAmount1);\n\n    function initialize(address _governor) public override initializer {\n        require(msg.sender == governor || governor == address(0), \"invalid governor\");\n        governor = _governor;\n\n        config[TxFeeRatio] = 0.01 ether;\n        config[MinValueOfBotHolder] = 1 ether;\n\n        config[BotToken] = uint(0xA9B1Eb5908CfC3cdf91F9B8B3a74108598009096); // AUCTION\n    }\n\n    function initialize_rinkeby(address _governor) public {\n        initialize(_governor);\n\n        config[BotToken] = uint(0x5E26FA0FE067d28aae8aFf2fB85Ac2E693BD9EfA); // AUCTION\n    }\n\n    function initialize_bsc(address _governor) public {\n        initialize(_governor);\n\n        config[BotToken] = uint(0x1188d953aFC697C031851169EEf640F23ac8529C); // AUCTION\n    }\n\n    function createErc721(\n        // name of the pool\n        string memory name,\n        // address of token0\n        address token0,\n        // address of token1\n        address token1,\n        // token id of token0\n        uint tokenId,\n        // total amount of token1\n        uint amountTotal1,\n        // only bot holder can bid the pool\n        bool onlyBot\n    ) external {\n        require(!getDisableErc721(), \"ERC721 pool is disabled\");\n        if (checkToken0) {\n            require(token0List[token0], \"invalid token0\");\n        }\n        uint amountTotal0 = 1;\n        _create(\n           name, token0, token1, tokenId, amountTotal0, amountTotal1, onlyBot, TypeErc721\n        );\n    }\n\n    function createErc1155(\n        // name of the pool\n        string memory name,\n        // address of token0\n        address token0,\n        // address of token1\n        address token1,\n        // token id of token0\n        uint tokenId,\n        // total amount of token0\n        uint amountTotal0,\n        // total amount of token1\n        uint amountTotal1,\n        // only bot holder can bid the pool\n        bool onlyBot\n    ) external {\n        require(!getDisableErc1155(), \"ERC1155 pool is disabled\");\n        if (checkToken0) {\n            require(token0List[token0], \"invalid token0\");\n        }\n        _create(\n           name, token0, token1, tokenId, amountTotal0, amountTotal1, onlyBot, TypeErc1155\n        );\n    }\n\n    function _create(\n        string memory name,\n        address token0,\n        address token1,\n        uint tokenId,\n        uint amountTotal0,\n        uint amountTotal1,\n        bool onlyBot,\n        uint nftType\n    ) private {\n        require(amountTotal1 != 0, \"the value of amountTotal1 is zero.\");\n        require(bytes(name).length <= 32, \"the length of name is too long\");\n\n        // transfer tokenId of token0 to this contract\n        if (nftType == TypeErc721) {\n            require(amountTotal0 == 1, \"invalid amountTotal0\");\n            IERC721(token0).safeTransferFrom(msg.sender, address(this), tokenId);\n        } else {\n            require(amountTotal0 != 0, \"invalid amountTotal0\");\n            IERC1155(token0).safeTransferFrom(msg.sender, address(this), tokenId, amountTotal0, \"\");\n        }\n\n        // creator pool\n        Pool memory pool;\n        pool.creator = msg.sender;\n        pool.name = name;\n        pool.token0 = token0;\n        pool.token1 = token1;\n        pool.tokenId = tokenId;\n        pool.amountTotal0 = amountTotal0;\n        pool.amountTotal1 = amountTotal1;\n        pool.nftType = nftType;\n\n        uint index = pools.length;\n        myCreatedP[msg.sender][index] = true;\n        if (onlyBot) {\n            onlyBotHolderP[index] = onlyBot;\n        }\n\n        pools.push(pool);\n\n        emit Created(msg.sender, index, pool);\n    }\n\n    function swap(uint index, uint amount0) external payable\n        isPoolExist(index)\n        checkBotHolder(index)\n        isPoolNotSwap(index)\n    {\n        require(!creatorCanceledP[index], \"creator has canceled this pool\");\n\n        Pool storage pool = pools[index];\n        require(amount0 >= 1 && amount0 <= pool.amountTotal0, \"invalid amount0\");\n        require(swappedAmount0P[index].add(amount0) <= pool.amountTotal0, \"pool filled or invalid amount0\");\n\n        uint amount1 = amount0.mul(pool.amountTotal1).div(pool.amountTotal0);\n        swappedAmount0P[index] = swappedAmount0P[index].add(amount0);\n        swappedAmount1P[index] = swappedAmount1P[index].add(amount1);\n        if (swappedAmount0P[index] == pool.amountTotal0) {\n            // mark pool is swapped\n            swappedP[index] = true;\n        }\n\n        // transfer amount of token1 to creator\n        if (pool.token1 == address(0)) {\n            require(amount1 == msg.value, \"invalid ETH amount\");\n\n            uint txFee = amount1.mul(getTxFeeRatio()).div(1 ether);\n            uint _actualAmount1 = amount1.sub(txFee);\n            if (_actualAmount1 > 0) {\n                // transfer ETH to creator\n                pool.creator.transfer(_actualAmount1);\n            }\n            if (txFee > 0) {\n                // keep transaction fee in this contract\n            }\n        } else {\n            // transfer token1 to creator\n            IERC20(pool.token1).safeTransferFrom(msg.sender, pool.creator, amount1);\n        }\n\n        // transfer tokenId of token0 to sender\n        if (pool.nftType == TypeErc721) {\n            IERC721(pool.token0).safeTransferFrom(address(this), msg.sender, pool.tokenId);\n        } else {\n            IERC1155(pool.token0).safeTransferFrom(address(this), msg.sender, pool.tokenId, amount0, \"\");\n        }\n\n        emit Swapped(msg.sender, index, amount0, amount1);\n    }\n\n    function cancel(uint index) external\n        isPoolExist(index)\n        isPoolNotSwap(index)\n    {\n        require(isCreator(msg.sender, index), \"sender is not pool creator\");\n        require(!creatorCanceledP[index], \"creator has canceled this pool\");\n        creatorCanceledP[index] = true;\n\n        Pool memory pool = pools[index];\n        if (pool.nftType == TypeErc721) {\n            IERC721(pool.token0).safeTransferFrom(address(this), pool.creator, pool.tokenId);\n        } else {\n            IERC1155(pool.token0).safeTransferFrom(address(this), pool.creator, pool.tokenId, pool.amountTotal0.sub(swappedAmount0P[index]), \"\");\n        }\n\n        emit Canceled(msg.sender, index, pool.amountTotal0.sub(swappedAmount0P[index]));\n    }\n\n    function transferGovernor(address _governor) external {\n        require(msg.sender == governor || governor == address(0), \"invalid governor\");\n        governor = _governor;\n    }\n\n    function isCreator(address target, uint index) internal view returns (bool) {\n        if (pools[index].creator == target) {\n            return true;\n        }\n        return false;\n    }\n\n    function getTxFeeRatio() public view returns (uint) {\n        return config[TxFeeRatio];\n    }\n\n    function getMinValueOfBotHolder() public view returns (uint) {\n        return config[MinValueOfBotHolder];\n    }\n\n    function getBotToken() public view returns (address) {\n        return address(config[BotToken]);\n    }\n\n    function getDisableErc721() public view returns (bool) {\n        return config[DisableErc721] != 0;\n    }\n\n    function getDisableErc1155() public view returns (bool) {\n        return config[DisableErc1155] != 0;\n    }\n\n    function getPoolCount() external view returns (uint) {\n        return pools.length;\n    }\n\n    function onERC721Received(address, address, uint, bytes calldata) external override returns (bytes4) {\n        return this.onERC721Received.selector;\n    }\n\n    function onERC1155Received(address, address, uint, uint, bytes calldata) external pure returns(bytes4) {\n        return this.onERC1155Received.selector;\n    }\n\n    modifier checkBotHolder(uint index) {\n        if (onlyBotHolderP[index]) {\n            require(\n                IERC20(getBotToken()).balanceOf(msg.sender) >= getMinValueOfBotHolder(),\n                \"BOT is not enough\"\n            );\n        }\n        _;\n    }\n\n    modifier isPoolNotSwap(uint index) {\n        require(!swappedP[index], \"this pool is swapped\");\n        _;\n    }\n\n    modifier isPoolExist(uint index) {\n        require(index < pools.length, \"this pool does not exist\");\n        _;\n    }\n\n}\n",
  "sourcePath": "contracts/BounceNFT.sol",
  "abi": [
    {
      "anonymous": false,
      "inputs": [
        {
          "indexed": true,
          "internalType": "address",
          "name": "sender",
          "type": "address"
        },
        {
          "indexed": true,
          "internalType": "uint256",
          "name": "index",
          "type": "uint256"
        },
        {
          "indexed": false,
          "internalType": "uint256",
          "name": "unswappedAmount0",
          "type": "uint256"
        }
      ],
      "name": "Canceled",
      "type": "event"
    },
    {
      "anonymous": false,
      "inputs": [
        {
          "indexed": true,
          "internalType": "address",
          "name": "sender",
          "type": "address"
        },
        {
          "indexed": true,
          "internalType": "uint256",
          "name": "index",
          "type": "uint256"
        },
        {
          "components": [
            {
              "internalType": "address payable",
              "name": "creator",
              "type": "address"
            },
            {
              "internalType": "string",
              "name": "name",
              "type": "string"
            },
            {
              "internalType": "address",
              "name": "token0",
              "type": "address"
            },
            {
              "internalType": "address",
              "name": "token1",
              "type": "address"
            },
            {
              "internalType": "uint256",
              "name": "tokenId",
              "type": "uint256"
            },
            {
              "internalType": "uint256",
              "name": "amountTotal0",
              "type": "uint256"
            },
            {
              "internalType": "uint256",
              "name": "amountTotal1",
              "type": "uint256"
            },
            {
              "internalType": "uint256",
              "name": "nftType",
              "type": "uint256"
            }
          ],
          "indexed": false,
          "internalType": "struct BounceNFT.Pool",
          "name": "pool",
          "type": "tuple"
        }
      ],
      "name": "Created",
      "type": "event"
    },
    {
      "anonymous": false,
      "inputs": [
        {
          "indexed": true,
          "internalType": "address",
          "name": "previousGovernor",
          "type": "address"
        },
        {
          "indexed": true,
          "internalType": "address",
          "name": "newGovernor",
          "type": "address"
        }
      ],
      "name": "GovernorshipTransferred",
      "type": "event"
    },
    {
      "anonymous": false,
      "inputs": [
        {
          "indexed": true,
          "internalType": "address",
          "name": "sender",
          "type": "address"
        },
        {
          "indexed": true,
          "internalType": "uint256",
          "name": "index",
          "type": "uint256"
        },
        {
          "indexed": false,
          "internalType": "uint256",
          "name": "swappedAmount0",
          "type": "uint256"
        },
        {
          "indexed": false,
          "internalType": "uint256",
          "name": "swappedAmount1",
          "type": "uint256"
        }
      ],
      "name": "Swapped",
      "type": "event"
    },
    {
      "inputs": [
        {
          "internalType": "uint256",
          "name": "index",
          "type": "uint256"
        }
      ],
      "name": "cancel",
      "outputs": [],
      "stateMutability": "nonpayable",
      "type": "function"
    },
    {
      "inputs": [],
      "name": "checkToken0",
      "outputs": [
        {
          "internalType": "bool",
          "name": "",
          "type": "bool"
        }
      ],
      "stateMutability": "view",
      "type": "function"
    },
    {
      "inputs": [
        {
          "internalType": "string",
          "name": "name",
          "type": "string"
        },
        {
          "internalType": "address",
          "name": "token0",
          "type": "address"
        },
        {
          "internalType": "address",
          "name": "token1",
          "type": "address"
        },
        {
          "internalType": "uint256",
          "name": "tokenId",
          "type": "uint256"
        },
        {
          "internalType": "uint256",
          "name": "amountTotal0",
          "type": "uint256"
        },
        {
          "internalType": "uint256",
          "name": "amountTotal1",
          "type": "uint256"
        },
        {
          "internalType": "bool",
          "name": "onlyBot",
          "type": "bool"
        }
      ],
      "name": "createErc1155",
      "outputs": [],
      "stateMutability": "nonpayable",
      "type": "function"
    },
    {
      "inputs": [
        {
          "internalType": "string",
          "name": "name",
          "type": "string"
        },
        {
          "internalType": "address",
          "name": "token0",
          "type": "address"
        },
        {
          "internalType": "address",
          "name": "token1",
          "type": "address"
        },
        {
          "internalType": "uint256",
          "name": "tokenId",
          "type": "uint256"
        },
        {
          "internalType": "uint256",
          "name": "amountTotal1",
          "type": "uint256"
        },
        {
          "internalType": "bool",
          "name": "onlyBot",
          "type": "bool"
        }
      ],
      "name": "createErc721",
      "outputs": [],
      "stateMutability": "nonpayable",
      "type": "function"
    },
    {
      "inputs": [
        {
          "internalType": "uint256",
          "name": "",
          "type": "uint256"
        }
      ],
      "name": "creatorCanceledP",
      "outputs": [
        {
          "internalType": "bool",
          "name": "",
          "type": "bool"
        }
      ],
      "stateMutability": "view",
      "type": "function"
    },
    {
      "inputs": [],
      "name": "getBotToken",
      "outputs": [
        {
          "internalType": "address",
          "name": "",
          "type": "address"
        }
      ],
      "stateMutability": "view",
      "type": "function"
    },
    {
      "inputs": [
        {
          "internalType": "bytes32",
          "name": "key",
          "type": "bytes32"
        },
        {
          "internalType": "address",
          "name": "addr",
          "type": "address"
        }
      ],
      "name": "getConfig",
      "outputs": [
        {
          "internalType": "uint256",
          "name": "",
          "type": "uint256"
        }
      ],
      "stateMutability": "view",
      "type": "function"
    },
    {
      "inputs": [
        {
          "internalType": "bytes32",
          "name": "key",
          "type": "bytes32"
        }
      ],
      "name": "getConfig",
      "outputs": [
        {
          "internalType": "uint256",
          "name": "",
          "type": "uint256"
        }
      ],
      "stateMutability": "view",
      "type": "function"
    },
    {
      "inputs": [
        {
          "internalType": "bytes32",
          "name": "key",
          "type": "bytes32"
        },
        {
          "internalType": "uint256",
          "name": "index",
          "type": "uint256"
        }
      ],
      "name": "getConfig",
      "outputs": [
        {
          "internalType": "uint256",
          "name": "",
          "type": "uint256"
        }
      ],
      "stateMutability": "view",
      "type": "function"
    },
    {
      "inputs": [],
      "name": "getDisableErc1155",
      "outputs": [
        {
          "internalType": "bool",
          "name": "",
          "type": "bool"
        }
      ],
      "stateMutability": "view",
      "type": "function"
    },
    {
      "inputs": [],
      "name": "getDisableErc721",
      "outputs": [
        {
          "internalType": "bool",
          "name": "",
          "type": "bool"
        }
      ],
      "stateMutability": "view",
      "type": "function"
    },
    {
      "inputs": [],
      "name": "getMinValueOfBotHolder",
      "outputs": [
        {
          "internalType": "uint256",
          "name": "",
          "type": "uint256"
        }
      ],
      "stateMutability": "view",
      "type": "function"
    },
    {
      "inputs": [],
      "name": "getPoolCount",
      "outputs": [
        {
          "internalType": "uint256",
          "name": "",
          "type": "uint256"
        }
      ],
      "stateMutability": "view",
      "type": "function"
    },
    {
      "inputs": [],
      "name": "getTxFeeRatio",
      "outputs": [
        {
          "internalType": "uint256",
          "name": "",
          "type": "uint256"
        }
      ],
      "stateMutability": "view",
      "type": "function"
    },
    {
      "inputs": [],
      "name": "governor",
      "outputs": [
        {
          "internalType": "address",
          "name": "",
          "type": "address"
        }
      ],
      "stateMutability": "view",
      "type": "function"
    },
    {
      "inputs": [
        {
          "internalType": "address",
          "name": "_governor",
          "type": "address"
        }
      ],
      "name": "initialize",
      "outputs": [],
      "stateMutability": "nonpayable",
      "type": "function"
    },
    {
      "inputs": [
        {
          "internalType": "address",
          "name": "_governor",
          "type": "address"
        }
      ],
      "name": "initialize_bsc",
      "outputs": [],
      "stateMutability": "nonpayable",
      "type": "function"
    },
    {
      "inputs": [
        {
          "internalType": "address",
          "name": "_governor",
          "type": "address"
        }
      ],
      "name": "initialize_rinkeby",
      "outputs": [],
      "stateMutability": "nonpayable",
      "type": "function"
    },
    {
      "inputs": [
        {
          "internalType": "address",
          "name": "",
          "type": "address"
        },
        {
          "internalType": "uint256",
          "name": "",
          "type": "uint256"
        }
      ],
      "name": "myCreatedP",
      "outputs": [
        {
          "internalType": "bool",
          "name": "",
          "type": "bool"
        }
      ],
      "stateMutability": "view",
      "type": "function"
    },
    {
      "inputs": [
        {
          "internalType": "address",
          "name": "",
          "type": "address"
        },
        {
          "internalType": "address",
          "name": "",
          "type": "address"
        },
        {
          "internalType": "uint256",
          "name": "",
          "type": "uint256"
        },
        {
          "internalType": "uint256",
          "name": "",
          "type": "uint256"
        },
        {
          "internalType": "bytes",
          "name": "",
          "type": "bytes"
        }
      ],
      "name": "onERC1155Received",
      "outputs": [
        {
          "internalType": "bytes4",
          "name": "",
          "type": "bytes4"
        }
      ],
      "stateMutability": "pure",
      "type": "function"
    },
    {
      "inputs": [
        {
          "internalType": "address",
          "name": "",
          "type": "address"
        },
        {
          "internalType": "address",
          "name": "",
          "type": "address"
        },
        {
          "internalType": "uint256",
          "name": "",
          "type": "uint256"
        },
        {
          "internalType": "bytes",
          "name": "",
          "type": "bytes"
        }
      ],
      "name": "onERC721Received",
      "outputs": [
        {
          "internalType": "bytes4",
          "name": "",
          "type": "bytes4"
        }
      ],
      "stateMutability": "nonpayable",
      "type": "function"
    },
    {
      "inputs": [
        {
          "internalType": "uint256",
          "name": "",
          "type": "uint256"
        }
      ],
      "name": "onlyBotHolderP",
      "outputs": [
        {
          "internalType": "bool",
          "name": "",
          "type": "bool"
        }
      ],
      "stateMutability": "view",
      "type": "function"
    },
    {
      "inputs": [
        {
          "internalType": "uint256",
          "name": "",
          "type": "uint256"
        }
      ],
      "name": "pools",
      "outputs": [
        {
          "internalType": "address payable",
          "name": "creator",
          "type": "address"
        },
        {
          "internalType": "string",
          "name": "name",
          "type": "string"
        },
        {
          "internalType": "address",
          "name": "token0",
          "type": "address"
        },
        {
          "internalType": "address",
          "name": "token1",
          "type": "address"
        },
        {
          "internalType": "uint256",
          "name": "tokenId",
          "type": "uint256"
        },
        {
          "internalType": "uint256",
          "name": "amountTotal0",
          "type": "uint256"
        },
        {
          "internalType": "uint256",
          "name": "amountTotal1",
          "type": "uint256"
        },
        {
          "internalType": "uint256",
          "name": "nftType",
          "type": "uint256"
        }
      ],
      "stateMutability": "view",
      "type": "function"
    },
    {
      "inputs": [],
      "name": "renounceGovernorship",
      "outputs": [],
      "stateMutability": "nonpayable",
      "type": "function"
    },
    {
      "inputs": [
        {
          "internalType": "bytes32",
          "name": "key",
          "type": "bytes32"
        },
        {
          "internalType": "uint256",
          "name": "value",
          "type": "uint256"
        }
      ],
      "name": "setConfig",
      "outputs": [],
      "stateMutability": "nonpayable",
      "type": "function"
    },
    {
      "inputs": [
        {
          "internalType": "bytes32",
          "name": "key",
          "type": "bytes32"
        },
        {
          "internalType": "address",
          "name": "addr",
          "type": "address"
        },
        {
          "internalType": "uint256",
          "name": "value",
          "type": "uint256"
        }
      ],
      "name": "setConfig",
      "outputs": [],
      "stateMutability": "nonpayable",
      "type": "function"
    },
    {
      "inputs": [
        {
          "internalType": "bytes32",
          "name": "key",
          "type": "bytes32"
        },
        {
          "internalType": "uint256",
          "name": "index",
          "type": "uint256"
        },
        {
          "internalType": "uint256",
          "name": "value",
          "type": "uint256"
        }
      ],
      "name": "setConfig",
      "outputs": [],
      "stateMutability": "nonpayable",
      "type": "function"
    },
    {
      "inputs": [
        {
          "internalType": "uint256",
          "name": "index",
          "type": "uint256"
        },
        {
          "internalType": "uint256",
          "name": "amount0",
          "type": "uint256"
        }
      ],
      "name": "swap",
      "outputs": [],
      "stateMutability": "payable",
      "type": "function"
    },
    {
      "inputs": [
        {
          "internalType": "uint256",
          "name": "",
          "type": "uint256"
        }
      ],
      "name": "swappedAmount0P",
      "outputs": [
        {
          "internalType": "uint256",
          "name": "",
          "type": "uint256"
        }
      ],
      "stateMutability": "view",
      "type": "function"
    },
    {
      "inputs": [
        {
          "internalType": "uint256",
          "name": "",
          "type": "uint256"
        }
      ],
      "name": "swappedAmount1P",
      "outputs": [
        {
          "internalType": "uint256",
          "name": "",
          "type": "uint256"
        }
      ],
      "stateMutability": "view",
      "type": "function"
    },
    {
      "inputs": [
        {
          "internalType": "uint256",
          "name": "",
          "type": "uint256"
        }
      ],
      "name": "swappedP",
      "outputs": [
        {
          "internalType": "bool",
          "name": "",
          "type": "bool"
        }
      ],
      "stateMutability": "view",
      "type": "function"
    },
    {
      "inputs": [
        {
          "internalType": "address",
          "name": "",
          "type": "address"
        }
      ],
      "name": "token0List",
      "outputs": [
        {
          "internalType": "bool",
          "name": "",
          "type": "bool"
        }
      ],
      "stateMutability": "view",
      "type": "function"
    },
    {
      "inputs": [
        {
          "internalType": "address",
          "name": "_governor",
          "type": "address"
        }
      ],
      "name": "transferGovernor",
      "outputs": [],
      "stateMutability": "nonpayable",
      "type": "function"
    },
    {
      "inputs": [
        {
          "internalType": "address",
          "name": "newGovernor",
          "type": "address"
        }
      ],
      "name": "transferGovernorship",
      "outputs": [],
      "stateMutability": "nonpayable",
      "type": "function"
    }
  ],
  "bytecode": "0x608060405234801561001057600080fd5b5061452b806100206000396000f3fe6080604052600436106101f95760003560e01c8063859537b31161010d578063c4d66de8116100a0578063cbe4b8eb1161006f578063cbe4b8eb14610770578063d96073cf146107ad578063db06c05f146107c9578063ddf2be3f14610806578063f23a6e611461082f576101f9565b8063c4d66de8146106a2578063c53c305d146106cb578063c6472b1214610708578063c7011b7b14610745576101f9565b8063b21544f3116100dc578063b21544f3146105fc578063b4b2677614610625578063b6aa515b14610650578063b8cc9ce614610679576101f9565b8063859537b3146105275780638ec872e3146105505780638eec5d701461058d578063ac4afa38146105b8576101f9565b806333838c6e1161019057806352665f471161015f57806352665f471461042e57806363cb6c421461046b5780636d17b1d8146104965780636dd5b69d146104d357806381c0c26314610510576101f9565b806333838c6e146103745780633fb7166d1461039f57806340e58ee5146103dc578063494cd9cf14610405576101f9565b80631bb2dd6c116101cc5780631bb2dd6c146102b857806329dbd098146102e35780632ca77bf8146103205780632d8fe3601461034b576101f9565b80630c340a24146101fe578063110c4d0a14610229578063150b7a021461025257806315fe96dc1461028f575b600080fd5b34801561020a57600080fd5b5061021361086c565b6040516102209190613d65565b60405180910390f35b34801561023557600080fd5b50610250600480360381019061024b919061343e565b610892565b005b34801561025e57600080fd5b50610279600480360381019061027491906130e7565b610996565b6040516102869190613f90565b60405180910390f35b34801561029b57600080fd5b506102b660048036038101906102b19190613312565b6109ab565b005b3480156102c457600080fd5b506102cd610a13565b6040516102da919061428f565b60405180910390f35b3480156102ef57600080fd5b5061030a600480360381019061030591906130be565b610a4e565b6040516103179190613f75565b60405180910390f35b34801561032c57600080fd5b50610335610a6e565b6040516103429190613f75565b60405180910390f35b34801561035757600080fd5b50610372600480360381019061036d919061339d565b610a81565b005b34801561038057600080fd5b50610389610b8b565b6040516103969190613f75565b60405180910390f35b3480156103ab57600080fd5b506103c660048036038101906103c191906131f9565b610bc9565b6040516103d39190613f75565b60405180910390f35b3480156103e857600080fd5b5061040360048036038101906103fe91906134f4565b610bf8565b005b34801561041157600080fd5b5061042c600480360381019061042791906130be565b611127565b005b34801561043a57600080fd5b5061045560048036038101906104509190613287565b611195565b604051610462919061428f565b60405180910390f35b34801561047757600080fd5b506104806111d1565b60405161048d919061428f565b60405180910390f35b3480156104a257600080fd5b506104bd60048036038101906104b891906134f4565b61120c565b6040516104ca919061428f565b60405180910390f35b3480156104df57600080fd5b506104fa60048036038101906104f5919061325e565b611224565b604051610507919061428f565b60405180910390f35b34801561051c57600080fd5b50610525611241565b005b34801561053357600080fd5b5061054e600480360381019061054991906130be565b61135c565b005b34801561055c57600080fd5b5061057760048036038101906105729190613312565b6113ca565b604051610584919061428f565b60405180910390f35b34801561059957600080fd5b506105a26113f0565b6040516105af919061428f565b60405180910390f35b3480156105c457600080fd5b506105df60048036038101906105da91906134f4565b6113fd565b6040516105f3989796959493929190613e2a565b60405180910390f35b34801561060857600080fd5b50610623600480360381019061061e91906132c3565b61154a565b005b34801561063157600080fd5b5061063a6115d1565b6040516106479190613f75565b60405180910390f35b34801561065c57600080fd5b50610677600480360381019061067291906130be565b61160f565b005b34801561068557600080fd5b506106a0600480360381019061069b91906130be565b611675565b005b3480156106ae57600080fd5b506106c960048036038101906106c491906130be565b6117a2565b005b3480156106d757600080fd5b506106f260048036038101906106ed91906134f4565b611a96565b6040516106ff9190613f75565b60405180910390f35b34801561071457600080fd5b5061072f600480360381019061072a91906134f4565b611ab6565b60405161073c9190613f75565b60405180910390f35b34801561075157600080fd5b5061075a611ad6565b6040516107679190613d65565b60405180910390f35b34801561077c57600080fd5b50610797600480360381019061079291906134f4565b611b11565b6040516107a4919061428f565b60405180910390f35b6107c760048036038101906107c29190613546565b611b29565b005b3480156107d557600080fd5b506107f060048036038101906107eb91906134f4565b612284565b6040516107fd9190613f75565b60405180910390f35b34801561081257600080fd5b5061082d6004803603810190610828919061334e565b6122a4565b005b34801561083b57600080fd5b5061085660048036038101906108519190613167565b612315565b6040516108639190613f90565b60405180910390f35b603360009054906101000a900473ffffffffffffffffffffffffffffffffffffffff1681565b61089a610b8b565b156108da576040517f08c379a00000000000000000000000000000000000000000000000000000000081526004016108d19061414d565b60405180910390fd5b603a60009054906101000a900460ff161561097c57603b60008773ffffffffffffffffffffffffffffffffffffffff1673ffffffffffffffffffffffffffffffffffffffff16815260200190815260200160002060009054906101000a900460ff1661097b576040517f08c379a000000000000000000000000000000000000000000000000000000000815260040161097290613fed565b60405180910390fd5b5b61098d87878787878787600161232b565b50505050505050565b600063150b7a0260e01b905095945050505050565b603360009054906101000a900473ffffffffffffffffffffffffffffffffffffffff1673ffffffffffffffffffffffffffffffffffffffff163373ffffffffffffffffffffffffffffffffffffffff1614610a0557600080fd5b610a0f8282612853565b5050565b6000603460007f46504e46543a3a5478466565526174696f000000000000000000000000000000815260200190815260200160002054905090565b603b6020528060005260406000206000915054906101000a900460ff1681565b603a60009054906101000a900460ff1681565b610a896115d1565b15610ac9576040517f08c379a0000000000000000000000000000000000000000000000000000000008152600401610ac0906141cd565b60405180910390fd5b603a60009054906101000a900460ff1615610b6b57603b60008673ffffffffffffffffffffffffffffffffffffffff1673ffffffffffffffffffffffffffffffffffffffff16815260200190815260200160002060009054906101000a900460ff16610b6a576040517f08c379a0000000000000000000000000000000000000000000000000000000008152600401610b6190613fed565b60405180910390fd5b5b600060019050610b8287878787858888600061232b565b50505050505050565b600080603460007f46504e46543a3a44697361626c654572633131353500000000000000000000008152602001908152602001600020541415905090565b60366020528160005260406000206020528060005260406000206000915091509054906101000a900460ff1681565b806035805490508110610c40576040517f08c379a0000000000000000000000000000000000000000000000000000000008152600401610c379061406d565b60405180910390fd5b816039600082815260200190815260200160002060009054906101000a900460ff1615610ca2576040517f08c379a0000000000000000000000000000000000000000000000000000000008152600401610c99906140ed565b60405180910390fd5b610cac338461288a565b610ceb576040517f08c379a0000000000000000000000000000000000000000000000000000000008152600401610ce29061402d565b60405180910390fd5b6038600084815260200190815260200160002060009054906101000a900460ff1615610d4c576040517f08c379a0000000000000000000000000000000000000000000000000000000008152600401610d43906141ad565b60405180910390fd5b60016038600085815260200190815260200160002060006101000a81548160ff021916908315150217905550610d80612e7e565b60358481548110610d8d57fe5b9060005260206000209060080201604051806101000160405290816000820160009054906101000a900473ffffffffffffffffffffffffffffffffffffffff1673ffffffffffffffffffffffffffffffffffffffff1673ffffffffffffffffffffffffffffffffffffffff168152602001600182018054600181600116156101000203166002900480601f016020809104026020016040519081016040528092919081815260200182805460018160011615610100020316600290048015610e965780601f10610e6b57610100808354040283529160200191610e96565b820191906000526020600020905b815481529060010190602001808311610e7957829003601f168201915b505050505081526020016002820160009054906101000a900473ffffffffffffffffffffffffffffffffffffffff1673ffffffffffffffffffffffffffffffffffffffff1673ffffffffffffffffffffffffffffffffffffffff1681526020016003820160009054906101000a900473ffffffffffffffffffffffffffffffffffffffff1673ffffffffffffffffffffffffffffffffffffffff1673ffffffffffffffffffffffffffffffffffffffff168152602001600482015481526020016005820154815260200160068201548152602001600782015481525050905060008160e00151141561100257806040015173ffffffffffffffffffffffffffffffffffffffff166342842e0e30836000015184608001516040518463ffffffff1660e01b8152600401610fcb93929190613eaf565b600060405180830381600087803b158015610fe557600080fd5b505af1158015610ff9573d6000803e3d6000fd5b505050506110a9565b806040015173ffffffffffffffffffffffffffffffffffffffff1663f242432a3083600001518460800151611057603c60008b8152602001908152602001600020548760a0015161291290919063ffffffff16565b6040518563ffffffff1660e01b81526004016110769493929190613ee6565b600060405180830381600087803b15801561109057600080fd5b505af11580156110a4573d6000803e3d6000fd5b505050505b833373ffffffffffffffffffffffffffffffffffffffff167fbfa7d46262a9a31ea77e88a2181c8df97ba63688b0743969005d612d614faba061110c603c6000898152602001908152602001600020548560a0015161291290919063ffffffff16565b604051611119919061428f565b60405180910390a350505050565b611130816117a2565b731188d953afc697c031851169eef640f23ac8529c73ffffffffffffffffffffffffffffffffffffffff16603460007f46504e46543a3a426f74546f6b656e000000000000000000000000000000000081526020019081526020016000208190555050565b6000603460008373ffffffffffffffffffffffffffffffffffffffff168560001c1860001b815260200190815260200160002054905092915050565b6000603460007f46504e46543a3a4d696e56616c75654f66426f74486f6c646572000000000000815260200190815260200160002054905090565b603c6020528060005260406000206000915090505481565b600060346000838152602001908152602001600020549050919050565b603360009054906101000a900473ffffffffffffffffffffffffffffffffffffffff1673ffffffffffffffffffffffffffffffffffffffff163373ffffffffffffffffffffffffffffffffffffffff161461129b57600080fd5b600073ffffffffffffffffffffffffffffffffffffffff16603360009054906101000a900473ffffffffffffffffffffffffffffffffffffffff1673ffffffffffffffffffffffffffffffffffffffff167fc7c0c772add429241571afb3805861fb3cfa2af374534088b76cdb4325a87e9a60405160405180910390a36000603360006101000a81548173ffffffffffffffffffffffffffffffffffffffff021916908373ffffffffffffffffffffffffffffffffffffffff160217905550565b611365816117a2565b735e26fa0fe067d28aae8aff2fb85ac2e693bd9efa73ffffffffffffffffffffffffffffffffffffffff16603460007f46504e46543a3a426f74546f6b656e000000000000000000000000000000000081526020019081526020016000208190555050565b600060346000838560001c1860001b815260200190815260200160002054905092915050565b6000603580549050905090565b6035818154811061140a57fe5b90600052602060002090600802016000915090508060000160009054906101000a900473ffffffffffffffffffffffffffffffffffffffff1690806001018054600181600116156101000203166002900480601f0160208091040260200160405190810160405280929190818152602001828054600181600116156101000203166002900480156114dc5780601f106114b1576101008083540402835291602001916114dc565b820191906000526020600020905b8154815290600101906020018083116114bf57829003601f168201915b5050505050908060020160009054906101000a900473ffffffffffffffffffffffffffffffffffffffff16908060030160009054906101000a900473ffffffffffffffffffffffffffffffffffffffff16908060040154908060050154908060060154908060070154905088565b603360009054906101000a900473ffffffffffffffffffffffffffffffffffffffff1673ffffffffffffffffffffffffffffffffffffffff163373ffffffffffffffffffffffffffffffffffffffff16146115a457600080fd5b6115cc8273ffffffffffffffffffffffffffffffffffffffff168460001c1860001b82612853565b505050565b600080603460007f46504e46543a3a44697361626c654572633732310000000000000000000000008152602001908152602001600020541415905090565b603360009054906101000a900473ffffffffffffffffffffffffffffffffffffffff1673ffffffffffffffffffffffffffffffffffffffff163373ffffffffffffffffffffffffffffffffffffffff161461166957600080fd5b6116728161295c565b50565b603360009054906101000a900473ffffffffffffffffffffffffffffffffffffffff1673ffffffffffffffffffffffffffffffffffffffff163373ffffffffffffffffffffffffffffffffffffffff16148061171f5750600073ffffffffffffffffffffffffffffffffffffffff16603360009054906101000a900473ffffffffffffffffffffffffffffffffffffffff1673ffffffffffffffffffffffffffffffffffffffff16145b61175e576040517f08c379a000000000000000000000000000000000000000000000000000000000815260040161175590613fcd565b60405180910390fd5b80603360006101000a81548173ffffffffffffffffffffffffffffffffffffffff021916908373ffffffffffffffffffffffffffffffffffffffff16021790555050565b600060019054906101000a900460ff16806117c157506117c0612a56565b5b806117d7575060008054906101000a900460ff16155b611816576040517f08c379a000000000000000000000000000000000000000000000000000000000815260040161180d9061416d565b60405180910390fd5b60008060019054906101000a900460ff161590508015611866576001600060016101000a81548160ff02191690831515021790555060016000806101000a81548160ff0219169083151502179055505b603360009054906101000a900473ffffffffffffffffffffffffffffffffffffffff1673ffffffffffffffffffffffffffffffffffffffff163373ffffffffffffffffffffffffffffffffffffffff1614806119105750600073ffffffffffffffffffffffffffffffffffffffff16603360009054906101000a900473ffffffffffffffffffffffffffffffffffffffff1673ffffffffffffffffffffffffffffffffffffffff16145b61194f576040517f08c379a000000000000000000000000000000000000000000000000000000000815260040161194690613fcd565b60405180910390fd5b81603360006101000a81548173ffffffffffffffffffffffffffffffffffffffff021916908373ffffffffffffffffffffffffffffffffffffffff160217905550662386f26fc10000603460007f46504e46543a3a5478466565526174696f000000000000000000000000000000815260200190815260200160002081905550670de0b6b3a7640000603460007f46504e46543a3a4d696e56616c75654f66426f74486f6c64657200000000000081526020019081526020016000208190555073a9b1eb5908cfc3cdf91f9b8b3a7410859800909673ffffffffffffffffffffffffffffffffffffffff16603460007f46504e46543a3a426f74546f6b656e00000000000000000000000000000000008152602001908152602001600020819055508015611a925760008060016101000a81548160ff0219169083151502179055505b5050565b60386020528060005260406000206000915054906101000a900460ff1681565b60376020528060005260406000206000915054906101000a900460ff1681565b6000603460007f46504e46543a3a426f74546f6b656e0000000000000000000000000000000000815260200190815260200160002054905090565b603d6020528060005260406000206000915090505481565b816035805490508110611b71576040517f08c379a0000000000000000000000000000000000000000000000000000000008152600401611b689061406d565b60405180910390fd5b826037600082815260200190815260200160002060009054906101000a900460ff1615611c7257611ba06111d1565b611ba8611ad6565b73ffffffffffffffffffffffffffffffffffffffff166370a08231336040518263ffffffff1660e01b8152600401611be09190613d80565b60206040518083038186803b158015611bf857600080fd5b505afa158015611c0c573d6000803e3d6000fd5b505050506040513d601f19601f82011682018060405250810190611c30919061351d565b1015611c71576040517f08c379a0000000000000000000000000000000000000000000000000000000008152600401611c68906140cd565b60405180910390fd5b5b836039600082815260200190815260200160002060009054906101000a900460ff1615611cd4576040517f08c379a0000000000000000000000000000000000000000000000000000000008152600401611ccb906140ed565b60405180910390fd5b6038600086815260200190815260200160002060009054906101000a900460ff1615611d35576040517f08c379a0000000000000000000000000000000000000000000000000000000008152600401611d2c906141ad565b60405180910390fd5b600060358681548110611d4457fe5b9060005260206000209060080201905060018510158015611d69575080600501548511155b611da8576040517f08c379a0000000000000000000000000000000000000000000000000000000008152600401611d9f9061418d565b60405180910390fd5b8060050154611dd386603c60008a815260200190815260200160002054612a6d90919063ffffffff16565b1115611e14576040517f08c379a0000000000000000000000000000000000000000000000000000000008152600401611e0b9061424d565b60405180910390fd5b6000611e438260050154611e35846006015489612ac290919063ffffffff16565b612b3290919063ffffffff16565b9050611e6b86603c60008a815260200190815260200160002054612a6d90919063ffffffff16565b603c600089815260200190815260200160002081905550611ea881603d60008a815260200190815260200160002054612a6d90919063ffffffff16565b603d6000898152602001908152602001600020819055508160050154603c6000898152602001908152602001600020541415611f0b5760016039600089815260200190815260200160002060006101000a81548160ff0219169083151502179055505b600073ffffffffffffffffffffffffffffffffffffffff168260030160009054906101000a900473ffffffffffffffffffffffffffffffffffffffff1673ffffffffffffffffffffffffffffffffffffffff16141561207157348114611fa6576040517f08c379a0000000000000000000000000000000000000000000000000000000008152600401611f9d906141ed565b60405180910390fd5b6000611fdc670de0b6b3a7640000611fce611fbf610a13565b85612ac290919063ffffffff16565b612b3290919063ffffffff16565b90506000611ff3828461291290919063ffffffff16565b9050600081111561206a578360000160009054906101000a900473ffffffffffffffffffffffffffffffffffffffff1673ffffffffffffffffffffffffffffffffffffffff166108fc829081150290604051600060405180830381858888f19350505050158015612068573d6000803e3d6000fd5b505b50506120e7565b6120e6338360000160009054906101000a900473ffffffffffffffffffffffffffffffffffffffff16838560030160009054906101000a900473ffffffffffffffffffffffffffffffffffffffff1673ffffffffffffffffffffffffffffffffffffffff16612b7c909392919063ffffffff16565b5b600082600701541415612190578160020160009054906101000a900473ffffffffffffffffffffffffffffffffffffffff1673ffffffffffffffffffffffffffffffffffffffff166342842e0e303385600401546040518463ffffffff1660e01b815260040161215993929190613eaf565b600060405180830381600087803b15801561217357600080fd5b505af1158015612187573d6000803e3d6000fd5b5050505061222a565b8160020160009054906101000a900473ffffffffffffffffffffffffffffffffffffffff1673ffffffffffffffffffffffffffffffffffffffff1663f242432a303385600401548a6040518563ffffffff1660e01b81526004016121f79493929190613ee6565b600060405180830381600087803b15801561221157600080fd5b505af1158015612225573d6000803e3d6000fd5b505050505b863373ffffffffffffffffffffffffffffffffffffffff167f36a39cf3f9b8206db312650e7d954482535a2e33fb0b54e1030f149ed213823a88846040516122739291906142aa565b60405180910390a350505050505050565b60396020528060005260406000206000915054906101000a900460ff1681565b603360009054906101000a900473ffffffffffffffffffffffffffffffffffffffff1673ffffffffffffffffffffffffffffffffffffffff163373ffffffffffffffffffffffffffffffffffffffff16146122fe57600080fd5b612310828460001c1860001b82612853565b505050565b600063f23a6e6160e01b90509695505050505050565b600083141561236f576040517f08c379a00000000000000000000000000000000000000000000000000000000081526004016123669061404d565b60405180910390fd5b6020885111156123b4576040517f08c379a00000000000000000000000000000000000000000000000000000000081526004016123ab9061410d565b60405180910390fd5b60008114156124745760018414612400576040517f08c379a00000000000000000000000000000000000000000000000000000000081526004016123f7906140ad565b60405180910390fd5b8673ffffffffffffffffffffffffffffffffffffffff166342842e0e3330886040518463ffffffff1660e01b815260040161243d93929190613d9b565b600060405180830381600087803b15801561245757600080fd5b505af115801561246b573d6000803e3d6000fd5b5050505061252a565b60008414156124b8576040517f08c379a00000000000000000000000000000000000000000000000000000000081526004016124af906140ad565b60405180910390fd5b8673ffffffffffffffffffffffffffffffffffffffff1663f242432a333088886040518563ffffffff1660e01b81526004016124f79493929190613dd2565b600060405180830381600087803b15801561251157600080fd5b505af1158015612525573d6000803e3d6000fd5b505050505b612532612e7e565b33816000019073ffffffffffffffffffffffffffffffffffffffff16908173ffffffffffffffffffffffffffffffffffffffff168152505088816020018190525087816040019073ffffffffffffffffffffffffffffffffffffffff16908173ffffffffffffffffffffffffffffffffffffffff168152505086816060019073ffffffffffffffffffffffffffffffffffffffff16908173ffffffffffffffffffffffffffffffffffffffff168152505085816080018181525050848160a0018181525050838160c0018181525050818160e0018181525050600060358054905090506001603660003373ffffffffffffffffffffffffffffffffffffffff1673ffffffffffffffffffffffffffffffffffffffff168152602001908152602001600020600083815260200190815260200160002060006101000a81548160ff02191690831515021790555083156126b057836037600083815260200190815260200160002060006101000a81548160ff0219169083151502179055505b603582908060018154018082558091505060019003906000526020600020906008020160009091909190915060008201518160000160006101000a81548173ffffffffffffffffffffffffffffffffffffffff021916908373ffffffffffffffffffffffffffffffffffffffff160217905550602082015181600101908051906020019061273f929190612f05565b5060408201518160020160006101000a81548173ffffffffffffffffffffffffffffffffffffffff021916908373ffffffffffffffffffffffffffffffffffffffff16021790555060608201518160030160006101000a81548173ffffffffffffffffffffffffffffffffffffffff021916908373ffffffffffffffffffffffffffffffffffffffff1602179055506080820151816004015560a0820151816005015560c0820151816006015560e082015181600701555050803373ffffffffffffffffffffffffffffffffffffffff167f83987f103c6de6953a468583975952670a228fbe0815298846692946897535088460405161283f919061426d565b60405180910390a350505050505050505050565b80603460008481526020019081526020016000205414612886578060346000848152602001908152602001600020819055505b5050565b60008273ffffffffffffffffffffffffffffffffffffffff16603583815481106128b057fe5b906000526020600020906008020160000160009054906101000a900473ffffffffffffffffffffffffffffffffffffffff1673ffffffffffffffffffffffffffffffffffffffff161415612907576001905061290c565b600090505b92915050565b600061295483836040518060400160405280601e81526020017f536166654d6174683a207375627472616374696f6e206f766572666c6f770000815250612c05565b905092915050565b600073ffffffffffffffffffffffffffffffffffffffff168173ffffffffffffffffffffffffffffffffffffffff16141561299657600080fd5b8073ffffffffffffffffffffffffffffffffffffffff16603360009054906101000a900473ffffffffffffffffffffffffffffffffffffffff1673ffffffffffffffffffffffffffffffffffffffff167fc7c0c772add429241571afb3805861fb3cfa2af374534088b76cdb4325a87e9a60405160405180910390a380603360006101000a81548173ffffffffffffffffffffffffffffffffffffffff021916908373ffffffffffffffffffffffffffffffffffffffff16021790555050565b6000803090506000813b9050600081149250505090565b600080828401905083811015612ab8576040517f08c379a0000000000000000000000000000000000000000000000000000000008152600401612aaf9061400d565b60405180910390fd5b8091505092915050565b600080831415612ad55760009050612b2c565b6000828402905082848281612ae657fe5b0414612b27576040517f08c379a0000000000000000000000000000000000000000000000000000000008152600401612b1e9061412d565b60405180910390fd5b809150505b92915050565b6000612b7483836040518060400160405280601a81526020017f536166654d6174683a206469766973696f6e206279207a65726f000000000000815250612c60565b905092915050565b612bff846323b872dd60e01b858585604051602401612b9d93929190613f3e565b604051602081830303815290604052907bffffffffffffffffffffffffffffffffffffffffffffffffffffffff19166020820180517bffffffffffffffffffffffffffffffffffffffffffffffffffffffff8381831617835250505050612cc1565b50505050565b6000838311158290612c4d576040517f08c379a0000000000000000000000000000000000000000000000000000000008152600401612c449190613fab565b60405180910390fd5b5060008385039050809150509392505050565b60008083118290612ca7576040517f08c379a0000000000000000000000000000000000000000000000000000000008152600401612c9e9190613fab565b60405180910390fd5b506000838581612cb357fe5b049050809150509392505050565b612ce08273ffffffffffffffffffffffffffffffffffffffff16612e33565b612d1f576040517f08c379a0000000000000000000000000000000000000000000000000000000008152600401612d169061422d565b60405180910390fd5b600060608373ffffffffffffffffffffffffffffffffffffffff1683604051612d489190613d4e565b6000604051808303816000865af19150503d8060008114612d85576040519150601f19603f3d011682016040523d82523d6000602084013e612d8a565b606091505b509150915081612dcf576040517f08c379a0000000000000000000000000000000000000000000000000000000008152600401612dc69061408d565b60405180910390fd5b600081511115612e2d5780806020019051810190612ded9190613235565b612e2c576040517f08c379a0000000000000000000000000000000000000000000000000000000008152600401612e239061420d565b60405180910390fd5b5b50505050565b60008060007fc5d2460186f7233c927e7db2dcc703c0e500b653ca82273b7bfad8045d85a47060001b9050833f9150808214158015612e7557506000801b8214155b92505050919050565b604051806101000160405280600073ffffffffffffffffffffffffffffffffffffffff16815260200160608152602001600073ffffffffffffffffffffffffffffffffffffffff168152602001600073ffffffffffffffffffffffffffffffffffffffff168152602001600081526020016000815260200160008152602001600081525090565b828054600181600116156101000203166002900490600052602060002090601f016020900481019282601f10612f4657805160ff1916838001178555612f74565b82800160010185558215612f74579182015b82811115612f73578251825591602001919060010190612f58565b5b509050612f819190612f85565b5090565b5b80821115612f9e576000816000905550600101612f86565b5090565b600081359050612fb181614499565b92915050565b600081359050612fc6816144b0565b92915050565b600081519050612fdb816144b0565b92915050565b600081359050612ff0816144c7565b92915050565b60008083601f84011261300857600080fd5b8235905067ffffffffffffffff81111561302157600080fd5b60208301915083600182028301111561303957600080fd5b9250929050565b600082601f83011261305157600080fd5b813561306461305f82614300565b6142d3565b9150808252602083016020830185838301111561308057600080fd5b61308b838284614446565b50505092915050565b6000813590506130a3816144de565b92915050565b6000815190506130b8816144de565b92915050565b6000602082840312156130d057600080fd5b60006130de84828501612fa2565b91505092915050565b6000806000806000608086880312156130ff57600080fd5b600061310d88828901612fa2565b955050602061311e88828901612fa2565b945050604061312f88828901613094565b935050606086013567ffffffffffffffff81111561314c57600080fd5b61315888828901612ff6565b92509250509295509295909350565b60008060008060008060a0878903121561318057600080fd5b600061318e89828a01612fa2565b965050602061319f89828a01612fa2565b95505060406131b089828a01613094565b94505060606131c189828a01613094565b935050608087013567ffffffffffffffff8111156131de57600080fd5b6131ea89828a01612ff6565b92509250509295509295509295565b6000806040838503121561320c57600080fd5b600061321a85828601612fa2565b925050602061322b85828601613094565b9150509250929050565b60006020828403121561324757600080fd5b600061325584828501612fcc565b91505092915050565b60006020828403121561327057600080fd5b600061327e84828501612fe1565b91505092915050565b6000806040838503121561329a57600080fd5b60006132a885828601612fe1565b92505060206132b985828601612fa2565b9150509250929050565b6000806000606084860312156132d857600080fd5b60006132e686828701612fe1565b93505060206132f786828701612fa2565b925050604061330886828701613094565b9150509250925092565b6000806040838503121561332557600080fd5b600061333385828601612fe1565b925050602061334485828601613094565b9150509250929050565b60008060006060848603121561336357600080fd5b600061337186828701612fe1565b935050602061338286828701613094565b925050604061339386828701613094565b9150509250925092565b60008060008060008060c087890312156133b657600080fd5b600087013567ffffffffffffffff8111156133d057600080fd5b6133dc89828a01613040565b96505060206133ed89828a01612fa2565b95505060406133fe89828a01612fa2565b945050606061340f89828a01613094565b935050608061342089828a01613094565b92505060a061343189828a01612fb7565b9150509295509295509295565b600080600080600080600060e0888a03121561345957600080fd5b600088013567ffffffffffffffff81111561347357600080fd5b61347f8a828b01613040565b97505060206134908a828b01612fa2565b96505060406134a18a828b01612fa2565b95505060606134b28a828b01613094565b94505060806134c38a828b01613094565b93505060a06134d48a828b01613094565b92505060c06134e58a828b01612fb7565b91505092959891949750929550565b60006020828403121561350657600080fd5b600061351484828501613094565b91505092915050565b60006020828403121561352f57600080fd5b600061353d848285016130a9565b91505092915050565b6000806040838503121561355957600080fd5b600061356785828601613094565b925050602061357885828601613094565b9150509250929050565b61358b81614410565b82525050565b61359a81614392565b82525050565b6135a981614392565b82525050565b6135b881614380565b82525050565b6135c781614380565b82525050565b6135d6816143a4565b82525050565b6135e5816143ba565b82525050565b60006135f68261432c565b6136008185614353565b9350613610818560208601614455565b80840191505092915050565b600061362782614337565b613631818561435e565b9350613641818560208601614455565b61364a81614488565b840191505092915050565b600061366082614337565b61366a818561436f565b935061367a818560208601614455565b61368381614488565b840191505092915050565b600061369b60108361436f565b91507f696e76616c696420676f7665726e6f72000000000000000000000000000000006000830152602082019050919050565b60006136db600e8361436f565b91507f696e76616c696420746f6b656e300000000000000000000000000000000000006000830152602082019050919050565b600061371b601b8361436f565b91507f536166654d6174683a206164646974696f6e206f766572666c6f7700000000006000830152602082019050919050565b600061375b601a8361436f565b91507f73656e646572206973206e6f7420706f6f6c2063726561746f720000000000006000830152602082019050919050565b600061379b60228361436f565b91507f7468652076616c7565206f6620616d6f756e74546f74616c31206973207a657260008301527f6f2e0000000000000000000000000000000000000000000000000000000000006020830152604082019050919050565b600061380160188361436f565b91507f7468697320706f6f6c20646f6573206e6f7420657869737400000000000000006000830152602082019050919050565b600061384160208361436f565b91507f5361666545524332303a206c6f772d6c6576656c2063616c6c206661696c65646000830152602082019050919050565b600061388160148361436f565b91507f696e76616c696420616d6f756e74546f74616c300000000000000000000000006000830152602082019050919050565b60006138c160118361436f565b91507f424f54206973206e6f7420656e6f7567680000000000000000000000000000006000830152602082019050919050565b600061390160148361436f565b91507f7468697320706f6f6c20697320737761707065640000000000000000000000006000830152602082019050919050565b6000613941601e8361436f565b91507f746865206c656e677468206f66206e616d6520697320746f6f206c6f6e6700006000830152602082019050919050565b600061398160218361436f565b91507f536166654d6174683a206d756c7469706c69636174696f6e206f766572666c6f60008301527f77000000000000000000000000000000000000000000000000000000000000006020830152604082019050919050565b60006139e760188361436f565b91507f4552433131353520706f6f6c2069732064697361626c656400000000000000006000830152602082019050919050565b6000613a27602e8361436f565b91507f436f6e747261637420696e7374616e63652068617320616c726561647920626560008301527f656e20696e697469616c697a65640000000000000000000000000000000000006020830152604082019050919050565b6000613a8d600083614342565b9150600082019050919050565b6000613aa7600f8361436f565b91507f696e76616c696420616d6f756e743000000000000000000000000000000000006000830152602082019050919050565b6000613ae7601e8361436f565b91507f63726561746f72206861732063616e63656c6564207468697320706f6f6c00006000830152602082019050919050565b6000613b2760178361436f565b91507f45524337323120706f6f6c2069732064697361626c65640000000000000000006000830152602082019050919050565b6000613b6760128361436f565b91507f696e76616c69642045544820616d6f756e7400000000000000000000000000006000830152602082019050919050565b6000613ba7602a8361436f565b91507f5361666545524332303a204552433230206f7065726174696f6e20646964206e60008301527f6f742073756363656564000000000000000000000000000000000000000000006020830152604082019050919050565b6000613c0d601f8361436f565b91507f5361666545524332303a2063616c6c20746f206e6f6e2d636f6e7472616374006000830152602082019050919050565b6000613c4d601e8361436f565b91507f706f6f6c2066696c6c6564206f7220696e76616c696420616d6f756e743000006000830152602082019050919050565b600061010083016000830151613c996000860182613591565b5060208301518482036020860152613cb1828261361c565b9150506040830151613cc660408601826135af565b506060830151613cd960608601826135af565b506080830151613cec6080860182613d30565b5060a0830151613cff60a0860182613d30565b5060c0830151613d1260c0860182613d30565b5060e0830151613d2560e0860182613d30565b508091505092915050565b613d3981614406565b82525050565b613d4881614406565b82525050565b6000613d5a82846135eb565b915081905092915050565b6000602082019050613d7a60008301846135be565b92915050565b6000602082019050613d956000830184613582565b92915050565b6000606082019050613db06000830186613582565b613dbd60208301856135be565b613dca6040830184613d3f565b949350505050565b600060a082019050613de76000830187613582565b613df460208301866135be565b613e016040830185613d3f565b613e0e6060830184613d3f565b8181036080830152613e1f81613a80565b905095945050505050565b600061010082019050613e40600083018b6135a0565b8181036020830152613e52818a613655565b9050613e6160408301896135be565b613e6e60608301886135be565b613e7b6080830187613d3f565b613e8860a0830186613d3f565b613e9560c0830185613d3f565b613ea260e0830184613d3f565b9998505050505050505050565b6000606082019050613ec460008301866135be565b613ed16020830185613582565b613ede6040830184613d3f565b949350505050565b600060a082019050613efb60008301876135be565b613f086020830186613582565b613f156040830185613d3f565b613f226060830184613d3f565b8181036080830152613f3381613a80565b905095945050505050565b6000606082019050613f5360008301866135be565b613f6060208301856135be565b613f6d6040830184613d3f565b949350505050565b6000602082019050613f8a60008301846135cd565b92915050565b6000602082019050613fa560008301846135dc565b92915050565b60006020820190508181036000830152613fc58184613655565b905092915050565b60006020820190508181036000830152613fe68161368e565b9050919050565b60006020820190508181036000830152614006816136ce565b9050919050565b600060208201905081810360008301526140268161370e565b9050919050565b600060208201905081810360008301526140468161374e565b9050919050565b600060208201905081810360008301526140668161378e565b9050919050565b60006020820190508181036000830152614086816137f4565b9050919050565b600060208201905081810360008301526140a681613834565b9050919050565b600060208201905081810360008301526140c681613874565b9050919050565b600060208201905081810360008301526140e6816138b4565b9050919050565b60006020820190508181036000830152614106816138f4565b9050919050565b6000602082019050818103600083015261412681613934565b9050919050565b6000602082019050818103600083015261414681613974565b9050919050565b60006020820190508181036000830152614166816139da565b9050919050565b6000602082019050818103600083015261418681613a1a565b9050919050565b600060208201905081810360008301526141a681613a9a565b9050919050565b600060208201905081810360008301526141c681613ada565b9050919050565b600060208201905081810360008301526141e681613b1a565b9050919050565b6000602082019050818103600083015261420681613b5a565b9050919050565b6000602082019050818103600083015261422681613b9a565b9050919050565b6000602082019050818103600083015261424681613c00565b9050919050565b6000602082019050818103600083015261426681613c40565b9050919050565b600060208201905081810360008301526142878184613c80565b905092915050565b60006020820190506142a46000830184613d3f565b92915050565b60006040820190506142bf6000830185613d3f565b6142cc6020830184613d3f565b9392505050565b6000604051905081810181811067ffffffffffffffff821117156142f657600080fd5b8060405250919050565b600067ffffffffffffffff82111561431757600080fd5b601f19601f8301169050602081019050919050565b600081519050919050565b600081519050919050565b600082825260208201905092915050565b600081905092915050565b600082825260208201905092915050565b600082825260208201905092915050565b600061438b826143e6565b9050919050565b600061439d826143e6565b9050919050565b60008115159050919050565b6000819050919050565b60007fffffffff0000000000000000000000000000000000000000000000000000000082169050919050565b600073ffffffffffffffffffffffffffffffffffffffff82169050919050565b6000819050919050565b600061441b82614422565b9050919050565b600061442d82614434565b9050919050565b600061443f826143e6565b9050919050565b82818337600083830152505050565b60005b83811015614473578082015181840152602081019050614458565b83811115614482576000848401525b50505050565b6000601f19601f8301169050919050565b6144a281614380565b81146144ad57600080fd5b50565b6144b9816143a4565b81146144c457600080fd5b50565b6144d0816143b0565b81146144db57600080fd5b50565b6144e781614406565b81146144f257600080fd5b5056fea264697066735822122056b3d96e20ab6a63cd206c6d8c1d354680cfe60fd20c74a61a6a6f0bd60bfa6964736f6c634300060c0033",
  "compiler": {
    "name": "solc",
    "version": "0.6.12+commit.27d51765.Emscripten.clang",
    "optimizer": {
      "enabled": false,
      "runs": 200
    },
    "evmVersion": "petersburg"
  }
}