{
  "_format": "hh-sol-artifact-1",
  "contractName": "BounceBlindBox",
  "sourceName": "contracts/BounceBlindBox.sol",
  "abi": [
    {
      "anonymous": false,
      "inputs": [
        {
          "indexed": true,
          "internalType": "address",
          "name": "owner",
          "type": "address"
        },
        {
          "indexed": true,
          "internalType": "address",
          "name": "approved",
          "type": "address"
        },
        {
          "indexed": true,
          "internalType": "uint256",
          "name": "tokenId",
          "type": "uint256"
        }
      ],
      "name": "Approval",
      "type": "event"
    },
    {
      "anonymous": false,
      "inputs": [
        {
          "indexed": true,
          "internalType": "address",
          "name": "owner",
          "type": "address"
        },
        {
          "indexed": true,
          "internalType": "address",
          "name": "operator",
          "type": "address"
        },
        {
          "indexed": false,
          "internalType": "bool",
          "name": "approved",
          "type": "bool"
        }
      ],
      "name": "ApprovalForAll",
      "type": "event"
    },
    {
      "anonymous": false,
      "inputs": [
        {
          "indexed": true,
          "internalType": "address",
          "name": "previousOwner",
          "type": "address"
        },
        {
          "indexed": true,
          "internalType": "address",
          "name": "newOwner",
          "type": "address"
        }
      ],
      "name": "OwnershipTransferred",
      "type": "event"
    },
    {
      "anonymous": false,
      "inputs": [
        {
          "indexed": true,
          "internalType": "address",
          "name": "from",
          "type": "address"
        },
        {
          "indexed": true,
          "internalType": "address",
          "name": "to",
          "type": "address"
        },
        {
          "indexed": true,
          "internalType": "uint256",
          "name": "tokenId",
          "type": "uint256"
        }
      ],
      "name": "Transfer",
      "type": "event"
    },
    {
      "inputs": [
        {
          "internalType": "address",
          "name": "to",
          "type": "address"
        },
        {
          "internalType": "uint256",
          "name": "tokenId",
          "type": "uint256"
        }
      ],
      "name": "approve",
      "outputs": [],
      "stateMutability": "nonpayable",
      "type": "function"
    },
    {
      "inputs": [
        {
          "internalType": "address",
          "name": "owner",
          "type": "address"
        }
      ],
      "name": "balanceOf",
      "outputs": [
        {
          "internalType": "uint256",
          "name": "",
          "type": "uint256"
        }
      ],
      "stateMutability": "view",
      "type": "function"
    },
    {
      "inputs": [],
      "name": "baseURI",
      "outputs": [
        {
          "internalType": "string",
          "name": "",
          "type": "string"
        }
      ],
      "stateMutability": "view",
      "type": "function"
    },
    {
      "inputs": [
        {
          "internalType": "uint256",
          "name": "tokenId",
          "type": "uint256"
        }
      ],
      "name": "getApproved",
      "outputs": [
        {
          "internalType": "address",
          "name": "",
          "type": "address"
        }
      ],
      "stateMutability": "view",
      "type": "function"
    },
    {
      "inputs": [
        {
          "internalType": "string",
          "name": "name_",
          "type": "string"
        },
        {
          "internalType": "string",
          "name": "symbol_",
          "type": "string"
        },
        {
          "internalType": "string",
          "name": "baseURI_",
          "type": "string"
        },
        {
          "internalType": "uint256",
          "name": "price_",
          "type": "uint256"
        },
        {
          "internalType": "uint256",
          "name": "maxSupply_",
          "type": "uint256"
        },
        {
          "internalType": "uint256",
          "name": "mintAt_",
          "type": "uint256"
        },
        {
          "internalType": "uint256",
          "name": "revealAt_",
          "type": "uint256"
        }
      ],
      "name": "initialize",
      "outputs": [],
      "stateMutability": "nonpayable",
      "type": "function"
    },
    {
      "inputs": [
        {
          "internalType": "address",
          "name": "owner",
          "type": "address"
        },
        {
          "internalType": "address",
          "name": "operator",
          "type": "address"
        }
      ],
      "name": "isApprovedForAll",
      "outputs": [
        {
          "internalType": "bool",
          "name": "",
          "type": "bool"
        }
      ],
      "stateMutability": "view",
      "type": "function"
    },
    {
      "inputs": [],
      "name": "maxSupply",
      "outputs": [
        {
          "internalType": "uint256",
          "name": "",
          "type": "uint256"
        }
      ],
      "stateMutability": "view",
      "type": "function"
    },
    {
      "inputs": [],
      "name": "mintAt",
      "outputs": [
        {
          "internalType": "uint256",
          "name": "",
          "type": "uint256"
        }
      ],
      "stateMutability": "view",
      "type": "function"
    },
    {
      "inputs": [
        {
          "internalType": "uint256",
          "name": "count",
          "type": "uint256"
        }
      ],
      "name": "mintByETH",
      "outputs": [],
      "stateMutability": "payable",
      "type": "function"
    },
    {
      "inputs": [],
      "name": "name",
      "outputs": [
        {
          "internalType": "string",
          "name": "",
          "type": "string"
        }
      ],
      "stateMutability": "view",
      "type": "function"
    },
    {
      "inputs": [],
      "name": "onceMintCount",
      "outputs": [
        {
          "internalType": "uint256",
          "name": "",
          "type": "uint256"
        }
      ],
      "stateMutability": "view",
      "type": "function"
    },
    {
      "inputs": [],
      "name": "owner",
      "outputs": [
        {
          "internalType": "address",
          "name": "",
          "type": "address"
        }
      ],
      "stateMutability": "view",
      "type": "function"
    },
    {
      "inputs": [
        {
          "internalType": "uint256",
          "name": "tokenId",
          "type": "uint256"
        }
      ],
      "name": "ownerOf",
      "outputs": [
        {
          "internalType": "address",
          "name": "",
          "type": "address"
        }
      ],
      "stateMutability": "view",
      "type": "function"
    },
    {
      "inputs": [],
      "name": "price",
      "outputs": [
        {
          "internalType": "uint256",
          "name": "",
          "type": "uint256"
        }
      ],
      "stateMutability": "view",
      "type": "function"
    },
    {
      "inputs": [],
      "name": "renounceOwnership",
      "outputs": [],
      "stateMutability": "nonpayable",
      "type": "function"
    },
    {
      "inputs": [],
      "name": "revealAt",
      "outputs": [
        {
          "internalType": "uint256",
          "name": "",
          "type": "uint256"
        }
      ],
      "stateMutability": "view",
      "type": "function"
    },
    {
      "inputs": [
        {
          "internalType": "address",
          "name": "from",
          "type": "address"
        },
        {
          "internalType": "address",
          "name": "to",
          "type": "address"
        },
        {
          "internalType": "uint256",
          "name": "tokenId",
          "type": "uint256"
        }
      ],
      "name": "safeTransferFrom",
      "outputs": [],
      "stateMutability": "nonpayable",
      "type": "function"
    },
    {
      "inputs": [
        {
          "internalType": "address",
          "name": "from",
          "type": "address"
        },
        {
          "internalType": "address",
          "name": "to",
          "type": "address"
        },
        {
          "internalType": "uint256",
          "name": "tokenId",
          "type": "uint256"
        },
        {
          "internalType": "bytes",
          "name": "_data",
          "type": "bytes"
        }
      ],
      "name": "safeTransferFrom",
      "outputs": [],
      "stateMutability": "nonpayable",
      "type": "function"
    },
    {
      "inputs": [
        {
          "internalType": "address",
          "name": "operator",
          "type": "address"
        },
        {
          "internalType": "bool",
          "name": "approved",
          "type": "bool"
        }
      ],
      "name": "setApprovalForAll",
      "outputs": [],
      "stateMutability": "nonpayable",
      "type": "function"
    },
    {
      "inputs": [
        {
          "internalType": "string",
          "name": "baseURI",
          "type": "string"
        }
      ],
      "name": "setBaseURI",
      "outputs": [],
      "stateMutability": "nonpayable",
      "type": "function"
    },
    {
      "inputs": [
        {
          "internalType": "uint256",
          "name": "maxSupply_",
          "type": "uint256"
        }
      ],
      "name": "setMaxSupply",
      "outputs": [],
      "stateMutability": "nonpayable",
      "type": "function"
    },
    {
      "inputs": [
        {
          "internalType": "uint256",
          "name": "mintAt_",
          "type": "uint256"
        }
      ],
      "name": "setMintAt",
      "outputs": [],
      "stateMutability": "nonpayable",
      "type": "function"
    },
    {
      "inputs": [
        {
          "internalType": "uint256",
          "name": "price_",
          "type": "uint256"
        }
      ],
      "name": "setPrice",
      "outputs": [],
      "stateMutability": "nonpayable",
      "type": "function"
    },
    {
      "inputs": [
        {
          "internalType": "uint256",
          "name": "revealAt_",
          "type": "uint256"
        }
      ],
      "name": "setRevealAt",
      "outputs": [],
      "stateMutability": "nonpayable",
      "type": "function"
    },
    {
      "inputs": [
        {
          "internalType": "bytes4",
          "name": "interfaceId",
          "type": "bytes4"
        }
      ],
      "name": "supportsInterface",
      "outputs": [
        {
          "internalType": "bool",
          "name": "",
          "type": "bool"
        }
      ],
      "stateMutability": "view",
      "type": "function"
    },
    {
      "inputs": [],
      "name": "symbol",
      "outputs": [
        {
          "internalType": "string",
          "name": "",
          "type": "string"
        }
      ],
      "stateMutability": "view",
      "type": "function"
    },
    {
      "inputs": [
        {
          "internalType": "uint256",
          "name": "index",
          "type": "uint256"
        }
      ],
      "name": "tokenByIndex",
      "outputs": [
        {
          "internalType": "uint256",
          "name": "",
          "type": "uint256"
        }
      ],
      "stateMutability": "view",
      "type": "function"
    },
    {
      "inputs": [
        {
          "internalType": "address",
          "name": "owner",
          "type": "address"
        },
        {
          "internalType": "uint256",
          "name": "index",
          "type": "uint256"
        }
      ],
      "name": "tokenOfOwnerByIndex",
      "outputs": [
        {
          "internalType": "uint256",
          "name": "",
          "type": "uint256"
        }
      ],
      "stateMutability": "view",
      "type": "function"
    },
    {
      "inputs": [
        {
          "internalType": "uint256",
          "name": "tokenId",
          "type": "uint256"
        }
      ],
      "name": "tokenURI",
      "outputs": [
        {
          "internalType": "string",
          "name": "",
          "type": "string"
        }
      ],
      "stateMutability": "view",
      "type": "function"
    },
    {
      "inputs": [],
      "name": "totalSupply",
      "outputs": [
        {
          "internalType": "uint256",
          "name": "",
          "type": "uint256"
        }
      ],
      "stateMutability": "view",
      "type": "function"
    },
    {
      "inputs": [
        {
          "internalType": "address",
          "name": "from",
          "type": "address"
        },
        {
          "internalType": "address",
          "name": "to",
          "type": "address"
        },
        {
          "internalType": "uint256",
          "name": "tokenId",
          "type": "uint256"
        }
      ],
      "name": "transferFrom",
      "outputs": [],
      "stateMutability": "nonpayable",
      "type": "function"
    },
    {
      "inputs": [
        {
          "internalType": "address",
          "name": "newOwner",
          "type": "address"
        }
      ],
      "name": "transferOwnership",
      "outputs": [],
      "stateMutability": "nonpayable",
      "type": "function"
    },
    {
      "inputs": [
        {
          "internalType": "address payable",
          "name": "to",
          "type": "address"
        },
        {
          "internalType": "uint256",
          "name": "amount",
          "type": "uint256"
        }
      ],
      "name": "withdrawETH",
      "outputs": [],
      "stateMutability": "nonpayable",
      "type": "function"
    }
  ],
  "bytecode": "0x608060405234801561001057600080fd5b50612d60806100206000396000f3fe6080604052600436106101ee5760003560e01c806370a082311161010d578063b88d4fde116100a0578063d3450b6b1161006f578063d3450b6b146109da578063d5abeb01146109f7578063e985e9c514610a0c578063ee4a8c8c14610a47578063f2fde38b14610a5c576101ee565b8063b88d4fde146108b5578063c87b56dd14610986578063cb30fd92146109b0578063ce5bff55146109c5576101ee565b806391b7f5ed116100dc57806391b7f5ed1461082657806395d89b4114610850578063a035b1fe14610865578063a22cb4651461087a576101ee565b806370a082311461079f578063715018a6146107d2578063733088e6146107e75780638da5cb5b14610811576101ee565b80632f745c591161018557806355f804b31161015457806355f804b3146106855780636352211e146107365780636c0360eb146107605780636f8b44b014610775576101ee565b80632f745c59146105a657806342842e0e146105df5780634782f779146106225780634f6ccce71461065b576101ee565b8063081812fc116101c1578063081812fc146104bd578063095ea7b31461050357806318160ddd1461053c57806323b872dd14610563576101ee565b806301ffc9a7146101f357806303bf05dd1461023b57806305a927921461026757806306fdde0314610433575b600080fd5b3480156101ff57600080fd5b506102276004803603602081101561021657600080fd5b50356001600160e01b031916610a8f565b604080519115158252519081900360200190f35b34801561024757600080fd5b506102656004803603602081101561025e57600080fd5b5035610ab2565b005b34801561027357600080fd5b50610265600480360360e081101561028a57600080fd5b810190602081018135600160201b8111156102a457600080fd5b8201836020820111156102b657600080fd5b803590602001918460018302840111600160201b831117156102d757600080fd5b91908080601f0160208091040260200160405190810160405280939291908181526020018383808284376000920191909152509295949360208101935035915050600160201b81111561032957600080fd5b82018360208201111561033b57600080fd5b803590602001918460018302840111600160201b8311171561035c57600080fd5b91908080601f0160208091040260200160405190810160405280939291908181526020018383808284376000920191909152509295949360208101935035915050600160201b8111156103ae57600080fd5b8201836020820111156103c057600080fd5b803590602001918460018302840111600160201b831117156103e157600080fd5b91908080601f0160208091040260200160405190810160405280939291908181526020018383808284376000920191909152509295505082359350505060208101359060408101359060600135610b20565b34801561043f57600080fd5b50610448610c01565b6040805160208082528351818301528351919283929083019185019080838360005b8381101561048257818101518382015260200161046a565b50505050905090810190601f1680156104af5780820380516001836020036101000a031916815260200191505b509250505060405180910390f35b3480156104c957600080fd5b506104e7600480360360208110156104e057600080fd5b5035610c97565b604080516001600160a01b039092168252519081900360200190f35b34801561050f57600080fd5b506102656004803603604081101561052657600080fd5b506001600160a01b038135169060200135610cf9565b34801561054857600080fd5b50610551610dd4565b60408051918252519081900360200190f35b34801561056f57600080fd5b506102656004803603606081101561058657600080fd5b506001600160a01b03813581169160208101359091169060400135610de5565b3480156105b257600080fd5b50610551600480360360408110156105c957600080fd5b506001600160a01b038135169060200135610e3c565b3480156105eb57600080fd5b506102656004803603606081101561060257600080fd5b506001600160a01b03813581169160208101359091169060400135610e67565b34801561062e57600080fd5b506102656004803603604081101561064557600080fd5b506001600160a01b038135169060200135610e82565b34801561066757600080fd5b506105516004803603602081101561067e57600080fd5b5035610f5d565b34801561069157600080fd5b50610265600480360360208110156106a857600080fd5b810190602081018135600160201b8111156106c257600080fd5b8201836020820111156106d457600080fd5b803590602001918460018302840111600160201b831117156106f557600080fd5b91908080601f016020809104026020016040519081016040528093929190818152602001838380828437600092019190915250929550610f73945050505050565b34801561074257600080fd5b506104e76004803603602081101561075957600080fd5b5035610fd7565b34801561076c57600080fd5b50610448610fff565b34801561078157600080fd5b506102656004803603602081101561079857600080fd5b5035611060565b3480156107ab57600080fd5b50610551600480360360208110156107c257600080fd5b50356001600160a01b0316611119565b3480156107de57600080fd5b50610265611181565b3480156107f357600080fd5b506102656004803603602081101561080a57600080fd5b5035611223565b34801561081d57600080fd5b506104e7611291565b34801561083257600080fd5b506102656004803603602081101561084957600080fd5b50356112a0565b34801561085c57600080fd5b506104486112fd565b34801561087157600080fd5b5061055161135e565b34801561088657600080fd5b506102656004803603604081101561089d57600080fd5b506001600160a01b0381351690602001351515611364565b3480156108c157600080fd5b50610265600480360360808110156108d857600080fd5b6001600160a01b03823581169260208101359091169160408201359190810190608081016060820135600160201b81111561091257600080fd5b82018360208201111561092457600080fd5b803590602001918460018302840111600160201b8311171561094557600080fd5b91908080601f016020809104026020016040519081016040528093929190818152602001838380828437600092019190915250929550611469945050505050565b34801561099257600080fd5b50610448600480360360208110156109a957600080fd5b50356114c1565b3480156109bc57600080fd5b50610551611768565b3480156109d157600080fd5b5061055161176e565b610265600480360360208110156109f057600080fd5b5035611774565b348015610a0357600080fd5b506105516118f1565b348015610a1857600080fd5b5061022760048036036040811015610a2f57600080fd5b506001600160a01b03813581169160200135166118f7565b348015610a5357600080fd5b50610551611925565b348015610a6857600080fd5b5061026560048036036020811015610a7f57600080fd5b50356001600160a01b031661192a565b6001600160e01b0319811660009081526065602052604090205460ff165b919050565b610aba611a23565b60c9546001600160a01b03908116911614610b0a576040805162461bcd60e51b81526020600482018190526024820152600080516020612c33833981519152604482015290519081900360640190fd5b60fe5460fd541115610b1b57600080fd5b60fd55565b600054610100900460ff1680610b395750610b39611a27565b80610b47575060005460ff16155b610b825760405162461bcd60e51b815260040180806020018281038252602e815260200180612c53602e913960400191505060405180910390fd5b600054610100900460ff16158015610bad576000805460ff1961ff0019909116610100171660011790555b60fe5460fd541115610bbe57600080fd5b610bc88888611a2d565b610bd186611aea565b60fb85905560fc84905560fd83905560fe8290558015610bf7576000805461ff00191690555b5050505050505050565b609c8054604080516020601f6002600019610100600188161502019095169490940493840181900481028201810190925282815260609390929091830182828015610c8d5780601f10610c6257610100808354040283529160200191610c8d565b820191906000526020600020905b815481529060010190602001808311610c7057829003601f168201915b5050505050905090565b6000610ca282611afd565b610cdd5760405162461bcd60e51b815260040180806020018281038252602c815260200180612c07602c913960400191505060405180910390fd5b506000908152609a60205260409020546001600160a01b031690565b6000610d0482610fd7565b9050806001600160a01b0316836001600160a01b03161415610d575760405162461bcd60e51b8152600401808060200182810382526021815260200180612cd96021913960400191505060405180910390fd5b806001600160a01b0316610d69611a23565b6001600160a01b03161480610d8a5750610d8a81610d85611a23565b6118f7565b610dc55760405162461bcd60e51b8152600401808060200182810382526038815260200180612b396038913960400191505060405180910390fd5b610dcf8383611b0a565b505050565b6000610de06098611b78565b905090565b610df6610df0611a23565b82611b83565b610e315760405162461bcd60e51b8152600401808060200182810382526031815260200180612cfa6031913960400191505060405180910390fd5b610dcf838383611c27565b6001600160a01b0382166000908152609760205260408120610e5e9083611d73565b90505b92915050565b610dcf83838360405180602001604052806000815250611469565b610e8a611a23565b60c9546001600160a01b03908116911614610eda576040805162461bcd60e51b81526020600482018190526024820152600080516020612c33833981519152604482015290519081900360640190fd5b4780821115610f21576040805162461bcd60e51b815260206004820152600e60248201526d4578636565642062616c616e636560901b604482015290519081900360640190fd5b6040516001600160a01b0384169082156108fc029083906000818181858888f19350505050158015610f57573d6000803e3d6000fd5b50505050565b600080610f6b609884611d7f565b509392505050565b610f7b611a23565b60c9546001600160a01b03908116911614610fcb576040805162461bcd60e51b81526020600482018190526024820152600080516020612c33833981519152604482015290519081900360640190fd5b610fd481611aea565b50565b6000610e6182604051806060016040528060298152602001612b9b6029913960989190611d9b565b609f8054604080516020601f6002600019610100600188161502019095169490940493840181900481028201810190925282815260609390929091830182828015610c8d5780601f10610c6257610100808354040283529160200191610c8d565b611068611a23565b60c9546001600160a01b039081169116146110b8576040805162461bcd60e51b81526020600482018190526024820152600080516020612c33833981519152604482015290519081900360640190fd5b806110c1610dd4565b1115611114576040805162461bcd60e51b815260206004820152601860248201527f4e6577206d617820737570706c7920746f6f20736d616c6c0000000000000000604482015290519081900360640190fd5b60fc55565b60006001600160a01b0382166111605760405162461bcd60e51b815260040180806020018281038252602a815260200180612b71602a913960400191505060405180910390fd5b6001600160a01b0382166000908152609760205260409020610e6190611b78565b611189611a23565b60c9546001600160a01b039081169116146111d9576040805162461bcd60e51b81526020600482018190526024820152600080516020612c33833981519152604482015290519081900360640190fd5b60c9546040516000916001600160a01b0316907f8be0079c531659141344cd1fd0a4f28419497f9722a3daafe3b4186f6b6457e0908390a360c980546001600160a01b0319169055565b61122b611a23565b60c9546001600160a01b0390811691161461127b576040805162461bcd60e51b81526020600482018190526024820152600080516020612c33833981519152604482015290519081900360640190fd5b60fe5460fd54111561128c57600080fd5b60fe55565b60c9546001600160a01b031690565b6112a8611a23565b60c9546001600160a01b039081169116146112f8576040805162461bcd60e51b81526020600482018190526024820152600080516020612c33833981519152604482015290519081900360640190fd5b60fb55565b609d8054604080516020601f6002600019610100600188161502019095169490940493840181900481028201810190925282815260609390929091830182828015610c8d5780601f10610c6257610100808354040283529160200191610c8d565b60fb5481565b61136c611a23565b6001600160a01b0316826001600160a01b031614156113d2576040805162461bcd60e51b815260206004820152601960248201527f4552433732313a20617070726f766520746f2063616c6c657200000000000000604482015290519081900360640190fd5b80609b60006113df611a23565b6001600160a01b03908116825260208083019390935260409182016000908120918716808252919093529120805460ff191692151592909217909155611423611a23565b6001600160a01b03167f17307eab39ab6107e8899845ad3d59bd9653f200f220920489ca2b5937696c318360405180821515815260200191505060405180910390a35050565b61147a611474611a23565b83611b83565b6114b55760405162461bcd60e51b8152600401808060200182810382526031815260200180612cfa6031913960400191505060405180910390fd5b610f5784848484611db2565b60606114cc82611afd565b6115075760405162461bcd60e51b815260040180806020018281038252602f815260200180612caa602f913960400191505060405180910390fd5b6000828152609e602090815260409182902080548351601f600260001961010060018616150201909316929092049182018490048402810184019094528084526060939283018282801561159c5780601f106115715761010080835404028352916020019161159c565b820191906000526020600020905b81548152906001019060200180831161157f57829003601f168201915b5050609f54939450505050600260001961010060018416150201909116046115c5579050610aad565b80511561169657609f81604051602001808380546001816001161561010002031660029004801561162d5780601f1061160b57610100808354040283529182019161162d565b820191906000526020600020905b815481529060010190602001808311611619575b5050825160208401908083835b602083106116595780518252601f19909201916020918201910161163a565b6001836020036101000a03801982511681845116808217855250505050505090500192505050604051602081830303815290604052915050610aad565b609f6116a184611e04565b60405160200180838054600181600116156101000203166002900480156116ff5780601f106116dd5761010080835404028352918201916116ff565b820191906000526020600020905b8154815290600101906020018083116116eb575b5050825160208401908083835b6020831061172b5780518252601f19909201916020918201910161170c565b6001836020036101000a03801982511681845116808217855250505050505090500192505050604051602081830303815290604052915050919050565b60fe5481565b60fd5481565b4260fd5411156117bc576040805162461bcd60e51b815260206004820152600e60248201526d135a5b9d081b9bdd081cdd185c9d60921b604482015290519081900360640190fd5b601e811115611812576040805162461bcd60e51b815260206004820152601960248201527f457863656564206d696e7420636f756e74206174206f6e636500000000000000604482015290519081900360640190fd5b60fc5461182782611821610dd4565b90611edf565b111561186e576040805162461bcd60e51b8152602060048201526011602482015270457863656564206d617820737570706c7960781b604482015290519081900360640190fd5b60fb54349061187d9083611f39565b146118c3576040805162461bcd60e51b8152602060048201526011602482015270496e76616c6964206d73672e76616c756560781b604482015290519081900360640190fd5b60005b818110156118ed5760006118d8610dd4565b90506118e43382611f92565b506001016118c6565b5050565b60fc5481565b6001600160a01b039182166000908152609b6020908152604080832093909416825291909152205460ff1690565b601e81565b611932611a23565b60c9546001600160a01b03908116911614611982576040805162461bcd60e51b81526020600482018190526024820152600080516020612c33833981519152604482015290519081900360640190fd5b6001600160a01b0381166119c75760405162461bcd60e51b8152600401808060200182810382526026815260200180612ac36026913960400191505060405180910390fd5b60c9546040516001600160a01b038084169216907f8be0079c531659141344cd1fd0a4f28419497f9722a3daafe3b4186f6b6457e090600090a360c980546001600160a01b0319166001600160a01b0392909216919091179055565b3390565b303b1590565b600054610100900460ff1680611a465750611a46611a27565b80611a54575060005460ff16155b611a8f5760405162461bcd60e51b815260040180806020018281038252602e815260200180612c53602e913960400191505060405180910390fd5b600054610100900460ff16158015611aba576000805460ff1961ff0019909116610100171660011790555b611ac2611fac565b611aca61204d565b611ad483836120ea565b8015610dcf576000805461ff0019169055505050565b80516118ed90609f9060208401906129db565b6000610e616098836121cf565b6000818152609a6020526040902080546001600160a01b0319166001600160a01b0384169081179091558190611b3f82610fd7565b6001600160a01b03167f8c5be1e5ebec7d5bd14f71427d1e84f3dd0314c0f7b2291e5b200ac8c7c3b92560405160405180910390a45050565b6000610e61826121db565b6000611b8e82611afd565b611bc95760405162461bcd60e51b815260040180806020018281038252602c815260200180612b0d602c913960400191505060405180910390fd5b6000611bd483610fd7565b9050806001600160a01b0316846001600160a01b03161480611c0f5750836001600160a01b0316611c0484610c97565b6001600160a01b0316145b80611c1f5750611c1f81856118f7565b949350505050565b826001600160a01b0316611c3a82610fd7565b6001600160a01b031614611c7f5760405162461bcd60e51b8152600401808060200182810382526029815260200180612c816029913960400191505060405180910390fd5b6001600160a01b038216611cc45760405162461bcd60e51b8152600401808060200182810382526024815260200180612ae96024913960400191505060405180910390fd5b611ccf838383610dcf565b611cda600082611b0a565b6001600160a01b0383166000908152609760205260409020611cfc90826121df565b506001600160a01b0382166000908152609760205260409020611d1f90826121eb565b50611d2c609882846121f7565b5080826001600160a01b0316846001600160a01b03167fddf252ad1be2c89b69c2b068fc378daa952ba7f163c4a11628f55a4df523b3ef60405160405180910390a4505050565b6000610e5e838361220d565b6000808080611d8e8686612271565b9097909650945050505050565b6000611da88484846122ec565b90505b9392505050565b611dbd848484611c27565b611dc9848484846123b6565b610f575760405162461bcd60e51b8152600401808060200182810382526032815260200180612a916032913960400191505060405180910390fd5b606081611e2957506040805180820190915260018152600360fc1b6020820152610aad565b8160005b8115611e4157600101600a82049150611e2d565b60608167ffffffffffffffff81118015611e5a57600080fd5b506040519080825280601f01601f191660200182016040528015611e85576020820181803683370190505b50859350905060001982015b8315611ed657600a840660300160f81b82828060019003935081518110611eb457fe5b60200101906001600160f81b031916908160001a905350600a84049350611e91565b50949350505050565b600082820183811015610e5e576040805162461bcd60e51b815260206004820152601b60248201527f536166654d6174683a206164646974696f6e206f766572666c6f770000000000604482015290519081900360640190fd5b600082611f4857506000610e61565b82820282848281611f5557fe5b0414610e5e5760405162461bcd60e51b8152600401808060200182810382526021815260200180612be66021913960400191505060405180910390fd5b6118ed8282604051806020016040528060008152506125df565b600054610100900460ff1680611fc55750611fc5611a27565b80611fd3575060005460ff16155b61200e5760405162461bcd60e51b815260040180806020018281038252602e815260200180612c53602e913960400191505060405180910390fd5b600054610100900460ff16158015612039576000805460ff1961ff0019909116610100171660011790555b8015610fd4576000805461ff001916905550565b600054610100900460ff16806120665750612066611a27565b80612074575060005460ff16155b6120af5760405162461bcd60e51b815260040180806020018281038252602e815260200180612c53602e913960400191505060405180910390fd5b600054610100900460ff161580156120da576000805460ff1961ff0019909116610100171660011790555b6120396301ffc9a760e01b612631565b600054610100900460ff16806121035750612103611a27565b80612111575060005460ff16155b61214c5760405162461bcd60e51b815260040180806020018281038252602e815260200180612c53602e913960400191505060405180910390fd5b600054610100900460ff16158015612177576000805460ff1961ff0019909116610100171660011790555b825161218a90609c9060208601906129db565b50815161219e90609d9060208501906129db565b506121af6380ac58cd60e01b612631565b6121bf635b5e139f60e01b612631565b611ad463780e9d6360e01b612631565b6000610e5e83836126b5565b5490565b6000610e5e83836126cd565b6000610e5e8383612793565b6000611da884846001600160a01b0385166127dd565b8154600090821061224f5760405162461bcd60e51b8152600401808060200182810382526022815260200180612a6f6022913960400191505060405180910390fd5b82600001828154811061225e57fe5b9060005260206000200154905092915050565b8154600090819083106122b55760405162461bcd60e51b8152600401808060200182810382526022815260200180612bc46022913960400191505060405180910390fd5b60008460000184815481106122c657fe5b906000526020600020906002020190508060000154816001015492509250509250929050565b600082815260018401602052604081205482816123875760405162461bcd60e51b81526004018080602001828103825283818151815260200191508051906020019080838360005b8381101561234c578181015183820152602001612334565b50505050905090810190601f1680156123795780820380516001836020036101000a031916815260200191505b509250505060405180910390fd5b5084600001600182038154811061239a57fe5b9060005260206000209060020201600101549150509392505050565b60006123ca846001600160a01b0316612874565b6123d657506001611c1f565b600060606001600160a01b038616630a85bd0160e11b6123f4611a23565b89888860405160240180856001600160a01b03168152602001846001600160a01b0316815260200183815260200180602001828103825283818151815260200191508051906020019080838360005b8381101561245b578181015183820152602001612443565b50505050905090810190601f1680156124885780820380516001836020036101000a031916815260200191505b5060408051601f198184030181529181526020820180516001600160e01b03166001600160e01b0319909a16999099178952518151919890975087965094509250829150849050835b602083106124f05780518252601f1990920191602091820191016124d1565b6001836020036101000a0380198251168184511680821785525050505050509050019150506000604051808303816000865af19150503d8060008114612552576040519150601f19603f3d011682016040523d82523d6000602084013e612557565b606091505b5091509150816125a8578051156125715780518082602001fd5b60405162461bcd60e51b8152600401808060200182810382526032815260200180612a916032913960400191505060405180910390fd5b60008180602001905160208110156125bf57600080fd5b50516001600160e01b031916630a85bd0160e11b149350611c1f92505050565b6125e983836128ad565b6125f660008484846123b6565b610dcf5760405162461bcd60e51b8152600401808060200182810382526032815260200180612a916032913960400191505060405180910390fd5b6001600160e01b03198082161415612690576040805162461bcd60e51b815260206004820152601c60248201527f4552433136353a20696e76616c696420696e7465726661636520696400000000604482015290519081900360640190fd5b6001600160e01b0319166000908152606560205260409020805460ff19166001179055565b60009081526001919091016020526040902054151590565b60008181526001830160205260408120548015612789578354600019808301919081019060009087908390811061270057fe5b906000526020600020015490508087600001848154811061271d57fe5b60009182526020808320909101929092558281526001898101909252604090209084019055865487908061274d57fe5b60019003818190600052602060002001600090559055866001016000878152602001908152602001600020600090556001945050505050610e61565b6000915050610e61565b600061279f83836126b5565b6127d557508154600181810184556000848152602080822090930184905584548482528286019093526040902091909155610e61565b506000610e61565b600082815260018401602052604081205480612842575050604080518082018252838152602080820184815286546001818101895560008981528481209551600290930290950191825591519082015586548684528188019092529290912055611dab565b8285600001600183038154811061285557fe5b9060005260206000209060020201600101819055506000915050611dab565b6000813f7fc5d2460186f7233c927e7db2dcc703c0e500b653ca82273b7bfad8045d85a470818114801590611c1f575050151592915050565b6001600160a01b038216612908576040805162461bcd60e51b815260206004820181905260248201527f4552433732313a206d696e7420746f20746865207a65726f2061646472657373604482015290519081900360640190fd5b61291181611afd565b15612963576040805162461bcd60e51b815260206004820152601c60248201527f4552433732313a20746f6b656e20616c7265616479206d696e74656400000000604482015290519081900360640190fd5b61296f60008383610dcf565b6001600160a01b038216600090815260976020526040902061299190826121eb565b5061299e609882846121f7565b5060405181906001600160a01b038416906000907fddf252ad1be2c89b69c2b068fc378daa952ba7f163c4a11628f55a4df523b3ef908290a45050565b828054600181600116156101000203166002900490600052602060002090601f016020900481019282601f10612a1c57805160ff1916838001178555612a49565b82800160010185558215612a49579182015b82811115612a49578251825591602001919060010190612a2e565b50612a55929150612a59565b5090565b5b80821115612a555760008155600101612a5a56fe456e756d657261626c655365743a20696e646578206f7574206f6620626f756e64734552433732313a207472616e7366657220746f206e6f6e20455243373231526563656976657220696d706c656d656e7465724f776e61626c653a206e6577206f776e657220697320746865207a65726f20616464726573734552433732313a207472616e7366657220746f20746865207a65726f20616464726573734552433732313a206f70657261746f7220717565727920666f72206e6f6e6578697374656e7420746f6b656e4552433732313a20617070726f76652063616c6c6572206973206e6f74206f776e6572206e6f7220617070726f76656420666f7220616c6c4552433732313a2062616c616e636520717565727920666f7220746865207a65726f20616464726573734552433732313a206f776e657220717565727920666f72206e6f6e6578697374656e7420746f6b656e456e756d657261626c654d61703a20696e646578206f7574206f6620626f756e6473536166654d6174683a206d756c7469706c69636174696f6e206f766572666c6f774552433732313a20617070726f76656420717565727920666f72206e6f6e6578697374656e7420746f6b656e4f776e61626c653a2063616c6c6572206973206e6f7420746865206f776e6572436f6e747261637420696e7374616e63652068617320616c7265616479206265656e20696e697469616c697a65644552433732313a207472616e73666572206f6620746f6b656e2074686174206973206e6f74206f776e4552433732314d657461646174613a2055524920717565727920666f72206e6f6e6578697374656e7420746f6b656e4552433732313a20617070726f76616c20746f2063757272656e74206f776e65724552433732313a207472616e736665722063616c6c6572206973206e6f74206f776e6572206e6f7220617070726f766564a2646970667358221220eabcd4a26e73c325af7a61994e79b0cc3e19904dc50a19d8115a772338ed601d64736f6c634300060c0033",
  "linkReferences": {},
  "deployedLinkReferences": {}
}