{
    "_format": "hh-sol-artifact-1",
    "contractName": "RoyaltyConfig",
    "sourceName": "contracts/RoyaltyConfig.sol",
    "abi": [
        {
            "anonymous": false,
            "inputs": [
                {
                    "indexed": true,
                    "internalType": "address",
                    "name": "platformReceiver",
                    "type": "address"
                },
                {
                    "indexed": true,
                    "internalType": "address",
                    "name": "royaltyReceiver",
                    "type": "address"
                },
                {
                    "indexed": true,
                    "internalType": "address",
                    "name": "collection",
                    "type": "address"
                },
                {
                    "indexed": false,
                    "internalType": "uint256",
                    "name": "platformFee",
                    "type": "uint256"
                },
                {
                    "indexed": false,
                    "internalType": "uint256",
                    "name": "royaltyFee",
                    "type": "uint256"
                }
            ],
            "name": "ChargeFeeETH",
            "type": "event"
        },
        {
            "anonymous": false,
            "inputs": [
                {
                    "indexed": true,
                    "internalType": "address",
                    "name": "platformReceiver",
                    "type": "address"
                },
                {
                    "indexed": true,
                    "internalType": "address",
                    "name": "royaltyReceiver",
                    "type": "address"
                },
                {
                    "indexed": true,
                    "internalType": "address",
                    "name": "collection",
                    "type": "address"
                },
                {
                    "indexed": false,
                    "internalType": "address",
                    "name": "token",
                    "type": "address"
                },
                {
                    "indexed": false,
                    "internalType": "uint256",
                    "name": "platformFee",
                    "type": "uint256"
                },
                {
                    "indexed": false,
                    "internalType": "uint256",
                    "name": "royaltyFee",
                    "type": "uint256"
                }
            ],
            "name": "ChargeFeeToken",
            "type": "event"
        },
        {
            "anonymous": false,
            "inputs": [
                {
                    "indexed": true,
                    "internalType": "address",
                    "name": "sender",
                    "type": "address"
                },
                {
                    "indexed": true,
                    "internalType": "address",
                    "name": "collection",
                    "type": "address"
                },
                {
                    "indexed": true,
                    "internalType": "address",
                    "name": "royaltyReceiver",
                    "type": "address"
                },
                {
                    "indexed": false,
                    "internalType": "uint256",
                    "name": "royaltyRatio",
                    "type": "uint256"
                }
            ],
            "name": "CollectionConfigSet",
            "type": "event"
        },
        {
            "anonymous": false,
            "inputs": [
                {
                    "indexed": true,
                    "internalType": "address",
                    "name": "previousGovernor",
                    "type": "address"
                },
                {
                    "indexed": true,
                    "internalType": "address",
                    "name": "newGovernor",
                    "type": "address"
                }
            ],
            "name": "GovernorshipTransferred",
            "type": "event"
        },
        {
            "inputs": [
                {
                    "internalType": "address",
                    "name": "collection",
                    "type": "address"
                },
                {
                    "internalType": "uint256",
                    "name": "platformFee",
                    "type": "uint256"
                },
                {
                    "internalType": "uint256",
                    "name": "royaltyFee",
                    "type": "uint256"
                }
            ],
            "name": "chargeFeeETH",
            "outputs": [],
            "stateMutability": "payable",
            "type": "function"
        },
        {
            "inputs": [
                {
                    "internalType": "address",
                    "name": "collection",
                    "type": "address"
                },
                {
                    "internalType": "address",
                    "name": "token",
                    "type": "address"
                },
                {
                    "internalType": "address",
                    "name": "from",
                    "type": "address"
                },
                {
                    "internalType": "uint256",
                    "name": "platformFee",
                    "type": "uint256"
                },
                {
                    "internalType": "uint256",
                    "name": "royaltyFee",
                    "type": "uint256"
                }
            ],
            "name": "chargeFeeToken",
            "outputs": [],
            "stateMutability": "nonpayable",
            "type": "function"
        },
        {
            "inputs": [
                {
                    "internalType": "bytes32",
                    "name": "key",
                    "type": "bytes32"
                },
                {
                    "internalType": "address",
                    "name": "addr",
                    "type": "address"
                }
            ],
            "name": "getConfig",
            "outputs": [
                {
                    "internalType": "uint256",
                    "name": "",
                    "type": "uint256"
                }
            ],
            "stateMutability": "view",
            "type": "function"
        },
        {
            "inputs": [
                {
                    "internalType": "bytes32",
                    "name": "key",
                    "type": "bytes32"
                }
            ],
            "name": "getConfig",
            "outputs": [
                {
                    "internalType": "uint256",
                    "name": "",
                    "type": "uint256"
                }
            ],
            "stateMutability": "view",
            "type": "function"
        },
        {
            "inputs": [
                {
                    "internalType": "bytes32",
                    "name": "key",
                    "type": "bytes32"
                },
                {
                    "internalType": "uint256",
                    "name": "index",
                    "type": "uint256"
                }
            ],
            "name": "getConfig",
            "outputs": [
                {
                    "internalType": "uint256",
                    "name": "",
                    "type": "uint256"
                }
            ],
            "stateMutability": "view",
            "type": "function"
        },
        {
            "inputs": [
                {
                    "internalType": "address",
                    "name": "collection",
                    "type": "address"
                },
                {
                    "internalType": "uint256",
                    "name": "amount",
                    "type": "uint256"
                }
            ],
            "name": "getFeeAndRemaining",
            "outputs": [
                {
                    "internalType": "uint256",
                    "name": "",
                    "type": "uint256"
                },
                {
                    "internalType": "uint256",
                    "name": "",
                    "type": "uint256"
                },
                {
                    "internalType": "uint256",
                    "name": "",
                    "type": "uint256"
                }
            ],
            "stateMutability": "view",
            "type": "function"
        },
        {
            "inputs": [],
            "name": "getMaxFeeRatio",
            "outputs": [
                {
                    "internalType": "uint256",
                    "name": "",
                    "type": "uint256"
                }
            ],
            "stateMutability": "view",
            "type": "function"
        },
        {
            "inputs": [],
            "name": "getMinFeeRatio",
            "outputs": [
                {
                    "internalType": "uint256",
                    "name": "",
                    "type": "uint256"
                }
            ],
            "stateMutability": "view",
            "type": "function"
        },
        {
            "inputs": [
                {
                    "internalType": "uint256",
                    "name": "amount",
                    "type": "uint256"
                }
            ],
            "name": "getPlatformFee",
            "outputs": [
                {
                    "internalType": "uint256",
                    "name": "",
                    "type": "uint256"
                }
            ],
            "stateMutability": "view",
            "type": "function"
        },
        {
            "inputs": [],
            "name": "getPlatformFeeRatio",
            "outputs": [
                {
                    "internalType": "uint256",
                    "name": "",
                    "type": "uint256"
                }
            ],
            "stateMutability": "view",
            "type": "function"
        },
        {
            "inputs": [],
            "name": "getPlatformFeeReceiver",
            "outputs": [
                {
                    "internalType": "address",
                    "name": "",
                    "type": "address"
                }
            ],
            "stateMutability": "view",
            "type": "function"
        },
        {
            "inputs": [
                {
                    "internalType": "address",
                    "name": "collection",
                    "type": "address"
                },
                {
                    "internalType": "uint256",
                    "name": "amount",
                    "type": "uint256"
                }
            ],
            "name": "getRoyaltyFee",
            "outputs": [
                {
                    "internalType": "uint256",
                    "name": "",
                    "type": "uint256"
                }
            ],
            "stateMutability": "view",
            "type": "function"
        },
        {
            "inputs": [],
            "name": "governor",
            "outputs": [
                {
                    "internalType": "address",
                    "name": "",
                    "type": "address"
                }
            ],
            "stateMutability": "view",
            "type": "function"
        },
        {
            "inputs": [
                {
                    "internalType": "address",
                    "name": "signer_",
                    "type": "address"
                }
            ],
            "name": "initialize",
            "outputs": [],
            "stateMutability": "nonpayable",
            "type": "function"
        },
        {
            "inputs": [],
            "name": "renounceGovernorship",
            "outputs": [],
            "stateMutability": "nonpayable",
            "type": "function"
        },
        {
            "inputs": [
                {
                    "internalType": "address",
                    "name": "token",
                    "type": "address"
                },
                {
                    "internalType": "address",
                    "name": "to",
                    "type": "address"
                },
                {
                    "internalType": "uint256",
                    "name": "amount",
                    "type": "uint256"
                }
            ],
            "name": "sendERC20Reward",
            "outputs": [],
            "stateMutability": "nonpayable",
            "type": "function"
        },
        {
            "inputs": [
                {
                    "internalType": "address payable",
                    "name": "to",
                    "type": "address"
                },
                {
                    "internalType": "uint256",
                    "name": "amount",
                    "type": "uint256"
                }
            ],
            "name": "sendReward",
            "outputs": [],
            "stateMutability": "nonpayable",
            "type": "function"
        },
        {
            "inputs": [
                {
                    "internalType": "address",
                    "name": "collection",
                    "type": "address"
                },
                {
                    "internalType": "address",
                    "name": "_royaltyReceiver",
                    "type": "address"
                },
                {
                    "internalType": "uint256",
                    "name": "_royaltyRatio",
                    "type": "uint256"
                },
                {
                    "internalType": "uint256",
                    "name": "expireTime",
                    "type": "uint256"
                },
                {
                    "internalType": "bytes",
                    "name": "sign",
                    "type": "bytes"
                }
            ],
            "name": "setCollectionConfig",
            "outputs": [],
            "stateMutability": "nonpayable",
            "type": "function"
        },
        {
            "inputs": [
                {
                    "internalType": "bytes32",
                    "name": "key",
                    "type": "bytes32"
                },
                {
                    "internalType": "uint256",
                    "name": "value",
                    "type": "uint256"
                }
            ],
            "name": "setConfig",
            "outputs": [],
            "stateMutability": "nonpayable",
            "type": "function"
        },
        {
            "inputs": [
                {
                    "internalType": "bytes32",
                    "name": "key",
                    "type": "bytes32"
                },
                {
                    "internalType": "address",
                    "name": "addr",
                    "type": "address"
                },
                {
                    "internalType": "uint256",
                    "name": "value",
                    "type": "uint256"
                }
            ],
            "name": "setConfig",
            "outputs": [],
            "stateMutability": "nonpayable",
            "type": "function"
        },
        {
            "inputs": [
                {
                    "internalType": "bytes32",
                    "name": "key",
                    "type": "bytes32"
                },
                {
                    "internalType": "uint256",
                    "name": "index",
                    "type": "uint256"
                },
                {
                    "internalType": "uint256",
                    "name": "value",
                    "type": "uint256"
                }
            ],
            "name": "setConfig",
            "outputs": [],
            "stateMutability": "nonpayable",
            "type": "function"
        },
        {
            "inputs": [
                {
                    "internalType": "uint256",
                    "name": "maxFeeRatio",
                    "type": "uint256"
                }
            ],
            "name": "setMaxFeeRatio",
            "outputs": [],
            "stateMutability": "nonpayable",
            "type": "function"
        },
        {
            "inputs": [
                {
                    "internalType": "uint256",
                    "name": "minFeeRatio",
                    "type": "uint256"
                }
            ],
            "name": "setMinFeeRatio",
            "outputs": [],
            "stateMutability": "nonpayable",
            "type": "function"
        },
        {
            "inputs": [
                {
                    "internalType": "address",
                    "name": "feeReceiver",
                    "type": "address"
                }
            ],
            "name": "setPlatFormatReceiver",
            "outputs": [],
            "stateMutability": "nonpayable",
            "type": "function"
        },
        {
            "inputs": [
                {
                    "internalType": "uint256",
                    "name": "feeRatio",
                    "type": "uint256"
                }
            ],
            "name": "setPlatformFeeRatio",
            "outputs": [],
            "stateMutability": "nonpayable",
            "type": "function"
        },
        {
            "inputs": [
                {
                    "internalType": "address",
                    "name": "signer_",
                    "type": "address"
                }
            ],
            "name": "setSigner",
            "outputs": [],
            "stateMutability": "nonpayable",
            "type": "function"
        },
        {
            "inputs": [],
            "name": "signer",
            "outputs": [
                {
                    "internalType": "address",
                    "name": "",
                    "type": "address"
                }
            ],
            "stateMutability": "view",
            "type": "function"
        },
        {
            "inputs": [
                {
                    "internalType": "address",
                    "name": "collection",
                    "type": "address"
                }
            ],
            "name": "totalFeeRatio",
            "outputs": [
                {
                    "internalType": "uint256",
                    "name": "",
                    "type": "uint256"
                }
            ],
            "stateMutability": "view",
            "type": "function"
        },
        {
            "inputs": [
                {
                    "internalType": "address",
                    "name": "newGovernor",
                    "type": "address"
                }
            ],
            "name": "transferGovernorship",
            "outputs": [],
            "stateMutability": "nonpayable",
            "type": "function"
        }
    ],
    "bytecode": "0x608060405234801561001057600080fd5b50611fc4806100206000396000f3fe6080604052600436106101c25760003560e01c8063707d1848116100f7578063b6aa515b11610095578063ddf2be3f11610064578063ddf2be3f146106b7578063e8a50435146106ed578063eabd506b14610717578063f70e663d1461076e576101c2565b8063b6aa515b146105f5578063ba6bd69a14610628578063c4d66de81461065a578063d97939eb1461068d576101c2565b80638a42cef3116100d15780638a42cef3146105225780638ec872e314610537578063ae7ef58314610567578063b21544f3146105b6576101c2565b8063707d1848146104bf57806376ab4570146104d457806381c0c2631461050d576101c2565b80634232e67e116101645780636a89be611161013e5780636a89be611461041a5780636c19e7831461044d5780636d966e76146104805780636dd5b69d14610495576101c2565b80634232e67e1461031557806352665f471461033f578063666886e614610378576101c2565b806315fe96dc116101a057806315fe96dc1461027657806322915390146102a6578063238ac933146102cd57806340909b6f146102e2576101c2565b806307420a41146101c757806308cad810146102025780630c340a2414610245575b600080fd5b3480156101d357600080fd5b50610200600480360360408110156101ea57600080fd5b506001600160a01b038135169060200135610798565b005b34801561020e57600080fd5b506102006004803603606081101561022557600080fd5b506001600160a01b03813581169160208101359091169060400135610835565b34801561025157600080fd5b5061025a610923565b604080516001600160a01b039092168252519081900360200190f35b34801561028257600080fd5b506102006004803603604081101561029957600080fd5b5080359060200135610932565b3480156102b257600080fd5b506102bb610957565b60408051918252519081900360200190f35b3480156102d957600080fd5b5061025a610997565b3480156102ee57600080fd5b506102bb6004803603602081101561030557600080fd5b50356001600160a01b03166109a6565b34801561032157600080fd5b506102006004803603602081101561033857600080fd5b50356109d7565b34801561034b57600080fd5b506102bb6004803603604081101561036257600080fd5b50803590602001356001600160a01b0316610a72565b34801561038457600080fd5b50610200600480360360a081101561039b57600080fd5b6001600160a01b03823581169260208101359091169160408201359160608101359181019060a0810160808201356401000000008111156103db57600080fd5b8201836020820111156103ed57600080fd5b8035906020019184600183028401116401000000008311171561040f57600080fd5b509092509050610a8e565b34801561042657600080fd5b506102006004803603602081101561043d57600080fd5b50356001600160a01b0316610ccc565b34801561045957600080fd5b506102006004803603602081101561047057600080fd5b50356001600160a01b0316610d33565b34801561048c57600080fd5b506102bb610d6c565b3480156104a157600080fd5b506102bb600480360360208110156104b857600080fd5b5035610dac565b3480156104cb57600080fd5b5061025a610dbe565b3480156104e057600080fd5b506102bb600480360360408110156104f757600080fd5b506001600160a01b038135169060200135610e06565b34801561051957600080fd5b50610200610e45565b34801561052e57600080fd5b506102bb610ea6565b34801561054357600080fd5b506102bb6004803603604081101561055a57600080fd5b5080359060200135610eeb565b34801561057357600080fd5b50610200600480360360a081101561058a57600080fd5b506001600160a01b03813581169160208101358216916040820135169060608101359060800135610efe565b3480156105c257600080fd5b50610200600480360360608110156105d957600080fd5b508035906001600160a01b036020820135169060400135610f94565b34801561060157600080fd5b506102006004803603602081101561061857600080fd5b50356001600160a01b0316610fc0565b6102006004803603606081101561063e57600080fd5b506001600160a01b038135169060208101359060400135610fe3565b34801561066657600080fd5b506102006004803603602081101561067d57600080fd5b50356001600160a01b03166110b3565b34801561069957600080fd5b506102bb600480360360208110156106b057600080fd5b5035611235565b3480156106c357600080fd5b50610200600480360360608110156106da57600080fd5b5080359060208101359060400135611255565b3480156106f957600080fd5b506102006004803603602081101561071057600080fd5b5035611278565b34801561072357600080fd5b506107506004803603604081101561073a57600080fd5b506001600160a01b038135169060200135611313565b60408051938452602084019290925282820152519081900360600190f35b34801561077a57600080fd5b506102006004803603602081101561079157600080fd5b5035611357565b6033546001600160a01b031633146107af57600080fd5b804710156107fa576040805162461bcd60e51b8152602060048201526013602482015272125394d551919250d251539508105353d55395606a1b604482015290519081900360640190fd5b6040516001600160a01b0383169082156108fc029083906000818181858888f19350505050158015610830573d6000803e3d6000fd5b505050565b6033546001600160a01b0316331461084c57600080fd5b80836001600160a01b03166370a08231306040518263ffffffff1660e01b815260040180826001600160a01b0316815260200191505060206040518083038186803b15801561089a57600080fd5b505afa1580156108ae573d6000803e3d6000fd5b505050506040513d60208110156108c457600080fd5b5051101561090f576040805162461bcd60e51b8152602060048201526013602482015272125394d551919250d251539508105353d55395606a1b604482015290519081900360640190fd5b6108306001600160a01b03841683836113b2565b6033546001600160a01b031681565b6033546001600160a01b0316331461094957600080fd5b6109538282611404565b5050565b6e46433a3a4d6178466565526174696f60881b60005260346020527f743b8acd219cb67b4d68f0d5d4c876e8c43116b552b9c17c251c9ba6e4d201665490565b6035546001600160a01b031681565b6001600160a01b0381166000908152603760205260408120546109d1906109cb610ea6565b9061142b565b92915050565b6033546001600160a01b031633146109ee57600080fd5b6109f6610957565b8110610a335760405162461bcd60e51b8152600401808060200182810382526026815260200180611f3f6026913960400191505060405180910390fd5b6e46433a3a4d696e466565526174696f60881b60005260346020527fef3f50ab78a4fa657d64bb735154dddca23c10d7eb2c0bdc40a3b838948e251255565b6001600160a01b03161860009081526034602052604090205490565b82421115610ad1576040805162461bcd60e51b815260206004820152600b60248201526a5349474e2045585049524560a81b604482015290519081900360640190fd5b6000610b2c8787878760405160200180856001600160a01b03168152602001846001600160a01b0316815260200183815260200182815260200194505050505060405160208183030381529060405280519060200120611485565b603554604080516020601f87018190048102820181019092528581529293506001600160a01b0390911691610b7e9184919087908790819084018382808284376000920191909152506114d692505050565b6001600160a01b031614610bca576040805162461bcd60e51b815260206004820152600e60248201526d24a72b20a624a21029a4a3a722a960911b604482015290519081900360640190fd5b610bd2610957565b851115610c105760405162461bcd60e51b8152600401808060200182810382526034815260200180611e1a6034913960400191505060405180910390fd5b610c18610d6c565b851015610c565760405162461bcd60e51b8152600401808060200182810382526036815260200180611eba6036913960400191505060405180910390fd5b6001600160a01b03878116600081815260366020908152604080832080546001600160a01b031916958c16958617905560378252918290208990558151898152915133927f71a9ee13be1d73ae04a672e050001315b6b93ec0b8a7bb7693808f09a4e0f94992908290030190a450505050505050565b6033546001600160a01b03163314610ce357600080fd5b7623219d1d283630ba3337b936a332b2a932b1b2b4bb32b960491b60005260346020526001600160a01b03167f2944765c84ac3e203558048c4fa617e7ca241666d2fc25ea096fe82a0eda84a955565b6033546001600160a01b03163314610d4a57600080fd5b603580546001600160a01b0319166001600160a01b0392909216919091179055565b6e46433a3a4d696e466565526174696f60881b60005260346020527fef3f50ab78a4fa657d64bb735154dddca23c10d7eb2c0bdc40a3b838948e25125490565b60009081526034602052604090205490565b7623219d1d283630ba3337b936a332b2a932b1b2b4bb32b960491b60005260346020527f2944765c84ac3e203558048c4fa617e7ca241666d2fc25ea096fe82a0eda84a95490565b6001600160a01b038216600090815260376020526040812054610e3e90670de0b6b3a764000090610e389085906116c1565b9061171a565b9392505050565b6033546001600160a01b03163314610e5c57600080fd5b6033546040516000916001600160a01b0316907fc7c0c772add429241571afb3805861fb3cfa2af374534088b76cdb4325a87e9a908390a3603380546001600160a01b0319169055565b7346433a3a506c6174666f726d466565526174696f60601b60005260346020527f0bf722bf4a455417e4841bdec52e11d131f75709bc508ffe9594c812e7c07f215490565b1860009081526034602052604090205490565b6000610f0b85858561175c565b90506000610f1b878787866117a4565b9050866001600160a01b0316816001600160a01b0316836001600160a01b03167fcbd14d6c60cf22a5a78e4c98ea62dd278a00a6552a8fe8b3789c3bbee7578f7f89888860405180846001600160a01b03168152602001838152602001828152602001935050505060405180910390a450505050505050565b6033546001600160a01b03163314610fab57600080fd5b6108306001600160a01b038316841882611404565b6033546001600160a01b03163314610fd757600080fd5b610fe081611822565b50565b34610fee838361142b565b14611034576040805162461bcd60e51b8152602060048201526011602482015270696e76616c6964206d73672e76616c756560781b604482015290519081900360640190fd5b600061103f83611891565b9050600061104d85846118f9565b9050846001600160a01b0316816001600160a01b0316836001600160a01b03167f6fcfeeac8f3d9aeaf3611953ffdc580fa70fbb94c9420e55237dcf77d6138dbb8787604051808381526020018281526020019250505060405180910390a45050505050565b600054610100900460ff16806110cc57506110cc611993565b806110da575060005460ff16155b6111155760405162461bcd60e51b815260040180806020018281038252602e815260200180611f11602e913960400191505060405180910390fd5b600054610100900460ff16158015611140576000805460ff1961ff0019909116610100171660011790555b61114933611999565b603580546001600160a01b0319166001600160a01b0384161790556034602052307f2944765c84ac3e203558048c4fa617e7ca241666d2fc25ea096fe82a0eda84a955667c5850872380007f0bf722bf4a455417e4841bdec52e11d131f75709bc508ffe9594c812e7c07f215566e6ed27d66680007f743b8acd219cb67b4d68f0d5d4c876e8c43116b552b9c17c251c9ba6e4d20166556e46433a3a4d696e466565526174696f60881b60005266038d7ea4c680007fef3f50ab78a4fa657d64bb735154dddca23c10d7eb2c0bdc40a3b838948e2512558015610953576000805461ff00191690555050565b60006109d1670de0b6b3a7640000610e3861124e610ea6565b85906116c1565b6033546001600160a01b0316331461126c57600080fd5b61083083831882611404565b6033546001600160a01b0316331461128f57600080fd5b611297610d6c565b81116112d45760405162461bcd60e51b8152600401808060200182810382526028815260200180611e4e6028913960400191505060405180910390fd5b6e46433a3a4d6178466565526174696f60881b60005260346020527f743b8acd219cb67b4d68f0d5d4c876e8c43116b552b9c17c251c9ba6e4d2016655565b60008060008061132285611235565b905060006113308787610e06565b90506000611348826113428986611a8a565b90611a8a565b92989197509195509350505050565b6033546001600160a01b0316331461136e57600080fd5b7346433a3a506c6174666f726d466565526174696f60601b60005260346020527f0bf722bf4a455417e4841bdec52e11d131f75709bc508ffe9594c812e7c07f2155565b604080516001600160a01b038416602482015260448082018490528251808303909101815260649091019091526020810180516001600160e01b031663a9059cbb60e01b179052610830908490611acc565b60008281526034602052604090205481146109535760009182526034602052604090912055565b600082820183811015610e3e576040805162461bcd60e51b815260206004820152601b60248201527f536166654d6174683a206164646974696f6e206f766572666c6f770000000000604482015290519081900360640190fd5b604080517f19457468657265756d205369676e6564204d6573736167653a0a333200000000602080830191909152603c8083019490945282518083039094018452605c909101909152815191012090565b6000815160411461152e576040805162461bcd60e51b815260206004820152601f60248201527f45434453413a20696e76616c6964207369676e6174757265206c656e67746800604482015290519081900360640190fd5b60208201516040830151606084015160001a7f7fffffffffffffffffffffffffffffff5d576e7357a4501ddfe92f46681b20a082111561159f5760405162461bcd60e51b8152600401808060200182810382526022815260200180611e766022913960400191505060405180910390fd5b8060ff16601b141580156115b757508060ff16601c14155b156115f35760405162461bcd60e51b8152600401808060200182810382526022815260200180611e986022913960400191505060405180910390fd5b600060018783868660405160008152602001604052604051808581526020018460ff1681526020018381526020018281526020019450505050506020604051602081039080840390855afa15801561164f573d6000803e3d6000fd5b5050604051601f1901519150506001600160a01b0381166116b7576040805162461bcd60e51b815260206004820152601860248201527f45434453413a20696e76616c6964207369676e61747572650000000000000000604482015290519081900360640190fd5b9695505050505050565b6000826116d0575060006109d1565b828202828482816116dd57fe5b0414610e3e5760405162461bcd60e51b8152600401808060200182810382526021815260200180611ef06021913960400191505060405180910390fd5b6000610e3e83836040518060400160405280601a81526020017f536166654d6174683a206469766973696f6e206279207a65726f000000000000815250611c8a565b600080611767610dbe565b9050306001600160a01b038216148015906117825750600083115b1561179c5761179c6001600160a01b038616858386611d2c565b949350505050565b6001600160a01b0384811660009081526036602052604081205490911630148015906117d05750600082115b15611800576001600160a01b03808616600090815260366020526040902054611800918681169186911685611d2c565b505050506001600160a01b039081166000908152603660205260409020541690565b6001600160a01b03811661183557600080fd5b6033546040516001600160a01b038084169216907fc7c0c772add429241571afb3805861fb3cfa2af374534088b76cdb4325a87e9a90600090a3603380546001600160a01b0319166001600160a01b0392909216919091179055565b60008061189c610dbe565b9050306001600160a01b038216148015906118b75750600083115b156109d1576040516001600160a01b0382169084156108fc029085906000818181858888f193505050501580156118f2573d6000803e3d6000fd5b5092915050565b6001600160a01b0382811660009081526036602052604081205490911630148015906119255750600082115b15611973576001600160a01b0380841660009081526036602052604080822054905192169184156108fc0291859190818181858888f19350505050158015611971573d6000803e3d6000fd5b505b50506001600160a01b039081166000908152603660205260409020541690565b303b1590565b600054610100900460ff16806119b257506119b2611993565b806119c0575060005460ff16155b6119fb5760405162461bcd60e51b815260040180806020018281038252602e815260200180611f11602e913960400191505060405180910390fd5b600054610100900460ff16158015611a26576000805460ff1961ff0019909116610100171660011790555b603380546001600160a01b0319166001600160a01b0384811691909117918290556040519116906000907fc7c0c772add429241571afb3805861fb3cfa2af374534088b76cdb4325a87e9a908290a38015610953576000805461ff00191690555050565b6000610e3e83836040518060400160405280601e81526020017f536166654d6174683a207375627472616374696f6e206f766572666c6f770000815250611d86565b611ade826001600160a01b0316611de0565b611b2f576040805162461bcd60e51b815260206004820152601f60248201527f5361666545524332303a2063616c6c20746f206e6f6e2d636f6e747261637400604482015290519081900360640190fd5b60006060836001600160a01b0316836040518082805190602001908083835b60208310611b6d5780518252601f199092019160209182019101611b4e565b6001836020036101000a0380198251168184511680821785525050505050509050019150506000604051808303816000865af19150503d8060008114611bcf576040519150601f19603f3d011682016040523d82523d6000602084013e611bd4565b606091505b509150915081611c2b576040805162461bcd60e51b815260206004820181905260248201527f5361666545524332303a206c6f772d6c6576656c2063616c6c206661696c6564604482015290519081900360640190fd5b805115611c8457808060200190516020811015611c4757600080fd5b5051611c845760405162461bcd60e51b815260040180806020018281038252602a815260200180611f65602a913960400191505060405180910390fd5b50505050565b60008183611d165760405162461bcd60e51b81526004018080602001828103825283818151815260200191508051906020019080838360005b83811015611cdb578181015183820152602001611cc3565b50505050905090810190601f168015611d085780820380516001836020036101000a031916815260200191505b509250505060405180910390fd5b506000838581611d2257fe5b0495945050505050565b604080516001600160a01b0380861660248301528416604482015260648082018490528251808303909101815260849091019091526020810180516001600160e01b03166323b872dd60e01b179052611c84908590611acc565b60008184841115611dd85760405162461bcd60e51b8152602060048201818152835160248401528351909283926044909101919085019080838360008315611cdb578181015183820152602001611cc3565b505050900390565b6000813f7fc5d2460186f7233c927e7db2dcc703c0e500b653ca82273b7bfad8045d85a47081811480159061179c57505015159291505056fe5f726f79616c7479526174696f206d757374206c657373207468616e206f7220657175616c20746f206d6178466565526174696f6d6178466565526174696f206d757374206c6172676572207468616e206d696e466565526174696f45434453413a20696e76616c6964207369676e6174757265202773272076616c756545434453413a20696e76616c6964207369676e6174757265202776272076616c75655f726f79616c7479526174696f206d757374206c6172676572207468616e206f7220657175616c20746f206d696e466565526174696f536166654d6174683a206d756c7469706c69636174696f6e206f766572666c6f77436f6e747261637420696e7374616e63652068617320616c7265616479206265656e20696e697469616c697a65646d696e466565526174696f206d757374206c657373207468616e206d6178466565526174696f5361666545524332303a204552433230206f7065726174696f6e20646964206e6f742073756363656564a2646970667358221220c168f84b96882f6bb89b533569aba1a4377bd25fdbedfa62737197a1d90d311d64736f6c634300060c0033",
    "linkReferences": {},
    "deployedLinkReferences": {}
}