{
  "fileName": "BounceERC721V2.sol",
  "contractName": "BounceERC721V2",
  "source": "// SPDX-License-Identifier: MIT\n\npragma solidity ^0.6.0;\n\nimport \"@openzeppelin/contracts/token/ERC721/ERC721.sol\";\nimport \"./Access.sol\";\n\ncontract BounceERC721V2 is ERC721, Access {\n    constructor (string memory name_, string memory symbol_, Mode mode_) public ERC721(name_, symbol_) Access(mode_) {}\n\n    // tokenid => creator address\n    mapping(uint256 => address) public creator;\n\n    function setBaseURI(string memory baseURI_) external onlyOwner {\n        super._setBaseURI(baseURI_);\n    }\n\n    function mint(address to, uint256 tokenId) external checkRole {\n        super._safeMint(to, tokenId);\n        creator[tokenId] = to;\n    }\n\n    function burn(uint256 tokenId) external checkRole {\n        super._burn(tokenId);\n        creator[tokenId] = address(0);\n    }\n\n    function batchMint(address to, uint256 fromTokenId, uint256 toTokenId) external checkRole {\n        for (uint256 tokenId = fromTokenId; tokenId <= toTokenId; tokenId++) {\n            super._safeMint(to, tokenId);\n            creator[tokenId] = to;\n        }\n    }\n}\n",
  "sourcePath": "contracts/BounceERC721V2.sol",
  "abi": [
    {
      "inputs": [
        {
          "internalType": "string",
          "name": "name_",
          "type": "string"
        },
        {
          "internalType": "string",
          "name": "symbol_",
          "type": "string"
        },
        {
          "internalType": "enum Access.Mode",
          "name": "mode_",
          "type": "uint8"
        }
      ],
      "stateMutability": "nonpayable",
      "type": "constructor"
    },
    {
      "anonymous": false,
      "inputs": [
        {
          "indexed": true,
          "internalType": "address",
          "name": "owner",
          "type": "address"
        },
        {
          "indexed": true,
          "internalType": "address",
          "name": "approved",
          "type": "address"
        },
        {
          "indexed": true,
          "internalType": "uint256",
          "name": "tokenId",
          "type": "uint256"
        }
      ],
      "name": "Approval",
      "type": "event"
    },
    {
      "anonymous": false,
      "inputs": [
        {
          "indexed": true,
          "internalType": "address",
          "name": "owner",
          "type": "address"
        },
        {
          "indexed": true,
          "internalType": "address",
          "name": "operator",
          "type": "address"
        },
        {
          "indexed": false,
          "internalType": "bool",
          "name": "approved",
          "type": "bool"
        }
      ],
      "name": "ApprovalForAll",
      "type": "event"
    },
    {
      "anonymous": false,
      "inputs": [
        {
          "indexed": true,
          "internalType": "bytes32",
          "name": "role",
          "type": "bytes32"
        },
        {
          "indexed": true,
          "internalType": "bytes32",
          "name": "previousAdminRole",
          "type": "bytes32"
        },
        {
          "indexed": true,
          "internalType": "bytes32",
          "name": "newAdminRole",
          "type": "bytes32"
        }
      ],
      "name": "RoleAdminChanged",
      "type": "event"
    },
    {
      "anonymous": false,
      "inputs": [
        {
          "indexed": true,
          "internalType": "bytes32",
          "name": "role",
          "type": "bytes32"
        },
        {
          "indexed": true,
          "internalType": "address",
          "name": "account",
          "type": "address"
        },
        {
          "indexed": true,
          "internalType": "address",
          "name": "sender",
          "type": "address"
        }
      ],
      "name": "RoleGranted",
      "type": "event"
    },
    {
      "anonymous": false,
      "inputs": [
        {
          "indexed": true,
          "internalType": "bytes32",
          "name": "role",
          "type": "bytes32"
        },
        {
          "indexed": true,
          "internalType": "address",
          "name": "account",
          "type": "address"
        },
        {
          "indexed": true,
          "internalType": "address",
          "name": "sender",
          "type": "address"
        }
      ],
      "name": "RoleRevoked",
      "type": "event"
    },
    {
      "anonymous": false,
      "inputs": [
        {
          "indexed": true,
          "internalType": "address",
          "name": "from",
          "type": "address"
        },
        {
          "indexed": true,
          "internalType": "address",
          "name": "to",
          "type": "address"
        },
        {
          "indexed": true,
          "internalType": "uint256",
          "name": "tokenId",
          "type": "uint256"
        }
      ],
      "name": "Transfer",
      "type": "event"
    },
    {
      "inputs": [],
      "name": "DEFAULT_ADMIN_ROLE",
      "outputs": [
        {
          "internalType": "bytes32",
          "name": "",
          "type": "bytes32"
        }
      ],
      "stateMutability": "view",
      "type": "function"
    },
    {
      "inputs": [
        {
          "internalType": "address",
          "name": "to",
          "type": "address"
        },
        {
          "internalType": "uint256",
          "name": "tokenId",
          "type": "uint256"
        }
      ],
      "name": "approve",
      "outputs": [],
      "stateMutability": "nonpayable",
      "type": "function"
    },
    {
      "inputs": [
        {
          "internalType": "address",
          "name": "owner",
          "type": "address"
        }
      ],
      "name": "balanceOf",
      "outputs": [
        {
          "internalType": "uint256",
          "name": "",
          "type": "uint256"
        }
      ],
      "stateMutability": "view",
      "type": "function"
    },
    {
      "inputs": [],
      "name": "baseURI",
      "outputs": [
        {
          "internalType": "string",
          "name": "",
          "type": "string"
        }
      ],
      "stateMutability": "view",
      "type": "function"
    },
    {
      "inputs": [
        {
          "internalType": "address",
          "name": "to",
          "type": "address"
        },
        {
          "internalType": "uint256",
          "name": "fromTokenId",
          "type": "uint256"
        },
        {
          "internalType": "uint256",
          "name": "toTokenId",
          "type": "uint256"
        }
      ],
      "name": "batchMint",
      "outputs": [],
      "stateMutability": "nonpayable",
      "type": "function"
    },
    {
      "inputs": [
        {
          "internalType": "uint256",
          "name": "tokenId",
          "type": "uint256"
        }
      ],
      "name": "burn",
      "outputs": [],
      "stateMutability": "nonpayable",
      "type": "function"
    },
    {
      "inputs": [
        {
          "internalType": "enum Access.Mode",
          "name": "mode_",
          "type": "uint8"
        }
      ],
      "name": "changeMode",
      "outputs": [],
      "stateMutability": "nonpayable",
      "type": "function"
    },
    {
      "inputs": [
        {
          "internalType": "uint256",
          "name": "",
          "type": "uint256"
        }
      ],
      "name": "creator",
      "outputs": [
        {
          "internalType": "address",
          "name": "",
          "type": "address"
        }
      ],
      "stateMutability": "view",
      "type": "function"
    },
    {
      "inputs": [
        {
          "internalType": "uint256",
          "name": "tokenId",
          "type": "uint256"
        }
      ],
      "name": "getApproved",
      "outputs": [
        {
          "internalType": "address",
          "name": "",
          "type": "address"
        }
      ],
      "stateMutability": "view",
      "type": "function"
    },
    {
      "inputs": [
        {
          "internalType": "bytes32",
          "name": "role",
          "type": "bytes32"
        }
      ],
      "name": "getRoleAdmin",
      "outputs": [
        {
          "internalType": "bytes32",
          "name": "",
          "type": "bytes32"
        }
      ],
      "stateMutability": "view",
      "type": "function"
    },
    {
      "inputs": [
        {
          "internalType": "bytes32",
          "name": "role",
          "type": "bytes32"
        },
        {
          "internalType": "uint256",
          "name": "index",
          "type": "uint256"
        }
      ],
      "name": "getRoleMember",
      "outputs": [
        {
          "internalType": "address",
          "name": "",
          "type": "address"
        }
      ],
      "stateMutability": "view",
      "type": "function"
    },
    {
      "inputs": [
        {
          "internalType": "bytes32",
          "name": "role",
          "type": "bytes32"
        }
      ],
      "name": "getRoleMemberCount",
      "outputs": [
        {
          "internalType": "uint256",
          "name": "",
          "type": "uint256"
        }
      ],
      "stateMutability": "view",
      "type": "function"
    },
    {
      "inputs": [
        {
          "internalType": "bytes32",
          "name": "role",
          "type": "bytes32"
        },
        {
          "internalType": "address",
          "name": "account",
          "type": "address"
        }
      ],
      "name": "grantRole",
      "outputs": [],
      "stateMutability": "nonpayable",
      "type": "function"
    },
    {
      "inputs": [
        {
          "internalType": "address",
          "name": "target",
          "type": "address"
        }
      ],
      "name": "grantRoleWhitelist",
      "outputs": [],
      "stateMutability": "nonpayable",
      "type": "function"
    },
    {
      "inputs": [
        {
          "internalType": "bytes32",
          "name": "role",
          "type": "bytes32"
        },
        {
          "internalType": "address",
          "name": "account",
          "type": "address"
        }
      ],
      "name": "hasRole",
      "outputs": [
        {
          "internalType": "bool",
          "name": "",
          "type": "bool"
        }
      ],
      "stateMutability": "view",
      "type": "function"
    },
    {
      "inputs": [
        {
          "internalType": "address",
          "name": "owner",
          "type": "address"
        },
        {
          "internalType": "address",
          "name": "operator",
          "type": "address"
        }
      ],
      "name": "isApprovedForAll",
      "outputs": [
        {
          "internalType": "bool",
          "name": "",
          "type": "bool"
        }
      ],
      "stateMutability": "view",
      "type": "function"
    },
    {
      "inputs": [
        {
          "internalType": "address",
          "name": "to",
          "type": "address"
        },
        {
          "internalType": "uint256",
          "name": "tokenId",
          "type": "uint256"
        }
      ],
      "name": "mint",
      "outputs": [],
      "stateMutability": "nonpayable",
      "type": "function"
    },
    {
      "inputs": [],
      "name": "mode",
      "outputs": [
        {
          "internalType": "enum Access.Mode",
          "name": "",
          "type": "uint8"
        }
      ],
      "stateMutability": "view",
      "type": "function"
    },
    {
      "inputs": [],
      "name": "name",
      "outputs": [
        {
          "internalType": "string",
          "name": "",
          "type": "string"
        }
      ],
      "stateMutability": "view",
      "type": "function"
    },
    {
      "inputs": [
        {
          "internalType": "uint256",
          "name": "tokenId",
          "type": "uint256"
        }
      ],
      "name": "ownerOf",
      "outputs": [
        {
          "internalType": "address",
          "name": "",
          "type": "address"
        }
      ],
      "stateMutability": "view",
      "type": "function"
    },
    {
      "inputs": [
        {
          "internalType": "bytes32",
          "name": "role",
          "type": "bytes32"
        },
        {
          "internalType": "address",
          "name": "account",
          "type": "address"
        }
      ],
      "name": "renounceRole",
      "outputs": [],
      "stateMutability": "nonpayable",
      "type": "function"
    },
    {
      "inputs": [
        {
          "internalType": "bytes32",
          "name": "role",
          "type": "bytes32"
        },
        {
          "internalType": "address",
          "name": "account",
          "type": "address"
        }
      ],
      "name": "revokeRole",
      "outputs": [],
      "stateMutability": "nonpayable",
      "type": "function"
    },
    {
      "inputs": [
        {
          "internalType": "address",
          "name": "target",
          "type": "address"
        }
      ],
      "name": "revokeRoleWhitelist",
      "outputs": [],
      "stateMutability": "nonpayable",
      "type": "function"
    },
    {
      "inputs": [
        {
          "internalType": "address",
          "name": "from",
          "type": "address"
        },
        {
          "internalType": "address",
          "name": "to",
          "type": "address"
        },
        {
          "internalType": "uint256",
          "name": "tokenId",
          "type": "uint256"
        }
      ],
      "name": "safeTransferFrom",
      "outputs": [],
      "stateMutability": "nonpayable",
      "type": "function"
    },
    {
      "inputs": [
        {
          "internalType": "address",
          "name": "from",
          "type": "address"
        },
        {
          "internalType": "address",
          "name": "to",
          "type": "address"
        },
        {
          "internalType": "uint256",
          "name": "tokenId",
          "type": "uint256"
        },
        {
          "internalType": "bytes",
          "name": "_data",
          "type": "bytes"
        }
      ],
      "name": "safeTransferFrom",
      "outputs": [],
      "stateMutability": "nonpayable",
      "type": "function"
    },
    {
      "inputs": [
        {
          "internalType": "address",
          "name": "operator",
          "type": "address"
        },
        {
          "internalType": "bool",
          "name": "approved",
          "type": "bool"
        }
      ],
      "name": "setApprovalForAll",
      "outputs": [],
      "stateMutability": "nonpayable",
      "type": "function"
    },
    {
      "inputs": [
        {
          "internalType": "string",
          "name": "baseURI_",
          "type": "string"
        }
      ],
      "name": "setBaseURI",
      "outputs": [],
      "stateMutability": "nonpayable",
      "type": "function"
    },
    {
      "inputs": [
        {
          "internalType": "bytes4",
          "name": "interfaceId",
          "type": "bytes4"
        }
      ],
      "name": "supportsInterface",
      "outputs": [
        {
          "internalType": "bool",
          "name": "",
          "type": "bool"
        }
      ],
      "stateMutability": "view",
      "type": "function"
    },
    {
      "inputs": [],
      "name": "symbol",
      "outputs": [
        {
          "internalType": "string",
          "name": "",
          "type": "string"
        }
      ],
      "stateMutability": "view",
      "type": "function"
    },
    {
      "inputs": [
        {
          "internalType": "uint256",
          "name": "index",
          "type": "uint256"
        }
      ],
      "name": "tokenByIndex",
      "outputs": [
        {
          "internalType": "uint256",
          "name": "",
          "type": "uint256"
        }
      ],
      "stateMutability": "view",
      "type": "function"
    },
    {
      "inputs": [
        {
          "internalType": "address",
          "name": "owner",
          "type": "address"
        },
        {
          "internalType": "uint256",
          "name": "index",
          "type": "uint256"
        }
      ],
      "name": "tokenOfOwnerByIndex",
      "outputs": [
        {
          "internalType": "uint256",
          "name": "",
          "type": "uint256"
        }
      ],
      "stateMutability": "view",
      "type": "function"
    },
    {
      "inputs": [
        {
          "internalType": "uint256",
          "name": "tokenId",
          "type": "uint256"
        }
      ],
      "name": "tokenURI",
      "outputs": [
        {
          "internalType": "string",
          "name": "",
          "type": "string"
        }
      ],
      "stateMutability": "view",
      "type": "function"
    },
    {
      "inputs": [],
      "name": "totalSupply",
      "outputs": [
        {
          "internalType": "uint256",
          "name": "",
          "type": "uint256"
        }
      ],
      "stateMutability": "view",
      "type": "function"
    },
    {
      "inputs": [
        {
          "internalType": "address",
          "name": "from",
          "type": "address"
        },
        {
          "internalType": "address",
          "name": "to",
          "type": "address"
        },
        {
          "internalType": "uint256",
          "name": "tokenId",
          "type": "uint256"
        }
      ],
      "name": "transferFrom",
      "outputs": [],
      "stateMutability": "nonpayable",
      "type": "function"
    },
    {
      "inputs": [
        {
          "internalType": "address",
          "name": "target",
          "type": "address"
        }
      ],
      "name": "transferOwnership",
      "outputs": [],
      "stateMutability": "nonpayable",
      "type": "function"
    }
  ],
  "bytecode": "0x60806040523480156200001157600080fd5b506040516200340f3803806200340f833981810160405260608110156200003757600080fd5b81019080805160405193929190846401000000008211156200005857600080fd5b9083019060208201858111156200006e57600080fd5b82516401000000008111828201881017156200008957600080fd5b82525081516020918201929091019080838360005b83811015620000b85781810151838201526020016200009e565b50505050905090810190601f168015620000e65780820380516001836020036101000a031916815260200191505b50604052602001805160405193929190846401000000008211156200010a57600080fd5b9083019060208201858111156200012057600080fd5b82516401000000008111828201881017156200013b57600080fd5b82525081516020918201929091019080838360005b838110156200016a57818101518382015260200162000150565b50505050905090810190601f168015620001985780820380516001836020036101000a031916815260200191505b506040526020015191508190508383620001d27f01ffc9a700000000000000000000000000000000000000000000000000000000620003f6565b8151620001e79060069060208501906200062d565b508051620001fd9060079060208401906200062d565b50620002297f80ac58cd00000000000000000000000000000000000000000000000000000000620003f6565b620002547f5b5e139f00000000000000000000000000000000000000000000000000000000620003f6565b6200027f7f780e9d6300000000000000000000000000000000000000000000000000000000620003f6565b5050600b805482919060ff191660018360028111156200029b57fe5b0217905550620002f77f524f4c453a4f574e4552000000000000000000000000000000000000000000007f524f4c453a41444d494e00000000000000000000000000000000000000000000620004c560201b6200197c1760201c565b6200034e7f524f4c453a57484954454c4953540000000000000000000000000000000000007f524f4c453a4f574e455200000000000000000000000000000000000000000000620004c560201b6200197c1760201c565b6200038e7f524f4c453a41444d494e000000000000000000000000000000000000000000006200037d62000517565b6200051b60201b62000d321760201c565b620003bd7f524f4c453a4f574e4552000000000000000000000000000000000000000000006200037d62000517565b620003ec7f524f4c453a57484954454c4953540000000000000000000000000000000000006200037d62000517565b50505050620006c9565b7fffffffff0000000000000000000000000000000000000000000000000000000080821614156200048857604080517f08c379a000000000000000000000000000000000000000000000000000000000815260206004820152601c60248201527f4552433136353a20696e76616c696420696e7465726661636520696400000000604482015290519081900360640190fd5b7fffffffff00000000000000000000000000000000000000000000000000000000166000908152602081905260409020805460ff19166001179055565b6000828152600a6020526040808220600201549051839285917fbd79b86ffe0ab8e8776151514217cd7cacd52c909f66475c3af44e129f0b00ff9190a46000918252600a602052604090912060020155565b3390565b6200052782826200052b565b5050565b6000828152600a6020908152604090912062000552918390620019ce620005a6821b17901c565b1562000527576200056262000517565b6001600160a01b0316816001600160a01b0316837f2f8788117e7eff1d82e926ec794901d17c78024a50270940304540a733656f0d60405160405180910390a45050565b6000620005bd836001600160a01b038416620005c6565b90505b92915050565b6000620005d4838362000615565b6200060c57508154600181810184556000848152602080822090930184905584548482528286019093526040902091909155620005c0565b506000620005c0565b60009081526001919091016020526040902054151590565b828054600181600116156101000203166002900490600052602060002090601f016020900481019282601f106200067057805160ff1916838001178555620006a0565b82800160010185558215620006a0579182015b82811115620006a057825182559160200191906001019062000683565b50620006ae929150620006b2565b5090565b5b80821115620006ae5760008155600101620006b3565b612d3680620006d96000396000f3fe608060405234801561001057600080fd5b50600436106102415760003560e01c8063510b515811610145578063a22cb465116100bd578063c87b56dd1161008c578063d547741f11610071578063d547741f1461086c578063e985e9c514610898578063f2fde38b146108c657610241565b8063c87b56dd14610832578063ca15c8731461084f57610241565b8063a22cb465146106f8578063a568682614610726578063b29d694714610746578063b88d4fde1461076c57610241565b806370a082311161011457806391d14854116100f957806391d14854146106bc57806395d89b41146106e8578063a217fddf146106f057610241565b806370a08231146106735780639010d07c1461069957610241565b8063510b51581461058b57806355f804b3146105a85780636352211e1461064e5780636c0360eb1461066b57610241565b80632a959b89116101d857806339a3f6e2116101a757806342842e0e1161018c57806342842e0e1461051b57806342966c68146105515780634f6ccce71461056e57610241565b806339a3f6e2146104c957806340c10f19146104ef57610241565b80632a959b89146104135780632f2ff15d146104455780632f745c591461047157806336568abe1461049d57610241565b806318160ddd1161021457806318160ddd1461037d57806323b872dd14610397578063248a9ca3146103cd578063295a5212146103ea57610241565b806301ffc9a71461024657806306fdde0314610299578063081812fc14610316578063095ea7b31461034f575b600080fd5b6102856004803603602081101561025c57600080fd5b50357fffffffff00000000000000000000000000000000000000000000000000000000166108ec565b604080519115158252519081900360200190f35b6102a1610927565b6040805160208082528351818301528351919283929083019185019080838360005b838110156102db5781810151838201526020016102c3565b50505050905090810190601f1680156103085780820380516001836020036101000a031916815260200191505b509250505060405180910390f35b6103336004803603602081101561032c57600080fd5b50356109bd565b604080516001600160a01b039092168252519081900360200190f35b61037b6004803603604081101561036557600080fd5b506001600160a01b038135169060200135610a1f565b005b610385610afa565b60408051918252519081900360200190f35b61037b600480360360608110156103ad57600080fd5b506001600160a01b03813581169160208101359091169060400135610b0b565b610385600480360360208110156103e357600080fd5b5035610b62565b6103f2610b77565b6040518082600281111561040257fe5b815260200191505060405180910390f35b61037b6004803603606081101561042957600080fd5b506001600160a01b038135169060208101359060400135610b80565b61037b6004803603604081101561045b57600080fd5b50803590602001356001600160a01b0316610cd9565b6103856004803603604081101561048757600080fd5b506001600160a01b038135169060200135610d40565b61037b600480360360408110156104b357600080fd5b50803590602001356001600160a01b0316610d6b565b61037b600480360360208110156104df57600080fd5b50356001600160a01b0316610dcc565b61037b6004803603604081101561050557600080fd5b506001600160a01b038135169060200135610e44565b61037b6004803603606081101561053157600080fd5b506001600160a01b03813581169160208101359091169060400135610f88565b61037b6004803603602081101561056757600080fd5b5035610fa3565b6103856004803603602081101561058457600080fd5b50356110d6565b610333600480360360208110156105a157600080fd5b50356110ec565b61037b600480360360208110156105be57600080fd5b8101906020810181356401000000008111156105d957600080fd5b8201836020820111156105eb57600080fd5b8035906020019184600183028401116401000000008311171561060d57600080fd5b91908080601f016020809104026020016040519081016040528093929190818152602001838380828437600092019190915250929550611107945050505050565b6103336004803603602081101561066457600080fd5b503561116a565b6102a1611192565b6103856004803603602081101561068957600080fd5b50356001600160a01b03166111f3565b610333600480360360408110156106af57600080fd5b508035906020013561125b565b610285600480360360408110156106d257600080fd5b50803590602001356001600160a01b0316611273565b6102a161128b565b6103856112ec565b61037b6004803603604081101561070e57600080fd5b506001600160a01b03813516906020013515156112f1565b61037b6004803603602081101561073c57600080fd5b503560ff166113f6565b61037b6004803603602081101561075c57600080fd5b50356001600160a01b0316611471565b61037b6004803603608081101561078257600080fd5b6001600160a01b038235811692602081013590911691604082013591908101906080810160608201356401000000008111156107bd57600080fd5b8201836020820111156107cf57600080fd5b803590602001918460018302840111640100000000831117156107f157600080fd5b91908080601f0160208091040260200160405190810160405280939291908181526020018383808284376000920191909152509295506114e6945050505050565b6102a16004803603602081101561084857600080fd5b503561153e565b6103856004803603602081101561086557600080fd5b50356117c1565b61037b6004803603604081101561088257600080fd5b50803590602001356001600160a01b03166117d8565b610285600480360360408110156108ae57600080fd5b506001600160a01b0381358116916020013516611831565b61037b600480360360208110156108dc57600080fd5b50356001600160a01b031661185f565b7fffffffff00000000000000000000000000000000000000000000000000000000811660009081526020819052604090205460ff165b919050565b60068054604080516020601f60026000196101006001881615020190951694909404938401819004810282018101909252828152606093909290918301828280156109b35780601f10610988576101008083540402835291602001916109b3565b820191906000526020600020905b81548152906001019060200180831161099657829003601f168201915b5050505050905090565b60006109c8826119e3565b610a035760405162461bcd60e51b815260040180806020018281038252602c815260200180612bfc602c913960400191505060405180910390fd5b506000908152600460205260409020546001600160a01b031690565b6000610a2a8261116a565b9050806001600160a01b0316836001600160a01b03161415610a7d5760405162461bcd60e51b8152600401808060200182810382526021815260200180612c806021913960400191505060405180910390fd5b806001600160a01b0316610a8f6119f0565b6001600160a01b03161480610ab05750610ab081610aab6119f0565b611831565b610aeb5760405162461bcd60e51b8152600401808060200182810382526038815260200180612b4f6038913960400191505060405180910390fd5b610af583836119f4565b505050565b6000610b066002611a6f565b905090565b610b1c610b166119f0565b82611a7a565b610b575760405162461bcd60e51b8152600401808060200182810382526031815260200180612ca16031913960400191505060405180910390fd5b610af5838383611b1e565b6000908152600a602052604090206002015490565b600b5460ff1681565b6000600b5460ff166002811115610b9357fe5b1415610bfd57610bb7692927a6229d27aba722a960b11b610bb26119f0565b611273565b610bf8576040805162461bcd60e51b815260206004820152600d60248201526c2922a8aaa4a9229027aba722a960991b604482015290519081900360640190fd5b610c84565b6001600b5460ff166002811115610c1057fe5b1415610c8457610c336d1493d3114e95d2125511531254d560921b610bb26119f0565b610c84576040805162461bcd60e51b815260206004820152601b60248201527f524551554952452053454e44455220494e2057484954454c4953540000000000604482015290519081900360640190fd5b815b818111610cd357610c978482611c6a565b6000818152600c60205260409020805473ffffffffffffffffffffffffffffffffffffffff19166001600160a01b038616179055600101610c86565b50505050565b6000828152600a6020526040902060020154610cf790610bb26119f0565b610d325760405162461bcd60e51b815260040180806020018281038252602f815260200180612a6e602f913960400191505060405180910390fd5b610d3c8282611c84565b5050565b6001600160a01b0382166000908152600160205260408120610d629083611ced565b90505b92915050565b610d736119f0565b6001600160a01b0316816001600160a01b031614610dc25760405162461bcd60e51b815260040180806020018281038252602f815260200180612cd2602f913960400191505060405180910390fd5b610d3c8282611cf9565b610de5692927a6229d27aba722a960b11b610bb26119f0565b610e26576040805162461bcd60e51b815260206004820152600d60248201526c2922a8aaa4a9229027aba722a960991b604482015290519081900360640190fd5b610e416d1493d3114e95d2125511531254d560921b826117d8565b50565b6000600b5460ff166002811115610e5757fe5b1415610ebc57610e76692927a6229d27aba722a960b11b610bb26119f0565b610eb7576040805162461bcd60e51b815260206004820152600d60248201526c2922a8aaa4a9229027aba722a960991b604482015290519081900360640190fd5b610f43565b6001600b5460ff166002811115610ecf57fe5b1415610f4357610ef26d1493d3114e95d2125511531254d560921b610bb26119f0565b610f43576040805162461bcd60e51b815260206004820152601b60248201527f524551554952452053454e44455220494e2057484954454c4953540000000000604482015290519081900360640190fd5b610f4d8282611c6a565b6000908152600c60205260409020805473ffffffffffffffffffffffffffffffffffffffff19166001600160a01b0392909216919091179055565b610af5838383604051806020016040528060008152506114e6565b6000600b5460ff166002811115610fb657fe5b141561101b57610fd5692927a6229d27aba722a960b11b610bb26119f0565b611016576040805162461bcd60e51b815260206004820152600d60248201526c2922a8aaa4a9229027aba722a960991b604482015290519081900360640190fd5b6110a2565b6001600b5460ff16600281111561102e57fe5b14156110a2576110516d1493d3114e95d2125511531254d560921b610bb26119f0565b6110a2576040805162461bcd60e51b815260206004820152601b60248201527f524551554952452053454e44455220494e2057484954454c4953540000000000604482015290519081900360640190fd5b6110ab81611d62565b6000908152600c60205260409020805473ffffffffffffffffffffffffffffffffffffffff19169055565b6000806110e4600284611e2f565b509392505050565b600c602052600090815260409020546001600160a01b031681565b611120692927a6229d27aba722a960b11b610bb26119f0565b611161576040805162461bcd60e51b815260206004820152600d60248201526c2922a8aaa4a9229027aba722a960991b604482015290519081900360640190fd5b610e4181611e4b565b6000610d6582604051806060016040528060298152602001612bb16029913960029190611e5e565b60098054604080516020601f60026000196101006001881615020190951694909404938401819004810282018101909252828152606093909290918301828280156109b35780601f10610988576101008083540402835291602001916109b3565b60006001600160a01b03821661123a5760405162461bcd60e51b815260040180806020018281038252602a815260200180612b87602a913960400191505060405180910390fd5b6001600160a01b0382166000908152600160205260409020610d6590611a6f565b6000828152600a60205260408120610d629083611ced565b6000828152600a60205260408120610d629083611e75565b60078054604080516020601f60026000196101006001881615020190951694909404938401819004810282018101909252828152606093909290918301828280156109b35780601f10610988576101008083540402835291602001916109b3565b600081565b6112f96119f0565b6001600160a01b0316826001600160a01b0316141561135f576040805162461bcd60e51b815260206004820152601960248201527f4552433732313a20617070726f766520746f2063616c6c657200000000000000604482015290519081900360640190fd5b806005600061136c6119f0565b6001600160a01b03908116825260208083019390935260409182016000908120918716808252919093529120805460ff1916921515929092179091556113b06119f0565b6001600160a01b03167f17307eab39ab6107e8899845ad3d59bd9653f200f220920489ca2b5937696c318360405180821515815260200191505060405180910390a35050565b61140f692927a6229d27aba722a960b11b610bb26119f0565b611450576040805162461bcd60e51b815260206004820152600d60248201526c2922a8aaa4a9229027aba722a960991b604482015290519081900360640190fd5b600b805482919060ff1916600183600281111561146957fe5b021790555050565b61148a692927a6229d27aba722a960b11b610bb26119f0565b6114cb576040805162461bcd60e51b815260206004820152600d60248201526c2922a8aaa4a9229027aba722a960991b604482015290519081900360640190fd5b610e416d1493d3114e95d2125511531254d560921b82610d32565b6114f76114f16119f0565b83611a7a565b6115325760405162461bcd60e51b8152600401808060200182810382526031815260200180612ca16031913960400191505060405180910390fd5b610cd384848484611e8a565b6060611549826119e3565b6115845760405162461bcd60e51b815260040180806020018281038252602f815260200180612c51602f913960400191505060405180910390fd5b60008281526008602090815260409182902080548351601f60026000196101006001861615020190931692909204918201849004840281018401909452808452606093928301828280156116195780601f106115ee57610100808354040283529160200191611619565b820191906000526020600020905b8154815290600101906020018083116115fc57829003601f168201915b50505050509050606061162a611192565b905080516000141561163e57509050610922565b8151156116ff5780826040516020018083805190602001908083835b602083106116795780518252601f19909201916020918201910161165a565b51815160209384036101000a600019018019909216911617905285519190930192850191508083835b602083106116c15780518252601f1990920191602091820191016116a2565b6001836020036101000a0380198251168184511680821785525050505050509050019250505060405160208183030381529060405292505050610922565b8061170985611edc565b6040516020018083805190602001908083835b6020831061173b5780518252601f19909201916020918201910161171c565b51815160209384036101000a600019018019909216911617905285519190930192850191508083835b602083106117835780518252601f199092019160209182019101611764565b6001836020036101000a0380198251168184511680821785525050505050509050019250505060405160208183030381529060405292505050919050565b6000818152600a60205260408120610d6590611a6f565b6000828152600a60205260409020600201546117f690610bb26119f0565b610dc25760405162461bcd60e51b8152600401808060200182810382526030815260200180612b1f6030913960400191505060405180910390fd5b6001600160a01b03918216600090815260056020908152604080832093909416825291909152205460ff1690565b611878692927a6229d27aba722a960b11b610bb26119f0565b6118b9576040805162461bcd60e51b815260206004820152600d60248201526c2922a8aaa4a9229027aba722a960991b604482015290519081900360640190fd5b6118e37f524f4c453a41444d494e0000000000000000000000000000000000000000000082610d32565b6118fa692927a6229d27aba722a960b11b82610d32565b6119156d1493d3114e95d2125511531254d560921b82610d32565b6119376d1493d3114e95d2125511531254d560921b6119326119f0565b610d6b565b611950692927a6229d27aba722a960b11b6119326119f0565b610e417f524f4c453a41444d494e000000000000000000000000000000000000000000006119326119f0565b6000828152600a6020526040808220600201549051839285917fbd79b86ffe0ab8e8776151514217cd7cacd52c909f66475c3af44e129f0b00ff9190a46000918252600a602052604090912060020155565b6000610d62836001600160a01b038416611feb565b6000610d65600283612035565b3390565b6000818152600460205260409020805473ffffffffffffffffffffffffffffffffffffffff19166001600160a01b0384169081179091558190611a368261116a565b6001600160a01b03167f8c5be1e5ebec7d5bd14f71427d1e84f3dd0314c0f7b2291e5b200ac8c7c3b92560405160405180910390a45050565b6000610d6582612041565b6000611a85826119e3565b611ac05760405162461bcd60e51b815260040180806020018281038252602c815260200180612af3602c913960400191505060405180910390fd5b6000611acb8361116a565b9050806001600160a01b0316846001600160a01b03161480611b065750836001600160a01b0316611afb846109bd565b6001600160a01b0316145b80611b165750611b168185611831565b949350505050565b826001600160a01b0316611b318261116a565b6001600160a01b031614611b765760405162461bcd60e51b8152600401808060200182810382526029815260200180612c286029913960400191505060405180910390fd5b6001600160a01b038216611bbb5760405162461bcd60e51b8152600401808060200182810382526024815260200180612acf6024913960400191505060405180910390fd5b611bc6838383610af5565b611bd16000826119f4565b6001600160a01b0383166000908152600160205260409020611bf39082612045565b506001600160a01b0382166000908152600160205260409020611c169082612051565b50611c236002828461205d565b5080826001600160a01b0316846001600160a01b03167fddf252ad1be2c89b69c2b068fc378daa952ba7f163c4a11628f55a4df523b3ef60405160405180910390a4505050565b610d3c828260405180602001604052806000815250612073565b6000828152600a60205260409020611c9c90826119ce565b15610d3c57611ca96119f0565b6001600160a01b0316816001600160a01b0316837f2f8788117e7eff1d82e926ec794901d17c78024a50270940304540a733656f0d60405160405180910390a45050565b6000610d6283836120c5565b6000828152600a60205260409020611d119082612129565b15610d3c57611d1e6119f0565b6001600160a01b0316816001600160a01b0316837ff6391f5c32d9c69d2a47ea670b442974b53935d1edc7fd64eb21e047a839171b60405160405180910390a45050565b6000611d6d8261116a565b9050611d7b81600084610af5565b611d866000836119f4565b6000828152600860205260409020546002600019610100600184161502019091160415611dc4576000828152600860205260408120611dc491612974565b6001600160a01b0381166000908152600160205260409020611de69083612045565b50611df260028361213e565b5060405182906000906001600160a01b038416907fddf252ad1be2c89b69c2b068fc378daa952ba7f163c4a11628f55a4df523b3ef908390a45050565b6000808080611e3e868661214a565b9097909650945050505050565b8051610d3c9060099060208401906129b8565b6000611e6b8484846121c5565b90505b9392505050565b6000610d62836001600160a01b03841661228f565b611e95848484611b1e565b611ea1848484846122a7565b610cd35760405162461bcd60e51b8152600401808060200182810382526032815260200180612a9d6032913960400191505060405180910390fd5b606081611f1d575060408051808201909152600181527f30000000000000000000000000000000000000000000000000000000000000006020820152610922565b8160005b8115611f3557600101600a82049150611f21565b60608167ffffffffffffffff81118015611f4e57600080fd5b506040519080825280601f01601f191660200182016040528015611f79576020820181803683370190505b50859350905060001982015b8315611fe257600a840660300160f81b82828060019003935081518110611fa857fe5b60200101907effffffffffffffffffffffffffffffffffffffffffffffffffffffffffffff1916908160001a905350600a84049350611f85565b50949350505050565b6000611ff7838361228f565b61202d57508154600181810184556000848152602080822090930184905584548482528286019093526040902091909155610d65565b506000610d65565b6000610d62838361228f565b5490565b6000610d628383612483565b6000610d628383611feb565b6000611e6b84846001600160a01b038516612549565b61207d83836125e0565b61208a60008484846122a7565b610af55760405162461bcd60e51b8152600401808060200182810382526032815260200180612a9d6032913960400191505060405180910390fd5b815460009082106121075760405162461bcd60e51b8152600401808060200182810382526022815260200180612a4c6022913960400191505060405180910390fd5b82600001828154811061211657fe5b9060005260206000200154905092915050565b6000610d62836001600160a01b038416612483565b6000610d62838361270e565b81546000908190831061218e5760405162461bcd60e51b8152600401808060200182810382526022815260200180612bda6022913960400191505060405180910390fd5b600084600001848154811061219f57fe5b906000526020600020906002020190508060000154816001015492509250509250929050565b600082815260018401602052604081205482816122605760405162461bcd60e51b81526004018080602001828103825283818151815260200191508051906020019080838360005b8381101561222557818101518382015260200161220d565b50505050905090810190601f1680156122525780820380516001836020036101000a031916815260200191505b509250505060405180910390fd5b5084600001600182038154811061227357fe5b9060005260206000209060020201600101549150509392505050565b60009081526001919091016020526040902054151590565b60006122bb846001600160a01b03166127e2565b6122c757506001611b16565b60606124187f150b7a02000000000000000000000000000000000000000000000000000000006122f56119f0565b88878760405160240180856001600160a01b03168152602001846001600160a01b0316815260200183815260200180602001828103825283818151815260200191508051906020019080838360005b8381101561235c578181015183820152602001612344565b50505050905090810190601f1680156123895780820380516001836020036101000a031916815260200191505b5095505050505050604051602081830303815290604052907bffffffffffffffffffffffffffffffffffffffffffffffffffffffff19166020820180517bffffffffffffffffffffffffffffffffffffffffffffffffffffffff8381831617835250505050604051806060016040528060328152602001612a9d603291396001600160a01b03881691906127e8565b9050600081806020019051602081101561243157600080fd5b50517fffffffff00000000000000000000000000000000000000000000000000000000167f150b7a02000000000000000000000000000000000000000000000000000000001492505050949350505050565b6000818152600183016020526040812054801561253f57835460001980830191908101906000908790839081106124b657fe5b90600052602060002001549050808760000184815481106124d357fe5b60009182526020808320909101929092558281526001898101909252604090209084019055865487908061250357fe5b60019003818190600052602060002001600090559055866001016000878152602001908152602001600020600090556001945050505050610d65565b6000915050610d65565b6000828152600184016020526040812054806125ae575050604080518082018252838152602080820184815286546001818101895560008981528481209551600290930290950191825591519082015586548684528188019092529290912055611e6e565b828560000160018303815481106125c157fe5b9060005260206000209060020201600101819055506000915050611e6e565b6001600160a01b03821661263b576040805162461bcd60e51b815260206004820181905260248201527f4552433732313a206d696e7420746f20746865207a65726f2061646472657373604482015290519081900360640190fd5b612644816119e3565b15612696576040805162461bcd60e51b815260206004820152601c60248201527f4552433732313a20746f6b656e20616c7265616479206d696e74656400000000604482015290519081900360640190fd5b6126a260008383610af5565b6001600160a01b03821660009081526001602052604090206126c49082612051565b506126d16002828461205d565b5060405181906001600160a01b038416906000907fddf252ad1be2c89b69c2b068fc378daa952ba7f163c4a11628f55a4df523b3ef908290a45050565b6000818152600183016020526040812054801561253f578354600019808301919081019060009087908390811061274157fe5b906000526020600020906002020190508087600001848154811061276157fe5b6000918252602080832084546002909302019182556001938401549184019190915583548252898301905260409020908401905586548790806127a057fe5b6000828152602080822060026000199094019384020182815560019081018390559290935588815289820190925260408220919091559450610d659350505050565b3b151590565b6060611e6b8484600085856127fc856127e2565b61284d576040805162461bcd60e51b815260206004820152601d60248201527f416464726573733a2063616c6c20746f206e6f6e2d636f6e7472616374000000604482015290519081900360640190fd5b60006060866001600160a01b031685876040518082805190602001908083835b6020831061288c5780518252601f19909201916020918201910161286d565b6001836020036101000a03801982511681845116808217855250505050505090500191505060006040518083038185875af1925050503d80600081146128ee576040519150601f19603f3d011682016040523d82523d6000602084013e6128f3565b606091505b509150915061290382828661290e565b979650505050505050565b6060831561291d575081611e6e565b82511561292d5782518084602001fd5b60405162461bcd60e51b815260206004820181815284516024840152845185939192839260440191908501908083836000831561222557818101518382015260200161220d565b50805460018160011615610100020316600290046000825580601f1061299a5750610e41565b601f016020900490600052602060002090810190610e419190612a36565b828054600181600116156101000203166002900490600052602060002090601f016020900481019282601f106129f957805160ff1916838001178555612a26565b82800160010185558215612a26579182015b82811115612a26578251825591602001919060010190612a0b565b50612a32929150612a36565b5090565b5b80821115612a325760008155600101612a3756fe456e756d657261626c655365743a20696e646578206f7574206f6620626f756e6473416363657373436f6e74726f6c3a2073656e646572206d75737420626520616e2061646d696e20746f206772616e744552433732313a207472616e7366657220746f206e6f6e20455243373231526563656976657220696d706c656d656e7465724552433732313a207472616e7366657220746f20746865207a65726f20616464726573734552433732313a206f70657261746f7220717565727920666f72206e6f6e6578697374656e7420746f6b656e416363657373436f6e74726f6c3a2073656e646572206d75737420626520616e2061646d696e20746f207265766f6b654552433732313a20617070726f76652063616c6c6572206973206e6f74206f776e6572206e6f7220617070726f76656420666f7220616c6c4552433732313a2062616c616e636520717565727920666f7220746865207a65726f20616464726573734552433732313a206f776e657220717565727920666f72206e6f6e6578697374656e7420746f6b656e456e756d657261626c654d61703a20696e646578206f7574206f6620626f756e64734552433732313a20617070726f76656420717565727920666f72206e6f6e6578697374656e7420746f6b656e4552433732313a207472616e73666572206f6620746f6b656e2074686174206973206e6f74206f776e4552433732314d657461646174613a2055524920717565727920666f72206e6f6e6578697374656e7420746f6b656e4552433732313a20617070726f76616c20746f2063757272656e74206f776e65724552433732313a207472616e736665722063616c6c6572206973206e6f74206f776e6572206e6f7220617070726f766564416363657373436f6e74726f6c3a2063616e206f6e6c792072656e6f756e636520726f6c657320666f722073656c66a2646970667358221220f069c395fd92dccd7424022ae264bb4eb49a3ad6fc757d0f94b3f27e164f78f064736f6c634300060c0033",
  "compiler": {
    "name": "solc",
    "version": "0.6.12+commit.27d51765.Emscripten.clang",
    "optimizer": {
      "enabled": true,
      "runs": 2000
    },
    "evmVersion": "petersburg"
  }
}